{"abi":[{"inputs":[{"internalType":"address","name":"_manager","type":"address"}],"name":"addNewManager","outputs":[],"stateMutability":"nonpayable","type":"function"},{"inputs":[{"internalType":"address","name":"","type":"address"}],"name":"existingManager","outputs":[{"internalType":"bool","name":"","type":"bool"}],"stateMutability":"view","type":"function"},{"inputs":[{"internalType":"address","name":"_manager","type":"address"}],"name":"getManager","outputs":[{"internalType":"contract Manager","name":"","type":"address"}],"stateMutability":"nonpayable","type":"function"},{"inputs":[{"internalType":"address","name":"","type":"address"}],"name":"managers","outputs":[{"internalType":"contract Manager","name":"","type":"address"}],"stateMutability":"view","type":"function"}],"devdoc":{"kind":"dev","methods":{},"version":1},"evm":{"assembly":"    /* \"Funding.sol\":1171:1740  contract ManagerFactory {... */\n  mstore(0x40, 0x80)\n  callvalue\n  dup1\n  iszero\n  tag_1\n  jumpi\n  0x00\n  dup1\n  revert\ntag_1:\n  pop\n  dataSize(sub_0)\n  dup1\n  dataOffset(sub_0)\n  0x00\n  codecopy\n  0x00\n  return\nstop\n\nsub_0: assembly {\n        /* \"Funding.sol\":1171:1740  contract ManagerFactory {... */\n      mstore(0x40, 0x80)\n      callvalue\n      dup1\n      iszero\n      tag_1\n      jumpi\n      0x00\n      dup1\n      revert\n    tag_1:\n      pop\n      jumpi(tag_2, lt(calldatasize, 0x04))\n      shr(0xe0, calldataload(0x00))\n      dup1\n      0x3d584063\n      eq\n      tag_3\n      jumpi\n      dup1\n      0x4efc13d4\n      eq\n      tag_4\n      jumpi\n      dup1\n      0x6c2deb6e\n      eq\n      tag_5\n      jumpi\n      dup1\n      0xfdff9b4d\n      eq\n      tag_6\n      jumpi\n    tag_2:\n      0x00\n      dup1\n      revert\n        /* \"Funding.sol\":1537:1737  function getManager(address _manager) external returns(Manager) {... */\n    tag_3:\n      tag_7\n      0x04\n      dup1\n      calldatasize\n      sub\n      dup2\n      add\n      swap1\n      tag_8\n      swap2\n      swap1\n      tag_9\n      jump\t// in\n    tag_8:\n      tag_10\n      jump\t// in\n    tag_7:\n      mload(0x40)\n      tag_11\n      swap2\n      swap1\n      tag_12\n      jump\t// in\n    tag_11:\n      mload(0x40)\n      dup1\n      swap2\n      sub\n      swap1\n      return\n        /* \"Funding.sol\":1308:1529  function addNewManager(address _manager) public {... */\n    tag_4:\n      tag_13\n      0x04\n      dup1\n      calldatasize\n      sub\n      dup2\n      add\n      swap1\n      tag_14\n      swap2\n      swap1\n      tag_9\n      jump\t// in\n    tag_14:\n      tag_15\n      jump\t// in\n    tag_13:\n      stop\n        /* \"Funding.sol\":1252:1299  mapping(address => bool) public existingManager */\n    tag_5:\n      tag_16\n      0x04\n      dup1\n      calldatasize\n      sub\n      dup2\n      add\n      swap1\n      tag_17\n      swap2\n      swap1\n      tag_9\n      jump\t// in\n    tag_17:\n      tag_18\n      jump\t// in\n    tag_16:\n      mload(0x40)\n      tag_19\n      swap2\n      swap1\n      tag_20\n      jump\t// in\n    tag_19:\n      mload(0x40)\n      dup1\n      swap2\n      sub\n      swap1\n      return\n        /* \"Funding.sol\":1202:1245  mapping(address => Manager) public managers */\n    tag_6:\n      tag_21\n      0x04\n      dup1\n      calldatasize\n      sub\n      dup2\n      add\n      swap1\n      tag_22\n      swap2\n      swap1\n      tag_9\n      jump\t// in\n    tag_22:\n      tag_23\n      jump\t// in\n    tag_21:\n      mload(0x40)\n      tag_24\n      swap2\n      swap1\n      tag_12\n      jump\t// in\n    tag_24:\n      mload(0x40)\n      dup1\n      swap2\n      sub\n      swap1\n      return\n        /* \"Funding.sol\":1537:1737  function getManager(address _manager) external returns(Manager) {... */\n    tag_10:\n        /* \"Funding.sol\":1592:1599  Manager */\n      0x00\n        /* \"Funding.sol\":1616:1631  existingManager */\n      0x01\n        /* \"Funding.sol\":1616:1641  existingManager[_manager] */\n      0x00\n        /* \"Funding.sol\":1632:1640  _manager */\n      dup4\n        /* \"Funding.sol\":1616:1641  existingManager[_manager] */\n      0xffffffffffffffffffffffffffffffffffffffff\n      and\n      0xffffffffffffffffffffffffffffffffffffffff\n      and\n      dup2\n      mstore\n      0x20\n      add\n      swap1\n      dup2\n      mstore\n      0x20\n      add\n      0x00\n      keccak256\n      0x00\n      swap1\n      sload\n      swap1\n      0x0100\n      exp\n      swap1\n      div\n      0xff\n      and\n        /* \"Funding.sol\":1612:1692  if(!existingManager[_manager]){... */\n      tag_26\n      jumpi\n        /* \"Funding.sol\":1657:1680  addNewManager(_manager) */\n      tag_27\n        /* \"Funding.sol\":1671:1679  _manager */\n      dup3\n        /* \"Funding.sol\":1657:1670  addNewManager */\n      tag_15\n        /* \"Funding.sol\":1657:1680  addNewManager(_manager) */\n      jump\t// in\n    tag_27:\n        /* \"Funding.sol\":1612:1692  if(!existingManager[_manager]){... */\n    tag_26:\n        /* \"Funding.sol\":1711:1719  managers */\n      0x00\n        /* \"Funding.sol\":1711:1729  managers[_manager] */\n      dup1\n        /* \"Funding.sol\":1720:1728  _manager */\n      dup4\n        /* \"Funding.sol\":1711:1729  managers[_manager] */\n      0xffffffffffffffffffffffffffffffffffffffff\n      and\n      0xffffffffffffffffffffffffffffffffffffffff\n      and\n      dup2\n      mstore\n      0x20\n      add\n      swap1\n      dup2\n      mstore\n      0x20\n      add\n      0x00\n      keccak256\n      0x00\n      swap1\n      sload\n      swap1\n      0x0100\n      exp\n      swap1\n      div\n      0xffffffffffffffffffffffffffffffffffffffff\n      and\n        /* \"Funding.sol\":1704:1729  return managers[_manager] */\n      swap1\n      pop\n        /* \"Funding.sol\":1537:1737  function getManager(address _manager) external returns(Manager) {... */\n      swap2\n      swap1\n      pop\n      jump\t// out\n        /* \"Funding.sol\":1308:1529  function addNewManager(address _manager) public {... */\n    tag_15:\n        /* \"Funding.sol\":1376:1391  existingManager */\n      0x01\n        /* \"Funding.sol\":1376:1401  existingManager[_manager] */\n      0x00\n        /* \"Funding.sol\":1392:1400  _manager */\n      dup3\n        /* \"Funding.sol\":1376:1401  existingManager[_manager] */\n      0xffffffffffffffffffffffffffffffffffffffff\n      and\n      0xffffffffffffffffffffffffffffffffffffffff\n      and\n      dup2\n      mstore\n      0x20\n      add\n      swap1\n      dup2\n      mstore\n      0x20\n      add\n      0x00\n      keccak256\n      0x00\n      swap1\n      sload\n      swap1\n      0x0100\n      exp\n      swap1\n      div\n      0xff\n      and\n        /* \"Funding.sol\":1375:1401  !existingManager[_manager] */\n      iszero\n        /* \"Funding.sol\":1367:1423  require(!existingManager[_manager], \"already a manager\") */\n      tag_29\n      jumpi\n      mload(0x40)\n      0x08c379a000000000000000000000000000000000000000000000000000000000\n      dup2\n      mstore\n      0x04\n      add\n      tag_30\n      swap1\n      tag_31\n      jump\t// in\n    tag_30:\n      mload(0x40)\n      dup1\n      swap2\n      sub\n      swap1\n      revert\n    tag_29:\n        /* \"Funding.sol\":1462:1466  true */\n      0x01\n        /* \"Funding.sol\":1434:1449  existingManager */\n      dup1\n        /* \"Funding.sol\":1434:1459  existingManager[_manager] */\n      0x00\n        /* \"Funding.sol\":1450:1458  _manager */\n      dup4\n        /* \"Funding.sol\":1434:1459  existingManager[_manager] */\n      0xffffffffffffffffffffffffffffffffffffffff\n      and\n      0xffffffffffffffffffffffffffffffffffffffff\n      and\n      dup2\n      mstore\n      0x20\n      add\n      swap1\n      dup2\n      mstore\n      0x20\n      add\n      0x00\n      keccak256\n      0x00\n        /* \"Funding.sol\":1434:1466  existingManager[_manager] = true */\n      0x0100\n      exp\n      dup2\n      sload\n      dup2\n      0xff\n      mul\n      not\n      and\n      swap1\n      dup4\n      iszero\n      iszero\n      mul\n      or\n      swap1\n      sstore\n      pop\n        /* \"Funding.sol\":1512:1520  _manager */\n      dup1\n        /* \"Funding.sol\":1500:1521  new Manager(_manager) */\n      mload(0x40)\n      tag_32\n      swap1\n      tag_33\n      jump\t// in\n    tag_32:\n      tag_34\n      swap2\n      swap1\n      tag_35\n      jump\t// in\n    tag_34:\n      mload(0x40)\n      dup1\n      swap2\n      sub\n      swap1\n      0x00\n      create\n      dup1\n      iszero\n      dup1\n      iszero\n      tag_36\n      jumpi\n      returndatasize\n      0x00\n      dup1\n      returndatacopy\n      revert(0x00, returndatasize)\n    tag_36:\n      pop\n        /* \"Funding.sol\":1479:1487  managers */\n      0x00\n        /* \"Funding.sol\":1479:1497  managers[_manager] */\n      dup1\n        /* \"Funding.sol\":1488:1496  _manager */\n      dup4\n        /* \"Funding.sol\":1479:1497  managers[_manager] */\n      0xffffffffffffffffffffffffffffffffffffffff\n      and\n      0xffffffffffffffffffffffffffffffffffffffff\n      and\n      dup2\n      mstore\n      0x20\n      add\n      swap1\n      dup2\n      mstore\n      0x20\n      add\n      0x00\n      keccak256\n      0x00\n        /* \"Funding.sol\":1479:1521  managers[_manager] = new Manager(_manager) */\n      0x0100\n      exp\n      dup2\n      sload\n      dup2\n      0xffffffffffffffffffffffffffffffffffffffff\n      mul\n      not\n      and\n      swap1\n      dup4\n      0xffffffffffffffffffffffffffffffffffffffff\n      and\n      mul\n      or\n      swap1\n      sstore\n      pop\n        /* \"Funding.sol\":1308:1529  function addNewManager(address _manager) public {... */\n      pop\n      jump\t// out\n        /* \"Funding.sol\":1252:1299  mapping(address => bool) public existingManager */\n    tag_18:\n      mstore(0x20, 0x01)\n      dup1\n      0x00\n      mstore\n      keccak256(0x00, 0x40)\n      0x00\n      swap2\n      pop\n      sload\n      swap1\n      0x0100\n      exp\n      swap1\n      div\n      0xff\n      and\n      dup2\n      jump\t// out\n        /* \"Funding.sol\":1202:1245  mapping(address => Manager) public managers */\n    tag_23:\n      mstore(0x20, 0x00)\n      dup1\n      0x00\n      mstore\n      keccak256(0x00, 0x40)\n      0x00\n      swap2\n      pop\n      sload\n      swap1\n      0x0100\n      exp\n      swap1\n      div\n      0xffffffffffffffffffffffffffffffffffffffff\n      and\n      dup2\n      jump\t// out\n    tag_33:\n      dataSize(sub_0)\n      dup1\n      dataOffset(sub_0)\n      dup4\n      codecopy\n      add\n      swap1\n      jump\t// out\n        /* \"#utility.yul\":88:205   */\n    tag_38:\n        /* \"#utility.yul\":197:198   */\n      0x00\n        /* \"#utility.yul\":194:195   */\n      dup1\n        /* \"#utility.yul\":187:199   */\n      revert\n        /* \"#utility.yul\":334:460   */\n    tag_40:\n        /* \"#utility.yul\":371:378   */\n      0x00\n        /* \"#utility.yul\":411:453   */\n      0xffffffffffffffffffffffffffffffffffffffff\n        /* \"#utility.yul\":404:409   */\n      dup3\n        /* \"#utility.yul\":400:454   */\n      and\n        /* \"#utility.yul\":389:454   */\n      swap1\n      pop\n        /* \"#utility.yul\":334:460   */\n      swap2\n      swap1\n      pop\n      jump\t// out\n        /* \"#utility.yul\":466:562   */\n    tag_41:\n        /* \"#utility.yul\":503:510   */\n      0x00\n        /* \"#utility.yul\":532:556   */\n      tag_61\n        /* \"#utility.yul\":550:555   */\n      dup3\n        /* \"#utility.yul\":532:556   */\n      tag_40\n      jump\t// in\n    tag_61:\n        /* \"#utility.yul\":521:556   */\n      swap1\n      pop\n        /* \"#utility.yul\":466:562   */\n      swap2\n      swap1\n      pop\n      jump\t// out\n        /* \"#utility.yul\":568:690   */\n    tag_42:\n        /* \"#utility.yul\":641:665   */\n      tag_63\n        /* \"#utility.yul\":659:664   */\n      dup2\n        /* \"#utility.yul\":641:665   */\n      tag_41\n      jump\t// in\n    tag_63:\n        /* \"#utility.yul\":634:639   */\n      dup2\n        /* \"#utility.yul\":631:666   */\n      eq\n        /* \"#utility.yul\":621:684   */\n      tag_64\n      jumpi\n        /* \"#utility.yul\":680:681   */\n      0x00\n        /* \"#utility.yul\":677:678   */\n      dup1\n        /* \"#utility.yul\":670:682   */\n      revert\n        /* \"#utility.yul\":621:684   */\n    tag_64:\n        /* \"#utility.yul\":568:690   */\n      pop\n      jump\t// out\n        /* \"#utility.yul\":696:835   */\n    tag_43:\n        /* \"#utility.yul\":742:747   */\n      0x00\n        /* \"#utility.yul\":780:786   */\n      dup2\n        /* \"#utility.yul\":767:787   */\n      calldataload\n        /* \"#utility.yul\":758:787   */\n      swap1\n      pop\n        /* \"#utility.yul\":796:829   */\n      tag_66\n        /* \"#utility.yul\":823:828   */\n      dup2\n        /* \"#utility.yul\":796:829   */\n      tag_42\n      jump\t// in\n    tag_66:\n        /* \"#utility.yul\":696:835   */\n      swap3\n      swap2\n      pop\n      pop\n      jump\t// out\n        /* \"#utility.yul\":841:1170   */\n    tag_9:\n        /* \"#utility.yul\":900:906   */\n      0x00\n        /* \"#utility.yul\":949:951   */\n      0x20\n        /* \"#utility.yul\":937:946   */\n      dup3\n        /* \"#utility.yul\":928:935   */\n      dup5\n        /* \"#utility.yul\":924:947   */\n      sub\n        /* \"#utility.yul\":920:952   */\n      slt\n        /* \"#utility.yul\":917:1036   */\n      iszero\n      tag_68\n      jumpi\n        /* \"#utility.yul\":955:1034   */\n      tag_69\n      tag_38\n      jump\t// in\n    tag_69:\n        /* \"#utility.yul\":917:1036   */\n    tag_68:\n        /* \"#utility.yul\":1075:1076   */\n      0x00\n        /* \"#utility.yul\":1100:1153   */\n      tag_70\n        /* \"#utility.yul\":1145:1152   */\n      dup5\n        /* \"#utility.yul\":1136:1142   */\n      dup3\n        /* \"#utility.yul\":1125:1134   */\n      dup6\n        /* \"#utility.yul\":1121:1143   */\n      add\n        /* \"#utility.yul\":1100:1153   */\n      tag_43\n      jump\t// in\n    tag_70:\n        /* \"#utility.yul\":1090:1153   */\n      swap2\n      pop\n        /* \"#utility.yul\":1046:1163   */\n      pop\n        /* \"#utility.yul\":841:1170   */\n      swap3\n      swap2\n      pop\n      pop\n      jump\t// out\n        /* \"#utility.yul\":1176:1236   */\n    tag_44:\n        /* \"#utility.yul\":1204:1207   */\n      0x00\n        /* \"#utility.yul\":1225:1230   */\n      dup2\n        /* \"#utility.yul\":1218:1230   */\n      swap1\n      pop\n        /* \"#utility.yul\":1176:1236   */\n      swap2\n      swap1\n      pop\n      jump\t// out\n        /* \"#utility.yul\":1242:1384   */\n    tag_45:\n        /* \"#utility.yul\":1292:1301   */\n      0x00\n        /* \"#utility.yul\":1325:1378   */\n      tag_73\n        /* \"#utility.yul\":1343:1377   */\n      tag_74\n        /* \"#utility.yul\":1352:1376   */\n      tag_75\n        /* \"#utility.yul\":1370:1375   */\n      dup5\n        /* \"#utility.yul\":1352:1376   */\n      tag_40\n      jump\t// in\n    tag_75:\n        /* \"#utility.yul\":1343:1377   */\n      tag_44\n      jump\t// in\n    tag_74:\n        /* \"#utility.yul\":1325:1378   */\n      tag_40\n      jump\t// in\n    tag_73:\n        /* \"#utility.yul\":1312:1378   */\n      swap1\n      pop\n        /* \"#utility.yul\":1242:1384   */\n      swap2\n      swap1\n      pop\n      jump\t// out\n        /* \"#utility.yul\":1390:1516   */\n    tag_46:\n        /* \"#utility.yul\":1440:1449   */\n      0x00\n        /* \"#utility.yul\":1473:1510   */\n      tag_77\n        /* \"#utility.yul\":1504:1509   */\n      dup3\n        /* \"#utility.yul\":1473:1510   */\n      tag_45\n      jump\t// in\n    tag_77:\n        /* \"#utility.yul\":1460:1510   */\n      swap1\n      pop\n        /* \"#utility.yul\":1390:1516   */\n      swap2\n      swap1\n      pop\n      jump\t// out\n        /* \"#utility.yul\":1522:1663   */\n    tag_47:\n        /* \"#utility.yul\":1587:1596   */\n      0x00\n        /* \"#utility.yul\":1620:1657   */\n      tag_79\n        /* \"#utility.yul\":1651:1656   */\n      dup3\n        /* \"#utility.yul\":1620:1657   */\n      tag_46\n      jump\t// in\n    tag_79:\n        /* \"#utility.yul\":1607:1657   */\n      swap1\n      pop\n        /* \"#utility.yul\":1522:1663   */\n      swap2\n      swap1\n      pop\n      jump\t// out\n        /* \"#utility.yul\":1669:1830   */\n    tag_48:\n        /* \"#utility.yul\":1771:1823   */\n      tag_81\n        /* \"#utility.yul\":1817:1822   */\n      dup2\n        /* \"#utility.yul\":1771:1823   */\n      tag_47\n      jump\t// in\n    tag_81:\n        /* \"#utility.yul\":1766:1769   */\n      dup3\n        /* \"#utility.yul\":1759:1824   */\n      mstore\n        /* \"#utility.yul\":1669:1830   */\n      pop\n      pop\n      jump\t// out\n        /* \"#utility.yul\":1836:2088   */\n    tag_12:\n        /* \"#utility.yul\":1944:1948   */\n      0x00\n        /* \"#utility.yul\":1982:1984   */\n      0x20\n        /* \"#utility.yul\":1971:1980   */\n      dup3\n        /* \"#utility.yul\":1967:1985   */\n      add\n        /* \"#utility.yul\":1959:1985   */\n      swap1\n      pop\n        /* \"#utility.yul\":1995:2081   */\n      tag_83\n        /* \"#utility.yul\":2078:2079   */\n      0x00\n        /* \"#utility.yul\":2067:2076   */\n      dup4\n        /* \"#utility.yul\":2063:2080   */\n      add\n        /* \"#utility.yul\":2054:2060   */\n      dup5\n        /* \"#utility.yul\":1995:2081   */\n      tag_48\n      jump\t// in\n    tag_83:\n        /* \"#utility.yul\":1836:2088   */\n      swap3\n      swap2\n      pop\n      pop\n      jump\t// out\n        /* \"#utility.yul\":2094:2184   */\n    tag_49:\n        /* \"#utility.yul\":2128:2135   */\n      0x00\n        /* \"#utility.yul\":2171:2176   */\n      dup2\n        /* \"#utility.yul\":2164:2177   */\n      iszero\n        /* \"#utility.yul\":2157:2178   */\n      iszero\n        /* \"#utility.yul\":2146:2178   */\n      swap1\n      pop\n        /* \"#utility.yul\":2094:2184   */\n      swap2\n      swap1\n      pop\n      jump\t// out\n        /* \"#utility.yul\":2190:2299   */\n    tag_50:\n        /* \"#utility.yul\":2271:2292   */\n      tag_86\n        /* \"#utility.yul\":2286:2291   */\n      dup2\n        /* \"#utility.yul\":2271:2292   */\n      tag_49\n      jump\t// in\n    tag_86:\n        /* \"#utility.yul\":2266:2269   */\n      dup3\n        /* \"#utility.yul\":2259:2293   */\n      mstore\n        /* \"#utility.yul\":2190:2299   */\n      pop\n      pop\n      jump\t// out\n        /* \"#utility.yul\":2305:2515   */\n    tag_20:\n        /* \"#utility.yul\":2392:2396   */\n      0x00\n        /* \"#utility.yul\":2430:2432   */\n      0x20\n        /* \"#utility.yul\":2419:2428   */\n      dup3\n        /* \"#utility.yul\":2415:2433   */\n      add\n        /* \"#utility.yul\":2407:2433   */\n      swap1\n      pop\n        /* \"#utility.yul\":2443:2508   */\n      tag_88\n        /* \"#utility.yul\":2505:2506   */\n      0x00\n        /* \"#utility.yul\":2494:2503   */\n      dup4\n        /* \"#utility.yul\":2490:2507   */\n      add\n        /* \"#utility.yul\":2481:2487   */\n      dup5\n        /* \"#utility.yul\":2443:2508   */\n      tag_50\n      jump\t// in\n    tag_88:\n        /* \"#utility.yul\":2305:2515   */\n      swap3\n      swap2\n      pop\n      pop\n      jump\t// out\n        /* \"#utility.yul\":2521:2690   */\n    tag_51:\n        /* \"#utility.yul\":2605:2616   */\n      0x00\n        /* \"#utility.yul\":2639:2645   */\n      dup3\n        /* \"#utility.yul\":2634:2637   */\n      dup3\n        /* \"#utility.yul\":2627:2646   */\n      mstore\n        /* \"#utility.yul\":2679:2683   */\n      0x20\n        /* \"#utility.yul\":2674:2677   */\n      dup3\n        /* \"#utility.yul\":2670:2684   */\n      add\n        /* \"#utility.yul\":2655:2684   */\n      swap1\n      pop\n        /* \"#utility.yul\":2521:2690   */\n      swap3\n      swap2\n      pop\n      pop\n      jump\t// out\n        /* \"#utility.yul\":2696:2863   */\n    tag_52:\n        /* \"#utility.yul\":2836:2855   */\n      0x616c72656164792061206d616e61676572000000000000000000000000000000\n        /* \"#utility.yul\":2832:2833   */\n      0x00\n        /* \"#utility.yul\":2824:2830   */\n      dup3\n        /* \"#utility.yul\":2820:2834   */\n      add\n        /* \"#utility.yul\":2813:2856   */\n      mstore\n        /* \"#utility.yul\":2696:2863   */\n      pop\n      jump\t// out\n        /* \"#utility.yul\":2869:3235   */\n    tag_53:\n        /* \"#utility.yul\":3011:3014   */\n      0x00\n        /* \"#utility.yul\":3032:3099   */\n      tag_92\n        /* \"#utility.yul\":3096:3098   */\n      0x11\n        /* \"#utility.yul\":3091:3094   */\n      dup4\n        /* \"#utility.yul\":3032:3099   */\n      tag_51\n      jump\t// in\n    tag_92:\n        /* \"#utility.yul\":3025:3099   */\n      swap2\n      pop\n        /* \"#utility.yul\":3108:3201   */\n      tag_93\n        /* \"#utility.yul\":3197:3200   */\n      dup3\n        /* \"#utility.yul\":3108:3201   */\n      tag_52\n      jump\t// in\n    tag_93:\n        /* \"#utility.yul\":3226:3228   */\n      0x20\n        /* \"#utility.yul\":3221:3224   */\n      dup3\n        /* \"#utility.yul\":3217:3229   */\n      add\n        /* \"#utility.yul\":3210:3229   */\n      swap1\n      pop\n        /* \"#utility.yul\":2869:3235   */\n      swap2\n      swap1\n      pop\n      jump\t// out\n        /* \"#utility.yul\":3241:3660   */\n    tag_31:\n        /* \"#utility.yul\":3407:3411   */\n      0x00\n        /* \"#utility.yul\":3445:3447   */\n      0x20\n        /* \"#utility.yul\":3434:3443   */\n      dup3\n        /* \"#utility.yul\":3430:3448   */\n      add\n        /* \"#utility.yul\":3422:3448   */\n      swap1\n      pop\n        /* \"#utility.yul\":3494:3503   */\n      dup2\n        /* \"#utility.yul\":3488:3492   */\n      dup2\n        /* \"#utility.yul\":3484:3504   */\n      sub\n        /* \"#utility.yul\":3480:3481   */\n      0x00\n        /* \"#utility.yul\":3469:3478   */\n      dup4\n        /* \"#utility.yul\":3465:3482   */\n      add\n        /* \"#utility.yul\":3458:3505   */\n      mstore\n        /* \"#utility.yul\":3522:3653   */\n      tag_95\n        /* \"#utility.yul\":3648:3652   */\n      dup2\n        /* \"#utility.yul\":3522:3653   */\n      tag_53\n      jump\t// in\n    tag_95:\n        /* \"#utility.yul\":3514:3653   */\n      swap1\n      pop\n        /* \"#utility.yul\":3241:3660   */\n      swap2\n      swap1\n      pop\n      jump\t// out\n        /* \"#utility.yul\":3666:3784   */\n    tag_54:\n        /* \"#utility.yul\":3753:3777   */\n      tag_97\n        /* \"#utility.yul\":3771:3776   */\n      dup2\n        /* \"#utility.yul\":3753:3777   */\n      tag_41\n      jump\t// in\n    tag_97:\n        /* \"#utility.yul\":3748:3751   */\n      dup3\n        /* \"#utility.yul\":3741:3778   */\n      mstore\n        /* \"#utility.yul\":3666:3784   */\n      pop\n      pop\n      jump\t// out\n        /* \"#utility.yul\":3790:4012   */\n    tag_35:\n        /* \"#utility.yul\":3883:3887   */\n      0x00\n        /* \"#utility.yul\":3921:3923   */\n      0x20\n        /* \"#utility.yul\":3910:3919   */\n      dup3\n        /* \"#utility.yul\":3906:3924   */\n      add\n        /* \"#utility.yul\":3898:3924   */\n      swap1\n      pop\n        /* \"#utility.yul\":3934:4005   */\n      tag_99\n        /* \"#utility.yul\":4002:4003   */\n      0x00\n        /* \"#utility.yul\":3991:4000   */\n      dup4\n        /* \"#utility.yul\":3987:4004   */\n      add\n        /* \"#utility.yul\":3978:3984   */\n      dup5\n        /* \"#utility.yul\":3934:4005   */\n      tag_54\n      jump\t// in\n    tag_99:\n        /* \"#utility.yul\":3790:4012   */\n      swap3\n      swap2\n      pop\n      pop\n      jump\t// out\n    stop\n\n    sub_0: assembly {\n            /* \"Funding.sol\":66:1167  contract Manager {... */\n          mstore(0x40, 0x80)\n            /* \"Funding.sol\":340:491  constructor(address _id) {... */\n          callvalue\n          dup1\n          iszero\n          tag_1\n          jumpi\n          0x00\n          dup1\n          revert\n        tag_1:\n          pop\n          mload(0x40)\n          sub(codesize, bytecodeSize)\n          dup1\n          bytecodeSize\n          dup4\n          codecopy\n          dup2\n          dup2\n          add\n          0x40\n          mstore\n          dup2\n          add\n          swap1\n          tag_2\n          swap2\n          swap1\n          tag_3\n          jump\t// in\n        tag_2:\n            /* \"Funding.sol\":381:384  _id */\n          dup1\n            /* \"Funding.sol\":376:378  id */\n          0x00\n          dup1\n            /* \"Funding.sol\":376:384  id = _id */\n          0x0100\n          exp\n          dup2\n          sload\n          dup2\n          0xffffffffffffffffffffffffffffffffffffffff\n          mul\n          not\n          and\n          swap1\n          dup4\n          0xffffffffffffffffffffffffffffffffffffffff\n          and\n          mul\n          or\n          swap1\n          sstore\n          pop\n            /* \"Funding.sol\":414:415  0 */\n          0x00\n            /* \"Funding.sol\":395:411  currentRatingSum */\n          0x02\n            /* \"Funding.sol\":395:415  currentRatingSum = 0 */\n          dup2\n          swap1\n          sstore\n          pop\n            /* \"Funding.sol\":435:436  0 */\n          0x00\n            /* \"Funding.sol\":426:432  rating */\n          0x03\n            /* \"Funding.sol\":426:436  rating = 0 */\n          dup2\n          swap1\n          sstore\n          pop\n            /* \"Funding.sol\":456:457  0 */\n          0x00\n            /* \"Funding.sol\":447:453  raters */\n          0x04\n            /* \"Funding.sol\":447:457  raters = 0 */\n          dup2\n          swap1\n          sstore\n          pop\n            /* \"Funding.sol\":478:483  false */\n          0x00\n            /* \"Funding.sol\":468:475  holding */\n          0x05\n          0x00\n            /* \"Funding.sol\":468:483  holding = false */\n          0x0100\n          exp\n          dup2\n          sload\n          dup2\n          0xff\n          mul\n          not\n          and\n          swap1\n          dup4\n          iszero\n          iszero\n          mul\n          or\n          swap1\n          sstore\n          pop\n            /* \"Funding.sol\":340:491  constructor(address _id) {... */\n          pop\n            /* \"Funding.sol\":66:1167  contract Manager {... */\n          jump(tag_6)\n            /* \"#utility.yul\":88:205   */\n        tag_8:\n            /* \"#utility.yul\":197:198   */\n          0x00\n            /* \"#utility.yul\":194:195   */\n          dup1\n            /* \"#utility.yul\":187:199   */\n          revert\n            /* \"#utility.yul\":334:460   */\n        tag_10:\n            /* \"#utility.yul\":371:378   */\n          0x00\n            /* \"#utility.yul\":411:453   */\n          0xffffffffffffffffffffffffffffffffffffffff\n            /* \"#utility.yul\":404:409   */\n          dup3\n            /* \"#utility.yul\":400:454   */\n          and\n            /* \"#utility.yul\":389:454   */\n          swap1\n          pop\n            /* \"#utility.yul\":334:460   */\n          swap2\n          swap1\n          pop\n          jump\t// out\n            /* \"#utility.yul\":466:562   */\n        tag_11:\n            /* \"#utility.yul\":503:510   */\n          0x00\n            /* \"#utility.yul\":532:556   */\n          tag_20\n            /* \"#utility.yul\":550:555   */\n          dup3\n            /* \"#utility.yul\":532:556   */\n          tag_10\n          jump\t// in\n        tag_20:\n            /* \"#utility.yul\":521:556   */\n          swap1\n          pop\n            /* \"#utility.yul\":466:562   */\n          swap2\n          swap1\n          pop\n          jump\t// out\n            /* \"#utility.yul\":568:690   */\n        tag_12:\n            /* \"#utility.yul\":641:665   */\n          tag_22\n            /* \"#utility.yul\":659:664   */\n          dup2\n            /* \"#utility.yul\":641:665   */\n          tag_11\n          jump\t// in\n        tag_22:\n            /* \"#utility.yul\":634:639   */\n          dup2\n            /* \"#utility.yul\":631:666   */\n          eq\n            /* \"#utility.yul\":621:684   */\n          tag_23\n          jumpi\n            /* \"#utility.yul\":680:681   */\n          0x00\n            /* \"#utility.yul\":677:678   */\n          dup1\n            /* \"#utility.yul\":670:682   */\n          revert\n            /* \"#utility.yul\":621:684   */\n        tag_23:\n            /* \"#utility.yul\":568:690   */\n          pop\n          jump\t// out\n            /* \"#utility.yul\":696:839   */\n        tag_13:\n            /* \"#utility.yul\":753:758   */\n          0x00\n            /* \"#utility.yul\":784:790   */\n          dup2\n            /* \"#utility.yul\":778:791   */\n          mload\n            /* \"#utility.yul\":769:791   */\n          swap1\n          pop\n            /* \"#utility.yul\":800:833   */\n          tag_25\n            /* \"#utility.yul\":827:832   */\n          dup2\n            /* \"#utility.yul\":800:833   */\n          tag_12\n          jump\t// in\n        tag_25:\n            /* \"#utility.yul\":696:839   */\n          swap3\n          swap2\n          pop\n          pop\n          jump\t// out\n            /* \"#utility.yul\":845:1196   */\n        tag_3:\n            /* \"#utility.yul\":915:921   */\n          0x00\n            /* \"#utility.yul\":964:966   */\n          0x20\n            /* \"#utility.yul\":952:961   */\n          dup3\n            /* \"#utility.yul\":943:950   */\n          dup5\n            /* \"#utility.yul\":939:962   */\n          sub\n            /* \"#utility.yul\":935:967   */\n          slt\n            /* \"#utility.yul\":932:1051   */\n          iszero\n          tag_27\n          jumpi\n            /* \"#utility.yul\":970:1049   */\n          tag_28\n          tag_8\n          jump\t// in\n        tag_28:\n            /* \"#utility.yul\":932:1051   */\n        tag_27:\n            /* \"#utility.yul\":1090:1091   */\n          0x00\n            /* \"#utility.yul\":1115:1179   */\n          tag_29\n            /* \"#utility.yul\":1171:1178   */\n          dup5\n            /* \"#utility.yul\":1162:1168   */\n          dup3\n            /* \"#utility.yul\":1151:1160   */\n          dup6\n            /* \"#utility.yul\":1147:1169   */\n          add\n            /* \"#utility.yul\":1115:1179   */\n          tag_13\n          jump\t// in\n        tag_29:\n            /* \"#utility.yul\":1105:1179   */\n          swap2\n          pop\n            /* \"#utility.yul\":1061:1189   */\n          pop\n            /* \"#utility.yul\":845:1196   */\n          swap3\n          swap2\n          pop\n          pop\n          jump\t// out\n            /* \"Funding.sol\":66:1167  contract Manager {... */\n        tag_6:\n          dataSize(sub_0)\n          dup1\n          dataOffset(sub_0)\n          0x00\n          codecopy\n          0x00\n          return\n        stop\n\n        sub_0: assembly {\n                /* \"Funding.sol\":66:1167  contract Manager {... */\n              mstore(0x40, 0x80)\n              callvalue\n              dup1\n              iszero\n              tag_1\n              jumpi\n              0x00\n              dup1\n              revert\n            tag_1:\n              pop\n              jumpi(tag_2, lt(calldatasize, 0x04))\n              shr(0xe0, calldataload(0x00))\n              dup1\n              0x9e01dfbb\n              gt\n              tag_15\n              jumpi\n              dup1\n              0x9e01dfbb\n              eq\n              tag_9\n              jumpi\n              dup1\n              0xaf640d0f\n              eq\n              tag_10\n              jumpi\n              dup1\n              0xcb6ff4a3\n              eq\n              tag_11\n              jumpi\n              dup1\n              0xd2a5bfaa\n              eq\n              tag_12\n              jumpi\n              dup1\n              0xe7ee6ad6\n              eq\n              tag_13\n              jumpi\n              dup1\n              0xeced5526\n              eq\n              tag_14\n              jumpi\n              jump(tag_2)\n            tag_15:\n              dup1\n              0x02cff5c5\n              eq\n              tag_3\n              jumpi\n              dup1\n              0x30672c6b\n              eq\n              tag_4\n              jumpi\n              dup1\n              0x3498858d\n              eq\n              tag_5\n              jumpi\n              dup1\n              0x5bb16154\n              eq\n              tag_6\n              jumpi\n              dup1\n              0x80f474f6\n              eq\n              tag_7\n              jumpi\n              dup1\n              0x86f67568\n              eq\n              tag_8\n              jumpi\n            tag_2:\n              0x00\n              dup1\n              revert\n                /* \"Funding.sol\":927:995  function removeHolding() external {... */\n            tag_3:\n              tag_16\n              tag_17\n              jump\t// in\n            tag_16:\n              stop\n                /* \"Funding.sol\":220:238  uint public raters */\n            tag_4:\n              tag_18\n              tag_19\n              jump\t// in\n            tag_18:\n              mload(0x40)\n              tag_20\n              swap2\n              swap1\n              tag_21\n              jump\t// in\n            tag_20:\n              mload(0x40)\n              dup1\n              swap2\n              sub\n              swap1\n              return\n                /* \"Funding.sol\":245:264  bool public holding */\n            tag_5:\n              tag_22\n              tag_23\n              jump\t// in\n            tag_22:\n              mload(0x40)\n              tag_24\n              swap2\n              swap1\n              tag_25\n              jump\t// in\n            tag_24:\n              mload(0x40)\n              dup1\n              swap2\n              sub\n              swap1\n              return\n                /* \"Funding.sol\":160:188  uint public currentRatingSum */\n            tag_6:\n              tag_26\n              tag_27\n              jump\t// in\n            tag_26:\n              mload(0x40)\n              tag_28\n              swap2\n              swap1\n              tag_21\n              jump\t// in\n            tag_28:\n              mload(0x40)\n              dup1\n              swap2\n              sub\n              swap1\n              return\n                /* \"Funding.sol\":195:213  uint public rating */\n            tag_7:\n              tag_29\n              tag_30\n              jump\t// in\n            tag_29:\n              mload(0x40)\n              tag_31\n              swap2\n              swap1\n              tag_21\n              jump\t// in\n            tag_31:\n              mload(0x40)\n              dup1\n              swap2\n              sub\n              swap1\n              return\n                /* \"Funding.sol\":1003:1067  function addHolding() external {... */\n            tag_8:\n              tag_32\n              tag_33\n              jump\t// in\n            tag_32:\n              stop\n                /* \"Funding.sol\":114:153  mapping(address => uint) public ratings */\n            tag_9:\n              tag_34\n              0x04\n              dup1\n              calldatasize\n              sub\n              dup2\n              add\n              swap1\n              tag_35\n              swap2\n              swap1\n              tag_36\n              jump\t// in\n            tag_35:\n              tag_37\n              jump\t// in\n            tag_34:\n              mload(0x40)\n              tag_38\n              swap2\n              swap1\n              tag_21\n              jump\t// in\n            tag_38:\n              mload(0x40)\n              dup1\n              swap2\n              sub\n              swap1\n              return\n                /* \"Funding.sol\":90:107  address public id */\n            tag_10:\n              tag_39\n              tag_40\n              jump\t// in\n            tag_39:\n              mload(0x40)\n              tag_41\n              swap2\n              swap1\n              tag_42\n              jump\t// in\n            tag_41:\n              mload(0x40)\n              dup1\n              swap2\n              sub\n              swap1\n              return\n                /* \"Funding.sol\":1075:1164  function addTotalBans() external {... */\n            tag_11:\n              tag_43\n              tag_44\n              jump\t// in\n            tag_43:\n              stop\n                /* \"Funding.sol\":271:292  uint public totalBans */\n            tag_12:\n              tag_45\n              tag_46\n              jump\t// in\n            tag_45:\n              mload(0x40)\n              tag_47\n              swap2\n              swap1\n              tag_21\n              jump\t// in\n            tag_47:\n              mload(0x40)\n              dup1\n              swap2\n              sub\n              swap1\n              return\n                /* \"Funding.sol\":499:919  function rate(uint _rate) external {... */\n            tag_13:\n              tag_48\n              0x04\n              dup1\n              calldatasize\n              sub\n              dup2\n              add\n              swap1\n              tag_49\n              swap2\n              swap1\n              tag_50\n              jump\t// in\n            tag_49:\n              tag_51\n              jump\t// in\n            tag_48:\n              stop\n                /* \"Funding.sol\":301:331  uint public constant SCALE = 5 */\n            tag_14:\n              tag_52\n              tag_53\n              jump\t// in\n            tag_52:\n              mload(0x40)\n              tag_54\n              swap2\n              swap1\n              tag_21\n              jump\t// in\n            tag_54:\n              mload(0x40)\n              dup1\n              swap2\n              sub\n              swap1\n              return\n                /* \"Funding.sol\":927:995  function removeHolding() external {... */\n            tag_17:\n                /* \"Funding.sol\":982:987  false */\n              0x00\n                /* \"Funding.sol\":972:979  holding */\n              0x05\n              0x00\n                /* \"Funding.sol\":972:987  holding = false */\n              0x0100\n              exp\n              dup2\n              sload\n              dup2\n              0xff\n              mul\n              not\n              and\n              swap1\n              dup4\n              iszero\n              iszero\n              mul\n              or\n              swap1\n              sstore\n              pop\n                /* \"Funding.sol\":927:995  function removeHolding() external {... */\n              jump\t// out\n                /* \"Funding.sol\":220:238  uint public raters */\n            tag_19:\n              sload(0x04)\n              dup2\n              jump\t// out\n                /* \"Funding.sol\":245:264  bool public holding */\n            tag_23:\n              0x05\n              0x00\n              swap1\n              sload\n              swap1\n              0x0100\n              exp\n              swap1\n              div\n              0xff\n              and\n              dup2\n              jump\t// out\n                /* \"Funding.sol\":160:188  uint public currentRatingSum */\n            tag_27:\n              sload(0x02)\n              dup2\n              jump\t// out\n                /* \"Funding.sol\":195:213  uint public rating */\n            tag_30:\n              sload(0x03)\n              dup2\n              jump\t// out\n                /* \"Funding.sol\":1003:1067  function addHolding() external {... */\n            tag_33:\n                /* \"Funding.sol\":1055:1059  true */\n              0x01\n                /* \"Funding.sol\":1045:1052  holding */\n              0x05\n              0x00\n                /* \"Funding.sol\":1045:1059  holding = true */\n              0x0100\n              exp\n              dup2\n              sload\n              dup2\n              0xff\n              mul\n              not\n              and\n              swap1\n              dup4\n              iszero\n              iszero\n              mul\n              or\n              swap1\n              sstore\n              pop\n                /* \"Funding.sol\":1003:1067  function addHolding() external {... */\n              jump\t// out\n                /* \"Funding.sol\":114:153  mapping(address => uint) public ratings */\n            tag_37:\n              mstore(0x20, 0x01)\n              dup1\n              0x00\n              mstore\n              keccak256(0x00, 0x40)\n              0x00\n              swap2\n              pop\n              swap1\n              pop\n              sload\n              dup2\n              jump\t// out\n                /* \"Funding.sol\":90:107  address public id */\n            tag_40:\n              0x00\n              dup1\n              sload\n              swap1\n              0x0100\n              exp\n              swap1\n              div\n              0xffffffffffffffffffffffffffffffffffffffff\n              and\n              dup2\n              jump\t// out\n                /* \"Funding.sol\":1075:1164  function addTotalBans() external {... */\n            tag_44:\n                /* \"Funding.sol\":1119:1128  totalBans */\n              0x06\n              0x00\n                /* \"Funding.sol\":1119:1130  totalBans++ */\n              dup2\n              sload\n              dup1\n              swap3\n              swap2\n              swap1\n              tag_58\n              swap1\n              tag_59\n              jump\t// in\n            tag_58:\n              swap2\n              swap1\n              pop\n              sstore\n              pop\n                /* \"Funding.sol\":1151:1156  false */\n              0x00\n                /* \"Funding.sol\":1141:1148  holding */\n              0x05\n              0x00\n                /* \"Funding.sol\":1141:1156  holding = false */\n              0x0100\n              exp\n              dup2\n              sload\n              dup2\n              0xff\n              mul\n              not\n              and\n              swap1\n              dup4\n              iszero\n              iszero\n              mul\n              or\n              swap1\n              sstore\n              pop\n                /* \"Funding.sol\":1075:1164  function addTotalBans() external {... */\n              jump\t// out\n                /* \"Funding.sol\":271:292  uint public totalBans */\n            tag_46:\n              sload(0x06)\n              dup2\n              jump\t// out\n                /* \"Funding.sol\":499:919  function rate(uint _rate) external {... */\n            tag_51:\n                /* \"Funding.sol\":567:569  id */\n              0x00\n              dup1\n              sload\n              swap1\n              0x0100\n              exp\n              swap1\n              div\n              0xffffffffffffffffffffffffffffffffffffffff\n              and\n                /* \"Funding.sol\":553:569  msg.sender != id */\n              0xffffffffffffffffffffffffffffffffffffffff\n              and\n                /* \"Funding.sol\":553:563  msg.sender */\n              caller\n                /* \"Funding.sol\":553:569  msg.sender != id */\n              0xffffffffffffffffffffffffffffffffffffffff\n              and\n              eq\n              iszero\n                /* \"Funding.sol\":545:593  require(msg.sender != id, \"can't rate yourself\") */\n              tag_61\n              jumpi\n              mload(0x40)\n              0x08c379a000000000000000000000000000000000000000000000000000000000\n              dup2\n              mstore\n              0x04\n              add\n              tag_62\n              swap1\n              tag_63\n              jump\t// in\n            tag_62:\n              mload(0x40)\n              dup1\n              swap2\n              sub\n              swap1\n              revert\n            tag_61:\n                /* \"Funding.sol\":620:621  0 */\n              0x00\n                /* \"Funding.sol\":612:617  _rate */\n              dup2\n                /* \"Funding.sol\":612:621  _rate > 0 */\n              gt\n                /* \"Funding.sol\":612:639  _rate > 0 && _rate <= SCALE */\n              dup1\n              iszero\n              tag_64\n              jumpi\n              pop\n                /* \"Funding.sol\":330:331  5 */\n              0x05\n                /* \"Funding.sol\":625:630  _rate */\n              dup2\n                /* \"Funding.sol\":625:639  _rate <= SCALE */\n              gt\n              iszero\n                /* \"Funding.sol\":612:639  _rate > 0 && _rate <= SCALE */\n            tag_64:\n                /* \"Funding.sol\":604:663  require(_rate > 0 && _rate <= SCALE, \"out of range rating\") */\n              tag_65\n              jumpi\n              mload(0x40)\n              0x08c379a000000000000000000000000000000000000000000000000000000000\n              dup2\n              mstore\n              0x04\n              add\n              tag_66\n              swap1\n              tag_67\n              jump\t// in\n            tag_66:\n              mload(0x40)\n              dup1\n              swap2\n              sub\n              swap1\n              revert\n            tag_65:\n                /* \"Funding.sol\":702:703  0 */\n              0x00\n                /* \"Funding.sol\":679:686  ratings */\n              0x01\n                /* \"Funding.sol\":679:698  ratings[msg.sender] */\n              0x00\n                /* \"Funding.sol\":687:697  msg.sender */\n              caller\n                /* \"Funding.sol\":679:698  ratings[msg.sender] */\n              0xffffffffffffffffffffffffffffffffffffffff\n              and\n              0xffffffffffffffffffffffffffffffffffffffff\n              and\n              dup2\n              mstore\n              0x20\n              add\n              swap1\n              dup2\n              mstore\n              0x20\n              add\n              0x00\n              keccak256\n              sload\n                /* \"Funding.sol\":679:703  ratings[msg.sender] == 0 */\n              eq\n                /* \"Funding.sol\":676:739  if(ratings[msg.sender] == 0){... */\n              iszero\n              tag_68\n              jumpi\n                /* \"Funding.sol\":719:725  raters */\n              0x04\n              0x00\n                /* \"Funding.sol\":719:727  raters++ */\n              dup2\n              sload\n              dup1\n              swap3\n              swap2\n              swap1\n              tag_69\n              swap1\n              tag_59\n              jump\t// in\n            tag_69:\n              swap2\n              swap1\n              pop\n              sstore\n              pop\n                /* \"Funding.sol\":676:739  if(ratings[msg.sender] == 0){... */\n            tag_68:\n                /* \"Funding.sol\":771:778  ratings */\n              0x01\n                /* \"Funding.sol\":771:790  ratings[msg.sender] */\n              0x00\n                /* \"Funding.sol\":779:789  msg.sender */\n              caller\n                /* \"Funding.sol\":771:790  ratings[msg.sender] */\n              0xffffffffffffffffffffffffffffffffffffffff\n              and\n              0xffffffffffffffffffffffffffffffffffffffff\n              and\n              dup2\n              mstore\n              0x20\n              add\n              swap1\n              dup2\n              mstore\n              0x20\n              add\n              0x00\n              keccak256\n              sload\n                /* \"Funding.sol\":751:767  currentRatingSum */\n              0x02\n              0x00\n                /* \"Funding.sol\":751:790  currentRatingSum -= ratings[msg.sender] */\n              dup3\n              dup3\n              sload\n              tag_70\n              swap2\n              swap1\n              tag_71\n              jump\t// in\n            tag_70:\n              swap3\n              pop\n              pop\n              dup2\n              swap1\n              sstore\n              pop\n                /* \"Funding.sol\":821:826  _rate */\n              dup1\n                /* \"Funding.sol\":801:817  currentRatingSum */\n              0x02\n              0x00\n                /* \"Funding.sol\":801:826  currentRatingSum += _rate */\n              dup3\n              dup3\n              sload\n              tag_72\n              swap2\n              swap1\n              tag_73\n              jump\t// in\n            tag_72:\n              swap3\n              pop\n              pop\n              dup2\n              swap1\n              sstore\n              pop\n                /* \"Funding.sol\":861:866  _rate */\n              dup1\n                /* \"Funding.sol\":839:846  ratings */\n              0x01\n                /* \"Funding.sol\":839:858  ratings[msg.sender] */\n              0x00\n                /* \"Funding.sol\":847:857  msg.sender */\n              caller\n                /* \"Funding.sol\":839:858  ratings[msg.sender] */\n              0xffffffffffffffffffffffffffffffffffffffff\n              and\n              0xffffffffffffffffffffffffffffffffffffffff\n              and\n              dup2\n              mstore\n              0x20\n              add\n              swap1\n              dup2\n              mstore\n              0x20\n              add\n              0x00\n              keccak256\n                /* \"Funding.sol\":839:866  ratings[msg.sender] = _rate */\n              dup2\n              swap1\n              sstore\n              pop\n                /* \"Funding.sol\":905:911  raters */\n              sload(0x04)\n                /* \"Funding.sol\":888:904  currentRatingSum */\n              sload(0x02)\n                /* \"Funding.sol\":888:911  currentRatingSum/raters */\n              tag_74\n              swap2\n              swap1\n              tag_75\n              jump\t// in\n            tag_74:\n                /* \"Funding.sol\":879:885  rating */\n              0x03\n                /* \"Funding.sol\":879:911  rating = currentRatingSum/raters */\n              dup2\n              swap1\n              sstore\n              pop\n                /* \"Funding.sol\":499:919  function rate(uint _rate) external {... */\n              pop\n              jump\t// out\n                /* \"Funding.sol\":301:331  uint public constant SCALE = 5 */\n            tag_53:\n                /* \"Funding.sol\":330:331  5 */\n              0x05\n                /* \"Funding.sol\":301:331  uint public constant SCALE = 5 */\n              dup2\n              jump\t// out\n                /* \"#utility.yul\":7:84   */\n            tag_76:\n                /* \"#utility.yul\":44:51   */\n              0x00\n                /* \"#utility.yul\":73:78   */\n              dup2\n                /* \"#utility.yul\":62:78   */\n              swap1\n              pop\n                /* \"#utility.yul\":7:84   */\n              swap2\n              swap1\n              pop\n              jump\t// out\n                /* \"#utility.yul\":90:208   */\n            tag_77:\n                /* \"#utility.yul\":177:201   */\n              tag_100\n                /* \"#utility.yul\":195:200   */\n              dup2\n                /* \"#utility.yul\":177:201   */\n              tag_76\n              jump\t// in\n            tag_100:\n                /* \"#utility.yul\":172:175   */\n              dup3\n                /* \"#utility.yul\":165:202   */\n              mstore\n                /* \"#utility.yul\":90:208   */\n              pop\n              pop\n              jump\t// out\n                /* \"#utility.yul\":214:436   */\n            tag_21:\n                /* \"#utility.yul\":307:311   */\n              0x00\n                /* \"#utility.yul\":345:347   */\n              0x20\n                /* \"#utility.yul\":334:343   */\n              dup3\n                /* \"#utility.yul\":330:348   */\n              add\n                /* \"#utility.yul\":322:348   */\n              swap1\n              pop\n                /* \"#utility.yul\":358:429   */\n              tag_102\n                /* \"#utility.yul\":426:427   */\n              0x00\n                /* \"#utility.yul\":415:424   */\n              dup4\n                /* \"#utility.yul\":411:428   */\n              add\n                /* \"#utility.yul\":402:408   */\n              dup5\n                /* \"#utility.yul\":358:429   */\n              tag_77\n              jump\t// in\n            tag_102:\n                /* \"#utility.yul\":214:436   */\n              swap3\n              swap2\n              pop\n              pop\n              jump\t// out\n                /* \"#utility.yul\":442:532   */\n            tag_78:\n                /* \"#utility.yul\":476:483   */\n              0x00\n                /* \"#utility.yul\":519:524   */\n              dup2\n                /* \"#utility.yul\":512:525   */\n              iszero\n                /* \"#utility.yul\":505:526   */\n              iszero\n                /* \"#utility.yul\":494:526   */\n              swap1\n              pop\n                /* \"#utility.yul\":442:532   */\n              swap2\n              swap1\n              pop\n              jump\t// out\n                /* \"#utility.yul\":538:647   */\n            tag_79:\n                /* \"#utility.yul\":619:640   */\n              tag_105\n                /* \"#utility.yul\":634:639   */\n              dup2\n                /* \"#utility.yul\":619:640   */\n              tag_78\n              jump\t// in\n            tag_105:\n                /* \"#utility.yul\":614:617   */\n              dup3\n                /* \"#utility.yul\":607:641   */\n              mstore\n                /* \"#utility.yul\":538:647   */\n              pop\n              pop\n              jump\t// out\n                /* \"#utility.yul\":653:863   */\n            tag_25:\n                /* \"#utility.yul\":740:744   */\n              0x00\n                /* \"#utility.yul\":778:780   */\n              0x20\n                /* \"#utility.yul\":767:776   */\n              dup3\n                /* \"#utility.yul\":763:781   */\n              add\n                /* \"#utility.yul\":755:781   */\n              swap1\n              pop\n                /* \"#utility.yul\":791:856   */\n              tag_107\n                /* \"#utility.yul\":853:854   */\n              0x00\n                /* \"#utility.yul\":842:851   */\n              dup4\n                /* \"#utility.yul\":838:855   */\n              add\n                /* \"#utility.yul\":829:835   */\n              dup5\n                /* \"#utility.yul\":791:856   */\n              tag_79\n              jump\t// in\n            tag_107:\n                /* \"#utility.yul\":653:863   */\n              swap3\n              swap2\n              pop\n              pop\n              jump\t// out\n                /* \"#utility.yul\":950:1067   */\n            tag_81:\n                /* \"#utility.yul\":1059:1060   */\n              0x00\n                /* \"#utility.yul\":1056:1057   */\n              dup1\n                /* \"#utility.yul\":1049:1061   */\n              revert\n                /* \"#utility.yul\":1196:1322   */\n            tag_83:\n                /* \"#utility.yul\":1233:1240   */\n              0x00\n                /* \"#utility.yul\":1273:1315   */\n              0xffffffffffffffffffffffffffffffffffffffff\n                /* \"#utility.yul\":1266:1271   */\n              dup3\n                /* \"#utility.yul\":1262:1316   */\n              and\n                /* \"#utility.yul\":1251:1316   */\n              swap1\n              pop\n                /* \"#utility.yul\":1196:1322   */\n              swap2\n              swap1\n              pop\n              jump\t// out\n                /* \"#utility.yul\":1328:1424   */\n            tag_84:\n                /* \"#utility.yul\":1365:1372   */\n              0x00\n                /* \"#utility.yul\":1394:1418   */\n              tag_113\n                /* \"#utility.yul\":1412:1417   */\n              dup3\n                /* \"#utility.yul\":1394:1418   */\n              tag_83\n              jump\t// in\n            tag_113:\n                /* \"#utility.yul\":1383:1418   */\n              swap1\n              pop\n                /* \"#utility.yul\":1328:1424   */\n              swap2\n              swap1\n              pop\n              jump\t// out\n                /* \"#utility.yul\":1430:1552   */\n            tag_85:\n                /* \"#utility.yul\":1503:1527   */\n              tag_115\n                /* \"#utility.yul\":1521:1526   */\n              dup2\n                /* \"#utility.yul\":1503:1527   */\n              tag_84\n              jump\t// in\n            tag_115:\n                /* \"#utility.yul\":1496:1501   */\n              dup2\n                /* \"#utility.yul\":1493:1528   */\n              eq\n                /* \"#utility.yul\":1483:1546   */\n              tag_116\n              jumpi\n                /* \"#utility.yul\":1542:1543   */\n              0x00\n                /* \"#utility.yul\":1539:1540   */\n              dup1\n                /* \"#utility.yul\":1532:1544   */\n              revert\n                /* \"#utility.yul\":1483:1546   */\n            tag_116:\n                /* \"#utility.yul\":1430:1552   */\n              pop\n              jump\t// out\n                /* \"#utility.yul\":1558:1697   */\n            tag_86:\n                /* \"#utility.yul\":1604:1609   */\n              0x00\n                /* \"#utility.yul\":1642:1648   */\n              dup2\n                /* \"#utility.yul\":1629:1649   */\n              calldataload\n                /* \"#utility.yul\":1620:1649   */\n              swap1\n              pop\n                /* \"#utility.yul\":1658:1691   */\n              tag_118\n                /* \"#utility.yul\":1685:1690   */\n              dup2\n                /* \"#utility.yul\":1658:1691   */\n              tag_85\n              jump\t// in\n            tag_118:\n                /* \"#utility.yul\":1558:1697   */\n              swap3\n              swap2\n              pop\n              pop\n              jump\t// out\n                /* \"#utility.yul\":1703:2032   */\n            tag_36:\n                /* \"#utility.yul\":1762:1768   */\n              0x00\n                /* \"#utility.yul\":1811:1813   */\n              0x20\n                /* \"#utility.yul\":1799:1808   */\n              dup3\n                /* \"#utility.yul\":1790:1797   */\n              dup5\n                /* \"#utility.yul\":1786:1809   */\n              sub\n                /* \"#utility.yul\":1782:1814   */\n              slt\n                /* \"#utility.yul\":1779:1898   */\n              iszero\n              tag_120\n              jumpi\n                /* \"#utility.yul\":1817:1896   */\n              tag_121\n              tag_81\n              jump\t// in\n            tag_121:\n                /* \"#utility.yul\":1779:1898   */\n            tag_120:\n                /* \"#utility.yul\":1937:1938   */\n              0x00\n                /* \"#utility.yul\":1962:2015   */\n              tag_122\n                /* \"#utility.yul\":2007:2014   */\n              dup5\n                /* \"#utility.yul\":1998:2004   */\n              dup3\n                /* \"#utility.yul\":1987:1996   */\n              dup6\n                /* \"#utility.yul\":1983:2005   */\n              add\n                /* \"#utility.yul\":1962:2015   */\n              tag_86\n              jump\t// in\n            tag_122:\n                /* \"#utility.yul\":1952:2015   */\n              swap2\n              pop\n                /* \"#utility.yul\":1908:2025   */\n              pop\n                /* \"#utility.yul\":1703:2032   */\n              swap3\n              swap2\n              pop\n              pop\n              jump\t// out\n                /* \"#utility.yul\":2038:2156   */\n            tag_87:\n                /* \"#utility.yul\":2125:2149   */\n              tag_124\n                /* \"#utility.yul\":2143:2148   */\n              dup2\n                /* \"#utility.yul\":2125:2149   */\n              tag_84\n              jump\t// in\n            tag_124:\n                /* \"#utility.yul\":2120:2123   */\n              dup3\n                /* \"#utility.yul\":2113:2150   */\n              mstore\n                /* \"#utility.yul\":2038:2156   */\n              pop\n              pop\n              jump\t// out\n                /* \"#utility.yul\":2162:2384   */\n            tag_42:\n                /* \"#utility.yul\":2255:2259   */\n              0x00\n                /* \"#utility.yul\":2293:2295   */\n              0x20\n                /* \"#utility.yul\":2282:2291   */\n              dup3\n                /* \"#utility.yul\":2278:2296   */\n              add\n                /* \"#utility.yul\":2270:2296   */\n              swap1\n              pop\n                /* \"#utility.yul\":2306:2377   */\n              tag_126\n                /* \"#utility.yul\":2374:2375   */\n              0x00\n                /* \"#utility.yul\":2363:2372   */\n              dup4\n                /* \"#utility.yul\":2359:2376   */\n              add\n                /* \"#utility.yul\":2350:2356   */\n              dup5\n                /* \"#utility.yul\":2306:2377   */\n              tag_87\n              jump\t// in\n            tag_126:\n                /* \"#utility.yul\":2162:2384   */\n              swap3\n              swap2\n              pop\n              pop\n              jump\t// out\n                /* \"#utility.yul\":2390:2512   */\n            tag_88:\n                /* \"#utility.yul\":2463:2487   */\n              tag_128\n                /* \"#utility.yul\":2481:2486   */\n              dup2\n                /* \"#utility.yul\":2463:2487   */\n              tag_76\n              jump\t// in\n            tag_128:\n                /* \"#utility.yul\":2456:2461   */\n              dup2\n                /* \"#utility.yul\":2453:2488   */\n              eq\n                /* \"#utility.yul\":2443:2506   */\n              tag_129\n              jumpi\n                /* \"#utility.yul\":2502:2503   */\n              0x00\n                /* \"#utility.yul\":2499:2500   */\n              dup1\n                /* \"#utility.yul\":2492:2504   */\n              revert\n                /* \"#utility.yul\":2443:2506   */\n            tag_129:\n                /* \"#utility.yul\":2390:2512   */\n              pop\n              jump\t// out\n                /* \"#utility.yul\":2518:2657   */\n            tag_89:\n                /* \"#utility.yul\":2564:2569   */\n              0x00\n                /* \"#utility.yul\":2602:2608   */\n              dup2\n                /* \"#utility.yul\":2589:2609   */\n              calldataload\n                /* \"#utility.yul\":2580:2609   */\n              swap1\n              pop\n                /* \"#utility.yul\":2618:2651   */\n              tag_131\n                /* \"#utility.yul\":2645:2650   */\n              dup2\n                /* \"#utility.yul\":2618:2651   */\n              tag_88\n              jump\t// in\n            tag_131:\n                /* \"#utility.yul\":2518:2657   */\n              swap3\n              swap2\n              pop\n              pop\n              jump\t// out\n                /* \"#utility.yul\":2663:2992   */\n            tag_50:\n                /* \"#utility.yul\":2722:2728   */\n              0x00\n                /* \"#utility.yul\":2771:2773   */\n              0x20\n                /* \"#utility.yul\":2759:2768   */\n              dup3\n                /* \"#utility.yul\":2750:2757   */\n              dup5\n                /* \"#utility.yul\":2746:2769   */\n              sub\n                /* \"#utility.yul\":2742:2774   */\n              slt\n                /* \"#utility.yul\":2739:2858   */\n              iszero\n              tag_133\n              jumpi\n                /* \"#utility.yul\":2777:2856   */\n              tag_134\n              tag_81\n              jump\t// in\n            tag_134:\n                /* \"#utility.yul\":2739:2858   */\n            tag_133:\n                /* \"#utility.yul\":2897:2898   */\n              0x00\n                /* \"#utility.yul\":2922:2975   */\n              tag_135\n                /* \"#utility.yul\":2967:2974   */\n              dup5\n                /* \"#utility.yul\":2958:2964   */\n              dup3\n                /* \"#utility.yul\":2947:2956   */\n              dup6\n                /* \"#utility.yul\":2943:2965   */\n              add\n                /* \"#utility.yul\":2922:2975   */\n              tag_89\n              jump\t// in\n            tag_135:\n                /* \"#utility.yul\":2912:2975   */\n              swap2\n              pop\n                /* \"#utility.yul\":2868:2985   */\n              pop\n                /* \"#utility.yul\":2663:2992   */\n              swap3\n              swap2\n              pop\n              pop\n              jump\t// out\n                /* \"#utility.yul\":2998:3178   */\n            tag_90:\n                /* \"#utility.yul\":3046:3123   */\n              0x4e487b7100000000000000000000000000000000000000000000000000000000\n                /* \"#utility.yul\":3043:3044   */\n              0x00\n                /* \"#utility.yul\":3036:3124   */\n              mstore\n                /* \"#utility.yul\":3143:3147   */\n              0x11\n                /* \"#utility.yul\":3140:3141   */\n              0x04\n                /* \"#utility.yul\":3133:3148   */\n              mstore\n                /* \"#utility.yul\":3167:3171   */\n              0x24\n                /* \"#utility.yul\":3164:3165   */\n              0x00\n                /* \"#utility.yul\":3157:3172   */\n              revert\n                /* \"#utility.yul\":3184:3417   */\n            tag_59:\n                /* \"#utility.yul\":3223:3226   */\n              0x00\n                /* \"#utility.yul\":3246:3270   */\n              tag_138\n                /* \"#utility.yul\":3264:3269   */\n              dup3\n                /* \"#utility.yul\":3246:3270   */\n              tag_76\n              jump\t// in\n            tag_138:\n                /* \"#utility.yul\":3237:3270   */\n              swap2\n              pop\n                /* \"#utility.yul\":3292:3358   */\n              0xffffffffffffffffffffffffffffffffffffffffffffffffffffffffffffffff\n                /* \"#utility.yul\":3285:3290   */\n              dup3\n                /* \"#utility.yul\":3282:3359   */\n              eq\n                /* \"#utility.yul\":3279:3382   */\n              iszero\n              tag_139\n              jumpi\n                /* \"#utility.yul\":3362:3380   */\n              tag_140\n              tag_90\n              jump\t// in\n            tag_140:\n                /* \"#utility.yul\":3279:3382   */\n            tag_139:\n                /* \"#utility.yul\":3409:3410   */\n              0x01\n                /* \"#utility.yul\":3402:3407   */\n              dup3\n                /* \"#utility.yul\":3398:3411   */\n              add\n                /* \"#utility.yul\":3391:3411   */\n              swap1\n              pop\n                /* \"#utility.yul\":3184:3417   */\n              swap2\n              swap1\n              pop\n              jump\t// out\n                /* \"#utility.yul\":3423:3592   */\n            tag_91:\n                /* \"#utility.yul\":3507:3518   */\n              0x00\n                /* \"#utility.yul\":3541:3547   */\n              dup3\n                /* \"#utility.yul\":3536:3539   */\n              dup3\n                /* \"#utility.yul\":3529:3548   */\n              mstore\n                /* \"#utility.yul\":3581:3585   */\n              0x20\n                /* \"#utility.yul\":3576:3579   */\n              dup3\n                /* \"#utility.yul\":3572:3586   */\n              add\n                /* \"#utility.yul\":3557:3586   */\n              swap1\n              pop\n                /* \"#utility.yul\":3423:3592   */\n              swap3\n              swap2\n              pop\n              pop\n              jump\t// out\n                /* \"#utility.yul\":3598:3767   */\n            tag_92:\n                /* \"#utility.yul\":3738:3759   */\n              0x63616e2774207261746520796f757273656c6600000000000000000000000000\n                /* \"#utility.yul\":3734:3735   */\n              0x00\n                /* \"#utility.yul\":3726:3732   */\n              dup3\n                /* \"#utility.yul\":3722:3736   */\n              add\n                /* \"#utility.yul\":3715:3760   */\n              mstore\n                /* \"#utility.yul\":3598:3767   */\n              pop\n              jump\t// out\n                /* \"#utility.yul\":3773:4139   */\n            tag_93:\n                /* \"#utility.yul\":3915:3918   */\n              0x00\n                /* \"#utility.yul\":3936:4003   */\n              tag_144\n                /* \"#utility.yul\":4000:4002   */\n              0x13\n                /* \"#utility.yul\":3995:3998   */\n              dup4\n                /* \"#utility.yul\":3936:4003   */\n              tag_91\n              jump\t// in\n            tag_144:\n                /* \"#utility.yul\":3929:4003   */\n              swap2\n              pop\n                /* \"#utility.yul\":4012:4105   */\n              tag_145\n                /* \"#utility.yul\":4101:4104   */\n              dup3\n                /* \"#utility.yul\":4012:4105   */\n              tag_92\n              jump\t// in\n            tag_145:\n                /* \"#utility.yul\":4130:4132   */\n              0x20\n                /* \"#utility.yul\":4125:4128   */\n              dup3\n                /* \"#utility.yul\":4121:4133   */\n              add\n                /* \"#utility.yul\":4114:4133   */\n              swap1\n              pop\n                /* \"#utility.yul\":3773:4139   */\n              swap2\n              swap1\n              pop\n              jump\t// out\n                /* \"#utility.yul\":4145:4564   */\n            tag_63:\n                /* \"#utility.yul\":4311:4315   */\n              0x00\n                /* \"#utility.yul\":4349:4351   */\n              0x20\n                /* \"#utility.yul\":4338:4347   */\n              dup3\n                /* \"#utility.yul\":4334:4352   */\n              add\n                /* \"#utility.yul\":4326:4352   */\n              swap1\n              pop\n                /* \"#utility.yul\":4398:4407   */\n              dup2\n                /* \"#utility.yul\":4392:4396   */\n              dup2\n                /* \"#utility.yul\":4388:4408   */\n              sub\n                /* \"#utility.yul\":4384:4385   */\n              0x00\n                /* \"#utility.yul\":4373:4382   */\n              dup4\n                /* \"#utility.yul\":4369:4386   */\n              add\n                /* \"#utility.yul\":4362:4409   */\n              mstore\n                /* \"#utility.yul\":4426:4557   */\n              tag_147\n                /* \"#utility.yul\":4552:4556   */\n              dup2\n                /* \"#utility.yul\":4426:4557   */\n              tag_93\n              jump\t// in\n            tag_147:\n                /* \"#utility.yul\":4418:4557   */\n              swap1\n              pop\n                /* \"#utility.yul\":4145:4564   */\n              swap2\n              swap1\n              pop\n              jump\t// out\n                /* \"#utility.yul\":4570:4739   */\n            tag_94:\n                /* \"#utility.yul\":4710:4731   */\n              0x6f7574206f662072616e676520726174696e6700000000000000000000000000\n                /* \"#utility.yul\":4706:4707   */\n              0x00\n                /* \"#utility.yul\":4698:4704   */\n              dup3\n                /* \"#utility.yul\":4694:4708   */\n              add\n                /* \"#utility.yul\":4687:4732   */\n              mstore\n                /* \"#utility.yul\":4570:4739   */\n              pop\n              jump\t// out\n                /* \"#utility.yul\":4745:5111   */\n            tag_95:\n                /* \"#utility.yul\":4887:4890   */\n              0x00\n                /* \"#utility.yul\":4908:4975   */\n              tag_150\n                /* \"#utility.yul\":4972:4974   */\n              0x13\n                /* \"#utility.yul\":4967:4970   */\n              dup4\n                /* \"#utility.yul\":4908:4975   */\n              tag_91\n              jump\t// in\n            tag_150:\n                /* \"#utility.yul\":4901:4975   */\n              swap2\n              pop\n                /* \"#utility.yul\":4984:5077   */\n              tag_151\n                /* \"#utility.yul\":5073:5076   */\n              dup3\n                /* \"#utility.yul\":4984:5077   */\n              tag_94\n              jump\t// in\n            tag_151:\n                /* \"#utility.yul\":5102:5104   */\n              0x20\n                /* \"#utility.yul\":5097:5100   */\n              dup3\n                /* \"#utility.yul\":5093:5105   */\n              add\n                /* \"#utility.yul\":5086:5105   */\n              swap1\n              pop\n                /* \"#utility.yul\":4745:5111   */\n              swap2\n              swap1\n              pop\n              jump\t// out\n                /* \"#utility.yul\":5117:5536   */\n            tag_67:\n                /* \"#utility.yul\":5283:5287   */\n              0x00\n                /* \"#utility.yul\":5321:5323   */\n              0x20\n                /* \"#utility.yul\":5310:5319   */\n              dup3\n                /* \"#utility.yul\":5306:5324   */\n              add\n                /* \"#utility.yul\":5298:5324   */\n              swap1\n              pop\n                /* \"#utility.yul\":5370:5379   */\n              dup2\n                /* \"#utility.yul\":5364:5368   */\n              dup2\n                /* \"#utility.yul\":5360:5380   */\n              sub\n                /* \"#utility.yul\":5356:5357   */\n              0x00\n                /* \"#utility.yul\":5345:5354   */\n              dup4\n                /* \"#utility.yul\":5341:5358   */\n              add\n                /* \"#utility.yul\":5334:5381   */\n              mstore\n                /* \"#utility.yul\":5398:5529   */\n              tag_153\n                /* \"#utility.yul\":5524:5528   */\n              dup2\n                /* \"#utility.yul\":5398:5529   */\n              tag_95\n              jump\t// in\n            tag_153:\n                /* \"#utility.yul\":5390:5529   */\n              swap1\n              pop\n                /* \"#utility.yul\":5117:5536   */\n              swap2\n              swap1\n              pop\n              jump\t// out\n                /* \"#utility.yul\":5542:5733   */\n            tag_71:\n                /* \"#utility.yul\":5582:5586   */\n              0x00\n                /* \"#utility.yul\":5602:5622   */\n              tag_155\n                /* \"#utility.yul\":5620:5621   */\n              dup3\n                /* \"#utility.yul\":5602:5622   */\n              tag_76\n              jump\t// in\n            tag_155:\n                /* \"#utility.yul\":5597:5622   */\n              swap2\n              pop\n                /* \"#utility.yul\":5636:5656   */\n              tag_156\n                /* \"#utility.yul\":5654:5655   */\n              dup4\n                /* \"#utility.yul\":5636:5656   */\n              tag_76\n              jump\t// in\n            tag_156:\n                /* \"#utility.yul\":5631:5656   */\n              swap3\n              pop\n                /* \"#utility.yul\":5675:5676   */\n              dup3\n                /* \"#utility.yul\":5672:5673   */\n              dup3\n                /* \"#utility.yul\":5669:5677   */\n              lt\n                /* \"#utility.yul\":5666:5700   */\n              iszero\n              tag_157\n              jumpi\n                /* \"#utility.yul\":5680:5698   */\n              tag_158\n              tag_90\n              jump\t// in\n            tag_158:\n                /* \"#utility.yul\":5666:5700   */\n            tag_157:\n                /* \"#utility.yul\":5725:5726   */\n              dup3\n                /* \"#utility.yul\":5722:5723   */\n              dup3\n                /* \"#utility.yul\":5718:5727   */\n              sub\n                /* \"#utility.yul\":5710:5727   */\n              swap1\n              pop\n                /* \"#utility.yul\":5542:5733   */\n              swap3\n              swap2\n              pop\n              pop\n              jump\t// out\n                /* \"#utility.yul\":5739:6044   */\n            tag_73:\n                /* \"#utility.yul\":5779:5782   */\n              0x00\n                /* \"#utility.yul\":5798:5818   */\n              tag_160\n                /* \"#utility.yul\":5816:5817   */\n              dup3\n                /* \"#utility.yul\":5798:5818   */\n              tag_76\n              jump\t// in\n            tag_160:\n                /* \"#utility.yul\":5793:5818   */\n              swap2\n              pop\n                /* \"#utility.yul\":5832:5852   */\n              tag_161\n                /* \"#utility.yul\":5850:5851   */\n              dup4\n                /* \"#utility.yul\":5832:5852   */\n              tag_76\n              jump\t// in\n            tag_161:\n                /* \"#utility.yul\":5827:5852   */\n              swap3\n              pop\n                /* \"#utility.yul\":5986:5987   */\n              dup3\n                /* \"#utility.yul\":5918:5984   */\n              0xffffffffffffffffffffffffffffffffffffffffffffffffffffffffffffffff\n                /* \"#utility.yul\":5914:5988   */\n              sub\n                /* \"#utility.yul\":5911:5912   */\n              dup3\n                /* \"#utility.yul\":5908:5989   */\n              gt\n                /* \"#utility.yul\":5905:6012   */\n              iszero\n              tag_162\n              jumpi\n                /* \"#utility.yul\":5992:6010   */\n              tag_163\n              tag_90\n              jump\t// in\n            tag_163:\n                /* \"#utility.yul\":5905:6012   */\n            tag_162:\n                /* \"#utility.yul\":6036:6037   */\n              dup3\n                /* \"#utility.yul\":6033:6034   */\n              dup3\n                /* \"#utility.yul\":6029:6038   */\n              add\n                /* \"#utility.yul\":6022:6038   */\n              swap1\n              pop\n                /* \"#utility.yul\":5739:6044   */\n              swap3\n              swap2\n              pop\n              pop\n              jump\t// out\n                /* \"#utility.yul\":6050:6230   */\n            tag_96:\n                /* \"#utility.yul\":6098:6175   */\n              0x4e487b7100000000000000000000000000000000000000000000000000000000\n                /* \"#utility.yul\":6095:6096   */\n              0x00\n                /* \"#utility.yul\":6088:6176   */\n              mstore\n                /* \"#utility.yul\":6195:6199   */\n              0x12\n                /* \"#utility.yul\":6192:6193   */\n              0x04\n                /* \"#utility.yul\":6185:6200   */\n              mstore\n                /* \"#utility.yul\":6219:6223   */\n              0x24\n                /* \"#utility.yul\":6216:6217   */\n              0x00\n                /* \"#utility.yul\":6209:6224   */\n              revert\n                /* \"#utility.yul\":6236:6421   */\n            tag_75:\n                /* \"#utility.yul\":6276:6277   */\n              0x00\n                /* \"#utility.yul\":6293:6313   */\n              tag_166\n                /* \"#utility.yul\":6311:6312   */\n              dup3\n                /* \"#utility.yul\":6293:6313   */\n              tag_76\n              jump\t// in\n            tag_166:\n                /* \"#utility.yul\":6288:6313   */\n              swap2\n              pop\n                /* \"#utility.yul\":6327:6347   */\n              tag_167\n                /* \"#utility.yul\":6345:6346   */\n              dup4\n                /* \"#utility.yul\":6327:6347   */\n              tag_76\n              jump\t// in\n            tag_167:\n                /* \"#utility.yul\":6322:6347   */\n              swap3\n              pop\n                /* \"#utility.yul\":6366:6367   */\n              dup3\n                /* \"#utility.yul\":6356:6391   */\n              tag_168\n              jumpi\n                /* \"#utility.yul\":6371:6389   */\n              tag_169\n              tag_96\n              jump\t// in\n            tag_169:\n                /* \"#utility.yul\":6356:6391   */\n            tag_168:\n                /* \"#utility.yul\":6413:6414   */\n              dup3\n                /* \"#utility.yul\":6410:6411   */\n              dup3\n                /* \"#utility.yul\":6406:6415   */\n              div\n                /* \"#utility.yul\":6401:6415   */\n              swap1\n              pop\n                /* \"#utility.yul\":6236:6421   */\n              swap3\n              swap2\n              pop\n              pop\n              jump\t// out\n\n            auxdata: 0xa26469706673582212205050c6072b686fb76e7076a3ded57ddf71b9d510a4d8a856d4c31c26ec06163e64736f6c634300080b0033\n        }\n    }\n\n    auxdata: 0xa26469706673582212208c43a21a66ac16b553ace7addc60b2d3eab69d4d886d7972514155d96a7d626a64736f6c634300080b0033\n}\n","bytecode":{"linkReferences":{},"object":"608060405234801561001057600080fd5b50610ffa806100206000396000f3fe608060405234801561001057600080fd5b506004361061004c5760003560e01c80633d584063146100515780634efc13d4146100815780636c2deb6e1461009d578063fdff9b4d146100cd575b600080fd5b61006b6004803603810190610066919061041a565b6100fd565b60405161007891906104a6565b60405180910390f35b61009b6004803603810190610096919061041a565b6101c0565b005b6100b760048036038101906100b2919061041a565b610357565b6040516100c491906104dc565b60405180910390f35b6100e760048036038101906100e2919061041a565b610377565b6040516100f491906104a6565b60405180910390f35b6000600160008373ffffffffffffffffffffffffffffffffffffffff1673ffffffffffffffffffffffffffffffffffffffff16815260200190815260200160002060009054906101000a900460ff1661015a57610159826101c0565b5b6000808373ffffffffffffffffffffffffffffffffffffffff1673ffffffffffffffffffffffffffffffffffffffff16815260200190815260200160002060009054906101000a900473ffffffffffffffffffffffffffffffffffffffff169050919050565b600160008273ffffffffffffffffffffffffffffffffffffffff1673ffffffffffffffffffffffffffffffffffffffff16815260200190815260200160002060009054906101000a900460ff161561024d576040517f08c379a000000000000000000000000000000000000000000000000000000000815260040161024490610554565b60405180910390fd5b60018060008373ffffffffffffffffffffffffffffffffffffffff1673ffffffffffffffffffffffffffffffffffffffff16815260200190815260200160002060006101000a81548160ff021916908315150217905550806040516102b1906103aa565b6102bb9190610583565b604051809103906000f0801580156102d7573d6000803e3d6000fd5b506000808373ffffffffffffffffffffffffffffffffffffffff1673ffffffffffffffffffffffffffffffffffffffff16815260200190815260200160002060006101000a81548173ffffffffffffffffffffffffffffffffffffffff021916908373ffffffffffffffffffffffffffffffffffffffff16021790555050565b60016020528060005260406000206000915054906101000a900460ff1681565b60006020528060005260406000206000915054906101000a900473ffffffffffffffffffffffffffffffffffffffff1681565b610a268061059f83390190565b600080fd5b600073ffffffffffffffffffffffffffffffffffffffff82169050919050565b60006103e7826103bc565b9050919050565b6103f7816103dc565b811461040257600080fd5b50565b600081359050610414816103ee565b92915050565b6000602082840312156104305761042f6103b7565b5b600061043e84828501610405565b91505092915050565b6000819050919050565b600061046c610467610462846103bc565b610447565b6103bc565b9050919050565b600061047e82610451565b9050919050565b600061049082610473565b9050919050565b6104a081610485565b82525050565b60006020820190506104bb6000830184610497565b92915050565b60008115159050919050565b6104d6816104c1565b82525050565b60006020820190506104f160008301846104cd565b92915050565b600082825260208201905092915050565b7f616c72656164792061206d616e61676572000000000000000000000000000000600082015250565b600061053e6011836104f7565b915061054982610508565b602082019050919050565b6000602082019050818103600083015261056d81610531565b9050919050565b61057d816103dc565b82525050565b60006020820190506105986000830184610574565b9291505056fe608060405234801561001057600080fd5b50604051610a26380380610a268339818101604052810190610032919061010e565b806000806101000a81548173ffffffffffffffffffffffffffffffffffffffff021916908373ffffffffffffffffffffffffffffffffffffffff1602179055506000600281905550600060038190555060006004819055506000600560006101000a81548160ff0219169083151502179055505061013b565b600080fd5b600073ffffffffffffffffffffffffffffffffffffffff82169050919050565b60006100db826100b0565b9050919050565b6100eb816100d0565b81146100f657600080fd5b50565b600081519050610108816100e2565b92915050565b600060208284031215610124576101236100ab565b5b6000610132848285016100f9565b91505092915050565b6108dc8061014a6000396000f3fe608060405234801561001057600080fd5b50600436106100b45760003560e01c80639e01dfbb116100715780639e01dfbb14610145578063af640d0f14610175578063cb6ff4a314610193578063d2a5bfaa1461019d578063e7ee6ad6146101bb578063eced5526146101d7576100b4565b806302cff5c5146100b957806330672c6b146100c35780633498858d146100e15780635bb16154146100ff57806380f474f61461011d57806386f675681461013b575b600080fd5b6100c16101f5565b005b6100cb610212565b6040516100d891906104f7565b60405180910390f35b6100e9610218565b6040516100f6919061052d565b60405180910390f35b61010761022b565b60405161011491906104f7565b60405180910390f35b610125610231565b60405161013291906104f7565b60405180910390f35b610143610237565b005b61015f600480360381019061015a91906105ab565b610254565b60405161016c91906104f7565b60405180910390f35b61017d61026c565b60405161018a91906105e7565b60405180910390f35b61019b610290565b005b6101a56102c5565b6040516101b291906104f7565b60405180910390f35b6101d560048036038101906101d0919061062e565b6102cb565b005b6101df6104d9565b6040516101ec91906104f7565b60405180910390f35b6000600560006101000a81548160ff021916908315150217905550565b60045481565b600560009054906101000a900460ff1681565b60025481565b60035481565b6001600560006101000a81548160ff021916908315150217905550565b60016020528060005260406000206000915090505481565b60008054906101000a900473ffffffffffffffffffffffffffffffffffffffff1681565b600660008154809291906102a39061068a565b91905055506000600560006101000a81548160ff021916908315150217905550565b60065481565b60008054906101000a900473ffffffffffffffffffffffffffffffffffffffff1673ffffffffffffffffffffffffffffffffffffffff163373ffffffffffffffffffffffffffffffffffffffff16141561035a576040517f08c379a000000000000000000000000000000000000000000000000000000000815260040161035190610730565b60405180910390fd5b60008111801561036b575060058111155b6103aa576040517f08c379a00000000000000000000000000000000000000000000000000000000081526004016103a19061079c565b60405180910390fd5b6000600160003373ffffffffffffffffffffffffffffffffffffffff1673ffffffffffffffffffffffffffffffffffffffff16815260200190815260200160002054141561040b57600460008154809291906104059061068a565b91905055505b600160003373ffffffffffffffffffffffffffffffffffffffff1673ffffffffffffffffffffffffffffffffffffffff168152602001908152602001600020546002600082825461045c91906107bc565b92505081905550806002600082825461047591906107f0565b9250508190555080600160003373ffffffffffffffffffffffffffffffffffffffff1673ffffffffffffffffffffffffffffffffffffffff168152602001908152602001600020819055506004546002546104d09190610875565b60038190555050565b600581565b6000819050919050565b6104f1816104de565b82525050565b600060208201905061050c60008301846104e8565b92915050565b60008115159050919050565b61052781610512565b82525050565b6000602082019050610542600083018461051e565b92915050565b600080fd5b600073ffffffffffffffffffffffffffffffffffffffff82169050919050565b60006105788261054d565b9050919050565b6105888161056d565b811461059357600080fd5b50565b6000813590506105a58161057f565b92915050565b6000602082840312156105c1576105c0610548565b5b60006105cf84828501610596565b91505092915050565b6105e18161056d565b82525050565b60006020820190506105fc60008301846105d8565b92915050565b61060b816104de565b811461061657600080fd5b50565b60008135905061062881610602565b92915050565b60006020828403121561064457610643610548565b5b600061065284828501610619565b91505092915050565b7f4e487b7100000000000000000000000000000000000000000000000000000000600052601160045260246000fd5b6000610695826104de565b91507fffffffffffffffffffffffffffffffffffffffffffffffffffffffffffffffff8214156106c8576106c761065b565b5b600182019050919050565b600082825260208201905092915050565b7f63616e2774207261746520796f757273656c6600000000000000000000000000600082015250565b600061071a6013836106d3565b9150610725826106e4565b602082019050919050565b600060208201905081810360008301526107498161070d565b9050919050565b7f6f7574206f662072616e676520726174696e6700000000000000000000000000600082015250565b60006107866013836106d3565b915061079182610750565b602082019050919050565b600060208201905081810360008301526107b581610779565b9050919050565b60006107c7826104de565b91506107d2836104de565b9250828210156107e5576107e461065b565b5b828203905092915050565b60006107fb826104de565b9150610806836104de565b9250827fffffffffffffffffffffffffffffffffffffffffffffffffffffffffffffffff0382111561083b5761083a61065b565b5b828201905092915050565b7f4e487b7100000000000000000000000000000000000000000000000000000000600052601260045260246000fd5b6000610880826104de565b915061088b836104de565b92508261089b5761089a610846565b5b82820490509291505056fea26469706673582212205050c6072b686fb76e7076a3ded57ddf71b9d510a4d8a856d4c31c26ec06163e64736f6c634300080b0033a26469706673582212208c43a21a66ac16b553ace7addc60b2d3eab69d4d886d7972514155d96a7d626a64736f6c634300080b0033","opcodes":"PUSH1 0x80 PUSH1 0x40 MSTORE CALLVALUE DUP1 ISZERO PUSH2 0x10 JUMPI PUSH1 0x0 DUP1 REVERT JUMPDEST POP PUSH2 0xFFA DUP1 PUSH2 0x20 PUSH1 0x0 CODECOPY PUSH1 0x0 RETURN INVALID PUSH1 0x80 PUSH1 0x40 MSTORE CALLVALUE DUP1 ISZERO PUSH2 0x10 JUMPI PUSH1 0x0 DUP1 REVERT JUMPDEST POP PUSH1 0x4 CALLDATASIZE LT PUSH2 0x4C JUMPI PUSH1 0x0 CALLDATALOAD PUSH1 0xE0 SHR DUP1 PUSH4 0x3D584063 EQ PUSH2 0x51 JUMPI DUP1 PUSH4 0x4EFC13D4 EQ PUSH2 0x81 JUMPI DUP1 PUSH4 0x6C2DEB6E EQ PUSH2 0x9D JUMPI DUP1 PUSH4 0xFDFF9B4D EQ PUSH2 0xCD JUMPI JUMPDEST PUSH1 0x0 DUP1 REVERT JUMPDEST PUSH2 0x6B PUSH1 0x4 DUP1 CALLDATASIZE SUB DUP2 ADD SWAP1 PUSH2 0x66 SWAP2 SWAP1 PUSH2 0x41A JUMP JUMPDEST PUSH2 0xFD JUMP JUMPDEST PUSH1 0x40 MLOAD PUSH2 0x78 SWAP2 SWAP1 PUSH2 0x4A6 JUMP JUMPDEST PUSH1 0x40 MLOAD DUP1 SWAP2 SUB SWAP1 RETURN JUMPDEST PUSH2 0x9B PUSH1 0x4 DUP1 CALLDATASIZE SUB DUP2 ADD SWAP1 PUSH2 0x96 SWAP2 SWAP1 PUSH2 0x41A JUMP JUMPDEST PUSH2 0x1C0 JUMP JUMPDEST STOP JUMPDEST PUSH2 0xB7 PUSH1 0x4 DUP1 CALLDATASIZE SUB DUP2 ADD SWAP1 PUSH2 0xB2 SWAP2 SWAP1 PUSH2 0x41A JUMP JUMPDEST PUSH2 0x357 JUMP JUMPDEST PUSH1 0x40 MLOAD PUSH2 0xC4 SWAP2 SWAP1 PUSH2 0x4DC JUMP JUMPDEST PUSH1 0x40 MLOAD DUP1 SWAP2 SUB SWAP1 RETURN JUMPDEST PUSH2 0xE7 PUSH1 0x4 DUP1 CALLDATASIZE SUB DUP2 ADD SWAP1 PUSH2 0xE2 SWAP2 SWAP1 PUSH2 0x41A JUMP JUMPDEST PUSH2 0x377 JUMP JUMPDEST PUSH1 0x40 MLOAD PUSH2 0xF4 SWAP2 SWAP1 PUSH2 0x4A6 JUMP JUMPDEST PUSH1 0x40 MLOAD DUP1 SWAP2 SUB SWAP1 RETURN JUMPDEST PUSH1 0x0 PUSH1 0x1 PUSH1 0x0 DUP4 PUSH20 0xFFFFFFFFFFFFFFFFFFFFFFFFFFFFFFFFFFFFFFFF AND PUSH20 0xFFFFFFFFFFFFFFFFFFFFFFFFFFFFFFFFFFFFFFFF AND DUP2 MSTORE PUSH1 0x20 ADD SWAP1 DUP2 MSTORE PUSH1 0x20 ADD PUSH1 0x0 KECCAK256 PUSH1 0x0 SWAP1 SLOAD SWAP1 PUSH2 0x100 EXP SWAP1 DIV PUSH1 0xFF AND PUSH2 0x15A JUMPI PUSH2 0x159 DUP3 PUSH2 0x1C0 JUMP JUMPDEST JUMPDEST PUSH1 0x0 DUP1 DUP4 PUSH20 0xFFFFFFFFFFFFFFFFFFFFFFFFFFFFFFFFFFFFFFFF AND PUSH20 0xFFFFFFFFFFFFFFFFFFFFFFFFFFFFFFFFFFFFFFFF AND DUP2 MSTORE PUSH1 0x20 ADD SWAP1 DUP2 MSTORE PUSH1 0x20 ADD PUSH1 0x0 KECCAK256 PUSH1 0x0 SWAP1 SLOAD SWAP1 PUSH2 0x100 EXP SWAP1 DIV PUSH20 0xFFFFFFFFFFFFFFFFFFFFFFFFFFFFFFFFFFFFFFFF AND SWAP1 POP SWAP2 SWAP1 POP JUMP JUMPDEST PUSH1 0x1 PUSH1 0x0 DUP3 PUSH20 0xFFFFFFFFFFFFFFFFFFFFFFFFFFFFFFFFFFFFFFFF AND PUSH20 0xFFFFFFFFFFFFFFFFFFFFFFFFFFFFFFFFFFFFFFFF AND DUP2 MSTORE PUSH1 0x20 ADD SWAP1 DUP2 MSTORE PUSH1 0x20 ADD PUSH1 0x0 KECCAK256 PUSH1 0x0 SWAP1 SLOAD SWAP1 PUSH2 0x100 EXP SWAP1 DIV PUSH1 0xFF AND ISZERO PUSH2 0x24D JUMPI PUSH1 0x40 MLOAD PUSH32 0x8C379A000000000000000000000000000000000000000000000000000000000 DUP2 MSTORE PUSH1 0x4 ADD PUSH2 0x244 SWAP1 PUSH2 0x554 JUMP JUMPDEST PUSH1 0x40 MLOAD DUP1 SWAP2 SUB SWAP1 REVERT JUMPDEST PUSH1 0x1 DUP1 PUSH1 0x0 DUP4 PUSH20 0xFFFFFFFFFFFFFFFFFFFFFFFFFFFFFFFFFFFFFFFF AND PUSH20 0xFFFFFFFFFFFFFFFFFFFFFFFFFFFFFFFFFFFFFFFF AND DUP2 MSTORE PUSH1 0x20 ADD SWAP1 DUP2 MSTORE PUSH1 0x20 ADD PUSH1 0x0 KECCAK256 PUSH1 0x0 PUSH2 0x100 EXP DUP2 SLOAD DUP2 PUSH1 0xFF MUL NOT AND SWAP1 DUP4 ISZERO ISZERO MUL OR SWAP1 SSTORE POP DUP1 PUSH1 0x40 MLOAD PUSH2 0x2B1 SWAP1 PUSH2 0x3AA JUMP JUMPDEST PUSH2 0x2BB SWAP2 SWAP1 PUSH2 0x583 JUMP JUMPDEST PUSH1 0x40 MLOAD DUP1 SWAP2 SUB SWAP1 PUSH1 0x0 CREATE DUP1 ISZERO DUP1 ISZERO PUSH2 0x2D7 JUMPI RETURNDATASIZE PUSH1 0x0 DUP1 RETURNDATACOPY RETURNDATASIZE PUSH1 0x0 REVERT JUMPDEST POP PUSH1 0x0 DUP1 DUP4 PUSH20 0xFFFFFFFFFFFFFFFFFFFFFFFFFFFFFFFFFFFFFFFF AND PUSH20 0xFFFFFFFFFFFFFFFFFFFFFFFFFFFFFFFFFFFFFFFF AND DUP2 MSTORE PUSH1 0x20 ADD SWAP1 DUP2 MSTORE PUSH1 0x20 ADD PUSH1 0x0 KECCAK256 PUSH1 0x0 PUSH2 0x100 EXP DUP2 SLOAD DUP2 PUSH20 0xFFFFFFFFFFFFFFFFFFFFFFFFFFFFFFFFFFFFFFFF MUL NOT AND SWAP1 DUP4 PUSH20 0xFFFFFFFFFFFFFFFFFFFFFFFFFFFFFFFFFFFFFFFF AND MUL OR SWAP1 SSTORE POP POP JUMP JUMPDEST PUSH1 0x1 PUSH1 0x20 MSTORE DUP1 PUSH1 0x0 MSTORE PUSH1 0x40 PUSH1 0x0 KECCAK256 PUSH1 0x0 SWAP2 POP SLOAD SWAP1 PUSH2 0x100 EXP SWAP1 DIV PUSH1 0xFF AND DUP2 JUMP JUMPDEST PUSH1 0x0 PUSH1 0x20 MSTORE DUP1 PUSH1 0x0 MSTORE PUSH1 0x40 PUSH1 0x0 KECCAK256 PUSH1 0x0 SWAP2 POP SLOAD SWAP1 PUSH2 0x100 EXP SWAP1 DIV PUSH20 0xFFFFFFFFFFFFFFFFFFFFFFFFFFFFFFFFFFFFFFFF AND DUP2 JUMP JUMPDEST PUSH2 0xA26 DUP1 PUSH2 0x59F DUP4 CODECOPY ADD SWAP1 JUMP JUMPDEST PUSH1 0x0 DUP1 REVERT JUMPDEST PUSH1 0x0 PUSH20 0xFFFFFFFFFFFFFFFFFFFFFFFFFFFFFFFFFFFFFFFF DUP3 AND SWAP1 POP SWAP2 SWAP1 POP JUMP JUMPDEST PUSH1 0x0 PUSH2 0x3E7 DUP3 PUSH2 0x3BC JUMP JUMPDEST SWAP1 POP SWAP2 SWAP1 POP JUMP JUMPDEST PUSH2 0x3F7 DUP2 PUSH2 0x3DC JUMP JUMPDEST DUP2 EQ PUSH2 0x402 JUMPI PUSH1 0x0 DUP1 REVERT JUMPDEST POP JUMP JUMPDEST PUSH1 0x0 DUP2 CALLDATALOAD SWAP1 POP PUSH2 0x414 DUP2 PUSH2 0x3EE JUMP JUMPDEST SWAP3 SWAP2 POP POP JUMP JUMPDEST PUSH1 0x0 PUSH1 0x20 DUP3 DUP5 SUB SLT ISZERO PUSH2 0x430 JUMPI PUSH2 0x42F PUSH2 0x3B7 JUMP JUMPDEST JUMPDEST PUSH1 0x0 PUSH2 0x43E DUP5 DUP3 DUP6 ADD PUSH2 0x405 JUMP JUMPDEST SWAP2 POP POP SWAP3 SWAP2 POP POP JUMP JUMPDEST PUSH1 0x0 DUP2 SWAP1 POP SWAP2 SWAP1 POP JUMP JUMPDEST PUSH1 0x0 PUSH2 0x46C PUSH2 0x467 PUSH2 0x462 DUP5 PUSH2 0x3BC JUMP JUMPDEST PUSH2 0x447 JUMP JUMPDEST PUSH2 0x3BC JUMP JUMPDEST SWAP1 POP SWAP2 SWAP1 POP JUMP JUMPDEST PUSH1 0x0 PUSH2 0x47E DUP3 PUSH2 0x451 JUMP JUMPDEST SWAP1 POP SWAP2 SWAP1 POP JUMP JUMPDEST PUSH1 0x0 PUSH2 0x490 DUP3 PUSH2 0x473 JUMP JUMPDEST SWAP1 POP SWAP2 SWAP1 POP JUMP JUMPDEST PUSH2 0x4A0 DUP2 PUSH2 0x485 JUMP JUMPDEST DUP3 MSTORE POP POP JUMP JUMPDEST PUSH1 0x0 PUSH1 0x20 DUP3 ADD SWAP1 POP PUSH2 0x4BB PUSH1 0x0 DUP4 ADD DUP5 PUSH2 0x497 JUMP JUMPDEST SWAP3 SWAP2 POP POP JUMP JUMPDEST PUSH1 0x0 DUP2 ISZERO ISZERO SWAP1 POP SWAP2 SWAP1 POP JUMP JUMPDEST PUSH2 0x4D6 DUP2 PUSH2 0x4C1 JUMP JUMPDEST DUP3 MSTORE POP POP JUMP JUMPDEST PUSH1 0x0 PUSH1 0x20 DUP3 ADD SWAP1 POP PUSH2 0x4F1 PUSH1 0x0 DUP4 ADD DUP5 PUSH2 0x4CD JUMP JUMPDEST SWAP3 SWAP2 POP POP JUMP JUMPDEST PUSH1 0x0 DUP3 DUP3 MSTORE PUSH1 0x20 DUP3 ADD SWAP1 POP SWAP3 SWAP2 POP POP JUMP JUMPDEST PUSH32 0x616C72656164792061206D616E61676572000000000000000000000000000000 PUSH1 0x0 DUP3 ADD MSTORE POP JUMP JUMPDEST PUSH1 0x0 PUSH2 0x53E PUSH1 0x11 DUP4 PUSH2 0x4F7 JUMP JUMPDEST SWAP2 POP PUSH2 0x549 DUP3 PUSH2 0x508 JUMP JUMPDEST PUSH1 0x20 DUP3 ADD SWAP1 POP SWAP2 SWAP1 POP JUMP JUMPDEST PUSH1 0x0 PUSH1 0x20 DUP3 ADD SWAP1 POP DUP2 DUP2 SUB PUSH1 0x0 DUP4 ADD MSTORE PUSH2 0x56D DUP2 PUSH2 0x531 JUMP JUMPDEST SWAP1 POP SWAP2 SWAP1 POP JUMP JUMPDEST PUSH2 0x57D DUP2 PUSH2 0x3DC JUMP JUMPDEST DUP3 MSTORE POP POP JUMP JUMPDEST PUSH1 0x0 PUSH1 0x20 DUP3 ADD SWAP1 POP PUSH2 0x598 PUSH1 0x0 DUP4 ADD DUP5 PUSH2 0x574 JUMP JUMPDEST SWAP3 SWAP2 POP POP JUMP INVALID PUSH1 0x80 PUSH1 0x40 MSTORE CALLVALUE DUP1 ISZERO PUSH2 0x10 JUMPI PUSH1 0x0 DUP1 REVERT JUMPDEST POP PUSH1 0x40 MLOAD PUSH2 0xA26 CODESIZE SUB DUP1 PUSH2 0xA26 DUP4 CODECOPY DUP2 DUP2 ADD PUSH1 0x40 MSTORE DUP2 ADD SWAP1 PUSH2 0x32 SWAP2 SWAP1 PUSH2 0x10E JUMP JUMPDEST DUP1 PUSH1 0x0 DUP1 PUSH2 0x100 EXP DUP2 SLOAD DUP2 PUSH20 0xFFFFFFFFFFFFFFFFFFFFFFFFFFFFFFFFFFFFFFFF MUL NOT AND SWAP1 DUP4 PUSH20 0xFFFFFFFFFFFFFFFFFFFFFFFFFFFFFFFFFFFFFFFF AND MUL OR SWAP1 SSTORE POP PUSH1 0x0 PUSH1 0x2 DUP2 SWAP1 SSTORE POP PUSH1 0x0 PUSH1 0x3 DUP2 SWAP1 SSTORE POP PUSH1 0x0 PUSH1 0x4 DUP2 SWAP1 SSTORE POP PUSH1 0x0 PUSH1 0x5 PUSH1 0x0 PUSH2 0x100 EXP DUP2 SLOAD DUP2 PUSH1 0xFF MUL NOT AND SWAP1 DUP4 ISZERO ISZERO MUL OR SWAP1 SSTORE POP POP PUSH2 0x13B JUMP JUMPDEST PUSH1 0x0 DUP1 REVERT JUMPDEST PUSH1 0x0 PUSH20 0xFFFFFFFFFFFFFFFFFFFFFFFFFFFFFFFFFFFFFFFF DUP3 AND SWAP1 POP SWAP2 SWAP1 POP JUMP JUMPDEST PUSH1 0x0 PUSH2 0xDB DUP3 PUSH2 0xB0 JUMP JUMPDEST SWAP1 POP SWAP2 SWAP1 POP JUMP JUMPDEST PUSH2 0xEB DUP2 PUSH2 0xD0 JUMP JUMPDEST DUP2 EQ PUSH2 0xF6 JUMPI PUSH1 0x0 DUP1 REVERT JUMPDEST POP JUMP JUMPDEST PUSH1 0x0 DUP2 MLOAD SWAP1 POP PUSH2 0x108 DUP2 PUSH2 0xE2 JUMP JUMPDEST SWAP3 SWAP2 POP POP JUMP JUMPDEST PUSH1 0x0 PUSH1 0x20 DUP3 DUP5 SUB SLT ISZERO PUSH2 0x124 JUMPI PUSH2 0x123 PUSH2 0xAB JUMP JUMPDEST JUMPDEST PUSH1 0x0 PUSH2 0x132 DUP5 DUP3 DUP6 ADD PUSH2 0xF9 JUMP JUMPDEST SWAP2 POP POP SWAP3 SWAP2 POP POP JUMP JUMPDEST PUSH2 0x8DC DUP1 PUSH2 0x14A PUSH1 0x0 CODECOPY PUSH1 0x0 RETURN INVALID PUSH1 0x80 PUSH1 0x40 MSTORE CALLVALUE DUP1 ISZERO PUSH2 0x10 JUMPI PUSH1 0x0 DUP1 REVERT JUMPDEST POP PUSH1 0x4 CALLDATASIZE LT PUSH2 0xB4 JUMPI PUSH1 0x0 CALLDATALOAD PUSH1 0xE0 SHR DUP1 PUSH4 0x9E01DFBB GT PUSH2 0x71 JUMPI DUP1 PUSH4 0x9E01DFBB EQ PUSH2 0x145 JUMPI DUP1 PUSH4 0xAF640D0F EQ PUSH2 0x175 JUMPI DUP1 PUSH4 0xCB6FF4A3 EQ PUSH2 0x193 JUMPI DUP1 PUSH4 0xD2A5BFAA EQ PUSH2 0x19D JUMPI DUP1 PUSH4 0xE7EE6AD6 EQ PUSH2 0x1BB JUMPI DUP1 PUSH4 0xECED5526 EQ PUSH2 0x1D7 JUMPI PUSH2 0xB4 JUMP JUMPDEST DUP1 PUSH4 0x2CFF5C5 EQ PUSH2 0xB9 JUMPI DUP1 PUSH4 0x30672C6B EQ PUSH2 0xC3 JUMPI DUP1 PUSH4 0x3498858D EQ PUSH2 0xE1 JUMPI DUP1 PUSH4 0x5BB16154 EQ PUSH2 0xFF JUMPI DUP1 PUSH4 0x80F474F6 EQ PUSH2 0x11D JUMPI DUP1 PUSH4 0x86F67568 EQ PUSH2 0x13B JUMPI JUMPDEST PUSH1 0x0 DUP1 REVERT JUMPDEST PUSH2 0xC1 PUSH2 0x1F5 JUMP JUMPDEST STOP JUMPDEST PUSH2 0xCB PUSH2 0x212 JUMP JUMPDEST PUSH1 0x40 MLOAD PUSH2 0xD8 SWAP2 SWAP1 PUSH2 0x4F7 JUMP JUMPDEST PUSH1 0x40 MLOAD DUP1 SWAP2 SUB SWAP1 RETURN JUMPDEST PUSH2 0xE9 PUSH2 0x218 JUMP JUMPDEST PUSH1 0x40 MLOAD PUSH2 0xF6 SWAP2 SWAP1 PUSH2 0x52D JUMP JUMPDEST PUSH1 0x40 MLOAD DUP1 SWAP2 SUB SWAP1 RETURN JUMPDEST PUSH2 0x107 PUSH2 0x22B JUMP JUMPDEST PUSH1 0x40 MLOAD PUSH2 0x114 SWAP2 SWAP1 PUSH2 0x4F7 JUMP JUMPDEST PUSH1 0x40 MLOAD DUP1 SWAP2 SUB SWAP1 RETURN JUMPDEST PUSH2 0x125 PUSH2 0x231 JUMP JUMPDEST PUSH1 0x40 MLOAD PUSH2 0x132 SWAP2 SWAP1 PUSH2 0x4F7 JUMP JUMPDEST PUSH1 0x40 MLOAD DUP1 SWAP2 SUB SWAP1 RETURN JUMPDEST PUSH2 0x143 PUSH2 0x237 JUMP JUMPDEST STOP JUMPDEST PUSH2 0x15F PUSH1 0x4 DUP1 CALLDATASIZE SUB DUP2 ADD SWAP1 PUSH2 0x15A SWAP2 SWAP1 PUSH2 0x5AB JUMP JUMPDEST PUSH2 0x254 JUMP JUMPDEST PUSH1 0x40 MLOAD PUSH2 0x16C SWAP2 SWAP1 PUSH2 0x4F7 JUMP JUMPDEST PUSH1 0x40 MLOAD DUP1 SWAP2 SUB SWAP1 RETURN JUMPDEST PUSH2 0x17D PUSH2 0x26C JUMP JUMPDEST PUSH1 0x40 MLOAD PUSH2 0x18A SWAP2 SWAP1 PUSH2 0x5E7 JUMP JUMPDEST PUSH1 0x40 MLOAD DUP1 SWAP2 SUB SWAP1 RETURN JUMPDEST PUSH2 0x19B PUSH2 0x290 JUMP JUMPDEST STOP JUMPDEST PUSH2 0x1A5 PUSH2 0x2C5 JUMP JUMPDEST PUSH1 0x40 MLOAD PUSH2 0x1B2 SWAP2 SWAP1 PUSH2 0x4F7 JUMP JUMPDEST PUSH1 0x40 MLOAD DUP1 SWAP2 SUB SWAP1 RETURN JUMPDEST PUSH2 0x1D5 PUSH1 0x4 DUP1 CALLDATASIZE SUB DUP2 ADD SWAP1 PUSH2 0x1D0 SWAP2 SWAP1 PUSH2 0x62E JUMP JUMPDEST PUSH2 0x2CB JUMP JUMPDEST STOP JUMPDEST PUSH2 0x1DF PUSH2 0x4D9 JUMP JUMPDEST PUSH1 0x40 MLOAD PUSH2 0x1EC SWAP2 SWAP1 PUSH2 0x4F7 JUMP JUMPDEST PUSH1 0x40 MLOAD DUP1 SWAP2 SUB SWAP1 RETURN JUMPDEST PUSH1 0x0 PUSH1 0x5 PUSH1 0x0 PUSH2 0x100 EXP DUP2 SLOAD DUP2 PUSH1 0xFF MUL NOT AND SWAP1 DUP4 ISZERO ISZERO MUL OR SWAP1 SSTORE POP JUMP JUMPDEST PUSH1 0x4 SLOAD DUP2 JUMP JUMPDEST PUSH1 0x5 PUSH1 0x0 SWAP1 SLOAD SWAP1 PUSH2 0x100 EXP SWAP1 DIV PUSH1 0xFF AND DUP2 JUMP JUMPDEST PUSH1 0x2 SLOAD DUP2 JUMP JUMPDEST PUSH1 0x3 SLOAD DUP2 JUMP JUMPDEST PUSH1 0x1 PUSH1 0x5 PUSH1 0x0 PUSH2 0x100 EXP DUP2 SLOAD DUP2 PUSH1 0xFF MUL NOT AND SWAP1 DUP4 ISZERO ISZERO MUL OR SWAP1 SSTORE POP JUMP JUMPDEST PUSH1 0x1 PUSH1 0x20 MSTORE DUP1 PUSH1 0x0 MSTORE PUSH1 0x40 PUSH1 0x0 KECCAK256 PUSH1 0x0 SWAP2 POP SWAP1 POP SLOAD DUP2 JUMP JUMPDEST PUSH1 0x0 DUP1 SLOAD SWAP1 PUSH2 0x100 EXP SWAP1 DIV PUSH20 0xFFFFFFFFFFFFFFFFFFFFFFFFFFFFFFFFFFFFFFFF AND DUP2 JUMP JUMPDEST PUSH1 0x6 PUSH1 0x0 DUP2 SLOAD DUP1 SWAP3 SWAP2 SWAP1 PUSH2 0x2A3 SWAP1 PUSH2 0x68A JUMP JUMPDEST SWAP2 SWAP1 POP SSTORE POP PUSH1 0x0 PUSH1 0x5 PUSH1 0x0 PUSH2 0x100 EXP DUP2 SLOAD DUP2 PUSH1 0xFF MUL NOT AND SWAP1 DUP4 ISZERO ISZERO MUL OR SWAP1 SSTORE POP JUMP JUMPDEST PUSH1 0x6 SLOAD DUP2 JUMP JUMPDEST PUSH1 0x0 DUP1 SLOAD SWAP1 PUSH2 0x100 EXP SWAP1 DIV PUSH20 0xFFFFFFFFFFFFFFFFFFFFFFFFFFFFFFFFFFFFFFFF AND PUSH20 0xFFFFFFFFFFFFFFFFFFFFFFFFFFFFFFFFFFFFFFFF AND CALLER PUSH20 0xFFFFFFFFFFFFFFFFFFFFFFFFFFFFFFFFFFFFFFFF AND EQ ISZERO PUSH2 0x35A JUMPI PUSH1 0x40 MLOAD PUSH32 0x8C379A000000000000000000000000000000000000000000000000000000000 DUP2 MSTORE PUSH1 0x4 ADD PUSH2 0x351 SWAP1 PUSH2 0x730 JUMP JUMPDEST PUSH1 0x40 MLOAD DUP1 SWAP2 SUB SWAP1 REVERT JUMPDEST PUSH1 0x0 DUP2 GT DUP1 ISZERO PUSH2 0x36B JUMPI POP PUSH1 0x5 DUP2 GT ISZERO JUMPDEST PUSH2 0x3AA JUMPI PUSH1 0x40 MLOAD PUSH32 0x8C379A000000000000000000000000000000000000000000000000000000000 DUP2 MSTORE PUSH1 0x4 ADD PUSH2 0x3A1 SWAP1 PUSH2 0x79C JUMP JUMPDEST PUSH1 0x40 MLOAD DUP1 SWAP2 SUB SWAP1 REVERT JUMPDEST PUSH1 0x0 PUSH1 0x1 PUSH1 0x0 CALLER PUSH20 0xFFFFFFFFFFFFFFFFFFFFFFFFFFFFFFFFFFFFFFFF AND PUSH20 0xFFFFFFFFFFFFFFFFFFFFFFFFFFFFFFFFFFFFFFFF AND DUP2 MSTORE PUSH1 0x20 ADD SWAP1 DUP2 MSTORE PUSH1 0x20 ADD PUSH1 0x0 KECCAK256 SLOAD EQ ISZERO PUSH2 0x40B JUMPI PUSH1 0x4 PUSH1 0x0 DUP2 SLOAD DUP1 SWAP3 SWAP2 SWAP1 PUSH2 0x405 SWAP1 PUSH2 0x68A JUMP JUMPDEST SWAP2 SWAP1 POP SSTORE POP JUMPDEST PUSH1 0x1 PUSH1 0x0 CALLER PUSH20 0xFFFFFFFFFFFFFFFFFFFFFFFFFFFFFFFFFFFFFFFF AND PUSH20 0xFFFFFFFFFFFFFFFFFFFFFFFFFFFFFFFFFFFFFFFF AND DUP2 MSTORE PUSH1 0x20 ADD SWAP1 DUP2 MSTORE PUSH1 0x20 ADD PUSH1 0x0 KECCAK256 SLOAD PUSH1 0x2 PUSH1 0x0 DUP3 DUP3 SLOAD PUSH2 0x45C SWAP2 SWAP1 PUSH2 0x7BC JUMP JUMPDEST SWAP3 POP POP DUP2 SWAP1 SSTORE POP DUP1 PUSH1 0x2 PUSH1 0x0 DUP3 DUP3 SLOAD PUSH2 0x475 SWAP2 SWAP1 PUSH2 0x7F0 JUMP JUMPDEST SWAP3 POP POP DUP2 SWAP1 SSTORE POP DUP1 PUSH1 0x1 PUSH1 0x0 CALLER PUSH20 0xFFFFFFFFFFFFFFFFFFFFFFFFFFFFFFFFFFFFFFFF AND PUSH20 0xFFFFFFFFFFFFFFFFFFFFFFFFFFFFFFFFFFFFFFFF AND DUP2 MSTORE PUSH1 0x20 ADD SWAP1 DUP2 MSTORE PUSH1 0x20 ADD PUSH1 0x0 KECCAK256 DUP2 SWAP1 SSTORE POP PUSH1 0x4 SLOAD PUSH1 0x2 SLOAD PUSH2 0x4D0 SWAP2 SWAP1 PUSH2 0x875 JUMP JUMPDEST PUSH1 0x3 DUP2 SWAP1 SSTORE POP POP JUMP JUMPDEST PUSH1 0x5 DUP2 JUMP JUMPDEST PUSH1 0x0 DUP2 SWAP1 POP SWAP2 SWAP1 POP JUMP JUMPDEST PUSH2 0x4F1 DUP2 PUSH2 0x4DE JUMP JUMPDEST DUP3 MSTORE POP POP JUMP JUMPDEST PUSH1 0x0 PUSH1 0x20 DUP3 ADD SWAP1 POP PUSH2 0x50C PUSH1 0x0 DUP4 ADD DUP5 PUSH2 0x4E8 JUMP JUMPDEST SWAP3 SWAP2 POP POP JUMP JUMPDEST PUSH1 0x0 DUP2 ISZERO ISZERO SWAP1 POP SWAP2 SWAP1 POP JUMP JUMPDEST PUSH2 0x527 DUP2 PUSH2 0x512 JUMP JUMPDEST DUP3 MSTORE POP POP JUMP JUMPDEST PUSH1 0x0 PUSH1 0x20 DUP3 ADD SWAP1 POP PUSH2 0x542 PUSH1 0x0 DUP4 ADD DUP5 PUSH2 0x51E JUMP JUMPDEST SWAP3 SWAP2 POP POP JUMP JUMPDEST PUSH1 0x0 DUP1 REVERT JUMPDEST PUSH1 0x0 PUSH20 0xFFFFFFFFFFFFFFFFFFFFFFFFFFFFFFFFFFFFFFFF DUP3 AND SWAP1 POP SWAP2 SWAP1 POP JUMP JUMPDEST PUSH1 0x0 PUSH2 0x578 DUP3 PUSH2 0x54D JUMP JUMPDEST SWAP1 POP SWAP2 SWAP1 POP JUMP JUMPDEST PUSH2 0x588 DUP2 PUSH2 0x56D JUMP JUMPDEST DUP2 EQ PUSH2 0x593 JUMPI PUSH1 0x0 DUP1 REVERT JUMPDEST POP JUMP JUMPDEST PUSH1 0x0 DUP2 CALLDATALOAD SWAP1 POP PUSH2 0x5A5 DUP2 PUSH2 0x57F JUMP JUMPDEST SWAP3 SWAP2 POP POP JUMP JUMPDEST PUSH1 0x0 PUSH1 0x20 DUP3 DUP5 SUB SLT ISZERO PUSH2 0x5C1 JUMPI PUSH2 0x5C0 PUSH2 0x548 JUMP JUMPDEST JUMPDEST PUSH1 0x0 PUSH2 0x5CF DUP5 DUP3 DUP6 ADD PUSH2 0x596 JUMP JUMPDEST SWAP2 POP POP SWAP3 SWAP2 POP POP JUMP JUMPDEST PUSH2 0x5E1 DUP2 PUSH2 0x56D JUMP JUMPDEST DUP3 MSTORE POP POP JUMP JUMPDEST PUSH1 0x0 PUSH1 0x20 DUP3 ADD SWAP1 POP PUSH2 0x5FC PUSH1 0x0 DUP4 ADD DUP5 PUSH2 0x5D8 JUMP JUMPDEST SWAP3 SWAP2 POP POP JUMP JUMPDEST PUSH2 0x60B DUP2 PUSH2 0x4DE JUMP JUMPDEST DUP2 EQ PUSH2 0x616 JUMPI PUSH1 0x0 DUP1 REVERT JUMPDEST POP JUMP JUMPDEST PUSH1 0x0 DUP2 CALLDATALOAD SWAP1 POP PUSH2 0x628 DUP2 PUSH2 0x602 JUMP JUMPDEST SWAP3 SWAP2 POP POP JUMP JUMPDEST PUSH1 0x0 PUSH1 0x20 DUP3 DUP5 SUB SLT ISZERO PUSH2 0x644 JUMPI PUSH2 0x643 PUSH2 0x548 JUMP JUMPDEST JUMPDEST PUSH1 0x0 PUSH2 0x652 DUP5 DUP3 DUP6 ADD PUSH2 0x619 JUMP JUMPDEST SWAP2 POP POP SWAP3 SWAP2 POP POP JUMP JUMPDEST PUSH32 0x4E487B7100000000000000000000000000000000000000000000000000000000 PUSH1 0x0 MSTORE PUSH1 0x11 PUSH1 0x4 MSTORE PUSH1 0x24 PUSH1 0x0 REVERT JUMPDEST PUSH1 0x0 PUSH2 0x695 DUP3 PUSH2 0x4DE JUMP JUMPDEST SWAP2 POP PUSH32 0xFFFFFFFFFFFFFFFFFFFFFFFFFFFFFFFFFFFFFFFFFFFFFFFFFFFFFFFFFFFFFFFF DUP3 EQ ISZERO PUSH2 0x6C8 JUMPI PUSH2 0x6C7 PUSH2 0x65B JUMP JUMPDEST JUMPDEST PUSH1 0x1 DUP3 ADD SWAP1 POP SWAP2 SWAP1 POP JUMP JUMPDEST PUSH1 0x0 DUP3 DUP3 MSTORE PUSH1 0x20 DUP3 ADD SWAP1 POP SWAP3 SWAP2 POP POP JUMP JUMPDEST PUSH32 0x63616E2774207261746520796F757273656C6600000000000000000000000000 PUSH1 0x0 DUP3 ADD MSTORE POP JUMP JUMPDEST PUSH1 0x0 PUSH2 0x71A PUSH1 0x13 DUP4 PUSH2 0x6D3 JUMP JUMPDEST SWAP2 POP PUSH2 0x725 DUP3 PUSH2 0x6E4 JUMP JUMPDEST PUSH1 0x20 DUP3 ADD SWAP1 POP SWAP2 SWAP1 POP JUMP JUMPDEST PUSH1 0x0 PUSH1 0x20 DUP3 ADD SWAP1 POP DUP2 DUP2 SUB PUSH1 0x0 DUP4 ADD MSTORE PUSH2 0x749 DUP2 PUSH2 0x70D JUMP JUMPDEST SWAP1 POP SWAP2 SWAP1 POP JUMP JUMPDEST PUSH32 0x6F7574206F662072616E676520726174696E6700000000000000000000000000 PUSH1 0x0 DUP3 ADD MSTORE POP JUMP JUMPDEST PUSH1 0x0 PUSH2 0x786 PUSH1 0x13 DUP4 PUSH2 0x6D3 JUMP JUMPDEST SWAP2 POP PUSH2 0x791 DUP3 PUSH2 0x750 JUMP JUMPDEST PUSH1 0x20 DUP3 ADD SWAP1 POP SWAP2 SWAP1 POP JUMP JUMPDEST PUSH1 0x0 PUSH1 0x20 DUP3 ADD SWAP1 POP DUP2 DUP2 SUB PUSH1 0x0 DUP4 ADD MSTORE PUSH2 0x7B5 DUP2 PUSH2 0x779 JUMP JUMPDEST SWAP1 POP SWAP2 SWAP1 POP JUMP JUMPDEST PUSH1 0x0 PUSH2 0x7C7 DUP3 PUSH2 0x4DE JUMP JUMPDEST SWAP2 POP PUSH2 0x7D2 DUP4 PUSH2 0x4DE JUMP JUMPDEST SWAP3 POP DUP3 DUP3 LT ISZERO PUSH2 0x7E5 JUMPI PUSH2 0x7E4 PUSH2 0x65B JUMP JUMPDEST JUMPDEST DUP3 DUP3 SUB SWAP1 POP SWAP3 SWAP2 POP POP JUMP JUMPDEST PUSH1 0x0 PUSH2 0x7FB DUP3 PUSH2 0x4DE JUMP JUMPDEST SWAP2 POP PUSH2 0x806 DUP4 PUSH2 0x4DE JUMP JUMPDEST SWAP3 POP DUP3 PUSH32 0xFFFFFFFFFFFFFFFFFFFFFFFFFFFFFFFFFFFFFFFFFFFFFFFFFFFFFFFFFFFFFFFF SUB DUP3 GT ISZERO PUSH2 0x83B JUMPI PUSH2 0x83A PUSH2 0x65B JUMP JUMPDEST JUMPDEST DUP3 DUP3 ADD SWAP1 POP SWAP3 SWAP2 POP POP JUMP JUMPDEST PUSH32 0x4E487B7100000000000000000000000000000000000000000000000000000000 PUSH1 0x0 MSTORE PUSH1 0x12 PUSH1 0x4 MSTORE PUSH1 0x24 PUSH1 0x0 REVERT JUMPDEST PUSH1 0x0 PUSH2 0x880 DUP3 PUSH2 0x4DE JUMP JUMPDEST SWAP2 POP PUSH2 0x88B DUP4 PUSH2 0x4DE JUMP JUMPDEST SWAP3 POP DUP3 PUSH2 0x89B JUMPI PUSH2 0x89A PUSH2 0x846 JUMP JUMPDEST JUMPDEST DUP3 DUP3 DIV SWAP1 POP SWAP3 SWAP2 POP POP JUMP INVALID LOG2 PUSH5 0x6970667358 0x22 SLT KECCAK256 POP POP 0xC6 SMOD 0x2B PUSH9 0x6FB76E7076A3DED57D 0xDF PUSH18 0xB9D510A4D8A856D4C31C26EC06163E64736F PUSH13 0x634300080B0033A26469706673 PC 0x22 SLT KECCAK256 DUP13 NUMBER LOG2 BYTE PUSH7 0xAC16B553ACE7AD 0xDC PUSH1 0xB2 0xD3 0xEA 0xB6 SWAP14 0x4D DUP9 PUSH14 0x7972514155D96A7D626A64736F6C PUSH4 0x4300080B STOP CALLER "},"gasEstimates":{"creation":{"codeDepositCost":"818000","executionCost":"851","totalCost":"818851"},"external":{"addNewManager(address)":"infinite","existingManager(address)":"2867","getManager(address)":"infinite","managers(address)":"infinite"}},"methodIdentifiers":{"addNewManager(address)":"4efc13d4","existingManager(address)":"6c2deb6e","getManager(address)":"3d584063","managers(address)":"fdff9b4d"}},"storageLayout":{"storage":[{"astId":139,"contract":"Funding.sol:ManagerFactory","label":"managers","offset":0,"slot":"0","type":"t_mapping(t_address,t_contract(Manager)134)"},{"astId":143,"contract":"Funding.sol:ManagerFactory","label":"existingManager","offset":0,"slot":"1","type":"t_mapping(t_address,t_bool)"}],"types":{"t_address":{"encoding":"inplace","label":"address","numberOfBytes":"20"},"t_bool":{"encoding":"inplace","label":"bool","numberOfBytes":"1"},"t_contract(Manager)134":{"encoding":"inplace","label":"contract Manager","numberOfBytes":"20"},"t_mapping(t_address,t_bool)":{"encoding":"mapping","key":"t_address","label":"mapping(address => bool)","numberOfBytes":"32","value":"t_bool"},"t_mapping(t_address,t_contract(Manager)134)":{"encoding":"mapping","key":"t_address","label":"mapping(address => contract Manager)","numberOfBytes":"32","value":"t_contract(Manager)134"}}},"userdoc":{"kind":"user","methods":{},"version":1}}