{"abi":[{"inputs":[{"internalType":"address","name":"_managerFactory","type":"address"}],"stateMutability":"nonpayable","type":"constructor"},{"inputs":[{"internalType":"string","name":"description","type":"string"},{"internalType":"uint256","name":"amount","type":"uint256"},{"internalType":"address payable","name":"recipient","type":"address"}],"name":"addNewRequest","outputs":[],"stateMutability":"nonpayable","type":"function"},{"inputs":[],"name":"managerFactory","outputs":[{"internalType":"address","name":"","type":"address"}],"stateMutability":"view","type":"function"},{"inputs":[{"internalType":"uint256","name":"","type":"uint256"}],"name":"requests","outputs":[{"internalType":"contract Request","name":"","type":"address"}],"stateMutability":"view","type":"function"}],"devdoc":{"kind":"dev","methods":{},"version":1},"evm":{"assembly":"    /* \"Funding.sol\":1746:2659  contract RequestFactory {... */\n  mstore(0x40, 0x80)\n    /* \"Funding.sol\":1929:2017  constructor(address _managerFactory) {... */\n  callvalue\n  dup1\n  iszero\n  tag_1\n  jumpi\n  0x00\n  dup1\n  revert\ntag_1:\n  pop\n  mload(0x40)\n  sub(codesize, bytecodeSize)\n  dup1\n  bytecodeSize\n  dup4\n  codecopy\n  dup2\n  dup2\n  add\n  0x40\n  mstore\n  dup2\n  add\n  swap1\n  tag_2\n  swap2\n  swap1\n  tag_3\n  jump\t// in\ntag_2:\n    /* \"Funding.sol\":1994:2009  _managerFactory */\n  dup1\n    /* \"Funding.sol\":1977:1991  managerFactory */\n  0x00\n  dup1\n    /* \"Funding.sol\":1977:2009  managerFactory = _managerFactory */\n  0x0100\n  exp\n  dup2\n  sload\n  dup2\n  0xffffffffffffffffffffffffffffffffffffffff\n  mul\n  not\n  and\n  swap1\n  dup4\n  0xffffffffffffffffffffffffffffffffffffffff\n  and\n  mul\n  or\n  swap1\n  sstore\n  pop\n    /* \"Funding.sol\":1929:2017  constructor(address _managerFactory) {... */\n  pop\n    /* \"Funding.sol\":1746:2659  contract RequestFactory {... */\n  jump(tag_6)\n    /* \"#utility.yul\":88:205   */\ntag_8:\n    /* \"#utility.yul\":197:198   */\n  0x00\n    /* \"#utility.yul\":194:195   */\n  dup1\n    /* \"#utility.yul\":187:199   */\n  revert\n    /* \"#utility.yul\":334:460   */\ntag_10:\n    /* \"#utility.yul\":371:378   */\n  0x00\n    /* \"#utility.yul\":411:453   */\n  0xffffffffffffffffffffffffffffffffffffffff\n    /* \"#utility.yul\":404:409   */\n  dup3\n    /* \"#utility.yul\":400:454   */\n  and\n    /* \"#utility.yul\":389:454   */\n  swap1\n  pop\n    /* \"#utility.yul\":334:460   */\n  swap2\n  swap1\n  pop\n  jump\t// out\n    /* \"#utility.yul\":466:562   */\ntag_11:\n    /* \"#utility.yul\":503:510   */\n  0x00\n    /* \"#utility.yul\":532:556   */\n  tag_20\n    /* \"#utility.yul\":550:555   */\n  dup3\n    /* \"#utility.yul\":532:556   */\n  tag_10\n  jump\t// in\ntag_20:\n    /* \"#utility.yul\":521:556   */\n  swap1\n  pop\n    /* \"#utility.yul\":466:562   */\n  swap2\n  swap1\n  pop\n  jump\t// out\n    /* \"#utility.yul\":568:690   */\ntag_12:\n    /* \"#utility.yul\":641:665   */\n  tag_22\n    /* \"#utility.yul\":659:664   */\n  dup2\n    /* \"#utility.yul\":641:665   */\n  tag_11\n  jump\t// in\ntag_22:\n    /* \"#utility.yul\":634:639   */\n  dup2\n    /* \"#utility.yul\":631:666   */\n  eq\n    /* \"#utility.yul\":621:684   */\n  tag_23\n  jumpi\n    /* \"#utility.yul\":680:681   */\n  0x00\n    /* \"#utility.yul\":677:678   */\n  dup1\n    /* \"#utility.yul\":670:682   */\n  revert\n    /* \"#utility.yul\":621:684   */\ntag_23:\n    /* \"#utility.yul\":568:690   */\n  pop\n  jump\t// out\n    /* \"#utility.yul\":696:839   */\ntag_13:\n    /* \"#utility.yul\":753:758   */\n  0x00\n    /* \"#utility.yul\":784:790   */\n  dup2\n    /* \"#utility.yul\":778:791   */\n  mload\n    /* \"#utility.yul\":769:791   */\n  swap1\n  pop\n    /* \"#utility.yul\":800:833   */\n  tag_25\n    /* \"#utility.yul\":827:832   */\n  dup2\n    /* \"#utility.yul\":800:833   */\n  tag_12\n  jump\t// in\ntag_25:\n    /* \"#utility.yul\":696:839   */\n  swap3\n  swap2\n  pop\n  pop\n  jump\t// out\n    /* \"#utility.yul\":845:1196   */\ntag_3:\n    /* \"#utility.yul\":915:921   */\n  0x00\n    /* \"#utility.yul\":964:966   */\n  0x20\n    /* \"#utility.yul\":952:961   */\n  dup3\n    /* \"#utility.yul\":943:950   */\n  dup5\n    /* \"#utility.yul\":939:962   */\n  sub\n    /* \"#utility.yul\":935:967   */\n  slt\n    /* \"#utility.yul\":932:1051   */\n  iszero\n  tag_27\n  jumpi\n    /* \"#utility.yul\":970:1049   */\n  tag_28\n  tag_8\n  jump\t// in\ntag_28:\n    /* \"#utility.yul\":932:1051   */\ntag_27:\n    /* \"#utility.yul\":1090:1091   */\n  0x00\n    /* \"#utility.yul\":1115:1179   */\n  tag_29\n    /* \"#utility.yul\":1171:1178   */\n  dup5\n    /* \"#utility.yul\":1162:1168   */\n  dup3\n    /* \"#utility.yul\":1151:1160   */\n  dup6\n    /* \"#utility.yul\":1147:1169   */\n  add\n    /* \"#utility.yul\":1115:1179   */\n  tag_13\n  jump\t// in\ntag_29:\n    /* \"#utility.yul\":1105:1179   */\n  swap2\n  pop\n    /* \"#utility.yul\":1061:1189   */\n  pop\n    /* \"#utility.yul\":845:1196   */\n  swap3\n  swap2\n  pop\n  pop\n  jump\t// out\n    /* \"Funding.sol\":1746:2659  contract RequestFactory {... */\ntag_6:\n  dataSize(sub_0)\n  dup1\n  dataOffset(sub_0)\n  0x00\n  codecopy\n  0x00\n  return\nstop\n\nsub_0: assembly {\n        /* \"Funding.sol\":1746:2659  contract RequestFactory {... */\n      mstore(0x40, 0x80)\n      callvalue\n      dup1\n      iszero\n      tag_1\n      jumpi\n      0x00\n      dup1\n      revert\n    tag_1:\n      pop\n      jumpi(tag_2, lt(calldatasize, 0x04))\n      shr(0xe0, calldataload(0x00))\n      dup1\n      0x381b1d82\n      eq\n      tag_3\n      jumpi\n      dup1\n      0x81d12c58\n      eq\n      tag_4\n      jumpi\n      dup1\n      0xd9398c73\n      eq\n      tag_5\n      jumpi\n    tag_2:\n      0x00\n      dup1\n      revert\n        /* \"Funding.sol\":2025:2656  function addNewRequest(string memory description, uint amount, address payable recipient) public{... */\n    tag_3:\n      tag_6\n      0x04\n      dup1\n      calldatasize\n      sub\n      dup2\n      add\n      swap1\n      tag_7\n      swap2\n      swap1\n      tag_8\n      jump\t// in\n    tag_7:\n      tag_9\n      jump\t// in\n    tag_6:\n      stop\n        /* \"Funding.sol\":1895:1920  Request[] public requests */\n    tag_4:\n      tag_10\n      0x04\n      dup1\n      calldatasize\n      sub\n      dup2\n      add\n      swap1\n      tag_11\n      swap2\n      swap1\n      tag_12\n      jump\t// in\n    tag_11:\n      tag_13\n      jump\t// in\n    tag_10:\n      mload(0x40)\n      tag_14\n      swap2\n      swap1\n      tag_15\n      jump\t// in\n    tag_14:\n      mload(0x40)\n      dup1\n      swap2\n      sub\n      swap1\n      return\n        /* \"Funding.sol\":1857:1886  address public managerFactory */\n    tag_5:\n      tag_16\n      tag_17\n      jump\t// in\n    tag_16:\n      mload(0x40)\n      tag_18\n      swap2\n      swap1\n      tag_19\n      jump\t// in\n    tag_18:\n      mload(0x40)\n      dup1\n      swap2\n      sub\n      swap1\n      return\n        /* \"Funding.sol\":2025:2656  function addNewRequest(string memory description, uint amount, address payable recipient) public{... */\n    tag_9:\n        /* \"Funding.sol\":1845:1848  100 */\n      0x64\n        /* \"Funding.sol\":2140:2146  amount */\n      dup3\n        /* \"Funding.sol\":2140:2163  amount >= minimumAmount */\n      lt\n      iszero\n        /* \"Funding.sol\":2132:2196  require(amount >= minimumAmount, \"you can't request less money\") */\n      tag_21\n      jumpi\n      mload(0x40)\n      0x08c379a000000000000000000000000000000000000000000000000000000000\n      dup2\n      mstore\n      0x04\n      add\n      tag_22\n      swap1\n      tag_23\n      jump\t// in\n    tag_22:\n      mload(0x40)\n      dup1\n      swap2\n      sub\n      swap1\n      revert\n    tag_21:\n        /* \"Funding.sol\":2207:2216  Manager m */\n      0x00\n        /* \"Funding.sol\":2234:2248  managerFactory */\n      dup1\n      0x00\n      swap1\n      sload\n      swap1\n      0x0100\n      exp\n      swap1\n      div\n      0xffffffffffffffffffffffffffffffffffffffff\n      and\n        /* \"Funding.sol\":2219:2260  ManagerFactory(managerFactory).getManager */\n      0xffffffffffffffffffffffffffffffffffffffff\n      and\n      0x3d584063\n        /* \"Funding.sol\":2261:2271  msg.sender */\n      caller\n        /* \"Funding.sol\":2219:2272  ManagerFactory(managerFactory).getManager(msg.sender) */\n      mload(0x40)\n      dup3\n      0xffffffff\n      and\n      0xe0\n      shl\n      dup2\n      mstore\n      0x04\n      add\n      tag_24\n      swap2\n      swap1\n      tag_19\n      jump\t// in\n    tag_24:\n      0x20\n      mload(0x40)\n      dup1\n      dup4\n      sub\n      dup2\n      0x00\n      dup8\n      gas\n      call\n      iszero\n      dup1\n      iszero\n      tag_26\n      jumpi\n      returndatasize\n      0x00\n      dup1\n      returndatacopy\n      revert(0x00, returndatasize)\n    tag_26:\n      pop\n      pop\n      pop\n      pop\n      mload(0x40)\n      returndatasize\n      not(0x1f)\n      0x1f\n      dup3\n      add\n      and\n      dup3\n      add\n      dup1\n      0x40\n      mstore\n      pop\n      dup2\n      add\n      swap1\n      tag_27\n      swap2\n      swap1\n      tag_28\n      jump\t// in\n    tag_27:\n        /* \"Funding.sol\":2207:2272  Manager m = ManagerFactory(managerFactory).getManager(msg.sender) */\n      swap1\n      pop\n        /* \"Funding.sol\":1807:1808  1 */\n      0x01\n        /* \"Funding.sol\":2293:2294  m */\n      dup2\n        /* \"Funding.sol\":2293:2304  m.totalBans */\n      0xffffffffffffffffffffffffffffffffffffffff\n      and\n      0xd2a5bfaa\n        /* \"Funding.sol\":2293:2306  m.totalBans() */\n      mload(0x40)\n      dup2\n      0xffffffff\n      and\n      0xe0\n      shl\n      dup2\n      mstore\n      0x04\n      add\n      0x20\n      mload(0x40)\n      dup1\n      dup4\n      sub\n      dup2\n      dup7\n      gas\n      staticcall\n      iszero\n      dup1\n      iszero\n      tag_30\n      jumpi\n      returndatasize\n      0x00\n      dup1\n      returndatacopy\n      revert(0x00, returndatasize)\n    tag_30:\n      pop\n      pop\n      pop\n      pop\n      mload(0x40)\n      returndatasize\n      not(0x1f)\n      0x1f\n      dup3\n      add\n      and\n      dup3\n      add\n      dup1\n      0x40\n      mstore\n      pop\n      dup2\n      add\n      swap1\n      tag_31\n      swap2\n      swap1\n      tag_32\n      jump\t// in\n    tag_31:\n        /* \"Funding.sol\":2293:2322  m.totalBans() < banThreshHold */\n      lt\n        /* \"Funding.sol\":2285:2341  require(m.totalBans() < banThreshHold, \"you are banned\") */\n      tag_33\n      jumpi\n      mload(0x40)\n      0x08c379a000000000000000000000000000000000000000000000000000000000\n      dup2\n      mstore\n      0x04\n      add\n      tag_34\n      swap1\n      tag_35\n      jump\t// in\n    tag_34:\n      mload(0x40)\n      dup1\n      swap2\n      sub\n      swap1\n      revert\n    tag_33:\n        /* \"Funding.sol\":2429:2430  m */\n      dup1\n        /* \"Funding.sol\":2429:2438  m.holding */\n      0xffffffffffffffffffffffffffffffffffffffff\n      and\n      0x3498858d\n        /* \"Funding.sol\":2429:2440  m.holding() */\n      mload(0x40)\n      dup2\n      0xffffffff\n      and\n      0xe0\n      shl\n      dup2\n      mstore\n      0x04\n      add\n      0x20\n      mload(0x40)\n      dup1\n      dup4\n      sub\n      dup2\n      dup7\n      gas\n      staticcall\n      iszero\n      dup1\n      iszero\n      tag_37\n      jumpi\n      returndatasize\n      0x00\n      dup1\n      returndatacopy\n      revert(0x00, returndatasize)\n    tag_37:\n      pop\n      pop\n      pop\n      pop\n      mload(0x40)\n      returndatasize\n      not(0x1f)\n      0x1f\n      dup3\n      add\n      and\n      dup3\n      add\n      dup1\n      0x40\n      mstore\n      pop\n      dup2\n      add\n      swap1\n      tag_38\n      swap2\n      swap1\n      tag_39\n      jump\t// in\n    tag_38:\n        /* \"Funding.sol\":2428:2440  !m.holding() */\n      iszero\n        /* \"Funding.sol\":2420:2471  require(!m.holding(), \"you have already requested\") */\n      tag_40\n      jumpi\n      mload(0x40)\n      0x08c379a000000000000000000000000000000000000000000000000000000000\n      dup2\n      mstore\n      0x04\n      add\n      tag_41\n      swap1\n      tag_42\n      jump\t// in\n    tag_41:\n      mload(0x40)\n      dup1\n      swap2\n      sub\n      swap1\n      revert\n    tag_40:\n        /* \"Funding.sol\":2484:2499  Request request */\n      0x00\n        /* \"Funding.sol\":2514:2525  description */\n      dup5\n        /* \"Funding.sol\":2527:2533  amount */\n      dup5\n        /* \"Funding.sol\":2535:2544  recipient */\n      dup5\n        /* \"Funding.sol\":2546:2547  m */\n      dup5\n        /* \"Funding.sol\":2502:2548  new Request(description, amount, recipient, m) */\n      mload(0x40)\n      tag_43\n      swap1\n      tag_44\n      jump\t// in\n    tag_43:\n      tag_45\n      swap5\n      swap4\n      swap3\n      swap2\n      swap1\n      tag_46\n      jump\t// in\n    tag_45:\n      mload(0x40)\n      dup1\n      swap2\n      sub\n      swap1\n      0x00\n      create\n      dup1\n      iszero\n      dup1\n      iszero\n      tag_47\n      jumpi\n      returndatasize\n      0x00\n      dup1\n      returndatacopy\n      revert(0x00, returndatasize)\n    tag_47:\n      pop\n        /* \"Funding.sol\":2484:2548  Request request = new Request(description, amount, recipient, m) */\n      swap1\n      pop\n        /* \"Funding.sol\":2559:2567  requests */\n      0x01\n        /* \"Funding.sol\":2573:2580  request */\n      dup2\n        /* \"Funding.sol\":2559:2581  requests.push(request) */\n      swap1\n      dup1\n      0x01\n      dup2\n      sload\n      add\n      dup1\n      dup3\n      sstore\n      dup1\n      swap2\n      pop\n      pop\n      0x01\n      swap1\n      sub\n      swap1\n      0x00\n      mstore\n      keccak256(0x00, 0x20)\n      add\n      0x00\n      swap1\n      swap2\n      swap1\n      swap2\n      swap1\n      swap2\n      0x0100\n      exp\n      dup2\n      sload\n      dup2\n      0xffffffffffffffffffffffffffffffffffffffff\n      mul\n      not\n      and\n      swap1\n      dup4\n      0xffffffffffffffffffffffffffffffffffffffff\n      and\n      mul\n      or\n      swap1\n      sstore\n      pop\n        /* \"Funding.sol\":2594:2595  m */\n      dup2\n        /* \"Funding.sol\":2594:2606  m.addHolding */\n      0xffffffffffffffffffffffffffffffffffffffff\n      and\n      0x86f67568\n        /* \"Funding.sol\":2594:2608  m.addHolding() */\n      mload(0x40)\n      dup2\n      0xffffffff\n      and\n      0xe0\n      shl\n      dup2\n      mstore\n      0x04\n      add\n      0x00\n      mload(0x40)\n      dup1\n      dup4\n      sub\n      dup2\n      0x00\n      dup8\n      dup1\n      extcodesize\n      iszero\n      dup1\n      iszero\n      tag_49\n      jumpi\n      0x00\n      dup1\n      revert\n    tag_49:\n      pop\n      gas\n      call\n      iszero\n      dup1\n      iszero\n      tag_51\n      jumpi\n      returndatasize\n      0x00\n      dup1\n      returndatacopy\n      revert(0x00, returndatasize)\n    tag_51:\n      pop\n      pop\n      pop\n      pop\n        /* \"Funding.sol\":2121:2656  {... */\n      pop\n      pop\n        /* \"Funding.sol\":2025:2656  function addNewRequest(string memory description, uint amount, address payable recipient) public{... */\n      pop\n      pop\n      pop\n      jump\t// out\n        /* \"Funding.sol\":1895:1920  Request[] public requests */\n    tag_13:\n      0x01\n      dup2\n      dup2\n      sload\n      dup2\n      lt\n      tag_52\n      jumpi\n      0x00\n      dup1\n      revert\n    tag_52:\n      swap1\n      0x00\n      mstore\n      keccak256(0x00, 0x20)\n      add\n      0x00\n      swap2\n      pop\n      sload\n      swap1\n      0x0100\n      exp\n      swap1\n      div\n      0xffffffffffffffffffffffffffffffffffffffff\n      and\n      dup2\n      jump\t// out\n        /* \"Funding.sol\":1857:1886  address public managerFactory */\n    tag_17:\n      0x00\n      dup1\n      sload\n      swap1\n      0x0100\n      exp\n      swap1\n      div\n      0xffffffffffffffffffffffffffffffffffffffff\n      and\n      dup2\n      jump\t// out\n    tag_44:\n      dataSize(sub_0)\n      dup1\n      dataOffset(sub_0)\n      dup4\n      codecopy\n      add\n      swap1\n      jump\t// out\n        /* \"#utility.yul\":7:82   */\n    tag_54:\n        /* \"#utility.yul\":40:46   */\n      0x00\n        /* \"#utility.yul\":73:75   */\n      0x40\n        /* \"#utility.yul\":67:76   */\n      mload\n        /* \"#utility.yul\":57:76   */\n      swap1\n      pop\n        /* \"#utility.yul\":7:82   */\n      swap1\n      jump\t// out\n        /* \"#utility.yul\":88:205   */\n    tag_55:\n        /* \"#utility.yul\":197:198   */\n      0x00\n        /* \"#utility.yul\":194:195   */\n      dup1\n        /* \"#utility.yul\":187:199   */\n      revert\n        /* \"#utility.yul\":211:328   */\n    tag_56:\n        /* \"#utility.yul\":320:321   */\n      0x00\n        /* \"#utility.yul\":317:318   */\n      dup1\n        /* \"#utility.yul\":310:322   */\n      revert\n        /* \"#utility.yul\":334:451   */\n    tag_57:\n        /* \"#utility.yul\":443:444   */\n      0x00\n        /* \"#utility.yul\":440:441   */\n      dup1\n        /* \"#utility.yul\":433:445   */\n      revert\n        /* \"#utility.yul\":457:574   */\n    tag_58:\n        /* \"#utility.yul\":566:567   */\n      0x00\n        /* \"#utility.yul\":563:564   */\n      dup1\n        /* \"#utility.yul\":556:568   */\n      revert\n        /* \"#utility.yul\":580:682   */\n    tag_59:\n        /* \"#utility.yul\":621:627   */\n      0x00\n        /* \"#utility.yul\":672:674   */\n      0x1f\n        /* \"#utility.yul\":668:675   */\n      not\n        /* \"#utility.yul\":663:665   */\n      0x1f\n        /* \"#utility.yul\":656:661   */\n      dup4\n        /* \"#utility.yul\":652:666   */\n      add\n        /* \"#utility.yul\":648:676   */\n      and\n        /* \"#utility.yul\":638:676   */\n      swap1\n      pop\n        /* \"#utility.yul\":580:682   */\n      swap2\n      swap1\n      pop\n      jump\t// out\n        /* \"#utility.yul\":688:868   */\n    tag_60:\n        /* \"#utility.yul\":736:813   */\n      0x4e487b7100000000000000000000000000000000000000000000000000000000\n        /* \"#utility.yul\":733:734   */\n      0x00\n        /* \"#utility.yul\":726:814   */\n      mstore\n        /* \"#utility.yul\":833:837   */\n      0x41\n        /* \"#utility.yul\":830:831   */\n      0x04\n        /* \"#utility.yul\":823:838   */\n      mstore\n        /* \"#utility.yul\":857:861   */\n      0x24\n        /* \"#utility.yul\":854:855   */\n      0x00\n        /* \"#utility.yul\":847:862   */\n      revert\n        /* \"#utility.yul\":874:1155   */\n    tag_61:\n        /* \"#utility.yul\":957:984   */\n      tag_111\n        /* \"#utility.yul\":979:983   */\n      dup3\n        /* \"#utility.yul\":957:984   */\n      tag_59\n      jump\t// in\n    tag_111:\n        /* \"#utility.yul\":949:955   */\n      dup2\n        /* \"#utility.yul\":945:985   */\n      add\n        /* \"#utility.yul\":1087:1093   */\n      dup2\n        /* \"#utility.yul\":1075:1085   */\n      dup2\n        /* \"#utility.yul\":1072:1094   */\n      lt\n        /* \"#utility.yul\":1051:1069   */\n      0xffffffffffffffff\n        /* \"#utility.yul\":1039:1049   */\n      dup3\n        /* \"#utility.yul\":1036:1070   */\n      gt\n        /* \"#utility.yul\":1033:1095   */\n      or\n        /* \"#utility.yul\":1030:1118   */\n      iszero\n      tag_112\n      jumpi\n        /* \"#utility.yul\":1098:1116   */\n      tag_113\n      tag_60\n      jump\t// in\n    tag_113:\n        /* \"#utility.yul\":1030:1118   */\n    tag_112:\n        /* \"#utility.yul\":1138:1148   */\n      dup1\n        /* \"#utility.yul\":1134:1136   */\n      0x40\n        /* \"#utility.yul\":1127:1149   */\n      mstore\n        /* \"#utility.yul\":917:1155   */\n      pop\n        /* \"#utility.yul\":874:1155   */\n      pop\n      pop\n      jump\t// out\n        /* \"#utility.yul\":1161:1290   */\n    tag_62:\n        /* \"#utility.yul\":1195:1201   */\n      0x00\n        /* \"#utility.yul\":1222:1242   */\n      tag_115\n      tag_54\n      jump\t// in\n    tag_115:\n        /* \"#utility.yul\":1212:1242   */\n      swap1\n      pop\n        /* \"#utility.yul\":1251:1284   */\n      tag_116\n        /* \"#utility.yul\":1279:1283   */\n      dup3\n        /* \"#utility.yul\":1271:1277   */\n      dup3\n        /* \"#utility.yul\":1251:1284   */\n      tag_61\n      jump\t// in\n    tag_116:\n        /* \"#utility.yul\":1161:1290   */\n      swap2\n      swap1\n      pop\n      jump\t// out\n        /* \"#utility.yul\":1296:1604   */\n    tag_63:\n        /* \"#utility.yul\":1358:1362   */\n      0x00\n        /* \"#utility.yul\":1448:1466   */\n      0xffffffffffffffff\n        /* \"#utility.yul\":1440:1446   */\n      dup3\n        /* \"#utility.yul\":1437:1467   */\n      gt\n        /* \"#utility.yul\":1434:1490   */\n      iszero\n      tag_118\n      jumpi\n        /* \"#utility.yul\":1470:1488   */\n      tag_119\n      tag_60\n      jump\t// in\n    tag_119:\n        /* \"#utility.yul\":1434:1490   */\n    tag_118:\n        /* \"#utility.yul\":1508:1537   */\n      tag_120\n        /* \"#utility.yul\":1530:1536   */\n      dup3\n        /* \"#utility.yul\":1508:1537   */\n      tag_59\n      jump\t// in\n    tag_120:\n        /* \"#utility.yul\":1500:1537   */\n      swap1\n      pop\n        /* \"#utility.yul\":1592:1596   */\n      0x20\n        /* \"#utility.yul\":1586:1590   */\n      dup2\n        /* \"#utility.yul\":1582:1597   */\n      add\n        /* \"#utility.yul\":1574:1597   */\n      swap1\n      pop\n        /* \"#utility.yul\":1296:1604   */\n      swap2\n      swap1\n      pop\n      jump\t// out\n        /* \"#utility.yul\":1610:1764   */\n    tag_64:\n        /* \"#utility.yul\":1694:1700   */\n      dup3\n        /* \"#utility.yul\":1689:1692   */\n      dup2\n        /* \"#utility.yul\":1684:1687   */\n      dup4\n        /* \"#utility.yul\":1671:1701   */\n      calldatacopy\n        /* \"#utility.yul\":1756:1757   */\n      0x00\n        /* \"#utility.yul\":1747:1753   */\n      dup4\n        /* \"#utility.yul\":1742:1745   */\n      dup4\n        /* \"#utility.yul\":1738:1754   */\n      add\n        /* \"#utility.yul\":1731:1758   */\n      mstore\n        /* \"#utility.yul\":1610:1764   */\n      pop\n      pop\n      pop\n      jump\t// out\n        /* \"#utility.yul\":1770:2182   */\n    tag_65:\n        /* \"#utility.yul\":1848:1853   */\n      0x00\n        /* \"#utility.yul\":1873:1939   */\n      tag_123\n        /* \"#utility.yul\":1889:1938   */\n      tag_124\n        /* \"#utility.yul\":1931:1937   */\n      dup5\n        /* \"#utility.yul\":1889:1938   */\n      tag_63\n      jump\t// in\n    tag_124:\n        /* \"#utility.yul\":1873:1939   */\n      tag_62\n      jump\t// in\n    tag_123:\n        /* \"#utility.yul\":1864:1939   */\n      swap1\n      pop\n        /* \"#utility.yul\":1962:1968   */\n      dup3\n        /* \"#utility.yul\":1955:1960   */\n      dup2\n        /* \"#utility.yul\":1948:1969   */\n      mstore\n        /* \"#utility.yul\":2000:2004   */\n      0x20\n        /* \"#utility.yul\":1993:1998   */\n      dup2\n        /* \"#utility.yul\":1989:2005   */\n      add\n        /* \"#utility.yul\":2038:2041   */\n      dup5\n        /* \"#utility.yul\":2029:2035   */\n      dup5\n        /* \"#utility.yul\":2024:2027   */\n      dup5\n        /* \"#utility.yul\":2020:2036   */\n      add\n        /* \"#utility.yul\":2017:2042   */\n      gt\n        /* \"#utility.yul\":2014:2126   */\n      iszero\n      tag_125\n      jumpi\n        /* \"#utility.yul\":2045:2124   */\n      tag_126\n      tag_58\n      jump\t// in\n    tag_126:\n        /* \"#utility.yul\":2014:2126   */\n    tag_125:\n        /* \"#utility.yul\":2135:2176   */\n      tag_127\n        /* \"#utility.yul\":2169:2175   */\n      dup5\n        /* \"#utility.yul\":2164:2167   */\n      dup3\n        /* \"#utility.yul\":2159:2162   */\n      dup6\n        /* \"#utility.yul\":2135:2176   */\n      tag_64\n      jump\t// in\n    tag_127:\n        /* \"#utility.yul\":1854:2182   */\n      pop\n        /* \"#utility.yul\":1770:2182   */\n      swap4\n      swap3\n      pop\n      pop\n      pop\n      jump\t// out\n        /* \"#utility.yul\":2202:2542   */\n    tag_66:\n        /* \"#utility.yul\":2258:2263   */\n      0x00\n        /* \"#utility.yul\":2307:2310   */\n      dup3\n        /* \"#utility.yul\":2300:2304   */\n      0x1f\n        /* \"#utility.yul\":2292:2298   */\n      dup4\n        /* \"#utility.yul\":2288:2305   */\n      add\n        /* \"#utility.yul\":2284:2311   */\n      slt\n        /* \"#utility.yul\":2274:2396   */\n      tag_129\n      jumpi\n        /* \"#utility.yul\":2315:2394   */\n      tag_130\n      tag_57\n      jump\t// in\n    tag_130:\n        /* \"#utility.yul\":2274:2396   */\n    tag_129:\n        /* \"#utility.yul\":2432:2438   */\n      dup2\n        /* \"#utility.yul\":2419:2439   */\n      calldataload\n        /* \"#utility.yul\":2457:2536   */\n      tag_131\n        /* \"#utility.yul\":2532:2535   */\n      dup5\n        /* \"#utility.yul\":2524:2530   */\n      dup3\n        /* \"#utility.yul\":2517:2521   */\n      0x20\n        /* \"#utility.yul\":2509:2515   */\n      dup7\n        /* \"#utility.yul\":2505:2522   */\n      add\n        /* \"#utility.yul\":2457:2536   */\n      tag_65\n      jump\t// in\n    tag_131:\n        /* \"#utility.yul\":2448:2536   */\n      swap2\n      pop\n        /* \"#utility.yul\":2264:2542   */\n      pop\n        /* \"#utility.yul\":2202:2542   */\n      swap3\n      swap2\n      pop\n      pop\n      jump\t// out\n        /* \"#utility.yul\":2548:2625   */\n    tag_67:\n        /* \"#utility.yul\":2585:2592   */\n      0x00\n        /* \"#utility.yul\":2614:2619   */\n      dup2\n        /* \"#utility.yul\":2603:2619   */\n      swap1\n      pop\n        /* \"#utility.yul\":2548:2625   */\n      swap2\n      swap1\n      pop\n      jump\t// out\n        /* \"#utility.yul\":2631:2753   */\n    tag_68:\n        /* \"#utility.yul\":2704:2728   */\n      tag_134\n        /* \"#utility.yul\":2722:2727   */\n      dup2\n        /* \"#utility.yul\":2704:2728   */\n      tag_67\n      jump\t// in\n    tag_134:\n        /* \"#utility.yul\":2697:2702   */\n      dup2\n        /* \"#utility.yul\":2694:2729   */\n      eq\n        /* \"#utility.yul\":2684:2747   */\n      tag_135\n      jumpi\n        /* \"#utility.yul\":2743:2744   */\n      0x00\n        /* \"#utility.yul\":2740:2741   */\n      dup1\n        /* \"#utility.yul\":2733:2745   */\n      revert\n        /* \"#utility.yul\":2684:2747   */\n    tag_135:\n        /* \"#utility.yul\":2631:2753   */\n      pop\n      jump\t// out\n        /* \"#utility.yul\":2759:2898   */\n    tag_69:\n        /* \"#utility.yul\":2805:2810   */\n      0x00\n        /* \"#utility.yul\":2843:2849   */\n      dup2\n        /* \"#utility.yul\":2830:2850   */\n      calldataload\n        /* \"#utility.yul\":2821:2850   */\n      swap1\n      pop\n        /* \"#utility.yul\":2859:2892   */\n      tag_137\n        /* \"#utility.yul\":2886:2891   */\n      dup2\n        /* \"#utility.yul\":2859:2892   */\n      tag_68\n      jump\t// in\n    tag_137:\n        /* \"#utility.yul\":2759:2898   */\n      swap3\n      swap2\n      pop\n      pop\n      jump\t// out\n        /* \"#utility.yul\":2904:3030   */\n    tag_70:\n        /* \"#utility.yul\":2941:2948   */\n      0x00\n        /* \"#utility.yul\":2981:3023   */\n      0xffffffffffffffffffffffffffffffffffffffff\n        /* \"#utility.yul\":2974:2979   */\n      dup3\n        /* \"#utility.yul\":2970:3024   */\n      and\n        /* \"#utility.yul\":2959:3024   */\n      swap1\n      pop\n        /* \"#utility.yul\":2904:3030   */\n      swap2\n      swap1\n      pop\n      jump\t// out\n        /* \"#utility.yul\":3036:3140   */\n    tag_71:\n        /* \"#utility.yul\":3081:3088   */\n      0x00\n        /* \"#utility.yul\":3110:3134   */\n      tag_140\n        /* \"#utility.yul\":3128:3133   */\n      dup3\n        /* \"#utility.yul\":3110:3134   */\n      tag_70\n      jump\t// in\n    tag_140:\n        /* \"#utility.yul\":3099:3134   */\n      swap1\n      pop\n        /* \"#utility.yul\":3036:3140   */\n      swap2\n      swap1\n      pop\n      jump\t// out\n        /* \"#utility.yul\":3146:3284   */\n    tag_72:\n        /* \"#utility.yul\":3227:3259   */\n      tag_142\n        /* \"#utility.yul\":3253:3258   */\n      dup2\n        /* \"#utility.yul\":3227:3259   */\n      tag_71\n      jump\t// in\n    tag_142:\n        /* \"#utility.yul\":3220:3225   */\n      dup2\n        /* \"#utility.yul\":3217:3260   */\n      eq\n        /* \"#utility.yul\":3207:3278   */\n      tag_143\n      jumpi\n        /* \"#utility.yul\":3274:3275   */\n      0x00\n        /* \"#utility.yul\":3271:3272   */\n      dup1\n        /* \"#utility.yul\":3264:3276   */\n      revert\n        /* \"#utility.yul\":3207:3278   */\n    tag_143:\n        /* \"#utility.yul\":3146:3284   */\n      pop\n      jump\t// out\n        /* \"#utility.yul\":3290:3445   */\n    tag_73:\n        /* \"#utility.yul\":3344:3349   */\n      0x00\n        /* \"#utility.yul\":3382:3388   */\n      dup2\n        /* \"#utility.yul\":3369:3389   */\n      calldataload\n        /* \"#utility.yul\":3360:3389   */\n      swap1\n      pop\n        /* \"#utility.yul\":3398:3439   */\n      tag_145\n        /* \"#utility.yul\":3433:3438   */\n      dup2\n        /* \"#utility.yul\":3398:3439   */\n      tag_72\n      jump\t// in\n    tag_145:\n        /* \"#utility.yul\":3290:3445   */\n      swap3\n      swap2\n      pop\n      pop\n      jump\t// out\n        /* \"#utility.yul\":3451:4266   */\n    tag_8:\n        /* \"#utility.yul\":3546:3552   */\n      0x00\n        /* \"#utility.yul\":3554:3560   */\n      dup1\n        /* \"#utility.yul\":3562:3568   */\n      0x00\n        /* \"#utility.yul\":3611:3613   */\n      0x60\n        /* \"#utility.yul\":3599:3608   */\n      dup5\n        /* \"#utility.yul\":3590:3597   */\n      dup7\n        /* \"#utility.yul\":3586:3609   */\n      sub\n        /* \"#utility.yul\":3582:3614   */\n      slt\n        /* \"#utility.yul\":3579:3698   */\n      iszero\n      tag_147\n      jumpi\n        /* \"#utility.yul\":3617:3696   */\n      tag_148\n      tag_55\n      jump\t// in\n    tag_148:\n        /* \"#utility.yul\":3579:3698   */\n    tag_147:\n        /* \"#utility.yul\":3765:3766   */\n      0x00\n        /* \"#utility.yul\":3754:3763   */\n      dup5\n        /* \"#utility.yul\":3750:3767   */\n      add\n        /* \"#utility.yul\":3737:3768   */\n      calldataload\n        /* \"#utility.yul\":3795:3813   */\n      0xffffffffffffffff\n        /* \"#utility.yul\":3787:3793   */\n      dup2\n        /* \"#utility.yul\":3784:3814   */\n      gt\n        /* \"#utility.yul\":3781:3898   */\n      iszero\n      tag_149\n      jumpi\n        /* \"#utility.yul\":3817:3896   */\n      tag_150\n      tag_56\n      jump\t// in\n    tag_150:\n        /* \"#utility.yul\":3781:3898   */\n    tag_149:\n        /* \"#utility.yul\":3922:3985   */\n      tag_151\n        /* \"#utility.yul\":3977:3984   */\n      dup7\n        /* \"#utility.yul\":3968:3974   */\n      dup3\n        /* \"#utility.yul\":3957:3966   */\n      dup8\n        /* \"#utility.yul\":3953:3975   */\n      add\n        /* \"#utility.yul\":3922:3985   */\n      tag_66\n      jump\t// in\n    tag_151:\n        /* \"#utility.yul\":3912:3985   */\n      swap4\n      pop\n        /* \"#utility.yul\":3708:3995   */\n      pop\n        /* \"#utility.yul\":4034:4036   */\n      0x20\n        /* \"#utility.yul\":4060:4113   */\n      tag_152\n        /* \"#utility.yul\":4105:4112   */\n      dup7\n        /* \"#utility.yul\":4096:4102   */\n      dup3\n        /* \"#utility.yul\":4085:4094   */\n      dup8\n        /* \"#utility.yul\":4081:4103   */\n      add\n        /* \"#utility.yul\":4060:4113   */\n      tag_69\n      jump\t// in\n    tag_152:\n        /* \"#utility.yul\":4050:4113   */\n      swap3\n      pop\n        /* \"#utility.yul\":4005:4123   */\n      pop\n        /* \"#utility.yul\":4162:4164   */\n      0x40\n        /* \"#utility.yul\":4188:4249   */\n      tag_153\n        /* \"#utility.yul\":4241:4248   */\n      dup7\n        /* \"#utility.yul\":4232:4238   */\n      dup3\n        /* \"#utility.yul\":4221:4230   */\n      dup8\n        /* \"#utility.yul\":4217:4239   */\n      add\n        /* \"#utility.yul\":4188:4249   */\n      tag_73\n      jump\t// in\n    tag_153:\n        /* \"#utility.yul\":4178:4249   */\n      swap2\n      pop\n        /* \"#utility.yul\":4133:4259   */\n      pop\n        /* \"#utility.yul\":3451:4266   */\n      swap3\n      pop\n      swap3\n      pop\n      swap3\n      jump\t// out\n        /* \"#utility.yul\":4272:4601   */\n    tag_12:\n        /* \"#utility.yul\":4331:4337   */\n      0x00\n        /* \"#utility.yul\":4380:4382   */\n      0x20\n        /* \"#utility.yul\":4368:4377   */\n      dup3\n        /* \"#utility.yul\":4359:4366   */\n      dup5\n        /* \"#utility.yul\":4355:4378   */\n      sub\n        /* \"#utility.yul\":4351:4383   */\n      slt\n        /* \"#utility.yul\":4348:4467   */\n      iszero\n      tag_155\n      jumpi\n        /* \"#utility.yul\":4386:4465   */\n      tag_156\n      tag_55\n      jump\t// in\n    tag_156:\n        /* \"#utility.yul\":4348:4467   */\n    tag_155:\n        /* \"#utility.yul\":4506:4507   */\n      0x00\n        /* \"#utility.yul\":4531:4584   */\n      tag_157\n        /* \"#utility.yul\":4576:4583   */\n      dup5\n        /* \"#utility.yul\":4567:4573   */\n      dup3\n        /* \"#utility.yul\":4556:4565   */\n      dup6\n        /* \"#utility.yul\":4552:4574   */\n      add\n        /* \"#utility.yul\":4531:4584   */\n      tag_69\n      jump\t// in\n    tag_157:\n        /* \"#utility.yul\":4521:4584   */\n      swap2\n      pop\n        /* \"#utility.yul\":4477:4594   */\n      pop\n        /* \"#utility.yul\":4272:4601   */\n      swap3\n      swap2\n      pop\n      pop\n      jump\t// out\n        /* \"#utility.yul\":4607:4667   */\n    tag_74:\n        /* \"#utility.yul\":4635:4638   */\n      0x00\n        /* \"#utility.yul\":4656:4661   */\n      dup2\n        /* \"#utility.yul\":4649:4661   */\n      swap1\n      pop\n        /* \"#utility.yul\":4607:4667   */\n      swap2\n      swap1\n      pop\n      jump\t// out\n        /* \"#utility.yul\":4673:4815   */\n    tag_75:\n        /* \"#utility.yul\":4723:4732   */\n      0x00\n        /* \"#utility.yul\":4756:4809   */\n      tag_160\n        /* \"#utility.yul\":4774:4808   */\n      tag_161\n        /* \"#utility.yul\":4783:4807   */\n      tag_162\n        /* \"#utility.yul\":4801:4806   */\n      dup5\n        /* \"#utility.yul\":4783:4807   */\n      tag_70\n      jump\t// in\n    tag_162:\n        /* \"#utility.yul\":4774:4808   */\n      tag_74\n      jump\t// in\n    tag_161:\n        /* \"#utility.yul\":4756:4809   */\n      tag_70\n      jump\t// in\n    tag_160:\n        /* \"#utility.yul\":4743:4809   */\n      swap1\n      pop\n        /* \"#utility.yul\":4673:4815   */\n      swap2\n      swap1\n      pop\n      jump\t// out\n        /* \"#utility.yul\":4821:4947   */\n    tag_76:\n        /* \"#utility.yul\":4871:4880   */\n      0x00\n        /* \"#utility.yul\":4904:4941   */\n      tag_164\n        /* \"#utility.yul\":4935:4940   */\n      dup3\n        /* \"#utility.yul\":4904:4941   */\n      tag_75\n      jump\t// in\n    tag_164:\n        /* \"#utility.yul\":4891:4941   */\n      swap1\n      pop\n        /* \"#utility.yul\":4821:4947   */\n      swap2\n      swap1\n      pop\n      jump\t// out\n        /* \"#utility.yul\":4953:5094   */\n    tag_77:\n        /* \"#utility.yul\":5018:5027   */\n      0x00\n        /* \"#utility.yul\":5051:5088   */\n      tag_166\n        /* \"#utility.yul\":5082:5087   */\n      dup3\n        /* \"#utility.yul\":5051:5088   */\n      tag_76\n      jump\t// in\n    tag_166:\n        /* \"#utility.yul\":5038:5088   */\n      swap1\n      pop\n        /* \"#utility.yul\":4953:5094   */\n      swap2\n      swap1\n      pop\n      jump\t// out\n        /* \"#utility.yul\":5100:5261   */\n    tag_78:\n        /* \"#utility.yul\":5202:5254   */\n      tag_168\n        /* \"#utility.yul\":5248:5253   */\n      dup2\n        /* \"#utility.yul\":5202:5254   */\n      tag_77\n      jump\t// in\n    tag_168:\n        /* \"#utility.yul\":5197:5200   */\n      dup3\n        /* \"#utility.yul\":5190:5255   */\n      mstore\n        /* \"#utility.yul\":5100:5261   */\n      pop\n      pop\n      jump\t// out\n        /* \"#utility.yul\":5267:5519   */\n    tag_15:\n        /* \"#utility.yul\":5375:5379   */\n      0x00\n        /* \"#utility.yul\":5413:5415   */\n      0x20\n        /* \"#utility.yul\":5402:5411   */\n      dup3\n        /* \"#utility.yul\":5398:5416   */\n      add\n        /* \"#utility.yul\":5390:5416   */\n      swap1\n      pop\n        /* \"#utility.yul\":5426:5512   */\n      tag_170\n        /* \"#utility.yul\":5509:5510   */\n      0x00\n        /* \"#utility.yul\":5498:5507   */\n      dup4\n        /* \"#utility.yul\":5494:5511   */\n      add\n        /* \"#utility.yul\":5485:5491   */\n      dup5\n        /* \"#utility.yul\":5426:5512   */\n      tag_78\n      jump\t// in\n    tag_170:\n        /* \"#utility.yul\":5267:5519   */\n      swap3\n      swap2\n      pop\n      pop\n      jump\t// out\n        /* \"#utility.yul\":5525:5621   */\n    tag_79:\n        /* \"#utility.yul\":5562:5569   */\n      0x00\n        /* \"#utility.yul\":5591:5615   */\n      tag_172\n        /* \"#utility.yul\":5609:5614   */\n      dup3\n        /* \"#utility.yul\":5591:5615   */\n      tag_70\n      jump\t// in\n    tag_172:\n        /* \"#utility.yul\":5580:5615   */\n      swap1\n      pop\n        /* \"#utility.yul\":5525:5621   */\n      swap2\n      swap1\n      pop\n      jump\t// out\n        /* \"#utility.yul\":5627:5745   */\n    tag_80:\n        /* \"#utility.yul\":5714:5738   */\n      tag_174\n        /* \"#utility.yul\":5732:5737   */\n      dup2\n        /* \"#utility.yul\":5714:5738   */\n      tag_79\n      jump\t// in\n    tag_174:\n        /* \"#utility.yul\":5709:5712   */\n      dup3\n        /* \"#utility.yul\":5702:5739   */\n      mstore\n        /* \"#utility.yul\":5627:5745   */\n      pop\n      pop\n      jump\t// out\n        /* \"#utility.yul\":5751:5973   */\n    tag_19:\n        /* \"#utility.yul\":5844:5848   */\n      0x00\n        /* \"#utility.yul\":5882:5884   */\n      0x20\n        /* \"#utility.yul\":5871:5880   */\n      dup3\n        /* \"#utility.yul\":5867:5885   */\n      add\n        /* \"#utility.yul\":5859:5885   */\n      swap1\n      pop\n        /* \"#utility.yul\":5895:5966   */\n      tag_176\n        /* \"#utility.yul\":5963:5964   */\n      0x00\n        /* \"#utility.yul\":5952:5961   */\n      dup4\n        /* \"#utility.yul\":5948:5965   */\n      add\n        /* \"#utility.yul\":5939:5945   */\n      dup5\n        /* \"#utility.yul\":5895:5966   */\n      tag_80\n      jump\t// in\n    tag_176:\n        /* \"#utility.yul\":5751:5973   */\n      swap3\n      swap2\n      pop\n      pop\n      jump\t// out\n        /* \"#utility.yul\":5979:6148   */\n    tag_81:\n        /* \"#utility.yul\":6063:6074   */\n      0x00\n        /* \"#utility.yul\":6097:6103   */\n      dup3\n        /* \"#utility.yul\":6092:6095   */\n      dup3\n        /* \"#utility.yul\":6085:6104   */\n      mstore\n        /* \"#utility.yul\":6137:6141   */\n      0x20\n        /* \"#utility.yul\":6132:6135   */\n      dup3\n        /* \"#utility.yul\":6128:6142   */\n      add\n        /* \"#utility.yul\":6113:6142   */\n      swap1\n      pop\n        /* \"#utility.yul\":5979:6148   */\n      swap3\n      swap2\n      pop\n      pop\n      jump\t// out\n        /* \"#utility.yul\":6154:6332   */\n    tag_82:\n        /* \"#utility.yul\":6294:6324   */\n      0x796f752063616e27742072657175657374206c657373206d6f6e657900000000\n        /* \"#utility.yul\":6290:6291   */\n      0x00\n        /* \"#utility.yul\":6282:6288   */\n      dup3\n        /* \"#utility.yul\":6278:6292   */\n      add\n        /* \"#utility.yul\":6271:6325   */\n      mstore\n        /* \"#utility.yul\":6154:6332   */\n      pop\n      jump\t// out\n        /* \"#utility.yul\":6338:6704   */\n    tag_83:\n        /* \"#utility.yul\":6480:6483   */\n      0x00\n        /* \"#utility.yul\":6501:6568   */\n      tag_180\n        /* \"#utility.yul\":6565:6567   */\n      0x1c\n        /* \"#utility.yul\":6560:6563   */\n      dup4\n        /* \"#utility.yul\":6501:6568   */\n      tag_81\n      jump\t// in\n    tag_180:\n        /* \"#utility.yul\":6494:6568   */\n      swap2\n      pop\n        /* \"#utility.yul\":6577:6670   */\n      tag_181\n        /* \"#utility.yul\":6666:6669   */\n      dup3\n        /* \"#utility.yul\":6577:6670   */\n      tag_82\n      jump\t// in\n    tag_181:\n        /* \"#utility.yul\":6695:6697   */\n      0x20\n        /* \"#utility.yul\":6690:6693   */\n      dup3\n        /* \"#utility.yul\":6686:6698   */\n      add\n        /* \"#utility.yul\":6679:6698   */\n      swap1\n      pop\n        /* \"#utility.yul\":6338:6704   */\n      swap2\n      swap1\n      pop\n      jump\t// out\n        /* \"#utility.yul\":6710:7129   */\n    tag_23:\n        /* \"#utility.yul\":6876:6880   */\n      0x00\n        /* \"#utility.yul\":6914:6916   */\n      0x20\n        /* \"#utility.yul\":6903:6912   */\n      dup3\n        /* \"#utility.yul\":6899:6917   */\n      add\n        /* \"#utility.yul\":6891:6917   */\n      swap1\n      pop\n        /* \"#utility.yul\":6963:6972   */\n      dup2\n        /* \"#utility.yul\":6957:6961   */\n      dup2\n        /* \"#utility.yul\":6953:6973   */\n      sub\n        /* \"#utility.yul\":6949:6950   */\n      0x00\n        /* \"#utility.yul\":6938:6947   */\n      dup4\n        /* \"#utility.yul\":6934:6951   */\n      add\n        /* \"#utility.yul\":6927:6974   */\n      mstore\n        /* \"#utility.yul\":6991:7122   */\n      tag_183\n        /* \"#utility.yul\":7117:7121   */\n      dup2\n        /* \"#utility.yul\":6991:7122   */\n      tag_83\n      jump\t// in\n    tag_183:\n        /* \"#utility.yul\":6983:7122   */\n      swap1\n      pop\n        /* \"#utility.yul\":6710:7129   */\n      swap2\n      swap1\n      pop\n      jump\t// out\n        /* \"#utility.yul\":7135:7246   */\n    tag_84:\n        /* \"#utility.yul\":7187:7194   */\n      0x00\n        /* \"#utility.yul\":7216:7240   */\n      tag_185\n        /* \"#utility.yul\":7234:7239   */\n      dup3\n        /* \"#utility.yul\":7216:7240   */\n      tag_79\n      jump\t// in\n    tag_185:\n        /* \"#utility.yul\":7205:7240   */\n      swap1\n      pop\n        /* \"#utility.yul\":7135:7246   */\n      swap2\n      swap1\n      pop\n      jump\t// out\n        /* \"#utility.yul\":7252:7404   */\n    tag_85:\n        /* \"#utility.yul\":7340:7379   */\n      tag_187\n        /* \"#utility.yul\":7373:7378   */\n      dup2\n        /* \"#utility.yul\":7340:7379   */\n      tag_84\n      jump\t// in\n    tag_187:\n        /* \"#utility.yul\":7333:7338   */\n      dup2\n        /* \"#utility.yul\":7330:7380   */\n      eq\n        /* \"#utility.yul\":7320:7398   */\n      tag_188\n      jumpi\n        /* \"#utility.yul\":7394:7395   */\n      0x00\n        /* \"#utility.yul\":7391:7392   */\n      dup1\n        /* \"#utility.yul\":7384:7396   */\n      revert\n        /* \"#utility.yul\":7320:7398   */\n    tag_188:\n        /* \"#utility.yul\":7252:7404   */\n      pop\n      jump\t// out\n        /* \"#utility.yul\":7410:7583   */\n    tag_86:\n        /* \"#utility.yul\":7482:7487   */\n      0x00\n        /* \"#utility.yul\":7513:7519   */\n      dup2\n        /* \"#utility.yul\":7507:7520   */\n      mload\n        /* \"#utility.yul\":7498:7520   */\n      swap1\n      pop\n        /* \"#utility.yul\":7529:7577   */\n      tag_190\n        /* \"#utility.yul\":7571:7576   */\n      dup2\n        /* \"#utility.yul\":7529:7577   */\n      tag_85\n      jump\t// in\n    tag_190:\n        /* \"#utility.yul\":7410:7583   */\n      swap3\n      swap2\n      pop\n      pop\n      jump\t// out\n        /* \"#utility.yul\":7589:7970   */\n    tag_28:\n        /* \"#utility.yul\":7674:7680   */\n      0x00\n        /* \"#utility.yul\":7723:7725   */\n      0x20\n        /* \"#utility.yul\":7711:7720   */\n      dup3\n        /* \"#utility.yul\":7702:7709   */\n      dup5\n        /* \"#utility.yul\":7698:7721   */\n      sub\n        /* \"#utility.yul\":7694:7726   */\n      slt\n        /* \"#utility.yul\":7691:7810   */\n      iszero\n      tag_192\n      jumpi\n        /* \"#utility.yul\":7729:7808   */\n      tag_193\n      tag_55\n      jump\t// in\n    tag_193:\n        /* \"#utility.yul\":7691:7810   */\n    tag_192:\n        /* \"#utility.yul\":7849:7850   */\n      0x00\n        /* \"#utility.yul\":7874:7953   */\n      tag_194\n        /* \"#utility.yul\":7945:7952   */\n      dup5\n        /* \"#utility.yul\":7936:7942   */\n      dup3\n        /* \"#utility.yul\":7925:7934   */\n      dup6\n        /* \"#utility.yul\":7921:7943   */\n      add\n        /* \"#utility.yul\":7874:7953   */\n      tag_86\n      jump\t// in\n    tag_194:\n        /* \"#utility.yul\":7864:7953   */\n      swap2\n      pop\n        /* \"#utility.yul\":7820:7963   */\n      pop\n        /* \"#utility.yul\":7589:7970   */\n      swap3\n      swap2\n      pop\n      pop\n      jump\t// out\n        /* \"#utility.yul\":7976:8119   */\n    tag_87:\n        /* \"#utility.yul\":8033:8038   */\n      0x00\n        /* \"#utility.yul\":8064:8070   */\n      dup2\n        /* \"#utility.yul\":8058:8071   */\n      mload\n        /* \"#utility.yul\":8049:8071   */\n      swap1\n      pop\n        /* \"#utility.yul\":8080:8113   */\n      tag_196\n        /* \"#utility.yul\":8107:8112   */\n      dup2\n        /* \"#utility.yul\":8080:8113   */\n      tag_68\n      jump\t// in\n    tag_196:\n        /* \"#utility.yul\":7976:8119   */\n      swap3\n      swap2\n      pop\n      pop\n      jump\t// out\n        /* \"#utility.yul\":8125:8476   */\n    tag_32:\n        /* \"#utility.yul\":8195:8201   */\n      0x00\n        /* \"#utility.yul\":8244:8246   */\n      0x20\n        /* \"#utility.yul\":8232:8241   */\n      dup3\n        /* \"#utility.yul\":8223:8230   */\n      dup5\n        /* \"#utility.yul\":8219:8242   */\n      sub\n        /* \"#utility.yul\":8215:8247   */\n      slt\n        /* \"#utility.yul\":8212:8331   */\n      iszero\n      tag_198\n      jumpi\n        /* \"#utility.yul\":8250:8329   */\n      tag_199\n      tag_55\n      jump\t// in\n    tag_199:\n        /* \"#utility.yul\":8212:8331   */\n    tag_198:\n        /* \"#utility.yul\":8370:8371   */\n      0x00\n        /* \"#utility.yul\":8395:8459   */\n      tag_200\n        /* \"#utility.yul\":8451:8458   */\n      dup5\n        /* \"#utility.yul\":8442:8448   */\n      dup3\n        /* \"#utility.yul\":8431:8440   */\n      dup6\n        /* \"#utility.yul\":8427:8449   */\n      add\n        /* \"#utility.yul\":8395:8459   */\n      tag_87\n      jump\t// in\n    tag_200:\n        /* \"#utility.yul\":8385:8459   */\n      swap2\n      pop\n        /* \"#utility.yul\":8341:8469   */\n      pop\n        /* \"#utility.yul\":8125:8476   */\n      swap3\n      swap2\n      pop\n      pop\n      jump\t// out\n        /* \"#utility.yul\":8482:8646   */\n    tag_88:\n        /* \"#utility.yul\":8622:8638   */\n      0x796f75206172652062616e6e6564000000000000000000000000000000000000\n        /* \"#utility.yul\":8618:8619   */\n      0x00\n        /* \"#utility.yul\":8610:8616   */\n      dup3\n        /* \"#utility.yul\":8606:8620   */\n      add\n        /* \"#utility.yul\":8599:8639   */\n      mstore\n        /* \"#utility.yul\":8482:8646   */\n      pop\n      jump\t// out\n        /* \"#utility.yul\":8652:9018   */\n    tag_89:\n        /* \"#utility.yul\":8794:8797   */\n      0x00\n        /* \"#utility.yul\":8815:8882   */\n      tag_203\n        /* \"#utility.yul\":8879:8881   */\n      0x0e\n        /* \"#utility.yul\":8874:8877   */\n      dup4\n        /* \"#utility.yul\":8815:8882   */\n      tag_81\n      jump\t// in\n    tag_203:\n        /* \"#utility.yul\":8808:8882   */\n      swap2\n      pop\n        /* \"#utility.yul\":8891:8984   */\n      tag_204\n        /* \"#utility.yul\":8980:8983   */\n      dup3\n        /* \"#utility.yul\":8891:8984   */\n      tag_88\n      jump\t// in\n    tag_204:\n        /* \"#utility.yul\":9009:9011   */\n      0x20\n        /* \"#utility.yul\":9004:9007   */\n      dup3\n        /* \"#utility.yul\":9000:9012   */\n      add\n        /* \"#utility.yul\":8993:9012   */\n      swap1\n      pop\n        /* \"#utility.yul\":8652:9018   */\n      swap2\n      swap1\n      pop\n      jump\t// out\n        /* \"#utility.yul\":9024:9443   */\n    tag_35:\n        /* \"#utility.yul\":9190:9194   */\n      0x00\n        /* \"#utility.yul\":9228:9230   */\n      0x20\n        /* \"#utility.yul\":9217:9226   */\n      dup3\n        /* \"#utility.yul\":9213:9231   */\n      add\n        /* \"#utility.yul\":9205:9231   */\n      swap1\n      pop\n        /* \"#utility.yul\":9277:9286   */\n      dup2\n        /* \"#utility.yul\":9271:9275   */\n      dup2\n        /* \"#utility.yul\":9267:9287   */\n      sub\n        /* \"#utility.yul\":9263:9264   */\n      0x00\n        /* \"#utility.yul\":9252:9261   */\n      dup4\n        /* \"#utility.yul\":9248:9265   */\n      add\n        /* \"#utility.yul\":9241:9288   */\n      mstore\n        /* \"#utility.yul\":9305:9436   */\n      tag_206\n        /* \"#utility.yul\":9431:9435   */\n      dup2\n        /* \"#utility.yul\":9305:9436   */\n      tag_89\n      jump\t// in\n    tag_206:\n        /* \"#utility.yul\":9297:9436   */\n      swap1\n      pop\n        /* \"#utility.yul\":9024:9443   */\n      swap2\n      swap1\n      pop\n      jump\t// out\n        /* \"#utility.yul\":9449:9539   */\n    tag_90:\n        /* \"#utility.yul\":9483:9490   */\n      0x00\n        /* \"#utility.yul\":9526:9531   */\n      dup2\n        /* \"#utility.yul\":9519:9532   */\n      iszero\n        /* \"#utility.yul\":9512:9533   */\n      iszero\n        /* \"#utility.yul\":9501:9533   */\n      swap1\n      pop\n        /* \"#utility.yul\":9449:9539   */\n      swap2\n      swap1\n      pop\n      jump\t// out\n        /* \"#utility.yul\":9545:9661   */\n    tag_91:\n        /* \"#utility.yul\":9615:9636   */\n      tag_209\n        /* \"#utility.yul\":9630:9635   */\n      dup2\n        /* \"#utility.yul\":9615:9636   */\n      tag_90\n      jump\t// in\n    tag_209:\n        /* \"#utility.yul\":9608:9613   */\n      dup2\n        /* \"#utility.yul\":9605:9637   */\n      eq\n        /* \"#utility.yul\":9595:9655   */\n      tag_210\n      jumpi\n        /* \"#utility.yul\":9651:9652   */\n      0x00\n        /* \"#utility.yul\":9648:9649   */\n      dup1\n        /* \"#utility.yul\":9641:9653   */\n      revert\n        /* \"#utility.yul\":9595:9655   */\n    tag_210:\n        /* \"#utility.yul\":9545:9661   */\n      pop\n      jump\t// out\n        /* \"#utility.yul\":9667:9804   */\n    tag_92:\n        /* \"#utility.yul\":9721:9726   */\n      0x00\n        /* \"#utility.yul\":9752:9758   */\n      dup2\n        /* \"#utility.yul\":9746:9759   */\n      mload\n        /* \"#utility.yul\":9737:9759   */\n      swap1\n      pop\n        /* \"#utility.yul\":9768:9798   */\n      tag_212\n        /* \"#utility.yul\":9792:9797   */\n      dup2\n        /* \"#utility.yul\":9768:9798   */\n      tag_91\n      jump\t// in\n    tag_212:\n        /* \"#utility.yul\":9667:9804   */\n      swap3\n      swap2\n      pop\n      pop\n      jump\t// out\n        /* \"#utility.yul\":9810:10155   */\n    tag_39:\n        /* \"#utility.yul\":9877:9883   */\n      0x00\n        /* \"#utility.yul\":9926:9928   */\n      0x20\n        /* \"#utility.yul\":9914:9923   */\n      dup3\n        /* \"#utility.yul\":9905:9912   */\n      dup5\n        /* \"#utility.yul\":9901:9924   */\n      sub\n        /* \"#utility.yul\":9897:9929   */\n      slt\n        /* \"#utility.yul\":9894:10013   */\n      iszero\n      tag_214\n      jumpi\n        /* \"#utility.yul\":9932:10011   */\n      tag_215\n      tag_55\n      jump\t// in\n    tag_215:\n        /* \"#utility.yul\":9894:10013   */\n    tag_214:\n        /* \"#utility.yul\":10052:10053   */\n      0x00\n        /* \"#utility.yul\":10077:10138   */\n      tag_216\n        /* \"#utility.yul\":10130:10137   */\n      dup5\n        /* \"#utility.yul\":10121:10127   */\n      dup3\n        /* \"#utility.yul\":10110:10119   */\n      dup6\n        /* \"#utility.yul\":10106:10128   */\n      add\n        /* \"#utility.yul\":10077:10138   */\n      tag_92\n      jump\t// in\n    tag_216:\n        /* \"#utility.yul\":10067:10138   */\n      swap2\n      pop\n        /* \"#utility.yul\":10023:10148   */\n      pop\n        /* \"#utility.yul\":9810:10155   */\n      swap3\n      swap2\n      pop\n      pop\n      jump\t// out\n        /* \"#utility.yul\":10161:10337   */\n    tag_93:\n        /* \"#utility.yul\":10301:10329   */\n      0x796f75206861766520616c726561647920726571756573746564000000000000\n        /* \"#utility.yul\":10297:10298   */\n      0x00\n        /* \"#utility.yul\":10289:10295   */\n      dup3\n        /* \"#utility.yul\":10285:10299   */\n      add\n        /* \"#utility.yul\":10278:10330   */\n      mstore\n        /* \"#utility.yul\":10161:10337   */\n      pop\n      jump\t// out\n        /* \"#utility.yul\":10343:10709   */\n    tag_94:\n        /* \"#utility.yul\":10485:10488   */\n      0x00\n        /* \"#utility.yul\":10506:10573   */\n      tag_219\n        /* \"#utility.yul\":10570:10572   */\n      0x1a\n        /* \"#utility.yul\":10565:10568   */\n      dup4\n        /* \"#utility.yul\":10506:10573   */\n      tag_81\n      jump\t// in\n    tag_219:\n        /* \"#utility.yul\":10499:10573   */\n      swap2\n      pop\n        /* \"#utility.yul\":10582:10675   */\n      tag_220\n        /* \"#utility.yul\":10671:10674   */\n      dup3\n        /* \"#utility.yul\":10582:10675   */\n      tag_93\n      jump\t// in\n    tag_220:\n        /* \"#utility.yul\":10700:10702   */\n      0x20\n        /* \"#utility.yul\":10695:10698   */\n      dup3\n        /* \"#utility.yul\":10691:10703   */\n      add\n        /* \"#utility.yul\":10684:10703   */\n      swap1\n      pop\n        /* \"#utility.yul\":10343:10709   */\n      swap2\n      swap1\n      pop\n      jump\t// out\n        /* \"#utility.yul\":10715:11134   */\n    tag_42:\n        /* \"#utility.yul\":10881:10885   */\n      0x00\n        /* \"#utility.yul\":10919:10921   */\n      0x20\n        /* \"#utility.yul\":10908:10917   */\n      dup3\n        /* \"#utility.yul\":10904:10922   */\n      add\n        /* \"#utility.yul\":10896:10922   */\n      swap1\n      pop\n        /* \"#utility.yul\":10968:10977   */\n      dup2\n        /* \"#utility.yul\":10962:10966   */\n      dup2\n        /* \"#utility.yul\":10958:10978   */\n      sub\n        /* \"#utility.yul\":10954:10955   */\n      0x00\n        /* \"#utility.yul\":10943:10952   */\n      dup4\n        /* \"#utility.yul\":10939:10956   */\n      add\n        /* \"#utility.yul\":10932:10979   */\n      mstore\n        /* \"#utility.yul\":10996:11127   */\n      tag_222\n        /* \"#utility.yul\":11122:11126   */\n      dup2\n        /* \"#utility.yul\":10996:11127   */\n      tag_94\n      jump\t// in\n    tag_222:\n        /* \"#utility.yul\":10988:11127   */\n      swap1\n      pop\n        /* \"#utility.yul\":10715:11134   */\n      swap2\n      swap1\n      pop\n      jump\t// out\n        /* \"#utility.yul\":11140:11239   */\n    tag_95:\n        /* \"#utility.yul\":11192:11198   */\n      0x00\n        /* \"#utility.yul\":11226:11231   */\n      dup2\n        /* \"#utility.yul\":11220:11232   */\n      mload\n        /* \"#utility.yul\":11210:11232   */\n      swap1\n      pop\n        /* \"#utility.yul\":11140:11239   */\n      swap2\n      swap1\n      pop\n      jump\t// out\n        /* \"#utility.yul\":11245:11552   */\n    tag_96:\n        /* \"#utility.yul\":11313:11314   */\n      0x00\n        /* \"#utility.yul\":11323:11436   */\n    tag_225:\n        /* \"#utility.yul\":11337:11343   */\n      dup4\n        /* \"#utility.yul\":11334:11335   */\n      dup2\n        /* \"#utility.yul\":11331:11344   */\n      lt\n        /* \"#utility.yul\":11323:11436   */\n      iszero\n      tag_227\n      jumpi\n        /* \"#utility.yul\":11422:11423   */\n      dup1\n        /* \"#utility.yul\":11417:11420   */\n      dup3\n        /* \"#utility.yul\":11413:11424   */\n      add\n        /* \"#utility.yul\":11407:11425   */\n      mload\n        /* \"#utility.yul\":11403:11404   */\n      dup2\n        /* \"#utility.yul\":11398:11401   */\n      dup5\n        /* \"#utility.yul\":11394:11405   */\n      add\n        /* \"#utility.yul\":11387:11426   */\n      mstore\n        /* \"#utility.yul\":11359:11361   */\n      0x20\n        /* \"#utility.yul\":11356:11357   */\n      dup2\n        /* \"#utility.yul\":11352:11362   */\n      add\n        /* \"#utility.yul\":11347:11362   */\n      swap1\n      pop\n        /* \"#utility.yul\":11323:11436   */\n      jump(tag_225)\n    tag_227:\n        /* \"#utility.yul\":11454:11460   */\n      dup4\n        /* \"#utility.yul\":11451:11452   */\n      dup2\n        /* \"#utility.yul\":11448:11461   */\n      gt\n        /* \"#utility.yul\":11445:11546   */\n      iszero\n      tag_228\n      jumpi\n        /* \"#utility.yul\":11534:11535   */\n      0x00\n        /* \"#utility.yul\":11525:11531   */\n      dup5\n        /* \"#utility.yul\":11520:11523   */\n      dup5\n        /* \"#utility.yul\":11516:11532   */\n      add\n        /* \"#utility.yul\":11509:11536   */\n      mstore\n        /* \"#utility.yul\":11445:11546   */\n    tag_228:\n        /* \"#utility.yul\":11294:11552   */\n      pop\n        /* \"#utility.yul\":11245:11552   */\n      pop\n      pop\n      pop\n      jump\t// out\n        /* \"#utility.yul\":11558:11922   */\n    tag_97:\n        /* \"#utility.yul\":11646:11649   */\n      0x00\n        /* \"#utility.yul\":11674:11713   */\n      tag_230\n        /* \"#utility.yul\":11707:11712   */\n      dup3\n        /* \"#utility.yul\":11674:11713   */\n      tag_95\n      jump\t// in\n    tag_230:\n        /* \"#utility.yul\":11729:11800   */\n      tag_231\n        /* \"#utility.yul\":11793:11799   */\n      dup2\n        /* \"#utility.yul\":11788:11791   */\n      dup6\n        /* \"#utility.yul\":11729:11800   */\n      tag_81\n      jump\t// in\n    tag_231:\n        /* \"#utility.yul\":11722:11800   */\n      swap4\n      pop\n        /* \"#utility.yul\":11809:11861   */\n      tag_232\n        /* \"#utility.yul\":11854:11860   */\n      dup2\n        /* \"#utility.yul\":11849:11852   */\n      dup6\n        /* \"#utility.yul\":11842:11846   */\n      0x20\n        /* \"#utility.yul\":11835:11840   */\n      dup7\n        /* \"#utility.yul\":11831:11847   */\n      add\n        /* \"#utility.yul\":11809:11861   */\n      tag_96\n      jump\t// in\n    tag_232:\n        /* \"#utility.yul\":11886:11915   */\n      tag_233\n        /* \"#utility.yul\":11908:11914   */\n      dup2\n        /* \"#utility.yul\":11886:11915   */\n      tag_59\n      jump\t// in\n    tag_233:\n        /* \"#utility.yul\":11881:11884   */\n      dup5\n        /* \"#utility.yul\":11877:11916   */\n      add\n        /* \"#utility.yul\":11870:11916   */\n      swap2\n      pop\n        /* \"#utility.yul\":11650:11922   */\n      pop\n        /* \"#utility.yul\":11558:11922   */\n      swap3\n      swap2\n      pop\n      pop\n      jump\t// out\n        /* \"#utility.yul\":11928:12046   */\n    tag_98:\n        /* \"#utility.yul\":12015:12039   */\n      tag_235\n        /* \"#utility.yul\":12033:12038   */\n      dup2\n        /* \"#utility.yul\":12015:12039   */\n      tag_67\n      jump\t// in\n    tag_235:\n        /* \"#utility.yul\":12010:12013   */\n      dup3\n        /* \"#utility.yul\":12003:12040   */\n      mstore\n        /* \"#utility.yul\":11928:12046   */\n      pop\n      pop\n      jump\t// out\n        /* \"#utility.yul\":12052:12194   */\n    tag_99:\n        /* \"#utility.yul\":12155:12187   */\n      tag_237\n        /* \"#utility.yul\":12181:12186   */\n      dup2\n        /* \"#utility.yul\":12155:12187   */\n      tag_71\n      jump\t// in\n    tag_237:\n        /* \"#utility.yul\":12150:12153   */\n      dup3\n        /* \"#utility.yul\":12143:12188   */\n      mstore\n        /* \"#utility.yul\":12052:12194   */\n      pop\n      pop\n      jump\t// out\n        /* \"#utility.yul\":12200:12341   */\n    tag_100:\n        /* \"#utility.yul\":12265:12274   */\n      0x00\n        /* \"#utility.yul\":12298:12335   */\n      tag_239\n        /* \"#utility.yul\":12329:12334   */\n      dup3\n        /* \"#utility.yul\":12298:12335   */\n      tag_76\n      jump\t// in\n    tag_239:\n        /* \"#utility.yul\":12285:12335   */\n      swap1\n      pop\n        /* \"#utility.yul\":12200:12341   */\n      swap2\n      swap1\n      pop\n      jump\t// out\n        /* \"#utility.yul\":12347:12508   */\n    tag_101:\n        /* \"#utility.yul\":12449:12501   */\n      tag_241\n        /* \"#utility.yul\":12495:12500   */\n      dup2\n        /* \"#utility.yul\":12449:12501   */\n      tag_100\n      jump\t// in\n    tag_241:\n        /* \"#utility.yul\":12444:12447   */\n      dup3\n        /* \"#utility.yul\":12437:12502   */\n      mstore\n        /* \"#utility.yul\":12347:12508   */\n      pop\n      pop\n      jump\t// out\n        /* \"#utility.yul\":12514:13220   */\n    tag_46:\n        /* \"#utility.yul\":12742:12746   */\n      0x00\n        /* \"#utility.yul\":12780:12783   */\n      0x80\n        /* \"#utility.yul\":12769:12778   */\n      dup3\n        /* \"#utility.yul\":12765:12784   */\n      add\n        /* \"#utility.yul\":12757:12784   */\n      swap1\n      pop\n        /* \"#utility.yul\":12830:12839   */\n      dup2\n        /* \"#utility.yul\":12824:12828   */\n      dup2\n        /* \"#utility.yul\":12820:12840   */\n      sub\n        /* \"#utility.yul\":12816:12817   */\n      0x00\n        /* \"#utility.yul\":12805:12814   */\n      dup4\n        /* \"#utility.yul\":12801:12818   */\n      add\n        /* \"#utility.yul\":12794:12841   */\n      mstore\n        /* \"#utility.yul\":12858:12936   */\n      tag_243\n        /* \"#utility.yul\":12931:12935   */\n      dup2\n        /* \"#utility.yul\":12922:12928   */\n      dup8\n        /* \"#utility.yul\":12858:12936   */\n      tag_97\n      jump\t// in\n    tag_243:\n        /* \"#utility.yul\":12850:12936   */\n      swap1\n      pop\n        /* \"#utility.yul\":12946:13018   */\n      tag_244\n        /* \"#utility.yul\":13014:13016   */\n      0x20\n        /* \"#utility.yul\":13003:13012   */\n      dup4\n        /* \"#utility.yul\":12999:13017   */\n      add\n        /* \"#utility.yul\":12990:12996   */\n      dup7\n        /* \"#utility.yul\":12946:13018   */\n      tag_98\n      jump\t// in\n    tag_244:\n        /* \"#utility.yul\":13028:13116   */\n      tag_245\n        /* \"#utility.yul\":13112:13114   */\n      0x40\n        /* \"#utility.yul\":13101:13110   */\n      dup4\n        /* \"#utility.yul\":13097:13115   */\n      add\n        /* \"#utility.yul\":13088:13094   */\n      dup6\n        /* \"#utility.yul\":13028:13116   */\n      tag_99\n      jump\t// in\n    tag_245:\n        /* \"#utility.yul\":13126:13213   */\n      tag_246\n        /* \"#utility.yul\":13209:13211   */\n      0x60\n        /* \"#utility.yul\":13198:13207   */\n      dup4\n        /* \"#utility.yul\":13194:13212   */\n      add\n        /* \"#utility.yul\":13185:13191   */\n      dup5\n        /* \"#utility.yul\":13126:13213   */\n      tag_101\n      jump\t// in\n    tag_246:\n        /* \"#utility.yul\":12514:13220   */\n      swap6\n      swap5\n      pop\n      pop\n      pop\n      pop\n      pop\n      jump\t// out\n    stop\n\n    sub_0: assembly {\n            /* \"Funding.sol\":2663:4703  contract Request {... */\n          mstore(0x40, 0x80)\n            /* \"Funding.sol\":3287:3509  constructor(string memory _description, uint _amount, address payable _recipient, Manager _m) {... */\n          callvalue\n          dup1\n          iszero\n          tag_1\n          jumpi\n          0x00\n          dup1\n          revert\n        tag_1:\n          pop\n          mload(0x40)\n          sub(codesize, bytecodeSize)\n          dup1\n          bytecodeSize\n          dup4\n          codecopy\n          dup2\n          dup2\n          add\n          0x40\n          mstore\n          dup2\n          add\n          swap1\n          tag_2\n          swap2\n          swap1\n          tag_3\n          jump\t// in\n        tag_2:\n            /* \"Funding.sol\":3406:3418  _description */\n          dup4\n            /* \"Funding.sol\":3392:3403  description */\n          0x01\n            /* \"Funding.sol\":3392:3418  description = _description */\n          swap1\n          dup1\n          mload\n          swap1\n          0x20\n          add\n          swap1\n          tag_6\n          swap3\n          swap2\n          swap1\n          tag_7\n          jump\t// in\n        tag_6:\n          pop\n            /* \"Funding.sol\":3438:3445  _amount */\n          dup3\n            /* \"Funding.sol\":3429:3435  amount */\n          0x02\n            /* \"Funding.sol\":3429:3445  amount = _amount */\n          dup2\n          swap1\n          sstore\n          pop\n            /* \"Funding.sol\":3468:3478  _recipient */\n          dup2\n            /* \"Funding.sol\":3456:3465  recipient */\n          0x03\n          0x00\n            /* \"Funding.sol\":3456:3478  recipient = _recipient */\n          0x0100\n          exp\n          dup2\n          sload\n          dup2\n          0xffffffffffffffffffffffffffffffffffffffff\n          mul\n          not\n          and\n          swap1\n          dup4\n          0xffffffffffffffffffffffffffffffffffffffff\n          and\n          mul\n          or\n          swap1\n          sstore\n          pop\n            /* \"Funding.sol\":3499:3501  _m */\n          dup1\n            /* \"Funding.sol\":3489:3496  manager */\n          0x00\n          dup1\n            /* \"Funding.sol\":3489:3501  manager = _m */\n          0x0100\n          exp\n          dup2\n          sload\n          dup2\n          0xffffffffffffffffffffffffffffffffffffffff\n          mul\n          not\n          and\n          swap1\n          dup4\n          0xffffffffffffffffffffffffffffffffffffffff\n          and\n          mul\n          or\n          swap1\n          sstore\n          pop\n            /* \"Funding.sol\":3287:3509  constructor(string memory _description, uint _amount, address payable _recipient, Manager _m) {... */\n          pop\n          pop\n          pop\n          pop\n            /* \"Funding.sol\":2663:4703  contract Request {... */\n          jump(tag_8)\n        tag_7:\n          dup3\n          dup1\n          sload\n          tag_9\n          swap1\n          tag_10\n          jump\t// in\n        tag_9:\n          swap1\n          0x00\n          mstore\n          keccak256(0x00, 0x20)\n          swap1\n          0x1f\n          add\n          0x20\n          swap1\n          div\n          dup2\n          add\n          swap3\n          dup3\n          tag_12\n          jumpi\n          0x00\n          dup6\n          sstore\n          jump(tag_11)\n        tag_12:\n          dup3\n          0x1f\n          lt\n          tag_13\n          jumpi\n          dup1\n          mload\n          not(0xff)\n          and\n          dup4\n          dup1\n          add\n          or\n          dup6\n          sstore\n          jump(tag_11)\n        tag_13:\n          dup3\n          dup1\n          add\n          0x01\n          add\n          dup6\n          sstore\n          dup3\n          iszero\n          tag_11\n          jumpi\n          swap2\n          dup3\n          add\n        tag_14:\n          dup3\n          dup2\n          gt\n          iszero\n          tag_15\n          jumpi\n          dup3\n          mload\n          dup3\n          sstore\n          swap2\n          0x20\n          add\n          swap2\n          swap1\n          0x01\n          add\n          swap1\n          jump(tag_14)\n        tag_15:\n        tag_11:\n          pop\n          swap1\n          pop\n          tag_16\n          swap2\n          swap1\n          tag_17\n          jump\t// in\n        tag_16:\n          pop\n          swap1\n          jump\t// out\n        tag_17:\n        tag_18:\n          dup1\n          dup3\n          gt\n          iszero\n          tag_19\n          jumpi\n          0x00\n          dup2\n          0x00\n          swap1\n          sstore\n          pop\n          0x01\n          add\n          jump(tag_18)\n        tag_19:\n          pop\n          swap1\n          jump\t// out\n            /* \"#utility.yul\":7:82   */\n        tag_20:\n            /* \"#utility.yul\":40:46   */\n          0x00\n            /* \"#utility.yul\":73:75   */\n          0x40\n            /* \"#utility.yul\":67:76   */\n          mload\n            /* \"#utility.yul\":57:76   */\n          swap1\n          pop\n            /* \"#utility.yul\":7:82   */\n          swap1\n          jump\t// out\n            /* \"#utility.yul\":88:205   */\n        tag_21:\n            /* \"#utility.yul\":197:198   */\n          0x00\n            /* \"#utility.yul\":194:195   */\n          dup1\n            /* \"#utility.yul\":187:199   */\n          revert\n            /* \"#utility.yul\":211:328   */\n        tag_22:\n            /* \"#utility.yul\":320:321   */\n          0x00\n            /* \"#utility.yul\":317:318   */\n          dup1\n            /* \"#utility.yul\":310:322   */\n          revert\n            /* \"#utility.yul\":334:451   */\n        tag_23:\n            /* \"#utility.yul\":443:444   */\n          0x00\n            /* \"#utility.yul\":440:441   */\n          dup1\n            /* \"#utility.yul\":433:445   */\n          revert\n            /* \"#utility.yul\":457:574   */\n        tag_24:\n            /* \"#utility.yul\":566:567   */\n          0x00\n            /* \"#utility.yul\":563:564   */\n          dup1\n            /* \"#utility.yul\":556:568   */\n          revert\n            /* \"#utility.yul\":580:682   */\n        tag_25:\n            /* \"#utility.yul\":621:627   */\n          0x00\n            /* \"#utility.yul\":672:674   */\n          0x1f\n            /* \"#utility.yul\":668:675   */\n          not\n            /* \"#utility.yul\":663:665   */\n          0x1f\n            /* \"#utility.yul\":656:661   */\n          dup4\n            /* \"#utility.yul\":652:666   */\n          add\n            /* \"#utility.yul\":648:676   */\n          and\n            /* \"#utility.yul\":638:676   */\n          swap1\n          pop\n            /* \"#utility.yul\":580:682   */\n          swap2\n          swap1\n          pop\n          jump\t// out\n            /* \"#utility.yul\":688:868   */\n        tag_26:\n            /* \"#utility.yul\":736:813   */\n          0x4e487b7100000000000000000000000000000000000000000000000000000000\n            /* \"#utility.yul\":733:734   */\n          0x00\n            /* \"#utility.yul\":726:814   */\n          mstore\n            /* \"#utility.yul\":833:837   */\n          0x41\n            /* \"#utility.yul\":830:831   */\n          0x04\n            /* \"#utility.yul\":823:838   */\n          mstore\n            /* \"#utility.yul\":857:861   */\n          0x24\n            /* \"#utility.yul\":854:855   */\n          0x00\n            /* \"#utility.yul\":847:862   */\n          revert\n            /* \"#utility.yul\":874:1155   */\n        tag_27:\n            /* \"#utility.yul\":957:984   */\n          tag_54\n            /* \"#utility.yul\":979:983   */\n          dup3\n            /* \"#utility.yul\":957:984   */\n          tag_25\n          jump\t// in\n        tag_54:\n            /* \"#utility.yul\":949:955   */\n          dup2\n            /* \"#utility.yul\":945:985   */\n          add\n            /* \"#utility.yul\":1087:1093   */\n          dup2\n            /* \"#utility.yul\":1075:1085   */\n          dup2\n            /* \"#utility.yul\":1072:1094   */\n          lt\n            /* \"#utility.yul\":1051:1069   */\n          0xffffffffffffffff\n            /* \"#utility.yul\":1039:1049   */\n          dup3\n            /* \"#utility.yul\":1036:1070   */\n          gt\n            /* \"#utility.yul\":1033:1095   */\n          or\n            /* \"#utility.yul\":1030:1118   */\n          iszero\n          tag_55\n          jumpi\n            /* \"#utility.yul\":1098:1116   */\n          tag_56\n          tag_26\n          jump\t// in\n        tag_56:\n            /* \"#utility.yul\":1030:1118   */\n        tag_55:\n            /* \"#utility.yul\":1138:1148   */\n          dup1\n            /* \"#utility.yul\":1134:1136   */\n          0x40\n            /* \"#utility.yul\":1127:1149   */\n          mstore\n            /* \"#utility.yul\":917:1155   */\n          pop\n            /* \"#utility.yul\":874:1155   */\n          pop\n          pop\n          jump\t// out\n            /* \"#utility.yul\":1161:1290   */\n        tag_28:\n            /* \"#utility.yul\":1195:1201   */\n          0x00\n            /* \"#utility.yul\":1222:1242   */\n          tag_58\n          tag_20\n          jump\t// in\n        tag_58:\n            /* \"#utility.yul\":1212:1242   */\n          swap1\n          pop\n            /* \"#utility.yul\":1251:1284   */\n          tag_59\n            /* \"#utility.yul\":1279:1283   */\n          dup3\n            /* \"#utility.yul\":1271:1277   */\n          dup3\n            /* \"#utility.yul\":1251:1284   */\n          tag_27\n          jump\t// in\n        tag_59:\n            /* \"#utility.yul\":1161:1290   */\n          swap2\n          swap1\n          pop\n          jump\t// out\n            /* \"#utility.yul\":1296:1604   */\n        tag_29:\n            /* \"#utility.yul\":1358:1362   */\n          0x00\n            /* \"#utility.yul\":1448:1466   */\n          0xffffffffffffffff\n            /* \"#utility.yul\":1440:1446   */\n          dup3\n            /* \"#utility.yul\":1437:1467   */\n          gt\n            /* \"#utility.yul\":1434:1490   */\n          iszero\n          tag_61\n          jumpi\n            /* \"#utility.yul\":1470:1488   */\n          tag_62\n          tag_26\n          jump\t// in\n        tag_62:\n            /* \"#utility.yul\":1434:1490   */\n        tag_61:\n            /* \"#utility.yul\":1508:1537   */\n          tag_63\n            /* \"#utility.yul\":1530:1536   */\n          dup3\n            /* \"#utility.yul\":1508:1537   */\n          tag_25\n          jump\t// in\n        tag_63:\n            /* \"#utility.yul\":1500:1537   */\n          swap1\n          pop\n            /* \"#utility.yul\":1592:1596   */\n          0x20\n            /* \"#utility.yul\":1586:1590   */\n          dup2\n            /* \"#utility.yul\":1582:1597   */\n          add\n            /* \"#utility.yul\":1574:1597   */\n          swap1\n          pop\n            /* \"#utility.yul\":1296:1604   */\n          swap2\n          swap1\n          pop\n          jump\t// out\n            /* \"#utility.yul\":1610:1917   */\n        tag_30:\n            /* \"#utility.yul\":1678:1679   */\n          0x00\n            /* \"#utility.yul\":1688:1801   */\n        tag_65:\n            /* \"#utility.yul\":1702:1708   */\n          dup4\n            /* \"#utility.yul\":1699:1700   */\n          dup2\n            /* \"#utility.yul\":1696:1709   */\n          lt\n            /* \"#utility.yul\":1688:1801   */\n          iszero\n          tag_67\n          jumpi\n            /* \"#utility.yul\":1787:1788   */\n          dup1\n            /* \"#utility.yul\":1782:1785   */\n          dup3\n            /* \"#utility.yul\":1778:1789   */\n          add\n            /* \"#utility.yul\":1772:1790   */\n          mload\n            /* \"#utility.yul\":1768:1769   */\n          dup2\n            /* \"#utility.yul\":1763:1766   */\n          dup5\n            /* \"#utility.yul\":1759:1770   */\n          add\n            /* \"#utility.yul\":1752:1791   */\n          mstore\n            /* \"#utility.yul\":1724:1726   */\n          0x20\n            /* \"#utility.yul\":1721:1722   */\n          dup2\n            /* \"#utility.yul\":1717:1727   */\n          add\n            /* \"#utility.yul\":1712:1727   */\n          swap1\n          pop\n            /* \"#utility.yul\":1688:1801   */\n          jump(tag_65)\n        tag_67:\n            /* \"#utility.yul\":1819:1825   */\n          dup4\n            /* \"#utility.yul\":1816:1817   */\n          dup2\n            /* \"#utility.yul\":1813:1826   */\n          gt\n            /* \"#utility.yul\":1810:1911   */\n          iszero\n          tag_68\n          jumpi\n            /* \"#utility.yul\":1899:1900   */\n          0x00\n            /* \"#utility.yul\":1890:1896   */\n          dup5\n            /* \"#utility.yul\":1885:1888   */\n          dup5\n            /* \"#utility.yul\":1881:1897   */\n          add\n            /* \"#utility.yul\":1874:1901   */\n          mstore\n            /* \"#utility.yul\":1810:1911   */\n        tag_68:\n            /* \"#utility.yul\":1659:1917   */\n          pop\n            /* \"#utility.yul\":1610:1917   */\n          pop\n          pop\n          pop\n          jump\t// out\n            /* \"#utility.yul\":1923:2344   */\n        tag_31:\n            /* \"#utility.yul\":2012:2017   */\n          0x00\n            /* \"#utility.yul\":2037:2103   */\n          tag_70\n            /* \"#utility.yul\":2053:2102   */\n          tag_71\n            /* \"#utility.yul\":2095:2101   */\n          dup5\n            /* \"#utility.yul\":2053:2102   */\n          tag_29\n          jump\t// in\n        tag_71:\n            /* \"#utility.yul\":2037:2103   */\n          tag_28\n          jump\t// in\n        tag_70:\n            /* \"#utility.yul\":2028:2103   */\n          swap1\n          pop\n            /* \"#utility.yul\":2126:2132   */\n          dup3\n            /* \"#utility.yul\":2119:2124   */\n          dup2\n            /* \"#utility.yul\":2112:2133   */\n          mstore\n            /* \"#utility.yul\":2164:2168   */\n          0x20\n            /* \"#utility.yul\":2157:2162   */\n          dup2\n            /* \"#utility.yul\":2153:2169   */\n          add\n            /* \"#utility.yul\":2202:2205   */\n          dup5\n            /* \"#utility.yul\":2193:2199   */\n          dup5\n            /* \"#utility.yul\":2188:2191   */\n          dup5\n            /* \"#utility.yul\":2184:2200   */\n          add\n            /* \"#utility.yul\":2181:2206   */\n          gt\n            /* \"#utility.yul\":2178:2290   */\n          iszero\n          tag_72\n          jumpi\n            /* \"#utility.yul\":2209:2288   */\n          tag_73\n          tag_24\n          jump\t// in\n        tag_73:\n            /* \"#utility.yul\":2178:2290   */\n        tag_72:\n            /* \"#utility.yul\":2299:2338   */\n          tag_74\n            /* \"#utility.yul\":2331:2337   */\n          dup5\n            /* \"#utility.yul\":2326:2329   */\n          dup3\n            /* \"#utility.yul\":2321:2324   */\n          dup6\n            /* \"#utility.yul\":2299:2338   */\n          tag_30\n          jump\t// in\n        tag_74:\n            /* \"#utility.yul\":2018:2344   */\n          pop\n            /* \"#utility.yul\":1923:2344   */\n          swap4\n          swap3\n          pop\n          pop\n          pop\n          jump\t// out\n            /* \"#utility.yul\":2364:2719   */\n        tag_32:\n            /* \"#utility.yul\":2431:2436   */\n          0x00\n            /* \"#utility.yul\":2480:2483   */\n          dup3\n            /* \"#utility.yul\":2473:2477   */\n          0x1f\n            /* \"#utility.yul\":2465:2471   */\n          dup4\n            /* \"#utility.yul\":2461:2478   */\n          add\n            /* \"#utility.yul\":2457:2484   */\n          slt\n            /* \"#utility.yul\":2447:2569   */\n          tag_76\n          jumpi\n            /* \"#utility.yul\":2488:2567   */\n          tag_77\n          tag_23\n          jump\t// in\n        tag_77:\n            /* \"#utility.yul\":2447:2569   */\n        tag_76:\n            /* \"#utility.yul\":2598:2604   */\n          dup2\n            /* \"#utility.yul\":2592:2605   */\n          mload\n            /* \"#utility.yul\":2623:2713   */\n          tag_78\n            /* \"#utility.yul\":2709:2712   */\n          dup5\n            /* \"#utility.yul\":2701:2707   */\n          dup3\n            /* \"#utility.yul\":2694:2698   */\n          0x20\n            /* \"#utility.yul\":2686:2692   */\n          dup7\n            /* \"#utility.yul\":2682:2699   */\n          add\n            /* \"#utility.yul\":2623:2713   */\n          tag_31\n          jump\t// in\n        tag_78:\n            /* \"#utility.yul\":2614:2713   */\n          swap2\n          pop\n            /* \"#utility.yul\":2437:2719   */\n          pop\n            /* \"#utility.yul\":2364:2719   */\n          swap3\n          swap2\n          pop\n          pop\n          jump\t// out\n            /* \"#utility.yul\":2725:2802   */\n        tag_33:\n            /* \"#utility.yul\":2762:2769   */\n          0x00\n            /* \"#utility.yul\":2791:2796   */\n          dup2\n            /* \"#utility.yul\":2780:2796   */\n          swap1\n          pop\n            /* \"#utility.yul\":2725:2802   */\n          swap2\n          swap1\n          pop\n          jump\t// out\n            /* \"#utility.yul\":2808:2930   */\n        tag_34:\n            /* \"#utility.yul\":2881:2905   */\n          tag_81\n            /* \"#utility.yul\":2899:2904   */\n          dup2\n            /* \"#utility.yul\":2881:2905   */\n          tag_33\n          jump\t// in\n        tag_81:\n            /* \"#utility.yul\":2874:2879   */\n          dup2\n            /* \"#utility.yul\":2871:2906   */\n          eq\n            /* \"#utility.yul\":2861:2924   */\n          tag_82\n          jumpi\n            /* \"#utility.yul\":2920:2921   */\n          0x00\n            /* \"#utility.yul\":2917:2918   */\n          dup1\n            /* \"#utility.yul\":2910:2922   */\n          revert\n            /* \"#utility.yul\":2861:2924   */\n        tag_82:\n            /* \"#utility.yul\":2808:2930   */\n          pop\n          jump\t// out\n            /* \"#utility.yul\":2936:3079   */\n        tag_35:\n            /* \"#utility.yul\":2993:2998   */\n          0x00\n            /* \"#utility.yul\":3024:3030   */\n          dup2\n            /* \"#utility.yul\":3018:3031   */\n          mload\n            /* \"#utility.yul\":3009:3031   */\n          swap1\n          pop\n            /* \"#utility.yul\":3040:3073   */\n          tag_84\n            /* \"#utility.yul\":3067:3072   */\n          dup2\n            /* \"#utility.yul\":3040:3073   */\n          tag_34\n          jump\t// in\n        tag_84:\n            /* \"#utility.yul\":2936:3079   */\n          swap3\n          swap2\n          pop\n          pop\n          jump\t// out\n            /* \"#utility.yul\":3085:3211   */\n        tag_36:\n            /* \"#utility.yul\":3122:3129   */\n          0x00\n            /* \"#utility.yul\":3162:3204   */\n          0xffffffffffffffffffffffffffffffffffffffff\n            /* \"#utility.yul\":3155:3160   */\n          dup3\n            /* \"#utility.yul\":3151:3205   */\n          and\n            /* \"#utility.yul\":3140:3205   */\n          swap1\n          pop\n            /* \"#utility.yul\":3085:3211   */\n          swap2\n          swap1\n          pop\n          jump\t// out\n            /* \"#utility.yul\":3217:3321   */\n        tag_37:\n            /* \"#utility.yul\":3262:3269   */\n          0x00\n            /* \"#utility.yul\":3291:3315   */\n          tag_87\n            /* \"#utility.yul\":3309:3314   */\n          dup3\n            /* \"#utility.yul\":3291:3315   */\n          tag_36\n          jump\t// in\n        tag_87:\n            /* \"#utility.yul\":3280:3315   */\n          swap1\n          pop\n            /* \"#utility.yul\":3217:3321   */\n          swap2\n          swap1\n          pop\n          jump\t// out\n            /* \"#utility.yul\":3327:3465   */\n        tag_38:\n            /* \"#utility.yul\":3408:3440   */\n          tag_89\n            /* \"#utility.yul\":3434:3439   */\n          dup2\n            /* \"#utility.yul\":3408:3440   */\n          tag_37\n          jump\t// in\n        tag_89:\n            /* \"#utility.yul\":3401:3406   */\n          dup2\n            /* \"#utility.yul\":3398:3441   */\n          eq\n            /* \"#utility.yul\":3388:3459   */\n          tag_90\n          jumpi\n            /* \"#utility.yul\":3455:3456   */\n          0x00\n            /* \"#utility.yul\":3452:3453   */\n          dup1\n            /* \"#utility.yul\":3445:3457   */\n          revert\n            /* \"#utility.yul\":3388:3459   */\n        tag_90:\n            /* \"#utility.yul\":3327:3465   */\n          pop\n          jump\t// out\n            /* \"#utility.yul\":3471:3630   */\n        tag_39:\n            /* \"#utility.yul\":3536:3541   */\n          0x00\n            /* \"#utility.yul\":3567:3573   */\n          dup2\n            /* \"#utility.yul\":3561:3574   */\n          mload\n            /* \"#utility.yul\":3552:3574   */\n          swap1\n          pop\n            /* \"#utility.yul\":3583:3624   */\n          tag_92\n            /* \"#utility.yul\":3618:3623   */\n          dup2\n            /* \"#utility.yul\":3583:3624   */\n          tag_38\n          jump\t// in\n        tag_92:\n            /* \"#utility.yul\":3471:3630   */\n          swap3\n          swap2\n          pop\n          pop\n          jump\t// out\n            /* \"#utility.yul\":3636:3732   */\n        tag_40:\n            /* \"#utility.yul\":3673:3680   */\n          0x00\n            /* \"#utility.yul\":3702:3726   */\n          tag_94\n            /* \"#utility.yul\":3720:3725   */\n          dup3\n            /* \"#utility.yul\":3702:3726   */\n          tag_36\n          jump\t// in\n        tag_94:\n            /* \"#utility.yul\":3691:3726   */\n          swap1\n          pop\n            /* \"#utility.yul\":3636:3732   */\n          swap2\n          swap1\n          pop\n          jump\t// out\n            /* \"#utility.yul\":3738:3849   */\n        tag_41:\n            /* \"#utility.yul\":3790:3797   */\n          0x00\n            /* \"#utility.yul\":3819:3843   */\n          tag_96\n            /* \"#utility.yul\":3837:3842   */\n          dup3\n            /* \"#utility.yul\":3819:3843   */\n          tag_40\n          jump\t// in\n        tag_96:\n            /* \"#utility.yul\":3808:3843   */\n          swap1\n          pop\n            /* \"#utility.yul\":3738:3849   */\n          swap2\n          swap1\n          pop\n          jump\t// out\n            /* \"#utility.yul\":3855:4007   */\n        tag_42:\n            /* \"#utility.yul\":3943:3982   */\n          tag_98\n            /* \"#utility.yul\":3976:3981   */\n          dup2\n            /* \"#utility.yul\":3943:3982   */\n          tag_41\n          jump\t// in\n        tag_98:\n            /* \"#utility.yul\":3936:3941   */\n          dup2\n            /* \"#utility.yul\":3933:3983   */\n          eq\n            /* \"#utility.yul\":3923:4001   */\n          tag_99\n          jumpi\n            /* \"#utility.yul\":3997:3998   */\n          0x00\n            /* \"#utility.yul\":3994:3995   */\n          dup1\n            /* \"#utility.yul\":3987:3999   */\n          revert\n            /* \"#utility.yul\":3923:4001   */\n        tag_99:\n            /* \"#utility.yul\":3855:4007   */\n          pop\n          jump\t// out\n            /* \"#utility.yul\":4013:4186   */\n        tag_43:\n            /* \"#utility.yul\":4085:4090   */\n          0x00\n            /* \"#utility.yul\":4116:4122   */\n          dup2\n            /* \"#utility.yul\":4110:4123   */\n          mload\n            /* \"#utility.yul\":4101:4123   */\n          swap1\n          pop\n            /* \"#utility.yul\":4132:4180   */\n          tag_101\n            /* \"#utility.yul\":4174:4179   */\n          dup2\n            /* \"#utility.yul\":4132:4180   */\n          tag_42\n          jump\t// in\n        tag_101:\n            /* \"#utility.yul\":4013:4186   */\n          swap3\n          swap2\n          pop\n          pop\n          jump\t// out\n            /* \"#utility.yul\":4192:5231   */\n        tag_3:\n            /* \"#utility.yul\":4322:4328   */\n          0x00\n            /* \"#utility.yul\":4330:4336   */\n          dup1\n            /* \"#utility.yul\":4338:4344   */\n          0x00\n            /* \"#utility.yul\":4346:4352   */\n          dup1\n            /* \"#utility.yul\":4395:4398   */\n          0x80\n            /* \"#utility.yul\":4383:4392   */\n          dup6\n            /* \"#utility.yul\":4374:4381   */\n          dup8\n            /* \"#utility.yul\":4370:4393   */\n          sub\n            /* \"#utility.yul\":4366:4399   */\n          slt\n            /* \"#utility.yul\":4363:4483   */\n          iszero\n          tag_103\n          jumpi\n            /* \"#utility.yul\":4402:4481   */\n          tag_104\n          tag_21\n          jump\t// in\n        tag_104:\n            /* \"#utility.yul\":4363:4483   */\n        tag_103:\n            /* \"#utility.yul\":4543:4544   */\n          0x00\n            /* \"#utility.yul\":4532:4541   */\n          dup6\n            /* \"#utility.yul\":4528:4545   */\n          add\n            /* \"#utility.yul\":4522:4546   */\n          mload\n            /* \"#utility.yul\":4573:4591   */\n          0xffffffffffffffff\n            /* \"#utility.yul\":4565:4571   */\n          dup2\n            /* \"#utility.yul\":4562:4592   */\n          gt\n            /* \"#utility.yul\":4559:4676   */\n          iszero\n          tag_105\n          jumpi\n            /* \"#utility.yul\":4595:4674   */\n          tag_106\n          tag_22\n          jump\t// in\n        tag_106:\n            /* \"#utility.yul\":4559:4676   */\n        tag_105:\n            /* \"#utility.yul\":4700:4774   */\n          tag_107\n            /* \"#utility.yul\":4766:4773   */\n          dup8\n            /* \"#utility.yul\":4757:4763   */\n          dup3\n            /* \"#utility.yul\":4746:4755   */\n          dup9\n            /* \"#utility.yul\":4742:4764   */\n          add\n            /* \"#utility.yul\":4700:4774   */\n          tag_32\n          jump\t// in\n        tag_107:\n            /* \"#utility.yul\":4690:4774   */\n          swap5\n          pop\n            /* \"#utility.yul\":4493:4784   */\n          pop\n            /* \"#utility.yul\":4823:4825   */\n          0x20\n            /* \"#utility.yul\":4849:4913   */\n          tag_108\n            /* \"#utility.yul\":4905:4912   */\n          dup8\n            /* \"#utility.yul\":4896:4902   */\n          dup3\n            /* \"#utility.yul\":4885:4894   */\n          dup9\n            /* \"#utility.yul\":4881:4903   */\n          add\n            /* \"#utility.yul\":4849:4913   */\n          tag_35\n          jump\t// in\n        tag_108:\n            /* \"#utility.yul\":4839:4913   */\n          swap4\n          pop\n            /* \"#utility.yul\":4794:4923   */\n          pop\n            /* \"#utility.yul\":4962:4964   */\n          0x40\n            /* \"#utility.yul\":4988:5060   */\n          tag_109\n            /* \"#utility.yul\":5052:5059   */\n          dup8\n            /* \"#utility.yul\":5043:5049   */\n          dup3\n            /* \"#utility.yul\":5032:5041   */\n          dup9\n            /* \"#utility.yul\":5028:5050   */\n          add\n            /* \"#utility.yul\":4988:5060   */\n          tag_39\n          jump\t// in\n        tag_109:\n            /* \"#utility.yul\":4978:5060   */\n          swap3\n          pop\n            /* \"#utility.yul\":4933:5070   */\n          pop\n            /* \"#utility.yul\":5109:5111   */\n          0x60\n            /* \"#utility.yul\":5135:5214   */\n          tag_110\n            /* \"#utility.yul\":5206:5213   */\n          dup8\n            /* \"#utility.yul\":5197:5203   */\n          dup3\n            /* \"#utility.yul\":5186:5195   */\n          dup9\n            /* \"#utility.yul\":5182:5204   */\n          add\n            /* \"#utility.yul\":5135:5214   */\n          tag_43\n          jump\t// in\n        tag_110:\n            /* \"#utility.yul\":5125:5214   */\n          swap2\n          pop\n            /* \"#utility.yul\":5080:5224   */\n          pop\n            /* \"#utility.yul\":4192:5231   */\n          swap3\n          swap6\n          swap2\n          swap5\n          pop\n          swap3\n          pop\n          jump\t// out\n            /* \"#utility.yul\":5237:5417   */\n        tag_44:\n            /* \"#utility.yul\":5285:5362   */\n          0x4e487b7100000000000000000000000000000000000000000000000000000000\n            /* \"#utility.yul\":5282:5283   */\n          0x00\n            /* \"#utility.yul\":5275:5363   */\n          mstore\n            /* \"#utility.yul\":5382:5386   */\n          0x22\n            /* \"#utility.yul\":5379:5380   */\n          0x04\n            /* \"#utility.yul\":5372:5387   */\n          mstore\n            /* \"#utility.yul\":5406:5410   */\n          0x24\n            /* \"#utility.yul\":5403:5404   */\n          0x00\n            /* \"#utility.yul\":5396:5411   */\n          revert\n            /* \"#utility.yul\":5423:5743   */\n        tag_10:\n            /* \"#utility.yul\":5467:5473   */\n          0x00\n            /* \"#utility.yul\":5504:5505   */\n          0x02\n            /* \"#utility.yul\":5498:5502   */\n          dup3\n            /* \"#utility.yul\":5494:5506   */\n          div\n            /* \"#utility.yul\":5484:5506   */\n          swap1\n          pop\n            /* \"#utility.yul\":5551:5552   */\n          0x01\n            /* \"#utility.yul\":5545:5549   */\n          dup3\n            /* \"#utility.yul\":5541:5553   */\n          and\n            /* \"#utility.yul\":5572:5590   */\n          dup1\n            /* \"#utility.yul\":5562:5643   */\n          tag_113\n          jumpi\n            /* \"#utility.yul\":5628:5632   */\n          0x7f\n            /* \"#utility.yul\":5620:5626   */\n          dup3\n            /* \"#utility.yul\":5616:5633   */\n          and\n            /* \"#utility.yul\":5606:5633   */\n          swap2\n          pop\n            /* \"#utility.yul\":5562:5643   */\n        tag_113:\n            /* \"#utility.yul\":5690:5692   */\n          0x20\n            /* \"#utility.yul\":5682:5688   */\n          dup3\n            /* \"#utility.yul\":5679:5693   */\n          lt\n            /* \"#utility.yul\":5659:5677   */\n          dup2\n            /* \"#utility.yul\":5656:5694   */\n          eq\n            /* \"#utility.yul\":5653:5737   */\n          iszero\n          tag_114\n          jumpi\n            /* \"#utility.yul\":5709:5727   */\n          tag_115\n          tag_44\n          jump\t// in\n        tag_115:\n            /* \"#utility.yul\":5653:5737   */\n        tag_114:\n            /* \"#utility.yul\":5474:5743   */\n          pop\n            /* \"#utility.yul\":5423:5743   */\n          swap2\n          swap1\n          pop\n          jump\t// out\n            /* \"Funding.sol\":2663:4703  contract Request {... */\n        tag_8:\n          dataSize(sub_0)\n          dup1\n          dataOffset(sub_0)\n          0x00\n          codecopy\n          0x00\n          return\n        stop\n\n        sub_0: assembly {\n                /* \"Funding.sol\":2663:4703  contract Request {... */\n              mstore(0x40, 0x80)\n              jumpi(tag_1, lt(calldatasize, 0x04))\n              shr(0xe0, calldataload(0x00))\n              dup1\n              0x937e09b1\n              gt\n              tag_18\n              jumpi\n              dup1\n              0xc236bb22\n              gt\n              tag_19\n              jumpi\n              dup1\n              0xc236bb22\n              eq\n              tag_14\n              jumpi\n              dup1\n              0xd5d9ce91\n              eq\n              tag_15\n              jumpi\n              dup1\n              0xd7bb99ba\n              eq\n              tag_16\n              jumpi\n              dup1\n              0xecfd8928\n              eq\n              tag_17\n              jumpi\n              jump(tag_1)\n            tag_19:\n              dup1\n              0x937e09b1\n              eq\n              tag_10\n              jumpi\n              dup1\n              0xa885bd54\n              eq\n              tag_11\n              jumpi\n              dup1\n              0xaa8c217c\n              eq\n              tag_12\n              jumpi\n              dup1\n              0xad285cad\n              eq\n              tag_13\n              jumpi\n              jump(tag_1)\n            tag_18:\n              dup1\n              0x1f6d4942\n              gt\n              tag_20\n              jumpi\n              dup1\n              0x1f6d4942\n              eq\n              tag_6\n              jumpi\n              dup1\n              0x481c6a75\n              eq\n              tag_7\n              jumpi\n              dup1\n              0x66d003ac\n              eq\n              tag_8\n              jumpi\n              dup1\n              0x7284e416\n              eq\n              tag_9\n              jumpi\n              jump(tag_1)\n            tag_20:\n              dup1\n              0x01cf89a8\n              eq\n              tag_2\n              jumpi\n              dup1\n              0x12424e3f\n              eq\n              tag_3\n              jumpi\n              dup1\n              0x158fba8f\n              eq\n              tag_4\n              jumpi\n              dup1\n              0x19d40b08\n              eq\n              tag_5\n              jumpi\n            tag_1:\n              0x00\n              dup1\n              revert\n                /* \"Funding.sol\":4229:4598  function banRequest() external isOpen {... */\n            tag_2:\n              callvalue\n              dup1\n              iszero\n              tag_21\n              jumpi\n              0x00\n              dup1\n              revert\n            tag_21:\n              pop\n              tag_22\n              tag_23\n              jump\t// in\n            tag_22:\n              stop\n                /* \"Funding.sol\":4016:4221  function approve() external {... */\n            tag_3:\n              callvalue\n              dup1\n              iszero\n              tag_24\n              jumpi\n              0x00\n              dup1\n              revert\n            tag_24:\n              pop\n              tag_25\n              tag_26\n              jump\t// in\n            tag_25:\n              stop\n                /* \"Funding.sol\":3147:3165  bool public banned */\n            tag_4:\n              callvalue\n              dup1\n              iszero\n              tag_27\n              jumpi\n              0x00\n              dup1\n              revert\n            tag_27:\n              pop\n              tag_28\n              tag_29\n              jump\t// in\n            tag_28:\n              mload(0x40)\n              tag_30\n              swap2\n              swap1\n              tag_31\n              jump\t// in\n            tag_30:\n              mload(0x40)\n              dup1\n              swap2\n              sub\n              swap1\n              return\n                /* \"Funding.sol\":2918:2938  bool public approved */\n            tag_5:\n              callvalue\n              dup1\n              iszero\n              tag_32\n              jumpi\n              0x00\n              dup1\n              revert\n            tag_32:\n              pop\n              tag_33\n              tag_34\n              jump\t// in\n            tag_33:\n              mload(0x40)\n              tag_35\n              swap2\n              swap1\n              tag_31\n              jump\t// in\n            tag_35:\n              mload(0x40)\n              dup1\n              swap2\n              sub\n              swap1\n              return\n                /* \"Funding.sol\":2945:2989  mapping(address => bool) public contributors */\n            tag_6:\n              callvalue\n              dup1\n              iszero\n              tag_36\n              jumpi\n              0x00\n              dup1\n              revert\n            tag_36:\n              pop\n              tag_37\n              0x04\n              dup1\n              calldatasize\n              sub\n              dup2\n              add\n              swap1\n              tag_38\n              swap2\n              swap1\n              tag_39\n              jump\t// in\n            tag_38:\n              tag_40\n              jump\t// in\n            tag_37:\n              mload(0x40)\n              tag_41\n              swap2\n              swap1\n              tag_31\n              jump\t// in\n            tag_41:\n              mload(0x40)\n              dup1\n              swap2\n              sub\n              swap1\n              return\n                /* \"Funding.sol\":2742:2765  Manager public  manager */\n            tag_7:\n              callvalue\n              dup1\n              iszero\n              tag_42\n              jumpi\n              0x00\n              dup1\n              revert\n            tag_42:\n              pop\n              tag_43\n              tag_44\n              jump\t// in\n            tag_43:\n              mload(0x40)\n              tag_45\n              swap2\n              swap1\n              tag_46\n              jump\t// in\n            tag_45:\n              mload(0x40)\n              dup1\n              swap2\n              sub\n              swap1\n              return\n                /* \"Funding.sol\":2845:2877  address payable public recipient */\n            tag_8:\n              callvalue\n              dup1\n              iszero\n              tag_47\n              jumpi\n              0x00\n              dup1\n              revert\n            tag_47:\n              pop\n              tag_48\n              tag_49\n              jump\t// in\n            tag_48:\n              mload(0x40)\n              tag_50\n              swap2\n              swap1\n              tag_51\n              jump\t// in\n            tag_50:\n              mload(0x40)\n              dup1\n              swap2\n              sub\n              swap1\n              return\n                /* \"Funding.sol\":2787:2812  string public description */\n            tag_9:\n              callvalue\n              dup1\n              iszero\n              tag_52\n              jumpi\n              0x00\n              dup1\n              revert\n            tag_52:\n              pop\n              tag_53\n              tag_54\n              jump\t// in\n            tag_53:\n              mload(0x40)\n              tag_55\n              swap2\n              swap1\n              tag_56\n              jump\t// in\n            tag_55:\n              mload(0x40)\n              dup1\n              swap2\n              sub\n              swap1\n              return\n                /* \"Funding.sol\":2687:2733  uint constant public minimumContribution = 100 */\n            tag_10:\n              callvalue\n              dup1\n              iszero\n              tag_57\n              jumpi\n              0x00\n              dup1\n              revert\n            tag_57:\n              pop\n              tag_58\n              tag_59\n              jump\t// in\n            tag_58:\n              mload(0x40)\n              tag_60\n              swap2\n              swap1\n              tag_61\n              jump\t// in\n            tag_60:\n              mload(0x40)\n              dup1\n              swap2\n              sub\n              swap1\n              return\n                /* \"Funding.sol\":3115:3140  uint public totalBanCount */\n            tag_11:\n              callvalue\n              dup1\n              iszero\n              tag_62\n              jumpi\n              0x00\n              dup1\n              revert\n            tag_62:\n              pop\n              tag_63\n              tag_64\n              jump\t// in\n            tag_63:\n              mload(0x40)\n              tag_65\n              swap2\n              swap1\n              tag_61\n              jump\t// in\n            tag_65:\n              mload(0x40)\n              dup1\n              swap2\n              sub\n              swap1\n              return\n                /* \"Funding.sol\":2819:2838  uint public  amount */\n            tag_12:\n              callvalue\n              dup1\n              iszero\n              tag_66\n              jumpi\n              0x00\n              dup1\n              revert\n            tag_66:\n              pop\n              tag_67\n              tag_68\n              jump\t// in\n            tag_67:\n              mload(0x40)\n              tag_69\n              swap2\n              swap1\n              tag_61\n              jump\t// in\n            tag_69:\n              mload(0x40)\n              dup1\n              swap2\n              sub\n              swap1\n              return\n                /* \"Funding.sol\":3072:3108  mapping(address => bool) public bans */\n            tag_13:\n              callvalue\n              dup1\n              iszero\n              tag_70\n              jumpi\n              0x00\n              dup1\n              revert\n            tag_70:\n              pop\n              tag_71\n              0x04\n              dup1\n              calldatasize\n              sub\n              dup2\n              add\n              swap1\n              tag_72\n              swap2\n              swap1\n              tag_39\n              jump\t// in\n            tag_72:\n              tag_73\n              jump\t// in\n            tag_71:\n              mload(0x40)\n              tag_74\n              swap2\n              swap1\n              tag_31\n              jump\t// in\n            tag_74:\n              mload(0x40)\n              dup1\n              swap2\n              sub\n              swap1\n              return\n                /* \"Funding.sol\":3031:3063  uint public totalAmountCollected */\n            tag_14:\n              callvalue\n              dup1\n              iszero\n              tag_75\n              jumpi\n              0x00\n              dup1\n              revert\n            tag_75:\n              pop\n              tag_76\n              tag_77\n              jump\t// in\n            tag_76:\n              mload(0x40)\n              tag_78\n              swap2\n              swap1\n              tag_61\n              jump\t// in\n            tag_78:\n              mload(0x40)\n              dup1\n              swap2\n              sub\n              swap1\n              return\n                /* \"Funding.sol\":4606:4700  function ban() public isOpen {... */\n            tag_15:\n              callvalue\n              dup1\n              iszero\n              tag_79\n              jumpi\n              0x00\n              dup1\n              revert\n            tag_79:\n              pop\n              tag_80\n              tag_81\n              jump\t// in\n            tag_80:\n              stop\n                /* \"Funding.sol\":3517:3957  function contribute() external payable isOpen {... */\n            tag_16:\n              tag_82\n              tag_83\n              jump\t// in\n            tag_82:\n              stop\n                /* \"Funding.sol\":2996:3024  uint public contributorCount */\n            tag_17:\n              callvalue\n              dup1\n              iszero\n              tag_84\n              jumpi\n              0x00\n              dup1\n              revert\n            tag_84:\n              pop\n              tag_85\n              tag_86\n              jump\t// in\n            tag_85:\n              mload(0x40)\n              tag_87\n              swap2\n              swap1\n              tag_61\n              jump\t// in\n            tag_87:\n              mload(0x40)\n              dup1\n              swap2\n              sub\n              swap1\n              return\n                /* \"Funding.sol\":4229:4598  function banRequest() external isOpen {... */\n            tag_23:\n                /* \"Funding.sol\":3212:3220  approved */\n              0x03\n              0x14\n              swap1\n              sload\n              swap1\n              0x0100\n              exp\n              swap1\n              div\n              0xff\n              and\n                /* \"Funding.sol\":3211:3220  !approved */\n              iszero\n                /* \"Funding.sol\":3211:3231  !approved && !banned */\n              dup1\n              iszero\n              tag_89\n              jumpi\n              pop\n                /* \"Funding.sol\":3225:3231  banned */\n              0x09\n              0x00\n              swap1\n              sload\n              swap1\n              0x0100\n              exp\n              swap1\n              div\n              0xff\n              and\n                /* \"Funding.sol\":3224:3231  !banned */\n              iszero\n                /* \"Funding.sol\":3211:3231  !approved && !banned */\n            tag_89:\n                /* \"Funding.sol\":3203:3255  require(!approved && !banned, \"banned or completed\") */\n              tag_90\n              jumpi\n              mload(0x40)\n              0x08c379a000000000000000000000000000000000000000000000000000000000\n              dup2\n              mstore\n              0x04\n              add\n              tag_91\n              swap1\n              tag_92\n              jump\t// in\n            tag_91:\n              mload(0x40)\n              dup1\n              swap2\n              sub\n              swap1\n              revert\n            tag_90:\n                /* \"Funding.sol\":4286:4298  contributors */\n              0x04\n                /* \"Funding.sol\":4286:4310  contributors[msg.sender] */\n              0x00\n                /* \"Funding.sol\":4299:4309  msg.sender */\n              caller\n                /* \"Funding.sol\":4286:4310  contributors[msg.sender] */\n              0xffffffffffffffffffffffffffffffffffffffff\n              and\n              0xffffffffffffffffffffffffffffffffffffffff\n              and\n              dup2\n              mstore\n              0x20\n              add\n              swap1\n              dup2\n              mstore\n              0x20\n              add\n              0x00\n              keccak256\n              0x00\n              swap1\n              sload\n              swap1\n              0x0100\n              exp\n              swap1\n              div\n              0xff\n              and\n                /* \"Funding.sol\":4278:4340  require(contributors[msg.sender], \"you are not a contributor\") */\n              tag_94\n              jumpi\n              mload(0x40)\n              0x08c379a000000000000000000000000000000000000000000000000000000000\n              dup2\n              mstore\n              0x04\n              add\n              tag_95\n              swap1\n              tag_96\n              jump\t// in\n            tag_95:\n              mload(0x40)\n              dup1\n              swap2\n              sub\n              swap1\n              revert\n            tag_94:\n                /* \"Funding.sol\":4360:4364  bans */\n              0x07\n                /* \"Funding.sol\":4360:4376  bans[msg.sender] */\n              0x00\n                /* \"Funding.sol\":4365:4375  msg.sender */\n              caller\n                /* \"Funding.sol\":4360:4376  bans[msg.sender] */\n              0xffffffffffffffffffffffffffffffffffffffff\n              and\n              0xffffffffffffffffffffffffffffffffffffffff\n              and\n              dup2\n              mstore\n              0x20\n              add\n              swap1\n              dup2\n              mstore\n              0x20\n              add\n              0x00\n              keccak256\n              0x00\n              swap1\n              sload\n              swap1\n              0x0100\n              exp\n              swap1\n              div\n              0xff\n              and\n                /* \"Funding.sol\":4359:4376  !bans[msg.sender] */\n              iszero\n                /* \"Funding.sol\":4351:4404  require(!bans[msg.sender], \"you have already banned\") */\n              tag_97\n              jumpi\n              mload(0x40)\n              0x08c379a000000000000000000000000000000000000000000000000000000000\n              dup2\n              mstore\n              0x04\n              add\n              tag_98\n              swap1\n              tag_99\n              jump\t// in\n            tag_98:\n              mload(0x40)\n              dup1\n              swap2\n              sub\n              swap1\n              revert\n            tag_97:\n                /* \"Funding.sol\":4436:4440  true */\n              0x01\n                /* \"Funding.sol\":4417:4421  bans */\n              0x07\n                /* \"Funding.sol\":4417:4433  bans[msg.sender] */\n              0x00\n                /* \"Funding.sol\":4422:4432  msg.sender */\n              caller\n                /* \"Funding.sol\":4417:4433  bans[msg.sender] */\n              0xffffffffffffffffffffffffffffffffffffffff\n              and\n              0xffffffffffffffffffffffffffffffffffffffff\n              and\n              dup2\n              mstore\n              0x20\n              add\n              swap1\n              dup2\n              mstore\n              0x20\n              add\n              0x00\n              keccak256\n              0x00\n                /* \"Funding.sol\":4417:4440  bans[msg.sender] = true */\n              0x0100\n              exp\n              dup2\n              sload\n              dup2\n              0xff\n              mul\n              not\n              and\n              swap1\n              dup4\n              iszero\n              iszero\n              mul\n              or\n              swap1\n              sstore\n              pop\n                /* \"Funding.sol\":4451:4464  totalBanCount */\n              0x08\n              0x00\n                /* \"Funding.sol\":4451:4466  totalBanCount++ */\n              dup2\n              sload\n              dup1\n              swap3\n              swap2\n              swap1\n              tag_100\n              swap1\n              tag_101\n              jump\t// in\n            tag_100:\n              swap2\n              swap1\n              pop\n              sstore\n              pop\n                /* \"Funding.sol\":4479:4497  uint banPercentage */\n              0x00\n                /* \"Funding.sol\":4535:4538  100 */\n              0x64\n                /* \"Funding.sol\":4515:4531  contributorCount */\n              sload(0x05)\n                /* \"Funding.sol\":4501:4514  totalBanCount */\n              sload(0x08)\n                /* \"Funding.sol\":4501:4531  totalBanCount/contributorCount */\n              tag_102\n              swap2\n              swap1\n              tag_103\n              jump\t// in\n            tag_102:\n                /* \"Funding.sol\":4500:4538  (totalBanCount/contributorCount) * 100 */\n              tag_104\n              swap2\n              swap1\n              tag_105\n              jump\t// in\n            tag_104:\n                /* \"Funding.sol\":4479:4538  uint banPercentage = (totalBanCount/contributorCount) * 100 */\n              swap1\n              pop\n                /* \"Funding.sol\":4568:4570  90 */\n              0x5a\n                /* \"Funding.sol\":4552:4565  banPercentage */\n              dup2\n                /* \"Funding.sol\":4552:4570  banPercentage > 90 */\n              gt\n                /* \"Funding.sol\":4549:4590  if(banPercentage > 90)... */\n              iszero\n              tag_106\n              jumpi\n                /* \"Funding.sol\":4585:4590  ban() */\n              tag_107\n                /* \"Funding.sol\":4585:4588  ban */\n              tag_81\n                /* \"Funding.sol\":4585:4590  ban() */\n              jump\t// in\n            tag_107:\n                /* \"Funding.sol\":4549:4590  if(banPercentage > 90)... */\n            tag_106:\n                /* \"Funding.sol\":4267:4598  {... */\n              pop\n                /* \"Funding.sol\":4229:4598  function banRequest() external isOpen {... */\n              jump\t// out\n                /* \"Funding.sol\":4016:4221  function approve() external {... */\n            tag_26:\n                /* \"Funding.sol\":4108:4117  recipient */\n              0x03\n              0x00\n              swap1\n              sload\n              swap1\n              0x0100\n              exp\n              swap1\n              div\n              0xffffffffffffffffffffffffffffffffffffffff\n              and\n                /* \"Funding.sol\":4108:4126  recipient.transfer */\n              0xffffffffffffffffffffffffffffffffffffffff\n              and\n                /* \"Funding.sol\":4108:4149  recipient.transfer(address(this).balance) */\n              0x08fc\n                /* \"Funding.sol\":4127:4148  address(this).balance */\n              selfbalance\n                /* \"Funding.sol\":4108:4149  recipient.transfer(address(this).balance) */\n              swap1\n              dup2\n              iszero\n              mul\n              swap1\n              mload(0x40)\n              0x00\n              mload(0x40)\n              dup1\n              dup4\n              sub\n              dup2\n              dup6\n              dup9\n              dup9\n              call\n              swap4\n              pop\n              pop\n              pop\n              pop\n              iszero\n              dup1\n              iszero\n              tag_110\n              jumpi\n              returndatasize\n              0x00\n              dup1\n              returndatacopy\n              revert(0x00, returndatasize)\n            tag_110:\n              pop\n                /* \"Funding.sol\":4173:4177  true */\n              0x01\n                /* \"Funding.sol\":4162:4170  approved */\n              0x03\n              0x14\n                /* \"Funding.sol\":4162:4177  approved = true */\n              0x0100\n              exp\n              dup2\n              sload\n              dup2\n              0xff\n              mul\n              not\n              and\n              swap1\n              dup4\n              iszero\n              iszero\n              mul\n              or\n              swap1\n              sstore\n              pop\n                /* \"Funding.sol\":4190:4197  manager */\n              0x00\n              dup1\n              sload\n              swap1\n              0x0100\n              exp\n              swap1\n              div\n              0xffffffffffffffffffffffffffffffffffffffff\n              and\n                /* \"Funding.sol\":4190:4211  manager.removeHolding */\n              0xffffffffffffffffffffffffffffffffffffffff\n              and\n              0x02cff5c5\n                /* \"Funding.sol\":4190:4213  manager.removeHolding() */\n              mload(0x40)\n              dup2\n              0xffffffff\n              and\n              0xe0\n              shl\n              dup2\n              mstore\n              0x04\n              add\n              0x00\n              mload(0x40)\n              dup1\n              dup4\n              sub\n              dup2\n              0x00\n              dup8\n              dup1\n              extcodesize\n              iszero\n              dup1\n              iszero\n              tag_111\n              jumpi\n              0x00\n              dup1\n              revert\n            tag_111:\n              pop\n              gas\n              call\n              iszero\n              dup1\n              iszero\n              tag_113\n              jumpi\n              returndatasize\n              0x00\n              dup1\n              returndatacopy\n              revert(0x00, returndatasize)\n            tag_113:\n              pop\n              pop\n              pop\n              pop\n                /* \"Funding.sol\":4016:4221  function approve() external {... */\n              jump\t// out\n                /* \"Funding.sol\":3147:3165  bool public banned */\n            tag_29:\n              0x09\n              0x00\n              swap1\n              sload\n              swap1\n              0x0100\n              exp\n              swap1\n              div\n              0xff\n              and\n              dup2\n              jump\t// out\n                /* \"Funding.sol\":2918:2938  bool public approved */\n            tag_34:\n              0x03\n              0x14\n              swap1\n              sload\n              swap1\n              0x0100\n              exp\n              swap1\n              div\n              0xff\n              and\n              dup2\n              jump\t// out\n                /* \"Funding.sol\":2945:2989  mapping(address => bool) public contributors */\n            tag_40:\n              mstore(0x20, 0x04)\n              dup1\n              0x00\n              mstore\n              keccak256(0x00, 0x40)\n              0x00\n              swap2\n              pop\n              sload\n              swap1\n              0x0100\n              exp\n              swap1\n              div\n              0xff\n              and\n              dup2\n              jump\t// out\n                /* \"Funding.sol\":2742:2765  Manager public  manager */\n            tag_44:\n              0x00\n              dup1\n              sload\n              swap1\n              0x0100\n              exp\n              swap1\n              div\n              0xffffffffffffffffffffffffffffffffffffffff\n              and\n              dup2\n              jump\t// out\n                /* \"Funding.sol\":2845:2877  address payable public recipient */\n            tag_49:\n              0x03\n              0x00\n              swap1\n              sload\n              swap1\n              0x0100\n              exp\n              swap1\n              div\n              0xffffffffffffffffffffffffffffffffffffffff\n              and\n              dup2\n              jump\t// out\n                /* \"Funding.sol\":2787:2812  string public description */\n            tag_54:\n              0x01\n              dup1\n              sload\n              tag_114\n              swap1\n              tag_115\n              jump\t// in\n            tag_114:\n              dup1\n              0x1f\n              add\n              0x20\n              dup1\n              swap2\n              div\n              mul\n              0x20\n              add\n              mload(0x40)\n              swap1\n              dup2\n              add\n              0x40\n              mstore\n              dup1\n              swap3\n              swap2\n              swap1\n              dup2\n              dup2\n              mstore\n              0x20\n              add\n              dup3\n              dup1\n              sload\n              tag_116\n              swap1\n              tag_115\n              jump\t// in\n            tag_116:\n              dup1\n              iszero\n              tag_117\n              jumpi\n              dup1\n              0x1f\n              lt\n              tag_118\n              jumpi\n              0x0100\n              dup1\n              dup4\n              sload\n              div\n              mul\n              dup4\n              mstore\n              swap2\n              0x20\n              add\n              swap2\n              jump(tag_117)\n            tag_118:\n              dup3\n              add\n              swap2\n              swap1\n              0x00\n              mstore\n              keccak256(0x00, 0x20)\n              swap1\n            tag_119:\n              dup2\n              sload\n              dup2\n              mstore\n              swap1\n              0x01\n              add\n              swap1\n              0x20\n              add\n              dup1\n              dup4\n              gt\n              tag_119\n              jumpi\n              dup3\n              swap1\n              sub\n              0x1f\n              and\n              dup3\n              add\n              swap2\n            tag_117:\n              pop\n              pop\n              pop\n              pop\n              pop\n              dup2\n              jump\t// out\n                /* \"Funding.sol\":2687:2733  uint constant public minimumContribution = 100 */\n            tag_59:\n                /* \"Funding.sol\":2730:2733  100 */\n              0x64\n                /* \"Funding.sol\":2687:2733  uint constant public minimumContribution = 100 */\n              dup2\n              jump\t// out\n                /* \"Funding.sol\":3115:3140  uint public totalBanCount */\n            tag_64:\n              sload(0x08)\n              dup2\n              jump\t// out\n                /* \"Funding.sol\":2819:2838  uint public  amount */\n            tag_68:\n              sload(0x02)\n              dup2\n              jump\t// out\n                /* \"Funding.sol\":3072:3108  mapping(address => bool) public bans */\n            tag_73:\n              mstore(0x20, 0x07)\n              dup1\n              0x00\n              mstore\n              keccak256(0x00, 0x40)\n              0x00\n              swap2\n              pop\n              sload\n              swap1\n              0x0100\n              exp\n              swap1\n              div\n              0xff\n              and\n              dup2\n              jump\t// out\n                /* \"Funding.sol\":3031:3063  uint public totalAmountCollected */\n            tag_77:\n              sload(0x06)\n              dup2\n              jump\t// out\n                /* \"Funding.sol\":4606:4700  function ban() public isOpen {... */\n            tag_81:\n                /* \"Funding.sol\":3212:3220  approved */\n              0x03\n              0x14\n              swap1\n              sload\n              swap1\n              0x0100\n              exp\n              swap1\n              div\n              0xff\n              and\n                /* \"Funding.sol\":3211:3220  !approved */\n              iszero\n                /* \"Funding.sol\":3211:3231  !approved && !banned */\n              dup1\n              iszero\n              tag_121\n              jumpi\n              pop\n                /* \"Funding.sol\":3225:3231  banned */\n              0x09\n              0x00\n              swap1\n              sload\n              swap1\n              0x0100\n              exp\n              swap1\n              div\n              0xff\n              and\n                /* \"Funding.sol\":3224:3231  !banned */\n              iszero\n                /* \"Funding.sol\":3211:3231  !approved && !banned */\n            tag_121:\n                /* \"Funding.sol\":3203:3255  require(!approved && !banned, \"banned or completed\") */\n              tag_122\n              jumpi\n              mload(0x40)\n              0x08c379a000000000000000000000000000000000000000000000000000000000\n              dup2\n              mstore\n              0x04\n              add\n              tag_123\n              swap1\n              tag_92\n              jump\t// in\n            tag_123:\n              mload(0x40)\n              dup1\n              swap2\n              sub\n              swap1\n              revert\n            tag_122:\n                /* \"Funding.sol\":4646:4653  manager */\n              0x00\n              dup1\n              sload\n              swap1\n              0x0100\n              exp\n              swap1\n              div\n              0xffffffffffffffffffffffffffffffffffffffff\n              and\n                /* \"Funding.sol\":4646:4666  manager.addTotalBans */\n              0xffffffffffffffffffffffffffffffffffffffff\n              and\n              0xcb6ff4a3\n                /* \"Funding.sol\":4646:4668  manager.addTotalBans() */\n              mload(0x40)\n              dup2\n              0xffffffff\n              and\n              0xe0\n              shl\n              dup2\n              mstore\n              0x04\n              add\n              0x00\n              mload(0x40)\n              dup1\n              dup4\n              sub\n              dup2\n              0x00\n              dup8\n              dup1\n              extcodesize\n              iszero\n              dup1\n              iszero\n              tag_125\n              jumpi\n              0x00\n              dup1\n              revert\n            tag_125:\n              pop\n              gas\n              call\n              iszero\n              dup1\n              iszero\n              tag_127\n              jumpi\n              returndatasize\n              0x00\n              dup1\n              returndatacopy\n              revert(0x00, returndatasize)\n            tag_127:\n              pop\n              pop\n              pop\n              pop\n                /* \"Funding.sol\":4688:4692  true */\n              0x01\n                /* \"Funding.sol\":4679:4685  banned */\n              0x09\n              0x00\n                /* \"Funding.sol\":4679:4692  banned = true */\n              0x0100\n              exp\n              dup2\n              sload\n              dup2\n              0xff\n              mul\n              not\n              and\n              swap1\n              dup4\n              iszero\n              iszero\n              mul\n              or\n              swap1\n              sstore\n              pop\n                /* \"Funding.sol\":4606:4700  function ban() public isOpen {... */\n              jump\t// out\n                /* \"Funding.sol\":3517:3957  function contribute() external payable isOpen {... */\n            tag_83:\n                /* \"Funding.sol\":3212:3220  approved */\n              0x03\n              0x14\n              swap1\n              sload\n              swap1\n              0x0100\n              exp\n              swap1\n              div\n              0xff\n              and\n                /* \"Funding.sol\":3211:3220  !approved */\n              iszero\n                /* \"Funding.sol\":3211:3231  !approved && !banned */\n              dup1\n              iszero\n              tag_129\n              jumpi\n              pop\n                /* \"Funding.sol\":3225:3231  banned */\n              0x09\n              0x00\n              swap1\n              sload\n              swap1\n              0x0100\n              exp\n              swap1\n              div\n              0xff\n              and\n                /* \"Funding.sol\":3224:3231  !banned */\n              iszero\n                /* \"Funding.sol\":3211:3231  !approved && !banned */\n            tag_129:\n                /* \"Funding.sol\":3203:3255  require(!approved && !banned, \"banned or completed\") */\n              tag_130\n              jumpi\n              mload(0x40)\n              0x08c379a000000000000000000000000000000000000000000000000000000000\n              dup2\n              mstore\n              0x04\n              add\n              tag_131\n              swap1\n              tag_92\n              jump\t// in\n            tag_131:\n              mload(0x40)\n              dup1\n              swap2\n              sub\n              swap1\n              revert\n            tag_130:\n                /* \"Funding.sol\":2730:2733  100 */\n              0x64\n                /* \"Funding.sol\":3582:3591  msg.value */\n              callvalue\n                /* \"Funding.sol\":3582:3614  msg.value >= minimumContribution */\n              lt\n              iszero\n                /* \"Funding.sol\":3574:3638  require(msg.value >= minimumContribution, \"less amount donated\") */\n              tag_133\n              jumpi\n              mload(0x40)\n              0x08c379a000000000000000000000000000000000000000000000000000000000\n              dup2\n              mstore\n              0x04\n              add\n              tag_134\n              swap1\n              tag_135\n              jump\t// in\n            tag_134:\n              mload(0x40)\n              dup1\n              swap2\n              sub\n              swap1\n              revert\n            tag_133:\n                /* \"Funding.sol\":3658:3664  banned */\n              0x09\n              0x00\n              swap1\n              sload\n              swap1\n              0x0100\n              exp\n              swap1\n              div\n              0xff\n              and\n                /* \"Funding.sol\":3657:3664  !banned */\n              iszero\n                /* \"Funding.sol\":3649:3699  require(!banned, \"can't donate to banned request\") */\n              tag_136\n              jumpi\n              mload(0x40)\n              0x08c379a000000000000000000000000000000000000000000000000000000000\n              dup2\n              mstore\n              0x04\n              add\n              tag_137\n              swap1\n              tag_138\n              jump\t// in\n            tag_137:\n              mload(0x40)\n              dup1\n              swap2\n              sub\n              swap1\n              revert\n            tag_136:\n                /* \"Funding.sol\":3741:3747  amount */\n              sload(0x02)\n                /* \"Funding.sol\":3718:3738  totalAmountCollected */\n              sload(0x06)\n                /* \"Funding.sol\":3718:3747  totalAmountCollected < amount */\n              lt\n                /* \"Funding.sol\":3710:3771  require(totalAmountCollected < amount, \"goal amount reached\") */\n              tag_139\n              jumpi\n              mload(0x40)\n              0x08c379a000000000000000000000000000000000000000000000000000000000\n              dup2\n              mstore\n              0x04\n              add\n              tag_140\n              swap1\n              tag_141\n              jump\t// in\n            tag_140:\n              mload(0x40)\n              dup1\n              swap2\n              sub\n              swap1\n              revert\n            tag_139:\n                /* \"Funding.sol\":3788:3800  contributors */\n              0x04\n                /* \"Funding.sol\":3788:3812  contributors[msg.sender] */\n              0x00\n                /* \"Funding.sol\":3801:3811  msg.sender */\n              caller\n                /* \"Funding.sol\":3788:3812  contributors[msg.sender] */\n              0xffffffffffffffffffffffffffffffffffffffff\n              and\n              0xffffffffffffffffffffffffffffffffffffffff\n              and\n              dup2\n              mstore\n              0x20\n              add\n              swap1\n              dup2\n              mstore\n              0x20\n              add\n              0x00\n              keccak256\n              0x00\n              swap1\n              sload\n              swap1\n              0x0100\n              exp\n              swap1\n              div\n              0xff\n              and\n                /* \"Funding.sol\":3784:3904  if(!contributors[msg.sender]){... */\n              tag_142\n              jumpi\n                /* \"Funding.sol\":3828:3844  contributorCount */\n              0x05\n              0x00\n                /* \"Funding.sol\":3828:3846  contributorCount++ */\n              dup2\n              sload\n              dup1\n              swap3\n              swap2\n              swap1\n              tag_143\n              swap1\n              tag_101\n              jump\t// in\n            tag_143:\n              swap2\n              swap1\n              pop\n              sstore\n              pop\n                /* \"Funding.sol\":3888:3892  true */\n              0x01\n                /* \"Funding.sol\":3861:3873  contributors */\n              0x04\n                /* \"Funding.sol\":3861:3885  contributors[msg.sender] */\n              0x00\n                /* \"Funding.sol\":3874:3884  msg.sender */\n              caller\n                /* \"Funding.sol\":3861:3885  contributors[msg.sender] */\n              0xffffffffffffffffffffffffffffffffffffffff\n              and\n              0xffffffffffffffffffffffffffffffffffffffff\n              and\n              dup2\n              mstore\n              0x20\n              add\n              swap1\n              dup2\n              mstore\n              0x20\n              add\n              0x00\n              keccak256\n              0x00\n                /* \"Funding.sol\":3861:3892  contributors[msg.sender] = true */\n              0x0100\n              exp\n              dup2\n              sload\n              dup2\n              0xff\n              mul\n              not\n              and\n              swap1\n              dup4\n              iszero\n              iszero\n              mul\n              or\n              swap1\n              sstore\n              pop\n                /* \"Funding.sol\":3784:3904  if(!contributors[msg.sender]){... */\n            tag_142:\n                /* \"Funding.sol\":3940:3949  msg.value */\n              callvalue\n                /* \"Funding.sol\":3916:3936  totalAmountCollected */\n              0x06\n              0x00\n                /* \"Funding.sol\":3916:3949  totalAmountCollected += msg.value */\n              dup3\n              dup3\n              sload\n              tag_144\n              swap2\n              swap1\n              tag_145\n              jump\t// in\n            tag_144:\n              swap3\n              pop\n              pop\n              dup2\n              swap1\n              sstore\n              pop\n                /* \"Funding.sol\":3517:3957  function contribute() external payable isOpen {... */\n              jump\t// out\n                /* \"Funding.sol\":2996:3024  uint public contributorCount */\n            tag_86:\n              sload(0x05)\n              dup2\n              jump\t// out\n                /* \"#utility.yul\":7:97   */\n            tag_146:\n                /* \"#utility.yul\":41:48   */\n              0x00\n                /* \"#utility.yul\":84:89   */\n              dup2\n                /* \"#utility.yul\":77:90   */\n              iszero\n                /* \"#utility.yul\":70:91   */\n              iszero\n                /* \"#utility.yul\":59:91   */\n              swap1\n              pop\n                /* \"#utility.yul\":7:97   */\n              swap2\n              swap1\n              pop\n              jump\t// out\n                /* \"#utility.yul\":103:212   */\n            tag_147:\n                /* \"#utility.yul\":184:205   */\n              tag_187\n                /* \"#utility.yul\":199:204   */\n              dup2\n                /* \"#utility.yul\":184:205   */\n              tag_146\n              jump\t// in\n            tag_187:\n                /* \"#utility.yul\":179:182   */\n              dup3\n                /* \"#utility.yul\":172:206   */\n              mstore\n                /* \"#utility.yul\":103:212   */\n              pop\n              pop\n              jump\t// out\n                /* \"#utility.yul\":218:428   */\n            tag_31:\n                /* \"#utility.yul\":305:309   */\n              0x00\n                /* \"#utility.yul\":343:345   */\n              0x20\n                /* \"#utility.yul\":332:341   */\n              dup3\n                /* \"#utility.yul\":328:346   */\n              add\n                /* \"#utility.yul\":320:346   */\n              swap1\n              pop\n                /* \"#utility.yul\":356:421   */\n              tag_189\n                /* \"#utility.yul\":418:419   */\n              0x00\n                /* \"#utility.yul\":407:416   */\n              dup4\n                /* \"#utility.yul\":403:420   */\n              add\n                /* \"#utility.yul\":394:400   */\n              dup5\n                /* \"#utility.yul\":356:421   */\n              tag_147\n              jump\t// in\n            tag_189:\n                /* \"#utility.yul\":218:428   */\n              swap3\n              swap2\n              pop\n              pop\n              jump\t// out\n                /* \"#utility.yul\":515:632   */\n            tag_149:\n                /* \"#utility.yul\":624:625   */\n              0x00\n                /* \"#utility.yul\":621:622   */\n              dup1\n                /* \"#utility.yul\":614:626   */\n              revert\n                /* \"#utility.yul\":761:887   */\n            tag_151:\n                /* \"#utility.yul\":798:805   */\n              0x00\n                /* \"#utility.yul\":838:880   */\n              0xffffffffffffffffffffffffffffffffffffffff\n                /* \"#utility.yul\":831:836   */\n              dup3\n                /* \"#utility.yul\":827:881   */\n              and\n                /* \"#utility.yul\":816:881   */\n              swap1\n              pop\n                /* \"#utility.yul\":761:887   */\n              swap2\n              swap1\n              pop\n              jump\t// out\n                /* \"#utility.yul\":893:989   */\n            tag_152:\n                /* \"#utility.yul\":930:937   */\n              0x00\n                /* \"#utility.yul\":959:983   */\n              tag_195\n                /* \"#utility.yul\":977:982   */\n              dup3\n                /* \"#utility.yul\":959:983   */\n              tag_151\n              jump\t// in\n            tag_195:\n                /* \"#utility.yul\":948:983   */\n              swap1\n              pop\n                /* \"#utility.yul\":893:989   */\n              swap2\n              swap1\n              pop\n              jump\t// out\n                /* \"#utility.yul\":995:1117   */\n            tag_153:\n                /* \"#utility.yul\":1068:1092   */\n              tag_197\n                /* \"#utility.yul\":1086:1091   */\n              dup2\n                /* \"#utility.yul\":1068:1092   */\n              tag_152\n              jump\t// in\n            tag_197:\n                /* \"#utility.yul\":1061:1066   */\n              dup2\n                /* \"#utility.yul\":1058:1093   */\n              eq\n                /* \"#utility.yul\":1048:1111   */\n              tag_198\n              jumpi\n                /* \"#utility.yul\":1107:1108   */\n              0x00\n                /* \"#utility.yul\":1104:1105   */\n              dup1\n                /* \"#utility.yul\":1097:1109   */\n              revert\n                /* \"#utility.yul\":1048:1111   */\n            tag_198:\n                /* \"#utility.yul\":995:1117   */\n              pop\n              jump\t// out\n                /* \"#utility.yul\":1123:1262   */\n            tag_154:\n                /* \"#utility.yul\":1169:1174   */\n              0x00\n                /* \"#utility.yul\":1207:1213   */\n              dup2\n                /* \"#utility.yul\":1194:1214   */\n              calldataload\n                /* \"#utility.yul\":1185:1214   */\n              swap1\n              pop\n                /* \"#utility.yul\":1223:1256   */\n              tag_200\n                /* \"#utility.yul\":1250:1255   */\n              dup2\n                /* \"#utility.yul\":1223:1256   */\n              tag_153\n              jump\t// in\n            tag_200:\n                /* \"#utility.yul\":1123:1262   */\n              swap3\n              swap2\n              pop\n              pop\n              jump\t// out\n                /* \"#utility.yul\":1268:1597   */\n            tag_39:\n                /* \"#utility.yul\":1327:1333   */\n              0x00\n                /* \"#utility.yul\":1376:1378   */\n              0x20\n                /* \"#utility.yul\":1364:1373   */\n              dup3\n                /* \"#utility.yul\":1355:1362   */\n              dup5\n                /* \"#utility.yul\":1351:1374   */\n              sub\n                /* \"#utility.yul\":1347:1379   */\n              slt\n                /* \"#utility.yul\":1344:1463   */\n              iszero\n              tag_202\n              jumpi\n                /* \"#utility.yul\":1382:1461   */\n              tag_203\n              tag_149\n              jump\t// in\n            tag_203:\n                /* \"#utility.yul\":1344:1463   */\n            tag_202:\n                /* \"#utility.yul\":1502:1503   */\n              0x00\n                /* \"#utility.yul\":1527:1580   */\n              tag_204\n                /* \"#utility.yul\":1572:1579   */\n              dup5\n                /* \"#utility.yul\":1563:1569   */\n              dup3\n                /* \"#utility.yul\":1552:1561   */\n              dup6\n                /* \"#utility.yul\":1548:1570   */\n              add\n                /* \"#utility.yul\":1527:1580   */\n              tag_154\n              jump\t// in\n            tag_204:\n                /* \"#utility.yul\":1517:1580   */\n              swap2\n              pop\n                /* \"#utility.yul\":1473:1590   */\n              pop\n                /* \"#utility.yul\":1268:1597   */\n              swap3\n              swap2\n              pop\n              pop\n              jump\t// out\n                /* \"#utility.yul\":1603:1663   */\n            tag_155:\n                /* \"#utility.yul\":1631:1634   */\n              0x00\n                /* \"#utility.yul\":1652:1657   */\n              dup2\n                /* \"#utility.yul\":1645:1657   */\n              swap1\n              pop\n                /* \"#utility.yul\":1603:1663   */\n              swap2\n              swap1\n              pop\n              jump\t// out\n                /* \"#utility.yul\":1669:1811   */\n            tag_156:\n                /* \"#utility.yul\":1719:1728   */\n              0x00\n                /* \"#utility.yul\":1752:1805   */\n              tag_207\n                /* \"#utility.yul\":1770:1804   */\n              tag_208\n                /* \"#utility.yul\":1779:1803   */\n              tag_209\n                /* \"#utility.yul\":1797:1802   */\n              dup5\n                /* \"#utility.yul\":1779:1803   */\n              tag_151\n              jump\t// in\n            tag_209:\n                /* \"#utility.yul\":1770:1804   */\n              tag_155\n              jump\t// in\n            tag_208:\n                /* \"#utility.yul\":1752:1805   */\n              tag_151\n              jump\t// in\n            tag_207:\n                /* \"#utility.yul\":1739:1805   */\n              swap1\n              pop\n                /* \"#utility.yul\":1669:1811   */\n              swap2\n              swap1\n              pop\n              jump\t// out\n                /* \"#utility.yul\":1817:1943   */\n            tag_157:\n                /* \"#utility.yul\":1867:1876   */\n              0x00\n                /* \"#utility.yul\":1900:1937   */\n              tag_211\n                /* \"#utility.yul\":1931:1936   */\n              dup3\n                /* \"#utility.yul\":1900:1937   */\n              tag_156\n              jump\t// in\n            tag_211:\n                /* \"#utility.yul\":1887:1937   */\n              swap1\n              pop\n                /* \"#utility.yul\":1817:1943   */\n              swap2\n              swap1\n              pop\n              jump\t// out\n                /* \"#utility.yul\":1949:2090   */\n            tag_158:\n                /* \"#utility.yul\":2014:2023   */\n              0x00\n                /* \"#utility.yul\":2047:2084   */\n              tag_213\n                /* \"#utility.yul\":2078:2083   */\n              dup3\n                /* \"#utility.yul\":2047:2084   */\n              tag_157\n              jump\t// in\n            tag_213:\n                /* \"#utility.yul\":2034:2084   */\n              swap1\n              pop\n                /* \"#utility.yul\":1949:2090   */\n              swap2\n              swap1\n              pop\n              jump\t// out\n                /* \"#utility.yul\":2096:2257   */\n            tag_159:\n                /* \"#utility.yul\":2198:2250   */\n              tag_215\n                /* \"#utility.yul\":2244:2249   */\n              dup2\n                /* \"#utility.yul\":2198:2250   */\n              tag_158\n              jump\t// in\n            tag_215:\n                /* \"#utility.yul\":2193:2196   */\n              dup3\n                /* \"#utility.yul\":2186:2251   */\n              mstore\n                /* \"#utility.yul\":2096:2257   */\n              pop\n              pop\n              jump\t// out\n                /* \"#utility.yul\":2263:2515   */\n            tag_46:\n                /* \"#utility.yul\":2371:2375   */\n              0x00\n                /* \"#utility.yul\":2409:2411   */\n              0x20\n                /* \"#utility.yul\":2398:2407   */\n              dup3\n                /* \"#utility.yul\":2394:2412   */\n              add\n                /* \"#utility.yul\":2386:2412   */\n              swap1\n              pop\n                /* \"#utility.yul\":2422:2508   */\n              tag_217\n                /* \"#utility.yul\":2505:2506   */\n              0x00\n                /* \"#utility.yul\":2494:2503   */\n              dup4\n                /* \"#utility.yul\":2490:2507   */\n              add\n                /* \"#utility.yul\":2481:2487   */\n              dup5\n                /* \"#utility.yul\":2422:2508   */\n              tag_159\n              jump\t// in\n            tag_217:\n                /* \"#utility.yul\":2263:2515   */\n              swap3\n              swap2\n              pop\n              pop\n              jump\t// out\n                /* \"#utility.yul\":2521:2625   */\n            tag_160:\n                /* \"#utility.yul\":2566:2573   */\n              0x00\n                /* \"#utility.yul\":2595:2619   */\n              tag_219\n                /* \"#utility.yul\":2613:2618   */\n              dup3\n                /* \"#utility.yul\":2595:2619   */\n              tag_151\n              jump\t// in\n            tag_219:\n                /* \"#utility.yul\":2584:2619   */\n              swap1\n              pop\n                /* \"#utility.yul\":2521:2625   */\n              swap2\n              swap1\n              pop\n              jump\t// out\n                /* \"#utility.yul\":2631:2773   */\n            tag_161:\n                /* \"#utility.yul\":2734:2766   */\n              tag_221\n                /* \"#utility.yul\":2760:2765   */\n              dup2\n                /* \"#utility.yul\":2734:2766   */\n              tag_160\n              jump\t// in\n            tag_221:\n                /* \"#utility.yul\":2729:2732   */\n              dup3\n                /* \"#utility.yul\":2722:2767   */\n              mstore\n                /* \"#utility.yul\":2631:2773   */\n              pop\n              pop\n              jump\t// out\n                /* \"#utility.yul\":2779:3033   */\n            tag_51:\n                /* \"#utility.yul\":2888:2892   */\n              0x00\n                /* \"#utility.yul\":2926:2928   */\n              0x20\n                /* \"#utility.yul\":2915:2924   */\n              dup3\n                /* \"#utility.yul\":2911:2929   */\n              add\n                /* \"#utility.yul\":2903:2929   */\n              swap1\n              pop\n                /* \"#utility.yul\":2939:3026   */\n              tag_223\n                /* \"#utility.yul\":3023:3024   */\n              0x00\n                /* \"#utility.yul\":3012:3021   */\n              dup4\n                /* \"#utility.yul\":3008:3025   */\n              add\n                /* \"#utility.yul\":2999:3005   */\n              dup5\n                /* \"#utility.yul\":2939:3026   */\n              tag_161\n              jump\t// in\n            tag_223:\n                /* \"#utility.yul\":2779:3033   */\n              swap3\n              swap2\n              pop\n              pop\n              jump\t// out\n                /* \"#utility.yul\":3039:3138   */\n            tag_162:\n                /* \"#utility.yul\":3091:3097   */\n              0x00\n                /* \"#utility.yul\":3125:3130   */\n              dup2\n                /* \"#utility.yul\":3119:3131   */\n              mload\n                /* \"#utility.yul\":3109:3131   */\n              swap1\n              pop\n                /* \"#utility.yul\":3039:3138   */\n              swap2\n              swap1\n              pop\n              jump\t// out\n                /* \"#utility.yul\":3144:3313   */\n            tag_163:\n                /* \"#utility.yul\":3228:3239   */\n              0x00\n                /* \"#utility.yul\":3262:3268   */\n              dup3\n                /* \"#utility.yul\":3257:3260   */\n              dup3\n                /* \"#utility.yul\":3250:3269   */\n              mstore\n                /* \"#utility.yul\":3302:3306   */\n              0x20\n                /* \"#utility.yul\":3297:3300   */\n              dup3\n                /* \"#utility.yul\":3293:3307   */\n              add\n                /* \"#utility.yul\":3278:3307   */\n              swap1\n              pop\n                /* \"#utility.yul\":3144:3313   */\n              swap3\n              swap2\n              pop\n              pop\n              jump\t// out\n                /* \"#utility.yul\":3319:3626   */\n            tag_164:\n                /* \"#utility.yul\":3387:3388   */\n              0x00\n                /* \"#utility.yul\":3397:3510   */\n            tag_227:\n                /* \"#utility.yul\":3411:3417   */\n              dup4\n                /* \"#utility.yul\":3408:3409   */\n              dup2\n                /* \"#utility.yul\":3405:3418   */\n              lt\n                /* \"#utility.yul\":3397:3510   */\n              iszero\n              tag_229\n              jumpi\n                /* \"#utility.yul\":3496:3497   */\n              dup1\n                /* \"#utility.yul\":3491:3494   */\n              dup3\n                /* \"#utility.yul\":3487:3498   */\n              add\n                /* \"#utility.yul\":3481:3499   */\n              mload\n                /* \"#utility.yul\":3477:3478   */\n              dup2\n                /* \"#utility.yul\":3472:3475   */\n              dup5\n                /* \"#utility.yul\":3468:3479   */\n              add\n                /* \"#utility.yul\":3461:3500   */\n              mstore\n                /* \"#utility.yul\":3433:3435   */\n              0x20\n                /* \"#utility.yul\":3430:3431   */\n              dup2\n                /* \"#utility.yul\":3426:3436   */\n              add\n                /* \"#utility.yul\":3421:3436   */\n              swap1\n              pop\n                /* \"#utility.yul\":3397:3510   */\n              jump(tag_227)\n            tag_229:\n                /* \"#utility.yul\":3528:3534   */\n              dup4\n                /* \"#utility.yul\":3525:3526   */\n              dup2\n                /* \"#utility.yul\":3522:3535   */\n              gt\n                /* \"#utility.yul\":3519:3620   */\n              iszero\n              tag_230\n              jumpi\n                /* \"#utility.yul\":3608:3609   */\n              0x00\n                /* \"#utility.yul\":3599:3605   */\n              dup5\n                /* \"#utility.yul\":3594:3597   */\n              dup5\n                /* \"#utility.yul\":3590:3606   */\n              add\n                /* \"#utility.yul\":3583:3610   */\n              mstore\n                /* \"#utility.yul\":3519:3620   */\n            tag_230:\n                /* \"#utility.yul\":3368:3626   */\n              pop\n                /* \"#utility.yul\":3319:3626   */\n              pop\n              pop\n              pop\n              jump\t// out\n                /* \"#utility.yul\":3632:3734   */\n            tag_165:\n                /* \"#utility.yul\":3673:3679   */\n              0x00\n                /* \"#utility.yul\":3724:3726   */\n              0x1f\n                /* \"#utility.yul\":3720:3727   */\n              not\n                /* \"#utility.yul\":3715:3717   */\n              0x1f\n                /* \"#utility.yul\":3708:3713   */\n              dup4\n                /* \"#utility.yul\":3704:3718   */\n              add\n                /* \"#utility.yul\":3700:3728   */\n              and\n                /* \"#utility.yul\":3690:3728   */\n              swap1\n              pop\n                /* \"#utility.yul\":3632:3734   */\n              swap2\n              swap1\n              pop\n              jump\t// out\n                /* \"#utility.yul\":3740:4104   */\n            tag_166:\n                /* \"#utility.yul\":3828:3831   */\n              0x00\n                /* \"#utility.yul\":3856:3895   */\n              tag_233\n                /* \"#utility.yul\":3889:3894   */\n              dup3\n                /* \"#utility.yul\":3856:3895   */\n              tag_162\n              jump\t// in\n            tag_233:\n                /* \"#utility.yul\":3911:3982   */\n              tag_234\n                /* \"#utility.yul\":3975:3981   */\n              dup2\n                /* \"#utility.yul\":3970:3973   */\n              dup6\n                /* \"#utility.yul\":3911:3982   */\n              tag_163\n              jump\t// in\n            tag_234:\n                /* \"#utility.yul\":3904:3982   */\n              swap4\n              pop\n                /* \"#utility.yul\":3991:4043   */\n              tag_235\n                /* \"#utility.yul\":4036:4042   */\n              dup2\n                /* \"#utility.yul\":4031:4034   */\n              dup6\n                /* \"#utility.yul\":4024:4028   */\n              0x20\n                /* \"#utility.yul\":4017:4022   */\n              dup7\n                /* \"#utility.yul\":4013:4029   */\n              add\n                /* \"#utility.yul\":3991:4043   */\n              tag_164\n              jump\t// in\n            tag_235:\n                /* \"#utility.yul\":4068:4097   */\n              tag_236\n                /* \"#utility.yul\":4090:4096   */\n              dup2\n                /* \"#utility.yul\":4068:4097   */\n              tag_165\n              jump\t// in\n            tag_236:\n                /* \"#utility.yul\":4063:4066   */\n              dup5\n                /* \"#utility.yul\":4059:4098   */\n              add\n                /* \"#utility.yul\":4052:4098   */\n              swap2\n              pop\n                /* \"#utility.yul\":3832:4104   */\n              pop\n                /* \"#utility.yul\":3740:4104   */\n              swap3\n              swap2\n              pop\n              pop\n              jump\t// out\n                /* \"#utility.yul\":4110:4423   */\n            tag_56:\n                /* \"#utility.yul\":4223:4227   */\n              0x00\n                /* \"#utility.yul\":4261:4263   */\n              0x20\n                /* \"#utility.yul\":4250:4259   */\n              dup3\n                /* \"#utility.yul\":4246:4264   */\n              add\n                /* \"#utility.yul\":4238:4264   */\n              swap1\n              pop\n                /* \"#utility.yul\":4310:4319   */\n              dup2\n                /* \"#utility.yul\":4304:4308   */\n              dup2\n                /* \"#utility.yul\":4300:4320   */\n              sub\n                /* \"#utility.yul\":4296:4297   */\n              0x00\n                /* \"#utility.yul\":4285:4294   */\n              dup4\n                /* \"#utility.yul\":4281:4298   */\n              add\n                /* \"#utility.yul\":4274:4321   */\n              mstore\n                /* \"#utility.yul\":4338:4416   */\n              tag_238\n                /* \"#utility.yul\":4411:4415   */\n              dup2\n                /* \"#utility.yul\":4402:4408   */\n              dup5\n                /* \"#utility.yul\":4338:4416   */\n              tag_166\n              jump\t// in\n            tag_238:\n                /* \"#utility.yul\":4330:4416   */\n              swap1\n              pop\n                /* \"#utility.yul\":4110:4423   */\n              swap3\n              swap2\n              pop\n              pop\n              jump\t// out\n                /* \"#utility.yul\":4429:4506   */\n            tag_167:\n                /* \"#utility.yul\":4466:4473   */\n              0x00\n                /* \"#utility.yul\":4495:4500   */\n              dup2\n                /* \"#utility.yul\":4484:4500   */\n              swap1\n              pop\n                /* \"#utility.yul\":4429:4506   */\n              swap2\n              swap1\n              pop\n              jump\t// out\n                /* \"#utility.yul\":4512:4630   */\n            tag_168:\n                /* \"#utility.yul\":4599:4623   */\n              tag_241\n                /* \"#utility.yul\":4617:4622   */\n              dup2\n                /* \"#utility.yul\":4599:4623   */\n              tag_167\n              jump\t// in\n            tag_241:\n                /* \"#utility.yul\":4594:4597   */\n              dup3\n                /* \"#utility.yul\":4587:4624   */\n              mstore\n                /* \"#utility.yul\":4512:4630   */\n              pop\n              pop\n              jump\t// out\n                /* \"#utility.yul\":4636:4858   */\n            tag_61:\n                /* \"#utility.yul\":4729:4733   */\n              0x00\n                /* \"#utility.yul\":4767:4769   */\n              0x20\n                /* \"#utility.yul\":4756:4765   */\n              dup3\n                /* \"#utility.yul\":4752:4770   */\n              add\n                /* \"#utility.yul\":4744:4770   */\n              swap1\n              pop\n                /* \"#utility.yul\":4780:4851   */\n              tag_243\n                /* \"#utility.yul\":4848:4849   */\n              0x00\n                /* \"#utility.yul\":4837:4846   */\n              dup4\n                /* \"#utility.yul\":4833:4850   */\n              add\n                /* \"#utility.yul\":4824:4830   */\n              dup5\n                /* \"#utility.yul\":4780:4851   */\n              tag_168\n              jump\t// in\n            tag_243:\n                /* \"#utility.yul\":4636:4858   */\n              swap3\n              swap2\n              pop\n              pop\n              jump\t// out\n                /* \"#utility.yul\":4864:5033   */\n            tag_169:\n                /* \"#utility.yul\":5004:5025   */\n              0x62616e6e6564206f7220636f6d706c6574656400000000000000000000000000\n                /* \"#utility.yul\":5000:5001   */\n              0x00\n                /* \"#utility.yul\":4992:4998   */\n              dup3\n                /* \"#utility.yul\":4988:5002   */\n              add\n                /* \"#utility.yul\":4981:5026   */\n              mstore\n                /* \"#utility.yul\":4864:5033   */\n              pop\n              jump\t// out\n                /* \"#utility.yul\":5039:5405   */\n            tag_170:\n                /* \"#utility.yul\":5181:5184   */\n              0x00\n                /* \"#utility.yul\":5202:5269   */\n              tag_246\n                /* \"#utility.yul\":5266:5268   */\n              0x13\n                /* \"#utility.yul\":5261:5264   */\n              dup4\n                /* \"#utility.yul\":5202:5269   */\n              tag_163\n              jump\t// in\n            tag_246:\n                /* \"#utility.yul\":5195:5269   */\n              swap2\n              pop\n                /* \"#utility.yul\":5278:5371   */\n              tag_247\n                /* \"#utility.yul\":5367:5370   */\n              dup3\n                /* \"#utility.yul\":5278:5371   */\n              tag_169\n              jump\t// in\n            tag_247:\n                /* \"#utility.yul\":5396:5398   */\n              0x20\n                /* \"#utility.yul\":5391:5394   */\n              dup3\n                /* \"#utility.yul\":5387:5399   */\n              add\n                /* \"#utility.yul\":5380:5399   */\n              swap1\n              pop\n                /* \"#utility.yul\":5039:5405   */\n              swap2\n              swap1\n              pop\n              jump\t// out\n                /* \"#utility.yul\":5411:5830   */\n            tag_92:\n                /* \"#utility.yul\":5577:5581   */\n              0x00\n                /* \"#utility.yul\":5615:5617   */\n              0x20\n                /* \"#utility.yul\":5604:5613   */\n              dup3\n                /* \"#utility.yul\":5600:5618   */\n              add\n                /* \"#utility.yul\":5592:5618   */\n              swap1\n              pop\n                /* \"#utility.yul\":5664:5673   */\n              dup2\n                /* \"#utility.yul\":5658:5662   */\n              dup2\n                /* \"#utility.yul\":5654:5674   */\n              sub\n                /* \"#utility.yul\":5650:5651   */\n              0x00\n                /* \"#utility.yul\":5639:5648   */\n              dup4\n                /* \"#utility.yul\":5635:5652   */\n              add\n                /* \"#utility.yul\":5628:5675   */\n              mstore\n                /* \"#utility.yul\":5692:5823   */\n              tag_249\n                /* \"#utility.yul\":5818:5822   */\n              dup2\n                /* \"#utility.yul\":5692:5823   */\n              tag_170\n              jump\t// in\n            tag_249:\n                /* \"#utility.yul\":5684:5823   */\n              swap1\n              pop\n                /* \"#utility.yul\":5411:5830   */\n              swap2\n              swap1\n              pop\n              jump\t// out\n                /* \"#utility.yul\":5836:6011   */\n            tag_171:\n                /* \"#utility.yul\":5976:6003   */\n              0x796f7520617265206e6f74206120636f6e7472696275746f7200000000000000\n                /* \"#utility.yul\":5972:5973   */\n              0x00\n                /* \"#utility.yul\":5964:5970   */\n              dup3\n                /* \"#utility.yul\":5960:5974   */\n              add\n                /* \"#utility.yul\":5953:6004   */\n              mstore\n                /* \"#utility.yul\":5836:6011   */\n              pop\n              jump\t// out\n                /* \"#utility.yul\":6017:6383   */\n            tag_172:\n                /* \"#utility.yul\":6159:6162   */\n              0x00\n                /* \"#utility.yul\":6180:6247   */\n              tag_252\n                /* \"#utility.yul\":6244:6246   */\n              0x19\n                /* \"#utility.yul\":6239:6242   */\n              dup4\n                /* \"#utility.yul\":6180:6247   */\n              tag_163\n              jump\t// in\n            tag_252:\n                /* \"#utility.yul\":6173:6247   */\n              swap2\n              pop\n                /* \"#utility.yul\":6256:6349   */\n              tag_253\n                /* \"#utility.yul\":6345:6348   */\n              dup3\n                /* \"#utility.yul\":6256:6349   */\n              tag_171\n              jump\t// in\n            tag_253:\n                /* \"#utility.yul\":6374:6376   */\n              0x20\n                /* \"#utility.yul\":6369:6372   */\n              dup3\n                /* \"#utility.yul\":6365:6377   */\n              add\n                /* \"#utility.yul\":6358:6377   */\n              swap1\n              pop\n                /* \"#utility.yul\":6017:6383   */\n              swap2\n              swap1\n              pop\n              jump\t// out\n                /* \"#utility.yul\":6389:6808   */\n            tag_96:\n                /* \"#utility.yul\":6555:6559   */\n              0x00\n                /* \"#utility.yul\":6593:6595   */\n              0x20\n                /* \"#utility.yul\":6582:6591   */\n              dup3\n                /* \"#utility.yul\":6578:6596   */\n              add\n                /* \"#utility.yul\":6570:6596   */\n              swap1\n              pop\n                /* \"#utility.yul\":6642:6651   */\n              dup2\n                /* \"#utility.yul\":6636:6640   */\n              dup2\n                /* \"#utility.yul\":6632:6652   */\n              sub\n                /* \"#utility.yul\":6628:6629   */\n              0x00\n                /* \"#utility.yul\":6617:6626   */\n              dup4\n                /* \"#utility.yul\":6613:6630   */\n              add\n                /* \"#utility.yul\":6606:6653   */\n              mstore\n                /* \"#utility.yul\":6670:6801   */\n              tag_255\n                /* \"#utility.yul\":6796:6800   */\n              dup2\n                /* \"#utility.yul\":6670:6801   */\n              tag_172\n              jump\t// in\n            tag_255:\n                /* \"#utility.yul\":6662:6801   */\n              swap1\n              pop\n                /* \"#utility.yul\":6389:6808   */\n              swap2\n              swap1\n              pop\n              jump\t// out\n                /* \"#utility.yul\":6814:6987   */\n            tag_173:\n                /* \"#utility.yul\":6954:6979   */\n              0x796f75206861766520616c72656164792062616e6e6564000000000000000000\n                /* \"#utility.yul\":6950:6951   */\n              0x00\n                /* \"#utility.yul\":6942:6948   */\n              dup3\n                /* \"#utility.yul\":6938:6952   */\n              add\n                /* \"#utility.yul\":6931:6980   */\n              mstore\n                /* \"#utility.yul\":6814:6987   */\n              pop\n              jump\t// out\n                /* \"#utility.yul\":6993:7359   */\n            tag_174:\n                /* \"#utility.yul\":7135:7138   */\n              0x00\n                /* \"#utility.yul\":7156:7223   */\n              tag_258\n                /* \"#utility.yul\":7220:7222   */\n              0x17\n                /* \"#utility.yul\":7215:7218   */\n              dup4\n                /* \"#utility.yul\":7156:7223   */\n              tag_163\n              jump\t// in\n            tag_258:\n                /* \"#utility.yul\":7149:7223   */\n              swap2\n              pop\n                /* \"#utility.yul\":7232:7325   */\n              tag_259\n                /* \"#utility.yul\":7321:7324   */\n              dup3\n                /* \"#utility.yul\":7232:7325   */\n              tag_173\n              jump\t// in\n            tag_259:\n                /* \"#utility.yul\":7350:7352   */\n              0x20\n                /* \"#utility.yul\":7345:7348   */\n              dup3\n                /* \"#utility.yul\":7341:7353   */\n              add\n                /* \"#utility.yul\":7334:7353   */\n              swap1\n              pop\n                /* \"#utility.yul\":6993:7359   */\n              swap2\n              swap1\n              pop\n              jump\t// out\n                /* \"#utility.yul\":7365:7784   */\n            tag_99:\n                /* \"#utility.yul\":7531:7535   */\n              0x00\n                /* \"#utility.yul\":7569:7571   */\n              0x20\n                /* \"#utility.yul\":7558:7567   */\n              dup3\n                /* \"#utility.yul\":7554:7572   */\n              add\n                /* \"#utility.yul\":7546:7572   */\n              swap1\n              pop\n                /* \"#utility.yul\":7618:7627   */\n              dup2\n                /* \"#utility.yul\":7612:7616   */\n              dup2\n                /* \"#utility.yul\":7608:7628   */\n              sub\n                /* \"#utility.yul\":7604:7605   */\n              0x00\n                /* \"#utility.yul\":7593:7602   */\n              dup4\n                /* \"#utility.yul\":7589:7606   */\n              add\n                /* \"#utility.yul\":7582:7629   */\n              mstore\n                /* \"#utility.yul\":7646:7777   */\n              tag_261\n                /* \"#utility.yul\":7772:7776   */\n              dup2\n                /* \"#utility.yul\":7646:7777   */\n              tag_174\n              jump\t// in\n            tag_261:\n                /* \"#utility.yul\":7638:7777   */\n              swap1\n              pop\n                /* \"#utility.yul\":7365:7784   */\n              swap2\n              swap1\n              pop\n              jump\t// out\n                /* \"#utility.yul\":7790:7970   */\n            tag_175:\n                /* \"#utility.yul\":7838:7915   */\n              0x4e487b7100000000000000000000000000000000000000000000000000000000\n                /* \"#utility.yul\":7835:7836   */\n              0x00\n                /* \"#utility.yul\":7828:7916   */\n              mstore\n                /* \"#utility.yul\":7935:7939   */\n              0x11\n                /* \"#utility.yul\":7932:7933   */\n              0x04\n                /* \"#utility.yul\":7925:7940   */\n              mstore\n                /* \"#utility.yul\":7959:7963   */\n              0x24\n                /* \"#utility.yul\":7956:7957   */\n              0x00\n                /* \"#utility.yul\":7949:7964   */\n              revert\n                /* \"#utility.yul\":7976:8209   */\n            tag_101:\n                /* \"#utility.yul\":8015:8018   */\n              0x00\n                /* \"#utility.yul\":8038:8062   */\n              tag_264\n                /* \"#utility.yul\":8056:8061   */\n              dup3\n                /* \"#utility.yul\":8038:8062   */\n              tag_167\n              jump\t// in\n            tag_264:\n                /* \"#utility.yul\":8029:8062   */\n              swap2\n              pop\n                /* \"#utility.yul\":8084:8150   */\n              0xffffffffffffffffffffffffffffffffffffffffffffffffffffffffffffffff\n                /* \"#utility.yul\":8077:8082   */\n              dup3\n                /* \"#utility.yul\":8074:8151   */\n              eq\n                /* \"#utility.yul\":8071:8174   */\n              iszero\n              tag_265\n              jumpi\n                /* \"#utility.yul\":8154:8172   */\n              tag_266\n              tag_175\n              jump\t// in\n            tag_266:\n                /* \"#utility.yul\":8071:8174   */\n            tag_265:\n                /* \"#utility.yul\":8201:8202   */\n              0x01\n                /* \"#utility.yul\":8194:8199   */\n              dup3\n                /* \"#utility.yul\":8190:8203   */\n              add\n                /* \"#utility.yul\":8183:8203   */\n              swap1\n              pop\n                /* \"#utility.yul\":7976:8209   */\n              swap2\n              swap1\n              pop\n              jump\t// out\n                /* \"#utility.yul\":8215:8395   */\n            tag_176:\n                /* \"#utility.yul\":8263:8340   */\n              0x4e487b7100000000000000000000000000000000000000000000000000000000\n                /* \"#utility.yul\":8260:8261   */\n              0x00\n                /* \"#utility.yul\":8253:8341   */\n              mstore\n                /* \"#utility.yul\":8360:8364   */\n              0x12\n                /* \"#utility.yul\":8357:8358   */\n              0x04\n                /* \"#utility.yul\":8350:8365   */\n              mstore\n                /* \"#utility.yul\":8384:8388   */\n              0x24\n                /* \"#utility.yul\":8381:8382   */\n              0x00\n                /* \"#utility.yul\":8374:8389   */\n              revert\n                /* \"#utility.yul\":8401:8586   */\n            tag_103:\n                /* \"#utility.yul\":8441:8442   */\n              0x00\n                /* \"#utility.yul\":8458:8478   */\n              tag_269\n                /* \"#utility.yul\":8476:8477   */\n              dup3\n                /* \"#utility.yul\":8458:8478   */\n              tag_167\n              jump\t// in\n            tag_269:\n                /* \"#utility.yul\":8453:8478   */\n              swap2\n              pop\n                /* \"#utility.yul\":8492:8512   */\n              tag_270\n                /* \"#utility.yul\":8510:8511   */\n              dup4\n                /* \"#utility.yul\":8492:8512   */\n              tag_167\n              jump\t// in\n            tag_270:\n                /* \"#utility.yul\":8487:8512   */\n              swap3\n              pop\n                /* \"#utility.yul\":8531:8532   */\n              dup3\n                /* \"#utility.yul\":8521:8556   */\n              tag_271\n              jumpi\n                /* \"#utility.yul\":8536:8554   */\n              tag_272\n              tag_176\n              jump\t// in\n            tag_272:\n                /* \"#utility.yul\":8521:8556   */\n            tag_271:\n                /* \"#utility.yul\":8578:8579   */\n              dup3\n                /* \"#utility.yul\":8575:8576   */\n              dup3\n                /* \"#utility.yul\":8571:8580   */\n              div\n                /* \"#utility.yul\":8566:8580   */\n              swap1\n              pop\n                /* \"#utility.yul\":8401:8586   */\n              swap3\n              swap2\n              pop\n              pop\n              jump\t// out\n                /* \"#utility.yul\":8592:8940   */\n            tag_105:\n                /* \"#utility.yul\":8632:8639   */\n              0x00\n                /* \"#utility.yul\":8655:8675   */\n              tag_274\n                /* \"#utility.yul\":8673:8674   */\n              dup3\n                /* \"#utility.yul\":8655:8675   */\n              tag_167\n              jump\t// in\n            tag_274:\n                /* \"#utility.yul\":8650:8675   */\n              swap2\n              pop\n                /* \"#utility.yul\":8689:8709   */\n              tag_275\n                /* \"#utility.yul\":8707:8708   */\n              dup4\n                /* \"#utility.yul\":8689:8709   */\n              tag_167\n              jump\t// in\n            tag_275:\n                /* \"#utility.yul\":8684:8709   */\n              swap3\n              pop\n                /* \"#utility.yul\":8877:8878   */\n              dup2\n                /* \"#utility.yul\":8809:8875   */\n              0xffffffffffffffffffffffffffffffffffffffffffffffffffffffffffffffff\n                /* \"#utility.yul\":8805:8879   */\n              div\n                /* \"#utility.yul\":8802:8803   */\n              dup4\n                /* \"#utility.yul\":8799:8880   */\n              gt\n                /* \"#utility.yul\":8794:8795   */\n              dup3\n                /* \"#utility.yul\":8787:8796   */\n              iszero\n                /* \"#utility.yul\":8780:8797   */\n              iszero\n                /* \"#utility.yul\":8776:8881   */\n              and\n                /* \"#utility.yul\":8773:8904   */\n              iszero\n              tag_276\n              jumpi\n                /* \"#utility.yul\":8884:8902   */\n              tag_277\n              tag_175\n              jump\t// in\n            tag_277:\n                /* \"#utility.yul\":8773:8904   */\n            tag_276:\n                /* \"#utility.yul\":8932:8933   */\n              dup3\n                /* \"#utility.yul\":8929:8930   */\n              dup3\n                /* \"#utility.yul\":8925:8934   */\n              mul\n                /* \"#utility.yul\":8914:8934   */\n              swap1\n              pop\n                /* \"#utility.yul\":8592:8940   */\n              swap3\n              swap2\n              pop\n              pop\n              jump\t// out\n                /* \"#utility.yul\":8946:9126   */\n            tag_177:\n                /* \"#utility.yul\":8994:9071   */\n              0x4e487b7100000000000000000000000000000000000000000000000000000000\n                /* \"#utility.yul\":8991:8992   */\n              0x00\n                /* \"#utility.yul\":8984:9072   */\n              mstore\n                /* \"#utility.yul\":9091:9095   */\n              0x22\n                /* \"#utility.yul\":9088:9089   */\n              0x04\n                /* \"#utility.yul\":9081:9096   */\n              mstore\n                /* \"#utility.yul\":9115:9119   */\n              0x24\n                /* \"#utility.yul\":9112:9113   */\n              0x00\n                /* \"#utility.yul\":9105:9120   */\n              revert\n                /* \"#utility.yul\":9132:9452   */\n            tag_115:\n                /* \"#utility.yul\":9176:9182   */\n              0x00\n                /* \"#utility.yul\":9213:9214   */\n              0x02\n                /* \"#utility.yul\":9207:9211   */\n              dup3\n                /* \"#utility.yul\":9203:9215   */\n              div\n                /* \"#utility.yul\":9193:9215   */\n              swap1\n              pop\n                /* \"#utility.yul\":9260:9261   */\n              0x01\n                /* \"#utility.yul\":9254:9258   */\n              dup3\n                /* \"#utility.yul\":9250:9262   */\n              and\n                /* \"#utility.yul\":9281:9299   */\n              dup1\n                /* \"#utility.yul\":9271:9352   */\n              tag_280\n              jumpi\n                /* \"#utility.yul\":9337:9341   */\n              0x7f\n                /* \"#utility.yul\":9329:9335   */\n              dup3\n                /* \"#utility.yul\":9325:9342   */\n              and\n                /* \"#utility.yul\":9315:9342   */\n              swap2\n              pop\n                /* \"#utility.yul\":9271:9352   */\n            tag_280:\n                /* \"#utility.yul\":9399:9401   */\n              0x20\n                /* \"#utility.yul\":9391:9397   */\n              dup3\n                /* \"#utility.yul\":9388:9402   */\n              lt\n                /* \"#utility.yul\":9368:9386   */\n              dup2\n                /* \"#utility.yul\":9365:9403   */\n              eq\n                /* \"#utility.yul\":9362:9446   */\n              iszero\n              tag_281\n              jumpi\n                /* \"#utility.yul\":9418:9436   */\n              tag_282\n              tag_177\n              jump\t// in\n            tag_282:\n                /* \"#utility.yul\":9362:9446   */\n            tag_281:\n                /* \"#utility.yul\":9183:9452   */\n              pop\n                /* \"#utility.yul\":9132:9452   */\n              swap2\n              swap1\n              pop\n              jump\t// out\n                /* \"#utility.yul\":9458:9627   */\n            tag_178:\n                /* \"#utility.yul\":9598:9619   */\n              0x6c65737320616d6f756e7420646f6e6174656400000000000000000000000000\n                /* \"#utility.yul\":9594:9595   */\n              0x00\n                /* \"#utility.yul\":9586:9592   */\n              dup3\n                /* \"#utility.yul\":9582:9596   */\n              add\n                /* \"#utility.yul\":9575:9620   */\n              mstore\n                /* \"#utility.yul\":9458:9627   */\n              pop\n              jump\t// out\n                /* \"#utility.yul\":9633:9999   */\n            tag_179:\n                /* \"#utility.yul\":9775:9778   */\n              0x00\n                /* \"#utility.yul\":9796:9863   */\n              tag_285\n                /* \"#utility.yul\":9860:9862   */\n              0x13\n                /* \"#utility.yul\":9855:9858   */\n              dup4\n                /* \"#utility.yul\":9796:9863   */\n              tag_163\n              jump\t// in\n            tag_285:\n                /* \"#utility.yul\":9789:9863   */\n              swap2\n              pop\n                /* \"#utility.yul\":9872:9965   */\n              tag_286\n                /* \"#utility.yul\":9961:9964   */\n              dup3\n                /* \"#utility.yul\":9872:9965   */\n              tag_178\n              jump\t// in\n            tag_286:\n                /* \"#utility.yul\":9990:9992   */\n              0x20\n                /* \"#utility.yul\":9985:9988   */\n              dup3\n                /* \"#utility.yul\":9981:9993   */\n              add\n                /* \"#utility.yul\":9974:9993   */\n              swap1\n              pop\n                /* \"#utility.yul\":9633:9999   */\n              swap2\n              swap1\n              pop\n              jump\t// out\n                /* \"#utility.yul\":10005:10424   */\n            tag_135:\n                /* \"#utility.yul\":10171:10175   */\n              0x00\n                /* \"#utility.yul\":10209:10211   */\n              0x20\n                /* \"#utility.yul\":10198:10207   */\n              dup3\n                /* \"#utility.yul\":10194:10212   */\n              add\n                /* \"#utility.yul\":10186:10212   */\n              swap1\n              pop\n                /* \"#utility.yul\":10258:10267   */\n              dup2\n                /* \"#utility.yul\":10252:10256   */\n              dup2\n                /* \"#utility.yul\":10248:10268   */\n              sub\n                /* \"#utility.yul\":10244:10245   */\n              0x00\n                /* \"#utility.yul\":10233:10242   */\n              dup4\n                /* \"#utility.yul\":10229:10246   */\n              add\n                /* \"#utility.yul\":10222:10269   */\n              mstore\n                /* \"#utility.yul\":10286:10417   */\n              tag_288\n                /* \"#utility.yul\":10412:10416   */\n              dup2\n                /* \"#utility.yul\":10286:10417   */\n              tag_179\n              jump\t// in\n            tag_288:\n                /* \"#utility.yul\":10278:10417   */\n              swap1\n              pop\n                /* \"#utility.yul\":10005:10424   */\n              swap2\n              swap1\n              pop\n              jump\t// out\n                /* \"#utility.yul\":10430:10610   */\n            tag_180:\n                /* \"#utility.yul\":10570:10602   */\n              0x63616e277420646f6e61746520746f2062616e6e656420726571756573740000\n                /* \"#utility.yul\":10566:10567   */\n              0x00\n                /* \"#utility.yul\":10558:10564   */\n              dup3\n                /* \"#utility.yul\":10554:10568   */\n              add\n                /* \"#utility.yul\":10547:10603   */\n              mstore\n                /* \"#utility.yul\":10430:10610   */\n              pop\n              jump\t// out\n                /* \"#utility.yul\":10616:10982   */\n            tag_181:\n                /* \"#utility.yul\":10758:10761   */\n              0x00\n                /* \"#utility.yul\":10779:10846   */\n              tag_291\n                /* \"#utility.yul\":10843:10845   */\n              0x1e\n                /* \"#utility.yul\":10838:10841   */\n              dup4\n                /* \"#utility.yul\":10779:10846   */\n              tag_163\n              jump\t// in\n            tag_291:\n                /* \"#utility.yul\":10772:10846   */\n              swap2\n              pop\n                /* \"#utility.yul\":10855:10948   */\n              tag_292\n                /* \"#utility.yul\":10944:10947   */\n              dup3\n                /* \"#utility.yul\":10855:10948   */\n              tag_180\n              jump\t// in\n            tag_292:\n                /* \"#utility.yul\":10973:10975   */\n              0x20\n                /* \"#utility.yul\":10968:10971   */\n              dup3\n                /* \"#utility.yul\":10964:10976   */\n              add\n                /* \"#utility.yul\":10957:10976   */\n              swap1\n              pop\n                /* \"#utility.yul\":10616:10982   */\n              swap2\n              swap1\n              pop\n              jump\t// out\n                /* \"#utility.yul\":10988:11407   */\n            tag_138:\n                /* \"#utility.yul\":11154:11158   */\n              0x00\n                /* \"#utility.yul\":11192:11194   */\n              0x20\n                /* \"#utility.yul\":11181:11190   */\n              dup3\n                /* \"#utility.yul\":11177:11195   */\n              add\n                /* \"#utility.yul\":11169:11195   */\n              swap1\n              pop\n                /* \"#utility.yul\":11241:11250   */\n              dup2\n                /* \"#utility.yul\":11235:11239   */\n              dup2\n                /* \"#utility.yul\":11231:11251   */\n              sub\n                /* \"#utility.yul\":11227:11228   */\n              0x00\n                /* \"#utility.yul\":11216:11225   */\n              dup4\n                /* \"#utility.yul\":11212:11229   */\n              add\n                /* \"#utility.yul\":11205:11252   */\n              mstore\n                /* \"#utility.yul\":11269:11400   */\n              tag_294\n                /* \"#utility.yul\":11395:11399   */\n              dup2\n                /* \"#utility.yul\":11269:11400   */\n              tag_181\n              jump\t// in\n            tag_294:\n                /* \"#utility.yul\":11261:11400   */\n              swap1\n              pop\n                /* \"#utility.yul\":10988:11407   */\n              swap2\n              swap1\n              pop\n              jump\t// out\n                /* \"#utility.yul\":11413:11582   */\n            tag_182:\n                /* \"#utility.yul\":11553:11574   */\n              0x676f616c20616d6f756e74207265616368656400000000000000000000000000\n                /* \"#utility.yul\":11549:11550   */\n              0x00\n                /* \"#utility.yul\":11541:11547   */\n              dup3\n                /* \"#utility.yul\":11537:11551   */\n              add\n                /* \"#utility.yul\":11530:11575   */\n              mstore\n                /* \"#utility.yul\":11413:11582   */\n              pop\n              jump\t// out\n                /* \"#utility.yul\":11588:11954   */\n            tag_183:\n                /* \"#utility.yul\":11730:11733   */\n              0x00\n                /* \"#utility.yul\":11751:11818   */\n              tag_297\n                /* \"#utility.yul\":11815:11817   */\n              0x13\n                /* \"#utility.yul\":11810:11813   */\n              dup4\n                /* \"#utility.yul\":11751:11818   */\n              tag_163\n              jump\t// in\n            tag_297:\n                /* \"#utility.yul\":11744:11818   */\n              swap2\n              pop\n                /* \"#utility.yul\":11827:11920   */\n              tag_298\n                /* \"#utility.yul\":11916:11919   */\n              dup3\n                /* \"#utility.yul\":11827:11920   */\n              tag_182\n              jump\t// in\n            tag_298:\n                /* \"#utility.yul\":11945:11947   */\n              0x20\n                /* \"#utility.yul\":11940:11943   */\n              dup3\n                /* \"#utility.yul\":11936:11948   */\n              add\n                /* \"#utility.yul\":11929:11948   */\n              swap1\n              pop\n                /* \"#utility.yul\":11588:11954   */\n              swap2\n              swap1\n              pop\n              jump\t// out\n                /* \"#utility.yul\":11960:12379   */\n            tag_141:\n                /* \"#utility.yul\":12126:12130   */\n              0x00\n                /* \"#utility.yul\":12164:12166   */\n              0x20\n                /* \"#utility.yul\":12153:12162   */\n              dup3\n                /* \"#utility.yul\":12149:12167   */\n              add\n                /* \"#utility.yul\":12141:12167   */\n              swap1\n              pop\n                /* \"#utility.yul\":12213:12222   */\n              dup2\n                /* \"#utility.yul\":12207:12211   */\n              dup2\n                /* \"#utility.yul\":12203:12223   */\n              sub\n                /* \"#utility.yul\":12199:12200   */\n              0x00\n                /* \"#utility.yul\":12188:12197   */\n              dup4\n                /* \"#utility.yul\":12184:12201   */\n              add\n                /* \"#utility.yul\":12177:12224   */\n              mstore\n                /* \"#utility.yul\":12241:12372   */\n              tag_300\n                /* \"#utility.yul\":12367:12371   */\n              dup2\n                /* \"#utility.yul\":12241:12372   */\n              tag_183\n              jump\t// in\n            tag_300:\n                /* \"#utility.yul\":12233:12372   */\n              swap1\n              pop\n                /* \"#utility.yul\":11960:12379   */\n              swap2\n              swap1\n              pop\n              jump\t// out\n                /* \"#utility.yul\":12385:12690   */\n            tag_145:\n                /* \"#utility.yul\":12425:12428   */\n              0x00\n                /* \"#utility.yul\":12444:12464   */\n              tag_302\n                /* \"#utility.yul\":12462:12463   */\n              dup3\n                /* \"#utility.yul\":12444:12464   */\n              tag_167\n              jump\t// in\n            tag_302:\n                /* \"#utility.yul\":12439:12464   */\n              swap2\n              pop\n                /* \"#utility.yul\":12478:12498   */\n              tag_303\n                /* \"#utility.yul\":12496:12497   */\n              dup4\n                /* \"#utility.yul\":12478:12498   */\n              tag_167\n              jump\t// in\n            tag_303:\n                /* \"#utility.yul\":12473:12498   */\n              swap3\n              pop\n                /* \"#utility.yul\":12632:12633   */\n              dup3\n                /* \"#utility.yul\":12564:12630   */\n              0xffffffffffffffffffffffffffffffffffffffffffffffffffffffffffffffff\n                /* \"#utility.yul\":12560:12634   */\n              sub\n                /* \"#utility.yul\":12557:12558   */\n              dup3\n                /* \"#utility.yul\":12554:12635   */\n              gt\n                /* \"#utility.yul\":12551:12658   */\n              iszero\n              tag_304\n              jumpi\n                /* \"#utility.yul\":12638:12656   */\n              tag_305\n              tag_175\n              jump\t// in\n            tag_305:\n                /* \"#utility.yul\":12551:12658   */\n            tag_304:\n                /* \"#utility.yul\":12682:12683   */\n              dup3\n                /* \"#utility.yul\":12679:12680   */\n              dup3\n                /* \"#utility.yul\":12675:12684   */\n              add\n                /* \"#utility.yul\":12668:12684   */\n              swap1\n              pop\n                /* \"#utility.yul\":12385:12690   */\n              swap3\n              swap2\n              pop\n              pop\n              jump\t// out\n\n            auxdata: 0xa26469706673582212205b9012a64afa032c466acb2c237b19f52571018d69700eb3ee8c011d7c1e401264736f6c634300080b0033\n        }\n    }\n\n    auxdata: 0xa264697066735822122044718d56ff57890ab5c388e2d857a1d34986564ebf86f489f39bc8a34835e1fa64736f6c634300080b0033\n}\n","bytecode":{"linkReferences":{},"object":"608060405234801561001057600080fd5b50604051612487380380612487833981810160405281019061003291906100db565b806000806101000a81548173ffffffffffffffffffffffffffffffffffffffff021916908373ffffffffffffffffffffffffffffffffffffffff16021790555050610108565b600080fd5b600073ffffffffffffffffffffffffffffffffffffffff82169050919050565b60006100a88261007d565b9050919050565b6100b88161009d565b81146100c357600080fd5b50565b6000815190506100d5816100af565b92915050565b6000602082840312156100f1576100f0610078565b5b60006100ff848285016100c6565b91505092915050565b612370806101176000396000f3fe60806040523480156200001157600080fd5b5060043610620000465760003560e01c8063381b1d82146200004b57806381d12c58146200006b578063d9398c7314620000a1575b600080fd5b620000696004803603810190620000639190620006b3565b620000c3565b005b6200008960048036038101906200008391906200072e565b6200042b565b604051620000989190620007cb565b60405180910390f35b620000ab6200046b565b604051620000ba91906200080d565b60405180910390f35b60648210156200010a576040517f08c379a000000000000000000000000000000000000000000000000000000000815260040162000101906200088b565b60405180910390fd5b60008060009054906101000a900473ffffffffffffffffffffffffffffffffffffffff1673ffffffffffffffffffffffffffffffffffffffff16633d584063336040518263ffffffff1660e01b81526004016200016891906200080d565b6020604051808303816000875af115801562000188573d6000803e3d6000fd5b505050506040513d601f19601f82011682018060405250810190620001ae9190620008f2565b905060018173ffffffffffffffffffffffffffffffffffffffff1663d2a5bfaa6040518163ffffffff1660e01b8152600401602060405180830381865afa158015620001fe573d6000803e3d6000fd5b505050506040513d601f19601f820116820180604052508101906200022491906200093b565b1062000267576040517f08c379a00000000000000000000000000000000000000000000000000000000081526004016200025e90620009bd565b60405180910390fd5b8073ffffffffffffffffffffffffffffffffffffffff16633498858d6040518163ffffffff1660e01b8152600401602060405180830381865afa158015620002b3573d6000803e3d6000fd5b505050506040513d601f19601f82011682018060405250810190620002d9919062000a1c565b156200031c576040517f08c379a0000000000000000000000000000000000000000000000000000000008152600401620003139062000a9e565b60405180910390fd5b60008484848460405162000330906200048f565b6200033f949392919062000b89565b604051809103906000f0801580156200035c573d6000803e3d6000fd5b5090506001819080600181540180825580915050600190039060005260206000200160009091909190916101000a81548173ffffffffffffffffffffffffffffffffffffffff021916908373ffffffffffffffffffffffffffffffffffffffff1602179055508173ffffffffffffffffffffffffffffffffffffffff166386f675686040518163ffffffff1660e01b8152600401600060405180830381600087803b1580156200040b57600080fd5b505af115801562000420573d6000803e3d6000fd5b505050505050505050565b600181815481106200043c57600080fd5b906000526020600020016000915054906101000a900473ffffffffffffffffffffffffffffffffffffffff1681565b60008054906101000a900473ffffffffffffffffffffffffffffffffffffffff1681565b61175d8062000bde83390190565b6000604051905090565b600080fd5b600080fd5b600080fd5b600080fd5b6000601f19601f8301169050919050565b7f4e487b7100000000000000000000000000000000000000000000000000000000600052604160045260246000fd5b6200050682620004bb565b810181811067ffffffffffffffff82111715620005285762000527620004cc565b5b80604052505050565b60006200053d6200049d565b90506200054b8282620004fb565b919050565b600067ffffffffffffffff8211156200056e576200056d620004cc565b5b6200057982620004bb565b9050602081019050919050565b82818337600083830152505050565b6000620005ac620005a68462000550565b62000531565b905082815260208101848484011115620005cb57620005ca620004b6565b5b620005d884828562000586565b509392505050565b600082601f830112620005f857620005f7620004b1565b5b81356200060a84826020860162000595565b91505092915050565b6000819050919050565b620006288162000613565b81146200063457600080fd5b50565b60008135905062000648816200061d565b92915050565b600073ffffffffffffffffffffffffffffffffffffffff82169050919050565b60006200067b826200064e565b9050919050565b6200068d816200066e565b81146200069957600080fd5b50565b600081359050620006ad8162000682565b92915050565b600080600060608486031215620006cf57620006ce620004a7565b5b600084013567ffffffffffffffff811115620006f057620006ef620004ac565b5b620006fe86828701620005e0565b9350506020620007118682870162000637565b925050604062000724868287016200069c565b9150509250925092565b600060208284031215620007475762000746620004a7565b5b6000620007578482850162000637565b91505092915050565b6000819050919050565b60006200078b620007856200077f846200064e565b62000760565b6200064e565b9050919050565b60006200079f826200076a565b9050919050565b6000620007b38262000792565b9050919050565b620007c581620007a6565b82525050565b6000602082019050620007e26000830184620007ba565b92915050565b6000620007f5826200064e565b9050919050565b6200080781620007e8565b82525050565b6000602082019050620008246000830184620007fc565b92915050565b600082825260208201905092915050565b7f796f752063616e27742072657175657374206c657373206d6f6e657900000000600082015250565b600062000873601c836200082a565b915062000880826200083b565b602082019050919050565b60006020820190508181036000830152620008a68162000864565b9050919050565b6000620008ba82620007e8565b9050919050565b620008cc81620008ad565b8114620008d857600080fd5b50565b600081519050620008ec81620008c1565b92915050565b6000602082840312156200090b576200090a620004a7565b5b60006200091b84828501620008db565b91505092915050565b60008151905062000935816200061d565b92915050565b600060208284031215620009545762000953620004a7565b5b6000620009648482850162000924565b91505092915050565b7f796f75206172652062616e6e6564000000000000000000000000000000000000600082015250565b6000620009a5600e836200082a565b9150620009b2826200096d565b602082019050919050565b60006020820190508181036000830152620009d88162000996565b9050919050565b60008115159050919050565b620009f681620009df565b811462000a0257600080fd5b50565b60008151905062000a1681620009eb565b92915050565b60006020828403121562000a355762000a34620004a7565b5b600062000a458482850162000a05565b91505092915050565b7f796f75206861766520616c726561647920726571756573746564000000000000600082015250565b600062000a86601a836200082a565b915062000a938262000a4e565b602082019050919050565b6000602082019050818103600083015262000ab98162000a77565b9050919050565b600081519050919050565b60005b8381101562000aeb57808201518184015260208101905062000ace565b8381111562000afb576000848401525b50505050565b600062000b0e8262000ac0565b62000b1a81856200082a565b935062000b2c81856020860162000acb565b62000b3781620004bb565b840191505092915050565b62000b4d8162000613565b82525050565b62000b5e816200066e565b82525050565b600062000b718262000792565b9050919050565b62000b838162000b64565b82525050565b6000608082019050818103600083015262000ba5818762000b01565b905062000bb6602083018662000b42565b62000bc5604083018562000b53565b62000bd4606083018462000b78565b9594505050505056fe60806040523480156200001157600080fd5b506040516200175d3803806200175d833981810160405281019062000037919062000428565b83600190805190602001906200004f929190620000e2565b508260028190555081600360006101000a81548173ffffffffffffffffffffffffffffffffffffffff021916908373ffffffffffffffffffffffffffffffffffffffff160217905550806000806101000a81548173ffffffffffffffffffffffffffffffffffffffff021916908373ffffffffffffffffffffffffffffffffffffffff160217905550505050506200051e565b828054620000f090620004e8565b90600052602060002090601f01602090048101928262000114576000855562000160565b82601f106200012f57805160ff191683800117855562000160565b8280016001018555821562000160579182015b828111156200015f57825182559160200191906001019062000142565b5b5090506200016f919062000173565b5090565b5b808211156200018e57600081600090555060010162000174565b5090565b6000604051905090565b600080fd5b600080fd5b600080fd5b600080fd5b6000601f19601f8301169050919050565b7f4e487b7100000000000000000000000000000000000000000000000000000000600052604160045260246000fd5b620001fb82620001b0565b810181811067ffffffffffffffff821117156200021d576200021c620001c1565b5b80604052505050565b60006200023262000192565b9050620002408282620001f0565b919050565b600067ffffffffffffffff821115620002635762000262620001c1565b5b6200026e82620001b0565b9050602081019050919050565b60005b838110156200029b5780820151818401526020810190506200027e565b83811115620002ab576000848401525b50505050565b6000620002c8620002c28462000245565b62000226565b905082815260208101848484011115620002e757620002e6620001ab565b5b620002f48482856200027b565b509392505050565b600082601f830112620003145762000313620001a6565b5b815162000326848260208601620002b1565b91505092915050565b6000819050919050565b62000344816200032f565b81146200035057600080fd5b50565b600081519050620003648162000339565b92915050565b600073ffffffffffffffffffffffffffffffffffffffff82169050919050565b600062000397826200036a565b9050919050565b620003a9816200038a565b8114620003b557600080fd5b50565b600081519050620003c9816200039e565b92915050565b6000620003dc826200036a565b9050919050565b6000620003f082620003cf565b9050919050565b6200040281620003e3565b81146200040e57600080fd5b50565b6000815190506200042281620003f7565b92915050565b600080600080608085870312156200044557620004446200019c565b5b600085015167ffffffffffffffff811115620004665762000465620001a1565b5b6200047487828801620002fc565b9450506020620004878782880162000353565b93505060406200049a87828801620003b8565b9250506060620004ad8782880162000411565b91505092959194509250565b7f4e487b7100000000000000000000000000000000000000000000000000000000600052602260045260246000fd5b600060028204905060018216806200050157607f821691505b60208210811415620005185762000517620004b9565b5b50919050565b61122f806200052e6000396000f3fe6080604052600436106100f35760003560e01c8063937e09b11161008a578063c236bb2211610059578063c236bb22146102f8578063d5d9ce9114610323578063d7bb99ba1461033a578063ecfd892814610344576100f3565b8063937e09b11461023a578063a885bd5414610265578063aa8c217c14610290578063ad285cad146102bb576100f3565b80631f6d4942116100c65780631f6d49421461017c578063481c6a75146101b957806366d003ac146101e45780637284e4161461020f576100f3565b806301cf89a8146100f857806312424e3f1461010f578063158fba8f1461012657806319d40b0814610151575b600080fd5b34801561010457600080fd5b5061010d61036f565b005b34801561011b57600080fd5b50610124610596565b005b34801561013257600080fd5b5061013b61069c565b6040516101489190610b38565b60405180910390f35b34801561015d57600080fd5b506101666106af565b6040516101739190610b38565b60405180910390f35b34801561018857600080fd5b506101a3600480360381019061019e9190610bb6565b6106c2565b6040516101b09190610b38565b60405180910390f35b3480156101c557600080fd5b506101ce6106e2565b6040516101db9190610c42565b60405180910390f35b3480156101f057600080fd5b506101f9610706565b6040516102069190610c7e565b60405180910390f35b34801561021b57600080fd5b5061022461072c565b6040516102319190610d32565b60405180910390f35b34801561024657600080fd5b5061024f6107ba565b60405161025c9190610d6d565b60405180910390f35b34801561027157600080fd5b5061027a6107bf565b6040516102879190610d6d565b60405180910390f35b34801561029c57600080fd5b506102a56107c5565b6040516102b29190610d6d565b60405180910390f35b3480156102c757600080fd5b506102e260048036038101906102dd9190610bb6565b6107cb565b6040516102ef9190610b38565b60405180910390f35b34801561030457600080fd5b5061030d6107eb565b60405161031a9190610d6d565b60405180910390f35b34801561032f57600080fd5b506103386107f1565b005b6103426108f7565b005b34801561035057600080fd5b50610359610b17565b6040516103669190610d6d565b60405180910390f35b600360149054906101000a900460ff161580156103995750600960009054906101000a900460ff16155b6103d8576040517f08c379a00000000000000000000000000000000000000000000000000000000081526004016103cf90610dd4565b60405180910390fd5b600460003373ffffffffffffffffffffffffffffffffffffffff1673ffffffffffffffffffffffffffffffffffffffff16815260200190815260200160002060009054906101000a900460ff16610464576040517f08c379a000000000000000000000000000000000000000000000000000000000815260040161045b90610e40565b60405180910390fd5b600760003373ffffffffffffffffffffffffffffffffffffffff1673ffffffffffffffffffffffffffffffffffffffff16815260200190815260200160002060009054906101000a900460ff16156104f1576040517f08c379a00000000000000000000000000000000000000000000000000000000081526004016104e890610eac565b60405180910390fd5b6001600760003373ffffffffffffffffffffffffffffffffffffffff1673ffffffffffffffffffffffffffffffffffffffff16815260200190815260200160002060006101000a81548160ff0219169083151502179055506008600081548092919061055c90610efb565b9190505550600060646005546008546105759190610f73565b61057f9190610fa4565b9050605a811115610593576105926107f1565b5b50565b600360009054906101000a900473ffffffffffffffffffffffffffffffffffffffff1673ffffffffffffffffffffffffffffffffffffffff166108fc479081150290604051600060405180830381858888f193505050501580156105fe573d6000803e3d6000fd5b506001600360146101000a81548160ff02191690831515021790555060008054906101000a900473ffffffffffffffffffffffffffffffffffffffff1673ffffffffffffffffffffffffffffffffffffffff166302cff5c56040518163ffffffff1660e01b8152600401600060405180830381600087803b15801561068257600080fd5b505af1158015610696573d6000803e3d6000fd5b50505050565b600960009054906101000a900460ff1681565b600360149054906101000a900460ff1681565b60046020528060005260406000206000915054906101000a900460ff1681565b60008054906101000a900473ffffffffffffffffffffffffffffffffffffffff1681565b600360009054906101000a900473ffffffffffffffffffffffffffffffffffffffff1681565b600180546107399061102d565b80601f01602080910402602001604051908101604052809291908181526020018280546107659061102d565b80156107b25780601f10610787576101008083540402835291602001916107b2565b820191906000526020600020905b81548152906001019060200180831161079557829003601f168201915b505050505081565b606481565b60085481565b60025481565b60076020528060005260406000206000915054906101000a900460ff1681565b60065481565b600360149054906101000a900460ff1615801561081b5750600960009054906101000a900460ff16155b61085a576040517f08c379a000000000000000000000000000000000000000000000000000000000815260040161085190610dd4565b60405180910390fd5b60008054906101000a900473ffffffffffffffffffffffffffffffffffffffff1673ffffffffffffffffffffffffffffffffffffffff1663cb6ff4a36040518163ffffffff1660e01b8152600401600060405180830381600087803b1580156108c257600080fd5b505af11580156108d6573d6000803e3d6000fd5b505050506001600960006101000a81548160ff021916908315150217905550565b600360149054906101000a900460ff161580156109215750600960009054906101000a900460ff16155b610960576040517f08c379a000000000000000000000000000000000000000000000000000000000815260040161095790610dd4565b60405180910390fd5b60643410156109a4576040517f08c379a000000000000000000000000000000000000000000000000000000000815260040161099b906110ab565b60405180910390fd5b600960009054906101000a900460ff16156109f4576040517f08c379a00000000000000000000000000000000000000000000000000000000081526004016109eb90611117565b60405180910390fd5b60025460065410610a3a576040517f08c379a0000000000000000000000000000000000000000000000000000000008152600401610a3190611183565b60405180910390fd5b600460003373ffffffffffffffffffffffffffffffffffffffff1673ffffffffffffffffffffffffffffffffffffffff16815260200190815260200160002060009054906101000a900460ff16610afc5760056000815480929190610a9e90610efb565b91905055506001600460003373ffffffffffffffffffffffffffffffffffffffff1673ffffffffffffffffffffffffffffffffffffffff16815260200190815260200160002060006101000a81548160ff0219169083151502179055505b3460066000828254610b0e91906111a3565b92505081905550565b60055481565b60008115159050919050565b610b3281610b1d565b82525050565b6000602082019050610b4d6000830184610b29565b92915050565b600080fd5b600073ffffffffffffffffffffffffffffffffffffffff82169050919050565b6000610b8382610b58565b9050919050565b610b9381610b78565b8114610b9e57600080fd5b50565b600081359050610bb081610b8a565b92915050565b600060208284031215610bcc57610bcb610b53565b5b6000610bda84828501610ba1565b91505092915050565b6000819050919050565b6000610c08610c03610bfe84610b58565b610be3565b610b58565b9050919050565b6000610c1a82610bed565b9050919050565b6000610c2c82610c0f565b9050919050565b610c3c81610c21565b82525050565b6000602082019050610c576000830184610c33565b92915050565b6000610c6882610b58565b9050919050565b610c7881610c5d565b82525050565b6000602082019050610c936000830184610c6f565b92915050565b600081519050919050565b600082825260208201905092915050565b60005b83811015610cd3578082015181840152602081019050610cb8565b83811115610ce2576000848401525b50505050565b6000601f19601f8301169050919050565b6000610d0482610c99565b610d0e8185610ca4565b9350610d1e818560208601610cb5565b610d2781610ce8565b840191505092915050565b60006020820190508181036000830152610d4c8184610cf9565b905092915050565b6000819050919050565b610d6781610d54565b82525050565b6000602082019050610d826000830184610d5e565b92915050565b7f62616e6e6564206f7220636f6d706c6574656400000000000000000000000000600082015250565b6000610dbe601383610ca4565b9150610dc982610d88565b602082019050919050565b60006020820190508181036000830152610ded81610db1565b9050919050565b7f796f7520617265206e6f74206120636f6e7472696275746f7200000000000000600082015250565b6000610e2a601983610ca4565b9150610e3582610df4565b602082019050919050565b60006020820190508181036000830152610e5981610e1d565b9050919050565b7f796f75206861766520616c72656164792062616e6e6564000000000000000000600082015250565b6000610e96601783610ca4565b9150610ea182610e60565b602082019050919050565b60006020820190508181036000830152610ec581610e89565b9050919050565b7f4e487b7100000000000000000000000000000000000000000000000000000000600052601160045260246000fd5b6000610f0682610d54565b91507fffffffffffffffffffffffffffffffffffffffffffffffffffffffffffffffff821415610f3957610f38610ecc565b5b600182019050919050565b7f4e487b7100000000000000000000000000000000000000000000000000000000600052601260045260246000fd5b6000610f7e82610d54565b9150610f8983610d54565b925082610f9957610f98610f44565b5b828204905092915050565b6000610faf82610d54565b9150610fba83610d54565b9250817fffffffffffffffffffffffffffffffffffffffffffffffffffffffffffffffff0483118215151615610ff357610ff2610ecc565b5b828202905092915050565b7f4e487b7100000000000000000000000000000000000000000000000000000000600052602260045260246000fd5b6000600282049050600182168061104557607f821691505b6020821081141561105957611058610ffe565b5b50919050565b7f6c65737320616d6f756e7420646f6e6174656400000000000000000000000000600082015250565b6000611095601383610ca4565b91506110a08261105f565b602082019050919050565b600060208201905081810360008301526110c481611088565b9050919050565b7f63616e277420646f6e61746520746f2062616e6e656420726571756573740000600082015250565b6000611101601e83610ca4565b915061110c826110cb565b602082019050919050565b60006020820190508181036000830152611130816110f4565b9050919050565b7f676f616c20616d6f756e74207265616368656400000000000000000000000000600082015250565b600061116d601383610ca4565b915061117882611137565b602082019050919050565b6000602082019050818103600083015261119c81611160565b9050919050565b60006111ae82610d54565b91506111b983610d54565b9250827fffffffffffffffffffffffffffffffffffffffffffffffffffffffffffffffff038211156111ee576111ed610ecc565b5b82820190509291505056fea26469706673582212205b9012a64afa032c466acb2c237b19f52571018d69700eb3ee8c011d7c1e401264736f6c634300080b0033a264697066735822122044718d56ff57890ab5c388e2d857a1d34986564ebf86f489f39bc8a34835e1fa64736f6c634300080b0033","opcodes":"PUSH1 0x80 PUSH1 0x40 MSTORE CALLVALUE DUP1 ISZERO PUSH2 0x10 JUMPI PUSH1 0x0 DUP1 REVERT JUMPDEST POP PUSH1 0x40 MLOAD PUSH2 0x2487 CODESIZE SUB DUP1 PUSH2 0x2487 DUP4 CODECOPY DUP2 DUP2 ADD PUSH1 0x40 MSTORE DUP2 ADD SWAP1 PUSH2 0x32 SWAP2 SWAP1 PUSH2 0xDB JUMP JUMPDEST DUP1 PUSH1 0x0 DUP1 PUSH2 0x100 EXP DUP2 SLOAD DUP2 PUSH20 0xFFFFFFFFFFFFFFFFFFFFFFFFFFFFFFFFFFFFFFFF MUL NOT AND SWAP1 DUP4 PUSH20 0xFFFFFFFFFFFFFFFFFFFFFFFFFFFFFFFFFFFFFFFF AND MUL OR SWAP1 SSTORE POP POP PUSH2 0x108 JUMP JUMPDEST PUSH1 0x0 DUP1 REVERT JUMPDEST PUSH1 0x0 PUSH20 0xFFFFFFFFFFFFFFFFFFFFFFFFFFFFFFFFFFFFFFFF DUP3 AND SWAP1 POP SWAP2 SWAP1 POP JUMP JUMPDEST PUSH1 0x0 PUSH2 0xA8 DUP3 PUSH2 0x7D JUMP JUMPDEST SWAP1 POP SWAP2 SWAP1 POP JUMP JUMPDEST PUSH2 0xB8 DUP2 PUSH2 0x9D JUMP JUMPDEST DUP2 EQ PUSH2 0xC3 JUMPI PUSH1 0x0 DUP1 REVERT JUMPDEST POP JUMP JUMPDEST PUSH1 0x0 DUP2 MLOAD SWAP1 POP PUSH2 0xD5 DUP2 PUSH2 0xAF JUMP JUMPDEST SWAP3 SWAP2 POP POP JUMP JUMPDEST PUSH1 0x0 PUSH1 0x20 DUP3 DUP5 SUB SLT ISZERO PUSH2 0xF1 JUMPI PUSH2 0xF0 PUSH2 0x78 JUMP JUMPDEST JUMPDEST PUSH1 0x0 PUSH2 0xFF DUP5 DUP3 DUP6 ADD PUSH2 0xC6 JUMP JUMPDEST SWAP2 POP POP SWAP3 SWAP2 POP POP JUMP JUMPDEST PUSH2 0x2370 DUP1 PUSH2 0x117 PUSH1 0x0 CODECOPY PUSH1 0x0 RETURN INVALID PUSH1 0x80 PUSH1 0x40 MSTORE CALLVALUE DUP1 ISZERO PUSH3 0x11 JUMPI PUSH1 0x0 DUP1 REVERT JUMPDEST POP PUSH1 0x4 CALLDATASIZE LT PUSH3 0x46 JUMPI PUSH1 0x0 CALLDATALOAD PUSH1 0xE0 SHR DUP1 PUSH4 0x381B1D82 EQ PUSH3 0x4B JUMPI DUP1 PUSH4 0x81D12C58 EQ PUSH3 0x6B JUMPI DUP1 PUSH4 0xD9398C73 EQ PUSH3 0xA1 JUMPI JUMPDEST PUSH1 0x0 DUP1 REVERT JUMPDEST PUSH3 0x69 PUSH1 0x4 DUP1 CALLDATASIZE SUB DUP2 ADD SWAP1 PUSH3 0x63 SWAP2 SWAP1 PUSH3 0x6B3 JUMP JUMPDEST PUSH3 0xC3 JUMP JUMPDEST STOP JUMPDEST PUSH3 0x89 PUSH1 0x4 DUP1 CALLDATASIZE SUB DUP2 ADD SWAP1 PUSH3 0x83 SWAP2 SWAP1 PUSH3 0x72E JUMP JUMPDEST PUSH3 0x42B JUMP JUMPDEST PUSH1 0x40 MLOAD PUSH3 0x98 SWAP2 SWAP1 PUSH3 0x7CB JUMP JUMPDEST PUSH1 0x40 MLOAD DUP1 SWAP2 SUB SWAP1 RETURN JUMPDEST PUSH3 0xAB PUSH3 0x46B JUMP JUMPDEST PUSH1 0x40 MLOAD PUSH3 0xBA SWAP2 SWAP1 PUSH3 0x80D JUMP JUMPDEST PUSH1 0x40 MLOAD DUP1 SWAP2 SUB SWAP1 RETURN JUMPDEST PUSH1 0x64 DUP3 LT ISZERO PUSH3 0x10A JUMPI PUSH1 0x40 MLOAD PUSH32 0x8C379A000000000000000000000000000000000000000000000000000000000 DUP2 MSTORE PUSH1 0x4 ADD PUSH3 0x101 SWAP1 PUSH3 0x88B JUMP JUMPDEST PUSH1 0x40 MLOAD DUP1 SWAP2 SUB SWAP1 REVERT JUMPDEST PUSH1 0x0 DUP1 PUSH1 0x0 SWAP1 SLOAD SWAP1 PUSH2 0x100 EXP SWAP1 DIV PUSH20 0xFFFFFFFFFFFFFFFFFFFFFFFFFFFFFFFFFFFFFFFF AND PUSH20 0xFFFFFFFFFFFFFFFFFFFFFFFFFFFFFFFFFFFFFFFF AND PUSH4 0x3D584063 CALLER PUSH1 0x40 MLOAD DUP3 PUSH4 0xFFFFFFFF AND PUSH1 0xE0 SHL DUP2 MSTORE PUSH1 0x4 ADD PUSH3 0x168 SWAP2 SWAP1 PUSH3 0x80D JUMP JUMPDEST PUSH1 0x20 PUSH1 0x40 MLOAD DUP1 DUP4 SUB DUP2 PUSH1 0x0 DUP8 GAS CALL ISZERO DUP1 ISZERO PUSH3 0x188 JUMPI RETURNDATASIZE PUSH1 0x0 DUP1 RETURNDATACOPY RETURNDATASIZE PUSH1 0x0 REVERT JUMPDEST POP POP POP POP PUSH1 0x40 MLOAD RETURNDATASIZE PUSH1 0x1F NOT PUSH1 0x1F DUP3 ADD AND DUP3 ADD DUP1 PUSH1 0x40 MSTORE POP DUP2 ADD SWAP1 PUSH3 0x1AE SWAP2 SWAP1 PUSH3 0x8F2 JUMP JUMPDEST SWAP1 POP PUSH1 0x1 DUP2 PUSH20 0xFFFFFFFFFFFFFFFFFFFFFFFFFFFFFFFFFFFFFFFF AND PUSH4 0xD2A5BFAA PUSH1 0x40 MLOAD DUP2 PUSH4 0xFFFFFFFF AND PUSH1 0xE0 SHL DUP2 MSTORE PUSH1 0x4 ADD PUSH1 0x20 PUSH1 0x40 MLOAD DUP1 DUP4 SUB DUP2 DUP7 GAS STATICCALL ISZERO DUP1 ISZERO PUSH3 0x1FE JUMPI RETURNDATASIZE PUSH1 0x0 DUP1 RETURNDATACOPY RETURNDATASIZE PUSH1 0x0 REVERT JUMPDEST POP POP POP POP PUSH1 0x40 MLOAD RETURNDATASIZE PUSH1 0x1F NOT PUSH1 0x1F DUP3 ADD AND DUP3 ADD DUP1 PUSH1 0x40 MSTORE POP DUP2 ADD SWAP1 PUSH3 0x224 SWAP2 SWAP1 PUSH3 0x93B JUMP JUMPDEST LT PUSH3 0x267 JUMPI PUSH1 0x40 MLOAD PUSH32 0x8C379A000000000000000000000000000000000000000000000000000000000 DUP2 MSTORE PUSH1 0x4 ADD PUSH3 0x25E SWAP1 PUSH3 0x9BD JUMP JUMPDEST PUSH1 0x40 MLOAD DUP1 SWAP2 SUB SWAP1 REVERT JUMPDEST DUP1 PUSH20 0xFFFFFFFFFFFFFFFFFFFFFFFFFFFFFFFFFFFFFFFF AND PUSH4 0x3498858D PUSH1 0x40 MLOAD DUP2 PUSH4 0xFFFFFFFF AND PUSH1 0xE0 SHL DUP2 MSTORE PUSH1 0x4 ADD PUSH1 0x20 PUSH1 0x40 MLOAD DUP1 DUP4 SUB DUP2 DUP7 GAS STATICCALL ISZERO DUP1 ISZERO PUSH3 0x2B3 JUMPI RETURNDATASIZE PUSH1 0x0 DUP1 RETURNDATACOPY RETURNDATASIZE PUSH1 0x0 REVERT JUMPDEST POP POP POP POP PUSH1 0x40 MLOAD RETURNDATASIZE PUSH1 0x1F NOT PUSH1 0x1F DUP3 ADD AND DUP3 ADD DUP1 PUSH1 0x40 MSTORE POP DUP2 ADD SWAP1 PUSH3 0x2D9 SWAP2 SWAP1 PUSH3 0xA1C JUMP JUMPDEST ISZERO PUSH3 0x31C JUMPI PUSH1 0x40 MLOAD PUSH32 0x8C379A000000000000000000000000000000000000000000000000000000000 DUP2 MSTORE PUSH1 0x4 ADD PUSH3 0x313 SWAP1 PUSH3 0xA9E JUMP JUMPDEST PUSH1 0x40 MLOAD DUP1 SWAP2 SUB SWAP1 REVERT JUMPDEST PUSH1 0x0 DUP5 DUP5 DUP5 DUP5 PUSH1 0x40 MLOAD PUSH3 0x330 SWAP1 PUSH3 0x48F JUMP JUMPDEST PUSH3 0x33F SWAP5 SWAP4 SWAP3 SWAP2 SWAP1 PUSH3 0xB89 JUMP JUMPDEST PUSH1 0x40 MLOAD DUP1 SWAP2 SUB SWAP1 PUSH1 0x0 CREATE DUP1 ISZERO DUP1 ISZERO PUSH3 0x35C JUMPI RETURNDATASIZE PUSH1 0x0 DUP1 RETURNDATACOPY RETURNDATASIZE PUSH1 0x0 REVERT JUMPDEST POP SWAP1 POP PUSH1 0x1 DUP2 SWAP1 DUP1 PUSH1 0x1 DUP2 SLOAD ADD DUP1 DUP3 SSTORE DUP1 SWAP2 POP POP PUSH1 0x1 SWAP1 SUB SWAP1 PUSH1 0x0 MSTORE PUSH1 0x20 PUSH1 0x0 KECCAK256 ADD PUSH1 0x0 SWAP1 SWAP2 SWAP1 SWAP2 SWAP1 SWAP2 PUSH2 0x100 EXP DUP2 SLOAD DUP2 PUSH20 0xFFFFFFFFFFFFFFFFFFFFFFFFFFFFFFFFFFFFFFFF MUL NOT AND SWAP1 DUP4 PUSH20 0xFFFFFFFFFFFFFFFFFFFFFFFFFFFFFFFFFFFFFFFF AND MUL OR SWAP1 SSTORE POP DUP2 PUSH20 0xFFFFFFFFFFFFFFFFFFFFFFFFFFFFFFFFFFFFFFFF AND PUSH4 0x86F67568 PUSH1 0x40 MLOAD DUP2 PUSH4 0xFFFFFFFF AND PUSH1 0xE0 SHL DUP2 MSTORE PUSH1 0x4 ADD PUSH1 0x0 PUSH1 0x40 MLOAD DUP1 DUP4 SUB DUP2 PUSH1 0x0 DUP8 DUP1 EXTCODESIZE ISZERO DUP1 ISZERO PUSH3 0x40B JUMPI PUSH1 0x0 DUP1 REVERT JUMPDEST POP GAS CALL ISZERO DUP1 ISZERO PUSH3 0x420 JUMPI RETURNDATASIZE PUSH1 0x0 DUP1 RETURNDATACOPY RETURNDATASIZE PUSH1 0x0 REVERT JUMPDEST POP POP POP POP POP POP POP POP POP JUMP JUMPDEST PUSH1 0x1 DUP2 DUP2 SLOAD DUP2 LT PUSH3 0x43C JUMPI PUSH1 0x0 DUP1 REVERT JUMPDEST SWAP1 PUSH1 0x0 MSTORE PUSH1 0x20 PUSH1 0x0 KECCAK256 ADD PUSH1 0x0 SWAP2 POP SLOAD SWAP1 PUSH2 0x100 EXP SWAP1 DIV PUSH20 0xFFFFFFFFFFFFFFFFFFFFFFFFFFFFFFFFFFFFFFFF AND DUP2 JUMP JUMPDEST PUSH1 0x0 DUP1 SLOAD SWAP1 PUSH2 0x100 EXP SWAP1 DIV PUSH20 0xFFFFFFFFFFFFFFFFFFFFFFFFFFFFFFFFFFFFFFFF AND DUP2 JUMP JUMPDEST PUSH2 0x175D DUP1 PUSH3 0xBDE DUP4 CODECOPY ADD SWAP1 JUMP JUMPDEST PUSH1 0x0 PUSH1 0x40 MLOAD SWAP1 POP SWAP1 JUMP JUMPDEST PUSH1 0x0 DUP1 REVERT JUMPDEST PUSH1 0x0 DUP1 REVERT JUMPDEST PUSH1 0x0 DUP1 REVERT JUMPDEST PUSH1 0x0 DUP1 REVERT JUMPDEST PUSH1 0x0 PUSH1 0x1F NOT PUSH1 0x1F DUP4 ADD AND SWAP1 POP SWAP2 SWAP1 POP JUMP JUMPDEST PUSH32 0x4E487B7100000000000000000000000000000000000000000000000000000000 PUSH1 0x0 MSTORE PUSH1 0x41 PUSH1 0x4 MSTORE PUSH1 0x24 PUSH1 0x0 REVERT JUMPDEST PUSH3 0x506 DUP3 PUSH3 0x4BB JUMP JUMPDEST DUP2 ADD DUP2 DUP2 LT PUSH8 0xFFFFFFFFFFFFFFFF DUP3 GT OR ISZERO PUSH3 0x528 JUMPI PUSH3 0x527 PUSH3 0x4CC JUMP JUMPDEST JUMPDEST DUP1 PUSH1 0x40 MSTORE POP POP POP JUMP JUMPDEST PUSH1 0x0 PUSH3 0x53D PUSH3 0x49D JUMP JUMPDEST SWAP1 POP PUSH3 0x54B DUP3 DUP3 PUSH3 0x4FB JUMP JUMPDEST SWAP2 SWAP1 POP JUMP JUMPDEST PUSH1 0x0 PUSH8 0xFFFFFFFFFFFFFFFF DUP3 GT ISZERO PUSH3 0x56E JUMPI PUSH3 0x56D PUSH3 0x4CC JUMP JUMPDEST JUMPDEST PUSH3 0x579 DUP3 PUSH3 0x4BB JUMP JUMPDEST SWAP1 POP PUSH1 0x20 DUP2 ADD SWAP1 POP SWAP2 SWAP1 POP JUMP JUMPDEST DUP3 DUP2 DUP4 CALLDATACOPY PUSH1 0x0 DUP4 DUP4 ADD MSTORE POP POP POP JUMP JUMPDEST PUSH1 0x0 PUSH3 0x5AC PUSH3 0x5A6 DUP5 PUSH3 0x550 JUMP JUMPDEST PUSH3 0x531 JUMP JUMPDEST SWAP1 POP DUP3 DUP2 MSTORE PUSH1 0x20 DUP2 ADD DUP5 DUP5 DUP5 ADD GT ISZERO PUSH3 0x5CB JUMPI PUSH3 0x5CA PUSH3 0x4B6 JUMP JUMPDEST JUMPDEST PUSH3 0x5D8 DUP5 DUP3 DUP6 PUSH3 0x586 JUMP JUMPDEST POP SWAP4 SWAP3 POP POP POP JUMP JUMPDEST PUSH1 0x0 DUP3 PUSH1 0x1F DUP4 ADD SLT PUSH3 0x5F8 JUMPI PUSH3 0x5F7 PUSH3 0x4B1 JUMP JUMPDEST JUMPDEST DUP2 CALLDATALOAD PUSH3 0x60A DUP5 DUP3 PUSH1 0x20 DUP7 ADD PUSH3 0x595 JUMP JUMPDEST SWAP2 POP POP SWAP3 SWAP2 POP POP JUMP JUMPDEST PUSH1 0x0 DUP2 SWAP1 POP SWAP2 SWAP1 POP JUMP JUMPDEST PUSH3 0x628 DUP2 PUSH3 0x613 JUMP JUMPDEST DUP2 EQ PUSH3 0x634 JUMPI PUSH1 0x0 DUP1 REVERT JUMPDEST POP JUMP JUMPDEST PUSH1 0x0 DUP2 CALLDATALOAD SWAP1 POP PUSH3 0x648 DUP2 PUSH3 0x61D JUMP JUMPDEST SWAP3 SWAP2 POP POP JUMP JUMPDEST PUSH1 0x0 PUSH20 0xFFFFFFFFFFFFFFFFFFFFFFFFFFFFFFFFFFFFFFFF DUP3 AND SWAP1 POP SWAP2 SWAP1 POP JUMP JUMPDEST PUSH1 0x0 PUSH3 0x67B DUP3 PUSH3 0x64E JUMP JUMPDEST SWAP1 POP SWAP2 SWAP1 POP JUMP JUMPDEST PUSH3 0x68D DUP2 PUSH3 0x66E JUMP JUMPDEST DUP2 EQ PUSH3 0x699 JUMPI PUSH1 0x0 DUP1 REVERT JUMPDEST POP JUMP JUMPDEST PUSH1 0x0 DUP2 CALLDATALOAD SWAP1 POP PUSH3 0x6AD DUP2 PUSH3 0x682 JUMP JUMPDEST SWAP3 SWAP2 POP POP JUMP JUMPDEST PUSH1 0x0 DUP1 PUSH1 0x0 PUSH1 0x60 DUP5 DUP7 SUB SLT ISZERO PUSH3 0x6CF JUMPI PUSH3 0x6CE PUSH3 0x4A7 JUMP JUMPDEST JUMPDEST PUSH1 0x0 DUP5 ADD CALLDATALOAD PUSH8 0xFFFFFFFFFFFFFFFF DUP2 GT ISZERO PUSH3 0x6F0 JUMPI PUSH3 0x6EF PUSH3 0x4AC JUMP JUMPDEST JUMPDEST PUSH3 0x6FE DUP7 DUP3 DUP8 ADD PUSH3 0x5E0 JUMP JUMPDEST SWAP4 POP POP PUSH1 0x20 PUSH3 0x711 DUP7 DUP3 DUP8 ADD PUSH3 0x637 JUMP JUMPDEST SWAP3 POP POP PUSH1 0x40 PUSH3 0x724 DUP7 DUP3 DUP8 ADD PUSH3 0x69C JUMP JUMPDEST SWAP2 POP POP SWAP3 POP SWAP3 POP SWAP3 JUMP JUMPDEST PUSH1 0x0 PUSH1 0x20 DUP3 DUP5 SUB SLT ISZERO PUSH3 0x747 JUMPI PUSH3 0x746 PUSH3 0x4A7 JUMP JUMPDEST JUMPDEST PUSH1 0x0 PUSH3 0x757 DUP5 DUP3 DUP6 ADD PUSH3 0x637 JUMP JUMPDEST SWAP2 POP POP SWAP3 SWAP2 POP POP JUMP JUMPDEST PUSH1 0x0 DUP2 SWAP1 POP SWAP2 SWAP1 POP JUMP JUMPDEST PUSH1 0x0 PUSH3 0x78B PUSH3 0x785 PUSH3 0x77F DUP5 PUSH3 0x64E JUMP JUMPDEST PUSH3 0x760 JUMP JUMPDEST PUSH3 0x64E JUMP JUMPDEST SWAP1 POP SWAP2 SWAP1 POP JUMP JUMPDEST PUSH1 0x0 PUSH3 0x79F DUP3 PUSH3 0x76A JUMP JUMPDEST SWAP1 POP SWAP2 SWAP1 POP JUMP JUMPDEST PUSH1 0x0 PUSH3 0x7B3 DUP3 PUSH3 0x792 JUMP JUMPDEST SWAP1 POP SWAP2 SWAP1 POP JUMP JUMPDEST PUSH3 0x7C5 DUP2 PUSH3 0x7A6 JUMP JUMPDEST DUP3 MSTORE POP POP JUMP JUMPDEST PUSH1 0x0 PUSH1 0x20 DUP3 ADD SWAP1 POP PUSH3 0x7E2 PUSH1 0x0 DUP4 ADD DUP5 PUSH3 0x7BA JUMP JUMPDEST SWAP3 SWAP2 POP POP JUMP JUMPDEST PUSH1 0x0 PUSH3 0x7F5 DUP3 PUSH3 0x64E JUMP JUMPDEST SWAP1 POP SWAP2 SWAP1 POP JUMP JUMPDEST PUSH3 0x807 DUP2 PUSH3 0x7E8 JUMP JUMPDEST DUP3 MSTORE POP POP JUMP JUMPDEST PUSH1 0x0 PUSH1 0x20 DUP3 ADD SWAP1 POP PUSH3 0x824 PUSH1 0x0 DUP4 ADD DUP5 PUSH3 0x7FC JUMP JUMPDEST SWAP3 SWAP2 POP POP JUMP JUMPDEST PUSH1 0x0 DUP3 DUP3 MSTORE PUSH1 0x20 DUP3 ADD SWAP1 POP SWAP3 SWAP2 POP POP JUMP JUMPDEST PUSH32 0x796F752063616E27742072657175657374206C657373206D6F6E657900000000 PUSH1 0x0 DUP3 ADD MSTORE POP JUMP JUMPDEST PUSH1 0x0 PUSH3 0x873 PUSH1 0x1C DUP4 PUSH3 0x82A JUMP JUMPDEST SWAP2 POP PUSH3 0x880 DUP3 PUSH3 0x83B JUMP JUMPDEST PUSH1 0x20 DUP3 ADD SWAP1 POP SWAP2 SWAP1 POP JUMP JUMPDEST PUSH1 0x0 PUSH1 0x20 DUP3 ADD SWAP1 POP DUP2 DUP2 SUB PUSH1 0x0 DUP4 ADD MSTORE PUSH3 0x8A6 DUP2 PUSH3 0x864 JUMP JUMPDEST SWAP1 POP SWAP2 SWAP1 POP JUMP JUMPDEST PUSH1 0x0 PUSH3 0x8BA DUP3 PUSH3 0x7E8 JUMP JUMPDEST SWAP1 POP SWAP2 SWAP1 POP JUMP JUMPDEST PUSH3 0x8CC DUP2 PUSH3 0x8AD JUMP JUMPDEST DUP2 EQ PUSH3 0x8D8 JUMPI PUSH1 0x0 DUP1 REVERT JUMPDEST POP JUMP JUMPDEST PUSH1 0x0 DUP2 MLOAD SWAP1 POP PUSH3 0x8EC DUP2 PUSH3 0x8C1 JUMP JUMPDEST SWAP3 SWAP2 POP POP JUMP JUMPDEST PUSH1 0x0 PUSH1 0x20 DUP3 DUP5 SUB SLT ISZERO PUSH3 0x90B JUMPI PUSH3 0x90A PUSH3 0x4A7 JUMP JUMPDEST JUMPDEST PUSH1 0x0 PUSH3 0x91B DUP5 DUP3 DUP6 ADD PUSH3 0x8DB JUMP JUMPDEST SWAP2 POP POP SWAP3 SWAP2 POP POP JUMP JUMPDEST PUSH1 0x0 DUP2 MLOAD SWAP1 POP PUSH3 0x935 DUP2 PUSH3 0x61D JUMP JUMPDEST SWAP3 SWAP2 POP POP JUMP JUMPDEST PUSH1 0x0 PUSH1 0x20 DUP3 DUP5 SUB SLT ISZERO PUSH3 0x954 JUMPI PUSH3 0x953 PUSH3 0x4A7 JUMP JUMPDEST JUMPDEST PUSH1 0x0 PUSH3 0x964 DUP5 DUP3 DUP6 ADD PUSH3 0x924 JUMP JUMPDEST SWAP2 POP POP SWAP3 SWAP2 POP POP JUMP JUMPDEST PUSH32 0x796F75206172652062616E6E6564000000000000000000000000000000000000 PUSH1 0x0 DUP3 ADD MSTORE POP JUMP JUMPDEST PUSH1 0x0 PUSH3 0x9A5 PUSH1 0xE DUP4 PUSH3 0x82A JUMP JUMPDEST SWAP2 POP PUSH3 0x9B2 DUP3 PUSH3 0x96D JUMP JUMPDEST PUSH1 0x20 DUP3 ADD SWAP1 POP SWAP2 SWAP1 POP JUMP JUMPDEST PUSH1 0x0 PUSH1 0x20 DUP3 ADD SWAP1 POP DUP2 DUP2 SUB PUSH1 0x0 DUP4 ADD MSTORE PUSH3 0x9D8 DUP2 PUSH3 0x996 JUMP JUMPDEST SWAP1 POP SWAP2 SWAP1 POP JUMP JUMPDEST PUSH1 0x0 DUP2 ISZERO ISZERO SWAP1 POP SWAP2 SWAP1 POP JUMP JUMPDEST PUSH3 0x9F6 DUP2 PUSH3 0x9DF JUMP JUMPDEST DUP2 EQ PUSH3 0xA02 JUMPI PUSH1 0x0 DUP1 REVERT JUMPDEST POP JUMP JUMPDEST PUSH1 0x0 DUP2 MLOAD SWAP1 POP PUSH3 0xA16 DUP2 PUSH3 0x9EB JUMP JUMPDEST SWAP3 SWAP2 POP POP JUMP JUMPDEST PUSH1 0x0 PUSH1 0x20 DUP3 DUP5 SUB SLT ISZERO PUSH3 0xA35 JUMPI PUSH3 0xA34 PUSH3 0x4A7 JUMP JUMPDEST JUMPDEST PUSH1 0x0 PUSH3 0xA45 DUP5 DUP3 DUP6 ADD PUSH3 0xA05 JUMP JUMPDEST SWAP2 POP POP SWAP3 SWAP2 POP POP JUMP JUMPDEST PUSH32 0x796F75206861766520616C726561647920726571756573746564000000000000 PUSH1 0x0 DUP3 ADD MSTORE POP JUMP JUMPDEST PUSH1 0x0 PUSH3 0xA86 PUSH1 0x1A DUP4 PUSH3 0x82A JUMP JUMPDEST SWAP2 POP PUSH3 0xA93 DUP3 PUSH3 0xA4E JUMP JUMPDEST PUSH1 0x20 DUP3 ADD SWAP1 POP SWAP2 SWAP1 POP JUMP JUMPDEST PUSH1 0x0 PUSH1 0x20 DUP3 ADD SWAP1 POP DUP2 DUP2 SUB PUSH1 0x0 DUP4 ADD MSTORE PUSH3 0xAB9 DUP2 PUSH3 0xA77 JUMP JUMPDEST SWAP1 POP SWAP2 SWAP1 POP JUMP JUMPDEST PUSH1 0x0 DUP2 MLOAD SWAP1 POP SWAP2 SWAP1 POP JUMP JUMPDEST PUSH1 0x0 JUMPDEST DUP4 DUP2 LT ISZERO PUSH3 0xAEB JUMPI DUP1 DUP3 ADD MLOAD DUP2 DUP5 ADD MSTORE PUSH1 0x20 DUP2 ADD SWAP1 POP PUSH3 0xACE JUMP JUMPDEST DUP4 DUP2 GT ISZERO PUSH3 0xAFB JUMPI PUSH1 0x0 DUP5 DUP5 ADD MSTORE JUMPDEST POP POP POP POP JUMP JUMPDEST PUSH1 0x0 PUSH3 0xB0E DUP3 PUSH3 0xAC0 JUMP JUMPDEST PUSH3 0xB1A DUP2 DUP6 PUSH3 0x82A JUMP JUMPDEST SWAP4 POP PUSH3 0xB2C DUP2 DUP6 PUSH1 0x20 DUP7 ADD PUSH3 0xACB JUMP JUMPDEST PUSH3 0xB37 DUP2 PUSH3 0x4BB JUMP JUMPDEST DUP5 ADD SWAP2 POP POP SWAP3 SWAP2 POP POP JUMP JUMPDEST PUSH3 0xB4D DUP2 PUSH3 0x613 JUMP JUMPDEST DUP3 MSTORE POP POP JUMP JUMPDEST PUSH3 0xB5E DUP2 PUSH3 0x66E JUMP JUMPDEST DUP3 MSTORE POP POP JUMP JUMPDEST PUSH1 0x0 PUSH3 0xB71 DUP3 PUSH3 0x792 JUMP JUMPDEST SWAP1 POP SWAP2 SWAP1 POP JUMP JUMPDEST PUSH3 0xB83 DUP2 PUSH3 0xB64 JUMP JUMPDEST DUP3 MSTORE POP POP JUMP JUMPDEST PUSH1 0x0 PUSH1 0x80 DUP3 ADD SWAP1 POP DUP2 DUP2 SUB PUSH1 0x0 DUP4 ADD MSTORE PUSH3 0xBA5 DUP2 DUP8 PUSH3 0xB01 JUMP JUMPDEST SWAP1 POP PUSH3 0xBB6 PUSH1 0x20 DUP4 ADD DUP7 PUSH3 0xB42 JUMP JUMPDEST PUSH3 0xBC5 PUSH1 0x40 DUP4 ADD DUP6 PUSH3 0xB53 JUMP JUMPDEST PUSH3 0xBD4 PUSH1 0x60 DUP4 ADD DUP5 PUSH3 0xB78 JUMP JUMPDEST SWAP6 SWAP5 POP POP POP POP POP JUMP INVALID PUSH1 0x80 PUSH1 0x40 MSTORE CALLVALUE DUP1 ISZERO PUSH3 0x11 JUMPI PUSH1 0x0 DUP1 REVERT JUMPDEST POP PUSH1 0x40 MLOAD PUSH3 0x175D CODESIZE SUB DUP1 PUSH3 0x175D DUP4 CODECOPY DUP2 DUP2 ADD PUSH1 0x40 MSTORE DUP2 ADD SWAP1 PUSH3 0x37 SWAP2 SWAP1 PUSH3 0x428 JUMP JUMPDEST DUP4 PUSH1 0x1 SWAP1 DUP1 MLOAD SWAP1 PUSH1 0x20 ADD SWAP1 PUSH3 0x4F SWAP3 SWAP2 SWAP1 PUSH3 0xE2 JUMP JUMPDEST POP DUP3 PUSH1 0x2 DUP2 SWAP1 SSTORE POP DUP2 PUSH1 0x3 PUSH1 0x0 PUSH2 0x100 EXP DUP2 SLOAD DUP2 PUSH20 0xFFFFFFFFFFFFFFFFFFFFFFFFFFFFFFFFFFFFFFFF MUL NOT AND SWAP1 DUP4 PUSH20 0xFFFFFFFFFFFFFFFFFFFFFFFFFFFFFFFFFFFFFFFF AND MUL OR SWAP1 SSTORE POP DUP1 PUSH1 0x0 DUP1 PUSH2 0x100 EXP DUP2 SLOAD DUP2 PUSH20 0xFFFFFFFFFFFFFFFFFFFFFFFFFFFFFFFFFFFFFFFF MUL NOT AND SWAP1 DUP4 PUSH20 0xFFFFFFFFFFFFFFFFFFFFFFFFFFFFFFFFFFFFFFFF AND MUL OR SWAP1 SSTORE POP POP POP POP POP PUSH3 0x51E JUMP JUMPDEST DUP3 DUP1 SLOAD PUSH3 0xF0 SWAP1 PUSH3 0x4E8 JUMP JUMPDEST SWAP1 PUSH1 0x0 MSTORE PUSH1 0x20 PUSH1 0x0 KECCAK256 SWAP1 PUSH1 0x1F ADD PUSH1 0x20 SWAP1 DIV DUP2 ADD SWAP3 DUP3 PUSH3 0x114 JUMPI PUSH1 0x0 DUP6 SSTORE PUSH3 0x160 JUMP JUMPDEST DUP3 PUSH1 0x1F LT PUSH3 0x12F JUMPI DUP1 MLOAD PUSH1 0xFF NOT AND DUP4 DUP1 ADD OR DUP6 SSTORE PUSH3 0x160 JUMP JUMPDEST DUP3 DUP1 ADD PUSH1 0x1 ADD DUP6 SSTORE DUP3 ISZERO PUSH3 0x160 JUMPI SWAP2 DUP3 ADD JUMPDEST DUP3 DUP2 GT ISZERO PUSH3 0x15F JUMPI DUP3 MLOAD DUP3 SSTORE SWAP2 PUSH1 0x20 ADD SWAP2 SWAP1 PUSH1 0x1 ADD SWAP1 PUSH3 0x142 JUMP JUMPDEST JUMPDEST POP SWAP1 POP PUSH3 0x16F SWAP2 SWAP1 PUSH3 0x173 JUMP JUMPDEST POP SWAP1 JUMP JUMPDEST JUMPDEST DUP1 DUP3 GT ISZERO PUSH3 0x18E JUMPI PUSH1 0x0 DUP2 PUSH1 0x0 SWAP1 SSTORE POP PUSH1 0x1 ADD PUSH3 0x174 JUMP JUMPDEST POP SWAP1 JUMP JUMPDEST PUSH1 0x0 PUSH1 0x40 MLOAD SWAP1 POP SWAP1 JUMP JUMPDEST PUSH1 0x0 DUP1 REVERT JUMPDEST PUSH1 0x0 DUP1 REVERT JUMPDEST PUSH1 0x0 DUP1 REVERT JUMPDEST PUSH1 0x0 DUP1 REVERT JUMPDEST PUSH1 0x0 PUSH1 0x1F NOT PUSH1 0x1F DUP4 ADD AND SWAP1 POP SWAP2 SWAP1 POP JUMP JUMPDEST PUSH32 0x4E487B7100000000000000000000000000000000000000000000000000000000 PUSH1 0x0 MSTORE PUSH1 0x41 PUSH1 0x4 MSTORE PUSH1 0x24 PUSH1 0x0 REVERT JUMPDEST PUSH3 0x1FB DUP3 PUSH3 0x1B0 JUMP JUMPDEST DUP2 ADD DUP2 DUP2 LT PUSH8 0xFFFFFFFFFFFFFFFF DUP3 GT OR ISZERO PUSH3 0x21D JUMPI PUSH3 0x21C PUSH3 0x1C1 JUMP JUMPDEST JUMPDEST DUP1 PUSH1 0x40 MSTORE POP POP POP JUMP JUMPDEST PUSH1 0x0 PUSH3 0x232 PUSH3 0x192 JUMP JUMPDEST SWAP1 POP PUSH3 0x240 DUP3 DUP3 PUSH3 0x1F0 JUMP JUMPDEST SWAP2 SWAP1 POP JUMP JUMPDEST PUSH1 0x0 PUSH8 0xFFFFFFFFFFFFFFFF DUP3 GT ISZERO PUSH3 0x263 JUMPI PUSH3 0x262 PUSH3 0x1C1 JUMP JUMPDEST JUMPDEST PUSH3 0x26E DUP3 PUSH3 0x1B0 JUMP JUMPDEST SWAP1 POP PUSH1 0x20 DUP2 ADD SWAP1 POP SWAP2 SWAP1 POP JUMP JUMPDEST PUSH1 0x0 JUMPDEST DUP4 DUP2 LT ISZERO PUSH3 0x29B JUMPI DUP1 DUP3 ADD MLOAD DUP2 DUP5 ADD MSTORE PUSH1 0x20 DUP2 ADD SWAP1 POP PUSH3 0x27E JUMP JUMPDEST DUP4 DUP2 GT ISZERO PUSH3 0x2AB JUMPI PUSH1 0x0 DUP5 DUP5 ADD MSTORE JUMPDEST POP POP POP POP JUMP JUMPDEST PUSH1 0x0 PUSH3 0x2C8 PUSH3 0x2C2 DUP5 PUSH3 0x245 JUMP JUMPDEST PUSH3 0x226 JUMP JUMPDEST SWAP1 POP DUP3 DUP2 MSTORE PUSH1 0x20 DUP2 ADD DUP5 DUP5 DUP5 ADD GT ISZERO PUSH3 0x2E7 JUMPI PUSH3 0x2E6 PUSH3 0x1AB JUMP JUMPDEST JUMPDEST PUSH3 0x2F4 DUP5 DUP3 DUP6 PUSH3 0x27B JUMP JUMPDEST POP SWAP4 SWAP3 POP POP POP JUMP JUMPDEST PUSH1 0x0 DUP3 PUSH1 0x1F DUP4 ADD SLT PUSH3 0x314 JUMPI PUSH3 0x313 PUSH3 0x1A6 JUMP JUMPDEST JUMPDEST DUP2 MLOAD PUSH3 0x326 DUP5 DUP3 PUSH1 0x20 DUP7 ADD PUSH3 0x2B1 JUMP JUMPDEST SWAP2 POP POP SWAP3 SWAP2 POP POP JUMP JUMPDEST PUSH1 0x0 DUP2 SWAP1 POP SWAP2 SWAP1 POP JUMP JUMPDEST PUSH3 0x344 DUP2 PUSH3 0x32F JUMP JUMPDEST DUP2 EQ PUSH3 0x350 JUMPI PUSH1 0x0 DUP1 REVERT JUMPDEST POP JUMP JUMPDEST PUSH1 0x0 DUP2 MLOAD SWAP1 POP PUSH3 0x364 DUP2 PUSH3 0x339 JUMP JUMPDEST SWAP3 SWAP2 POP POP JUMP JUMPDEST PUSH1 0x0 PUSH20 0xFFFFFFFFFFFFFFFFFFFFFFFFFFFFFFFFFFFFFFFF DUP3 AND SWAP1 POP SWAP2 SWAP1 POP JUMP JUMPDEST PUSH1 0x0 PUSH3 0x397 DUP3 PUSH3 0x36A JUMP JUMPDEST SWAP1 POP SWAP2 SWAP1 POP JUMP JUMPDEST PUSH3 0x3A9 DUP2 PUSH3 0x38A JUMP JUMPDEST DUP2 EQ PUSH3 0x3B5 JUMPI PUSH1 0x0 DUP1 REVERT JUMPDEST POP JUMP JUMPDEST PUSH1 0x0 DUP2 MLOAD SWAP1 POP PUSH3 0x3C9 DUP2 PUSH3 0x39E JUMP JUMPDEST SWAP3 SWAP2 POP POP JUMP JUMPDEST PUSH1 0x0 PUSH3 0x3DC DUP3 PUSH3 0x36A JUMP JUMPDEST SWAP1 POP SWAP2 SWAP1 POP JUMP JUMPDEST PUSH1 0x0 PUSH3 0x3F0 DUP3 PUSH3 0x3CF JUMP JUMPDEST SWAP1 POP SWAP2 SWAP1 POP JUMP JUMPDEST PUSH3 0x402 DUP2 PUSH3 0x3E3 JUMP JUMPDEST DUP2 EQ PUSH3 0x40E JUMPI PUSH1 0x0 DUP1 REVERT JUMPDEST POP JUMP JUMPDEST PUSH1 0x0 DUP2 MLOAD SWAP1 POP PUSH3 0x422 DUP2 PUSH3 0x3F7 JUMP JUMPDEST SWAP3 SWAP2 POP POP JUMP JUMPDEST PUSH1 0x0 DUP1 PUSH1 0x0 DUP1 PUSH1 0x80 DUP6 DUP8 SUB SLT ISZERO PUSH3 0x445 JUMPI PUSH3 0x444 PUSH3 0x19C JUMP JUMPDEST JUMPDEST PUSH1 0x0 DUP6 ADD MLOAD PUSH8 0xFFFFFFFFFFFFFFFF DUP2 GT ISZERO PUSH3 0x466 JUMPI PUSH3 0x465 PUSH3 0x1A1 JUMP JUMPDEST JUMPDEST PUSH3 0x474 DUP8 DUP3 DUP9 ADD PUSH3 0x2FC JUMP JUMPDEST SWAP5 POP POP PUSH1 0x20 PUSH3 0x487 DUP8 DUP3 DUP9 ADD PUSH3 0x353 JUMP JUMPDEST SWAP4 POP POP PUSH1 0x40 PUSH3 0x49A DUP8 DUP3 DUP9 ADD PUSH3 0x3B8 JUMP JUMPDEST SWAP3 POP POP PUSH1 0x60 PUSH3 0x4AD DUP8 DUP3 DUP9 ADD PUSH3 0x411 JUMP JUMPDEST SWAP2 POP POP SWAP3 SWAP6 SWAP2 SWAP5 POP SWAP3 POP JUMP JUMPDEST PUSH32 0x4E487B7100000000000000000000000000000000000000000000000000000000 PUSH1 0x0 MSTORE PUSH1 0x22 PUSH1 0x4 MSTORE PUSH1 0x24 PUSH1 0x0 REVERT JUMPDEST PUSH1 0x0 PUSH1 0x2 DUP3 DIV SWAP1 POP PUSH1 0x1 DUP3 AND DUP1 PUSH3 0x501 JUMPI PUSH1 0x7F DUP3 AND SWAP2 POP JUMPDEST PUSH1 0x20 DUP3 LT DUP2 EQ ISZERO PUSH3 0x518 JUMPI PUSH3 0x517 PUSH3 0x4B9 JUMP JUMPDEST JUMPDEST POP SWAP2 SWAP1 POP JUMP JUMPDEST PUSH2 0x122F DUP1 PUSH3 0x52E PUSH1 0x0 CODECOPY PUSH1 0x0 RETURN INVALID PUSH1 0x80 PUSH1 0x40 MSTORE PUSH1 0x4 CALLDATASIZE LT PUSH2 0xF3 JUMPI PUSH1 0x0 CALLDATALOAD PUSH1 0xE0 SHR DUP1 PUSH4 0x937E09B1 GT PUSH2 0x8A JUMPI DUP1 PUSH4 0xC236BB22 GT PUSH2 0x59 JUMPI DUP1 PUSH4 0xC236BB22 EQ PUSH2 0x2F8 JUMPI DUP1 PUSH4 0xD5D9CE91 EQ PUSH2 0x323 JUMPI DUP1 PUSH4 0xD7BB99BA EQ PUSH2 0x33A JUMPI DUP1 PUSH4 0xECFD8928 EQ PUSH2 0x344 JUMPI PUSH2 0xF3 JUMP JUMPDEST DUP1 PUSH4 0x937E09B1 EQ PUSH2 0x23A JUMPI DUP1 PUSH4 0xA885BD54 EQ PUSH2 0x265 JUMPI DUP1 PUSH4 0xAA8C217C EQ PUSH2 0x290 JUMPI DUP1 PUSH4 0xAD285CAD EQ PUSH2 0x2BB JUMPI PUSH2 0xF3 JUMP JUMPDEST DUP1 PUSH4 0x1F6D4942 GT PUSH2 0xC6 JUMPI DUP1 PUSH4 0x1F6D4942 EQ PUSH2 0x17C JUMPI DUP1 PUSH4 0x481C6A75 EQ PUSH2 0x1B9 JUMPI DUP1 PUSH4 0x66D003AC EQ PUSH2 0x1E4 JUMPI DUP1 PUSH4 0x7284E416 EQ PUSH2 0x20F JUMPI PUSH2 0xF3 JUMP JUMPDEST DUP1 PUSH4 0x1CF89A8 EQ PUSH2 0xF8 JUMPI DUP1 PUSH4 0x12424E3F EQ PUSH2 0x10F JUMPI DUP1 PUSH4 0x158FBA8F EQ PUSH2 0x126 JUMPI DUP1 PUSH4 0x19D40B08 EQ PUSH2 0x151 JUMPI JUMPDEST PUSH1 0x0 DUP1 REVERT JUMPDEST CALLVALUE DUP1 ISZERO PUSH2 0x104 JUMPI PUSH1 0x0 DUP1 REVERT JUMPDEST POP PUSH2 0x10D PUSH2 0x36F JUMP JUMPDEST STOP JUMPDEST CALLVALUE DUP1 ISZERO PUSH2 0x11B JUMPI PUSH1 0x0 DUP1 REVERT JUMPDEST POP PUSH2 0x124 PUSH2 0x596 JUMP JUMPDEST STOP JUMPDEST CALLVALUE DUP1 ISZERO PUSH2 0x132 JUMPI PUSH1 0x0 DUP1 REVERT JUMPDEST POP PUSH2 0x13B PUSH2 0x69C JUMP JUMPDEST PUSH1 0x40 MLOAD PUSH2 0x148 SWAP2 SWAP1 PUSH2 0xB38 JUMP JUMPDEST PUSH1 0x40 MLOAD DUP1 SWAP2 SUB SWAP1 RETURN JUMPDEST CALLVALUE DUP1 ISZERO PUSH2 0x15D JUMPI PUSH1 0x0 DUP1 REVERT JUMPDEST POP PUSH2 0x166 PUSH2 0x6AF JUMP JUMPDEST PUSH1 0x40 MLOAD PUSH2 0x173 SWAP2 SWAP1 PUSH2 0xB38 JUMP JUMPDEST PUSH1 0x40 MLOAD DUP1 SWAP2 SUB SWAP1 RETURN JUMPDEST CALLVALUE DUP1 ISZERO PUSH2 0x188 JUMPI PUSH1 0x0 DUP1 REVERT JUMPDEST POP PUSH2 0x1A3 PUSH1 0x4 DUP1 CALLDATASIZE SUB DUP2 ADD SWAP1 PUSH2 0x19E SWAP2 SWAP1 PUSH2 0xBB6 JUMP JUMPDEST PUSH2 0x6C2 JUMP JUMPDEST PUSH1 0x40 MLOAD PUSH2 0x1B0 SWAP2 SWAP1 PUSH2 0xB38 JUMP JUMPDEST PUSH1 0x40 MLOAD DUP1 SWAP2 SUB SWAP1 RETURN JUMPDEST CALLVALUE DUP1 ISZERO PUSH2 0x1C5 JUMPI PUSH1 0x0 DUP1 REVERT JUMPDEST POP PUSH2 0x1CE PUSH2 0x6E2 JUMP JUMPDEST PUSH1 0x40 MLOAD PUSH2 0x1DB SWAP2 SWAP1 PUSH2 0xC42 JUMP JUMPDEST PUSH1 0x40 MLOAD DUP1 SWAP2 SUB SWAP1 RETURN JUMPDEST CALLVALUE DUP1 ISZERO PUSH2 0x1F0 JUMPI PUSH1 0x0 DUP1 REVERT JUMPDEST POP PUSH2 0x1F9 PUSH2 0x706 JUMP JUMPDEST PUSH1 0x40 MLOAD PUSH2 0x206 SWAP2 SWAP1 PUSH2 0xC7E JUMP JUMPDEST PUSH1 0x40 MLOAD DUP1 SWAP2 SUB SWAP1 RETURN JUMPDEST CALLVALUE DUP1 ISZERO PUSH2 0x21B JUMPI PUSH1 0x0 DUP1 REVERT JUMPDEST POP PUSH2 0x224 PUSH2 0x72C JUMP JUMPDEST PUSH1 0x40 MLOAD PUSH2 0x231 SWAP2 SWAP1 PUSH2 0xD32 JUMP JUMPDEST PUSH1 0x40 MLOAD DUP1 SWAP2 SUB SWAP1 RETURN JUMPDEST CALLVALUE DUP1 ISZERO PUSH2 0x246 JUMPI PUSH1 0x0 DUP1 REVERT JUMPDEST POP PUSH2 0x24F PUSH2 0x7BA JUMP JUMPDEST PUSH1 0x40 MLOAD PUSH2 0x25C SWAP2 SWAP1 PUSH2 0xD6D JUMP JUMPDEST PUSH1 0x40 MLOAD DUP1 SWAP2 SUB SWAP1 RETURN JUMPDEST CALLVALUE DUP1 ISZERO PUSH2 0x271 JUMPI PUSH1 0x0 DUP1 REVERT JUMPDEST POP PUSH2 0x27A PUSH2 0x7BF JUMP JUMPDEST PUSH1 0x40 MLOAD PUSH2 0x287 SWAP2 SWAP1 PUSH2 0xD6D JUMP JUMPDEST PUSH1 0x40 MLOAD DUP1 SWAP2 SUB SWAP1 RETURN JUMPDEST CALLVALUE DUP1 ISZERO PUSH2 0x29C JUMPI PUSH1 0x0 DUP1 REVERT JUMPDEST POP PUSH2 0x2A5 PUSH2 0x7C5 JUMP JUMPDEST PUSH1 0x40 MLOAD PUSH2 0x2B2 SWAP2 SWAP1 PUSH2 0xD6D JUMP JUMPDEST PUSH1 0x40 MLOAD DUP1 SWAP2 SUB SWAP1 RETURN JUMPDEST CALLVALUE DUP1 ISZERO PUSH2 0x2C7 JUMPI PUSH1 0x0 DUP1 REVERT JUMPDEST POP PUSH2 0x2E2 PUSH1 0x4 DUP1 CALLDATASIZE SUB DUP2 ADD SWAP1 PUSH2 0x2DD SWAP2 SWAP1 PUSH2 0xBB6 JUMP JUMPDEST PUSH2 0x7CB JUMP JUMPDEST PUSH1 0x40 MLOAD PUSH2 0x2EF SWAP2 SWAP1 PUSH2 0xB38 JUMP JUMPDEST PUSH1 0x40 MLOAD DUP1 SWAP2 SUB SWAP1 RETURN JUMPDEST CALLVALUE DUP1 ISZERO PUSH2 0x304 JUMPI PUSH1 0x0 DUP1 REVERT JUMPDEST POP PUSH2 0x30D PUSH2 0x7EB JUMP JUMPDEST PUSH1 0x40 MLOAD PUSH2 0x31A SWAP2 SWAP1 PUSH2 0xD6D JUMP JUMPDEST PUSH1 0x40 MLOAD DUP1 SWAP2 SUB SWAP1 RETURN JUMPDEST CALLVALUE DUP1 ISZERO PUSH2 0x32F JUMPI PUSH1 0x0 DUP1 REVERT JUMPDEST POP PUSH2 0x338 PUSH2 0x7F1 JUMP JUMPDEST STOP JUMPDEST PUSH2 0x342 PUSH2 0x8F7 JUMP JUMPDEST STOP JUMPDEST CALLVALUE DUP1 ISZERO PUSH2 0x350 JUMPI PUSH1 0x0 DUP1 REVERT JUMPDEST POP PUSH2 0x359 PUSH2 0xB17 JUMP JUMPDEST PUSH1 0x40 MLOAD PUSH2 0x366 SWAP2 SWAP1 PUSH2 0xD6D JUMP JUMPDEST PUSH1 0x40 MLOAD DUP1 SWAP2 SUB SWAP1 RETURN JUMPDEST PUSH1 0x3 PUSH1 0x14 SWAP1 SLOAD SWAP1 PUSH2 0x100 EXP SWAP1 DIV PUSH1 0xFF AND ISZERO DUP1 ISZERO PUSH2 0x399 JUMPI POP PUSH1 0x9 PUSH1 0x0 SWAP1 SLOAD SWAP1 PUSH2 0x100 EXP SWAP1 DIV PUSH1 0xFF AND ISZERO JUMPDEST PUSH2 0x3D8 JUMPI PUSH1 0x40 MLOAD PUSH32 0x8C379A000000000000000000000000000000000000000000000000000000000 DUP2 MSTORE PUSH1 0x4 ADD PUSH2 0x3CF SWAP1 PUSH2 0xDD4 JUMP JUMPDEST PUSH1 0x40 MLOAD DUP1 SWAP2 SUB SWAP1 REVERT JUMPDEST PUSH1 0x4 PUSH1 0x0 CALLER PUSH20 0xFFFFFFFFFFFFFFFFFFFFFFFFFFFFFFFFFFFFFFFF AND PUSH20 0xFFFFFFFFFFFFFFFFFFFFFFFFFFFFFFFFFFFFFFFF AND DUP2 MSTORE PUSH1 0x20 ADD SWAP1 DUP2 MSTORE PUSH1 0x20 ADD PUSH1 0x0 KECCAK256 PUSH1 0x0 SWAP1 SLOAD SWAP1 PUSH2 0x100 EXP SWAP1 DIV PUSH1 0xFF AND PUSH2 0x464 JUMPI PUSH1 0x40 MLOAD PUSH32 0x8C379A000000000000000000000000000000000000000000000000000000000 DUP2 MSTORE PUSH1 0x4 ADD PUSH2 0x45B SWAP1 PUSH2 0xE40 JUMP JUMPDEST PUSH1 0x40 MLOAD DUP1 SWAP2 SUB SWAP1 REVERT JUMPDEST PUSH1 0x7 PUSH1 0x0 CALLER PUSH20 0xFFFFFFFFFFFFFFFFFFFFFFFFFFFFFFFFFFFFFFFF AND PUSH20 0xFFFFFFFFFFFFFFFFFFFFFFFFFFFFFFFFFFFFFFFF AND DUP2 MSTORE PUSH1 0x20 ADD SWAP1 DUP2 MSTORE PUSH1 0x20 ADD PUSH1 0x0 KECCAK256 PUSH1 0x0 SWAP1 SLOAD SWAP1 PUSH2 0x100 EXP SWAP1 DIV PUSH1 0xFF AND ISZERO PUSH2 0x4F1 JUMPI PUSH1 0x40 MLOAD PUSH32 0x8C379A000000000000000000000000000000000000000000000000000000000 DUP2 MSTORE PUSH1 0x4 ADD PUSH2 0x4E8 SWAP1 PUSH2 0xEAC JUMP JUMPDEST PUSH1 0x40 MLOAD DUP1 SWAP2 SUB SWAP1 REVERT JUMPDEST PUSH1 0x1 PUSH1 0x7 PUSH1 0x0 CALLER PUSH20 0xFFFFFFFFFFFFFFFFFFFFFFFFFFFFFFFFFFFFFFFF AND PUSH20 0xFFFFFFFFFFFFFFFFFFFFFFFFFFFFFFFFFFFFFFFF AND DUP2 MSTORE PUSH1 0x20 ADD SWAP1 DUP2 MSTORE PUSH1 0x20 ADD PUSH1 0x0 KECCAK256 PUSH1 0x0 PUSH2 0x100 EXP DUP2 SLOAD DUP2 PUSH1 0xFF MUL NOT AND SWAP1 DUP4 ISZERO ISZERO MUL OR SWAP1 SSTORE POP PUSH1 0x8 PUSH1 0x0 DUP2 SLOAD DUP1 SWAP3 SWAP2 SWAP1 PUSH2 0x55C SWAP1 PUSH2 0xEFB JUMP JUMPDEST SWAP2 SWAP1 POP SSTORE POP PUSH1 0x0 PUSH1 0x64 PUSH1 0x5 SLOAD PUSH1 0x8 SLOAD PUSH2 0x575 SWAP2 SWAP1 PUSH2 0xF73 JUMP JUMPDEST PUSH2 0x57F SWAP2 SWAP1 PUSH2 0xFA4 JUMP JUMPDEST SWAP1 POP PUSH1 0x5A DUP2 GT ISZERO PUSH2 0x593 JUMPI PUSH2 0x592 PUSH2 0x7F1 JUMP JUMPDEST JUMPDEST POP JUMP JUMPDEST PUSH1 0x3 PUSH1 0x0 SWAP1 SLOAD SWAP1 PUSH2 0x100 EXP SWAP1 DIV PUSH20 0xFFFFFFFFFFFFFFFFFFFFFFFFFFFFFFFFFFFFFFFF AND PUSH20 0xFFFFFFFFFFFFFFFFFFFFFFFFFFFFFFFFFFFFFFFF AND PUSH2 0x8FC SELFBALANCE SWAP1 DUP2 ISZERO MUL SWAP1 PUSH1 0x40 MLOAD PUSH1 0x0 PUSH1 0x40 MLOAD DUP1 DUP4 SUB DUP2 DUP6 DUP9 DUP9 CALL SWAP4 POP POP POP POP ISZERO DUP1 ISZERO PUSH2 0x5FE JUMPI RETURNDATASIZE PUSH1 0x0 DUP1 RETURNDATACOPY RETURNDATASIZE PUSH1 0x0 REVERT JUMPDEST POP PUSH1 0x1 PUSH1 0x3 PUSH1 0x14 PUSH2 0x100 EXP DUP2 SLOAD DUP2 PUSH1 0xFF MUL NOT AND SWAP1 DUP4 ISZERO ISZERO MUL OR SWAP1 SSTORE POP PUSH1 0x0 DUP1 SLOAD SWAP1 PUSH2 0x100 EXP SWAP1 DIV PUSH20 0xFFFFFFFFFFFFFFFFFFFFFFFFFFFFFFFFFFFFFFFF AND PUSH20 0xFFFFFFFFFFFFFFFFFFFFFFFFFFFFFFFFFFFFFFFF AND PUSH4 0x2CFF5C5 PUSH1 0x40 MLOAD DUP2 PUSH4 0xFFFFFFFF AND PUSH1 0xE0 SHL DUP2 MSTORE PUSH1 0x4 ADD PUSH1 0x0 PUSH1 0x40 MLOAD DUP1 DUP4 SUB DUP2 PUSH1 0x0 DUP8 DUP1 EXTCODESIZE ISZERO DUP1 ISZERO PUSH2 0x682 JUMPI PUSH1 0x0 DUP1 REVERT JUMPDEST POP GAS CALL ISZERO DUP1 ISZERO PUSH2 0x696 JUMPI RETURNDATASIZE PUSH1 0x0 DUP1 RETURNDATACOPY RETURNDATASIZE PUSH1 0x0 REVERT JUMPDEST POP POP POP POP JUMP JUMPDEST PUSH1 0x9 PUSH1 0x0 SWAP1 SLOAD SWAP1 PUSH2 0x100 EXP SWAP1 DIV PUSH1 0xFF AND DUP2 JUMP JUMPDEST PUSH1 0x3 PUSH1 0x14 SWAP1 SLOAD SWAP1 PUSH2 0x100 EXP SWAP1 DIV PUSH1 0xFF AND DUP2 JUMP JUMPDEST PUSH1 0x4 PUSH1 0x20 MSTORE DUP1 PUSH1 0x0 MSTORE PUSH1 0x40 PUSH1 0x0 KECCAK256 PUSH1 0x0 SWAP2 POP SLOAD SWAP1 PUSH2 0x100 EXP SWAP1 DIV PUSH1 0xFF AND DUP2 JUMP JUMPDEST PUSH1 0x0 DUP1 SLOAD SWAP1 PUSH2 0x100 EXP SWAP1 DIV PUSH20 0xFFFFFFFFFFFFFFFFFFFFFFFFFFFFFFFFFFFFFFFF AND DUP2 JUMP JUMPDEST PUSH1 0x3 PUSH1 0x0 SWAP1 SLOAD SWAP1 PUSH2 0x100 EXP SWAP1 DIV PUSH20 0xFFFFFFFFFFFFFFFFFFFFFFFFFFFFFFFFFFFFFFFF AND DUP2 JUMP JUMPDEST PUSH1 0x1 DUP1 SLOAD PUSH2 0x739 SWAP1 PUSH2 0x102D JUMP JUMPDEST DUP1 PUSH1 0x1F ADD PUSH1 0x20 DUP1 SWAP2 DIV MUL PUSH1 0x20 ADD PUSH1 0x40 MLOAD SWAP1 DUP2 ADD PUSH1 0x40 MSTORE DUP1 SWAP3 SWAP2 SWAP1 DUP2 DUP2 MSTORE PUSH1 0x20 ADD DUP3 DUP1 SLOAD PUSH2 0x765 SWAP1 PUSH2 0x102D JUMP JUMPDEST DUP1 ISZERO PUSH2 0x7B2 JUMPI DUP1 PUSH1 0x1F LT PUSH2 0x787 JUMPI PUSH2 0x100 DUP1 DUP4 SLOAD DIV MUL DUP4 MSTORE SWAP2 PUSH1 0x20 ADD SWAP2 PUSH2 0x7B2 JUMP JUMPDEST DUP3 ADD SWAP2 SWAP1 PUSH1 0x0 MSTORE PUSH1 0x20 PUSH1 0x0 KECCAK256 SWAP1 JUMPDEST DUP2 SLOAD DUP2 MSTORE SWAP1 PUSH1 0x1 ADD SWAP1 PUSH1 0x20 ADD DUP1 DUP4 GT PUSH2 0x795 JUMPI DUP3 SWAP1 SUB PUSH1 0x1F AND DUP3 ADD SWAP2 JUMPDEST POP POP POP POP POP DUP2 JUMP JUMPDEST PUSH1 0x64 DUP2 JUMP JUMPDEST PUSH1 0x8 SLOAD DUP2 JUMP JUMPDEST PUSH1 0x2 SLOAD DUP2 JUMP JUMPDEST PUSH1 0x7 PUSH1 0x20 MSTORE DUP1 PUSH1 0x0 MSTORE PUSH1 0x40 PUSH1 0x0 KECCAK256 PUSH1 0x0 SWAP2 POP SLOAD SWAP1 PUSH2 0x100 EXP SWAP1 DIV PUSH1 0xFF AND DUP2 JUMP JUMPDEST PUSH1 0x6 SLOAD DUP2 JUMP JUMPDEST PUSH1 0x3 PUSH1 0x14 SWAP1 SLOAD SWAP1 PUSH2 0x100 EXP SWAP1 DIV PUSH1 0xFF AND ISZERO DUP1 ISZERO PUSH2 0x81B JUMPI POP PUSH1 0x9 PUSH1 0x0 SWAP1 SLOAD SWAP1 PUSH2 0x100 EXP SWAP1 DIV PUSH1 0xFF AND ISZERO JUMPDEST PUSH2 0x85A JUMPI PUSH1 0x40 MLOAD PUSH32 0x8C379A000000000000000000000000000000000000000000000000000000000 DUP2 MSTORE PUSH1 0x4 ADD PUSH2 0x851 SWAP1 PUSH2 0xDD4 JUMP JUMPDEST PUSH1 0x40 MLOAD DUP1 SWAP2 SUB SWAP1 REVERT JUMPDEST PUSH1 0x0 DUP1 SLOAD SWAP1 PUSH2 0x100 EXP SWAP1 DIV PUSH20 0xFFFFFFFFFFFFFFFFFFFFFFFFFFFFFFFFFFFFFFFF AND PUSH20 0xFFFFFFFFFFFFFFFFFFFFFFFFFFFFFFFFFFFFFFFF AND PUSH4 0xCB6FF4A3 PUSH1 0x40 MLOAD DUP2 PUSH4 0xFFFFFFFF AND PUSH1 0xE0 SHL DUP2 MSTORE PUSH1 0x4 ADD PUSH1 0x0 PUSH1 0x40 MLOAD DUP1 DUP4 SUB DUP2 PUSH1 0x0 DUP8 DUP1 EXTCODESIZE ISZERO DUP1 ISZERO PUSH2 0x8C2 JUMPI PUSH1 0x0 DUP1 REVERT JUMPDEST POP GAS CALL ISZERO DUP1 ISZERO PUSH2 0x8D6 JUMPI RETURNDATASIZE PUSH1 0x0 DUP1 RETURNDATACOPY RETURNDATASIZE PUSH1 0x0 REVERT JUMPDEST POP POP POP POP PUSH1 0x1 PUSH1 0x9 PUSH1 0x0 PUSH2 0x100 EXP DUP2 SLOAD DUP2 PUSH1 0xFF MUL NOT AND SWAP1 DUP4 ISZERO ISZERO MUL OR SWAP1 SSTORE POP JUMP JUMPDEST PUSH1 0x3 PUSH1 0x14 SWAP1 SLOAD SWAP1 PUSH2 0x100 EXP SWAP1 DIV PUSH1 0xFF AND ISZERO DUP1 ISZERO PUSH2 0x921 JUMPI POP PUSH1 0x9 PUSH1 0x0 SWAP1 SLOAD SWAP1 PUSH2 0x100 EXP SWAP1 DIV PUSH1 0xFF AND ISZERO JUMPDEST PUSH2 0x960 JUMPI PUSH1 0x40 MLOAD PUSH32 0x8C379A000000000000000000000000000000000000000000000000000000000 DUP2 MSTORE PUSH1 0x4 ADD PUSH2 0x957 SWAP1 PUSH2 0xDD4 JUMP JUMPDEST PUSH1 0x40 MLOAD DUP1 SWAP2 SUB SWAP1 REVERT JUMPDEST PUSH1 0x64 CALLVALUE LT ISZERO PUSH2 0x9A4 JUMPI PUSH1 0x40 MLOAD PUSH32 0x8C379A000000000000000000000000000000000000000000000000000000000 DUP2 MSTORE PUSH1 0x4 ADD PUSH2 0x99B SWAP1 PUSH2 0x10AB JUMP JUMPDEST PUSH1 0x40 MLOAD DUP1 SWAP2 SUB SWAP1 REVERT JUMPDEST PUSH1 0x9 PUSH1 0x0 SWAP1 SLOAD SWAP1 PUSH2 0x100 EXP SWAP1 DIV PUSH1 0xFF AND ISZERO PUSH2 0x9F4 JUMPI PUSH1 0x40 MLOAD PUSH32 0x8C379A000000000000000000000000000000000000000000000000000000000 DUP2 MSTORE PUSH1 0x4 ADD PUSH2 0x9EB SWAP1 PUSH2 0x1117 JUMP JUMPDEST PUSH1 0x40 MLOAD DUP1 SWAP2 SUB SWAP1 REVERT JUMPDEST PUSH1 0x2 SLOAD PUSH1 0x6 SLOAD LT PUSH2 0xA3A JUMPI PUSH1 0x40 MLOAD PUSH32 0x8C379A000000000000000000000000000000000000000000000000000000000 DUP2 MSTORE PUSH1 0x4 ADD PUSH2 0xA31 SWAP1 PUSH2 0x1183 JUMP JUMPDEST PUSH1 0x40 MLOAD DUP1 SWAP2 SUB SWAP1 REVERT JUMPDEST PUSH1 0x4 PUSH1 0x0 CALLER PUSH20 0xFFFFFFFFFFFFFFFFFFFFFFFFFFFFFFFFFFFFFFFF AND PUSH20 0xFFFFFFFFFFFFFFFFFFFFFFFFFFFFFFFFFFFFFFFF AND DUP2 MSTORE PUSH1 0x20 ADD SWAP1 DUP2 MSTORE PUSH1 0x20 ADD PUSH1 0x0 KECCAK256 PUSH1 0x0 SWAP1 SLOAD SWAP1 PUSH2 0x100 EXP SWAP1 DIV PUSH1 0xFF AND PUSH2 0xAFC JUMPI PUSH1 0x5 PUSH1 0x0 DUP2 SLOAD DUP1 SWAP3 SWAP2 SWAP1 PUSH2 0xA9E SWAP1 PUSH2 0xEFB JUMP JUMPDEST SWAP2 SWAP1 POP SSTORE POP PUSH1 0x1 PUSH1 0x4 PUSH1 0x0 CALLER PUSH20 0xFFFFFFFFFFFFFFFFFFFFFFFFFFFFFFFFFFFFFFFF AND PUSH20 0xFFFFFFFFFFFFFFFFFFFFFFFFFFFFFFFFFFFFFFFF AND DUP2 MSTORE PUSH1 0x20 ADD SWAP1 DUP2 MSTORE PUSH1 0x20 ADD PUSH1 0x0 KECCAK256 PUSH1 0x0 PUSH2 0x100 EXP DUP2 SLOAD DUP2 PUSH1 0xFF MUL NOT AND SWAP1 DUP4 ISZERO ISZERO MUL OR SWAP1 SSTORE POP JUMPDEST CALLVALUE PUSH1 0x6 PUSH1 0x0 DUP3 DUP3 SLOAD PUSH2 0xB0E SWAP2 SWAP1 PUSH2 0x11A3 JUMP JUMPDEST SWAP3 POP POP DUP2 SWAP1 SSTORE POP JUMP JUMPDEST PUSH1 0x5 SLOAD DUP2 JUMP JUMPDEST PUSH1 0x0 DUP2 ISZERO ISZERO SWAP1 POP SWAP2 SWAP1 POP JUMP JUMPDEST PUSH2 0xB32 DUP2 PUSH2 0xB1D JUMP JUMPDEST DUP3 MSTORE POP POP JUMP JUMPDEST PUSH1 0x0 PUSH1 0x20 DUP3 ADD SWAP1 POP PUSH2 0xB4D PUSH1 0x0 DUP4 ADD DUP5 PUSH2 0xB29 JUMP JUMPDEST SWAP3 SWAP2 POP POP JUMP JUMPDEST PUSH1 0x0 DUP1 REVERT JUMPDEST PUSH1 0x0 PUSH20 0xFFFFFFFFFFFFFFFFFFFFFFFFFFFFFFFFFFFFFFFF DUP3 AND SWAP1 POP SWAP2 SWAP1 POP JUMP JUMPDEST PUSH1 0x0 PUSH2 0xB83 DUP3 PUSH2 0xB58 JUMP JUMPDEST SWAP1 POP SWAP2 SWAP1 POP JUMP JUMPDEST PUSH2 0xB93 DUP2 PUSH2 0xB78 JUMP JUMPDEST DUP2 EQ PUSH2 0xB9E JUMPI PUSH1 0x0 DUP1 REVERT JUMPDEST POP JUMP JUMPDEST PUSH1 0x0 DUP2 CALLDATALOAD SWAP1 POP PUSH2 0xBB0 DUP2 PUSH2 0xB8A JUMP JUMPDEST SWAP3 SWAP2 POP POP JUMP JUMPDEST PUSH1 0x0 PUSH1 0x20 DUP3 DUP5 SUB SLT ISZERO PUSH2 0xBCC JUMPI PUSH2 0xBCB PUSH2 0xB53 JUMP JUMPDEST JUMPDEST PUSH1 0x0 PUSH2 0xBDA DUP5 DUP3 DUP6 ADD PUSH2 0xBA1 JUMP JUMPDEST SWAP2 POP POP SWAP3 SWAP2 POP POP JUMP JUMPDEST PUSH1 0x0 DUP2 SWAP1 POP SWAP2 SWAP1 POP JUMP JUMPDEST PUSH1 0x0 PUSH2 0xC08 PUSH2 0xC03 PUSH2 0xBFE DUP5 PUSH2 0xB58 JUMP JUMPDEST PUSH2 0xBE3 JUMP JUMPDEST PUSH2 0xB58 JUMP JUMPDEST SWAP1 POP SWAP2 SWAP1 POP JUMP JUMPDEST PUSH1 0x0 PUSH2 0xC1A DUP3 PUSH2 0xBED JUMP JUMPDEST SWAP1 POP SWAP2 SWAP1 POP JUMP JUMPDEST PUSH1 0x0 PUSH2 0xC2C DUP3 PUSH2 0xC0F JUMP JUMPDEST SWAP1 POP SWAP2 SWAP1 POP JUMP JUMPDEST PUSH2 0xC3C DUP2 PUSH2 0xC21 JUMP JUMPDEST DUP3 MSTORE POP POP JUMP JUMPDEST PUSH1 0x0 PUSH1 0x20 DUP3 ADD SWAP1 POP PUSH2 0xC57 PUSH1 0x0 DUP4 ADD DUP5 PUSH2 0xC33 JUMP JUMPDEST SWAP3 SWAP2 POP POP JUMP JUMPDEST PUSH1 0x0 PUSH2 0xC68 DUP3 PUSH2 0xB58 JUMP JUMPDEST SWAP1 POP SWAP2 SWAP1 POP JUMP JUMPDEST PUSH2 0xC78 DUP2 PUSH2 0xC5D JUMP JUMPDEST DUP3 MSTORE POP POP JUMP JUMPDEST PUSH1 0x0 PUSH1 0x20 DUP3 ADD SWAP1 POP PUSH2 0xC93 PUSH1 0x0 DUP4 ADD DUP5 PUSH2 0xC6F JUMP JUMPDEST SWAP3 SWAP2 POP POP JUMP JUMPDEST PUSH1 0x0 DUP2 MLOAD SWAP1 POP SWAP2 SWAP1 POP JUMP JUMPDEST PUSH1 0x0 DUP3 DUP3 MSTORE PUSH1 0x20 DUP3 ADD SWAP1 POP SWAP3 SWAP2 POP POP JUMP JUMPDEST PUSH1 0x0 JUMPDEST DUP4 DUP2 LT ISZERO PUSH2 0xCD3 JUMPI DUP1 DUP3 ADD MLOAD DUP2 DUP5 ADD MSTORE PUSH1 0x20 DUP2 ADD SWAP1 POP PUSH2 0xCB8 JUMP JUMPDEST DUP4 DUP2 GT ISZERO PUSH2 0xCE2 JUMPI PUSH1 0x0 DUP5 DUP5 ADD MSTORE JUMPDEST POP POP POP POP JUMP JUMPDEST PUSH1 0x0 PUSH1 0x1F NOT PUSH1 0x1F DUP4 ADD AND SWAP1 POP SWAP2 SWAP1 POP JUMP JUMPDEST PUSH1 0x0 PUSH2 0xD04 DUP3 PUSH2 0xC99 JUMP JUMPDEST PUSH2 0xD0E DUP2 DUP6 PUSH2 0xCA4 JUMP JUMPDEST SWAP4 POP PUSH2 0xD1E DUP2 DUP6 PUSH1 0x20 DUP7 ADD PUSH2 0xCB5 JUMP JUMPDEST PUSH2 0xD27 DUP2 PUSH2 0xCE8 JUMP JUMPDEST DUP5 ADD SWAP2 POP POP SWAP3 SWAP2 POP POP JUMP JUMPDEST PUSH1 0x0 PUSH1 0x20 DUP3 ADD SWAP1 POP DUP2 DUP2 SUB PUSH1 0x0 DUP4 ADD MSTORE PUSH2 0xD4C DUP2 DUP5 PUSH2 0xCF9 JUMP JUMPDEST SWAP1 POP SWAP3 SWAP2 POP POP JUMP JUMPDEST PUSH1 0x0 DUP2 SWAP1 POP SWAP2 SWAP1 POP JUMP JUMPDEST PUSH2 0xD67 DUP2 PUSH2 0xD54 JUMP JUMPDEST DUP3 MSTORE POP POP JUMP JUMPDEST PUSH1 0x0 PUSH1 0x20 DUP3 ADD SWAP1 POP PUSH2 0xD82 PUSH1 0x0 DUP4 ADD DUP5 PUSH2 0xD5E JUMP JUMPDEST SWAP3 SWAP2 POP POP JUMP JUMPDEST PUSH32 0x62616E6E6564206F7220636F6D706C6574656400000000000000000000000000 PUSH1 0x0 DUP3 ADD MSTORE POP JUMP JUMPDEST PUSH1 0x0 PUSH2 0xDBE PUSH1 0x13 DUP4 PUSH2 0xCA4 JUMP JUMPDEST SWAP2 POP PUSH2 0xDC9 DUP3 PUSH2 0xD88 JUMP JUMPDEST PUSH1 0x20 DUP3 ADD SWAP1 POP SWAP2 SWAP1 POP JUMP JUMPDEST PUSH1 0x0 PUSH1 0x20 DUP3 ADD SWAP1 POP DUP2 DUP2 SUB PUSH1 0x0 DUP4 ADD MSTORE PUSH2 0xDED DUP2 PUSH2 0xDB1 JUMP JUMPDEST SWAP1 POP SWAP2 SWAP1 POP JUMP JUMPDEST PUSH32 0x796F7520617265206E6F74206120636F6E7472696275746F7200000000000000 PUSH1 0x0 DUP3 ADD MSTORE POP JUMP JUMPDEST PUSH1 0x0 PUSH2 0xE2A PUSH1 0x19 DUP4 PUSH2 0xCA4 JUMP JUMPDEST SWAP2 POP PUSH2 0xE35 DUP3 PUSH2 0xDF4 JUMP JUMPDEST PUSH1 0x20 DUP3 ADD SWAP1 POP SWAP2 SWAP1 POP JUMP JUMPDEST PUSH1 0x0 PUSH1 0x20 DUP3 ADD SWAP1 POP DUP2 DUP2 SUB PUSH1 0x0 DUP4 ADD MSTORE PUSH2 0xE59 DUP2 PUSH2 0xE1D JUMP JUMPDEST SWAP1 POP SWAP2 SWAP1 POP JUMP JUMPDEST PUSH32 0x796F75206861766520616C72656164792062616E6E6564000000000000000000 PUSH1 0x0 DUP3 ADD MSTORE POP JUMP JUMPDEST PUSH1 0x0 PUSH2 0xE96 PUSH1 0x17 DUP4 PUSH2 0xCA4 JUMP JUMPDEST SWAP2 POP PUSH2 0xEA1 DUP3 PUSH2 0xE60 JUMP JUMPDEST PUSH1 0x20 DUP3 ADD SWAP1 POP SWAP2 SWAP1 POP JUMP JUMPDEST PUSH1 0x0 PUSH1 0x20 DUP3 ADD SWAP1 POP DUP2 DUP2 SUB PUSH1 0x0 DUP4 ADD MSTORE PUSH2 0xEC5 DUP2 PUSH2 0xE89 JUMP JUMPDEST SWAP1 POP SWAP2 SWAP1 POP JUMP JUMPDEST PUSH32 0x4E487B7100000000000000000000000000000000000000000000000000000000 PUSH1 0x0 MSTORE PUSH1 0x11 PUSH1 0x4 MSTORE PUSH1 0x24 PUSH1 0x0 REVERT JUMPDEST PUSH1 0x0 PUSH2 0xF06 DUP3 PUSH2 0xD54 JUMP JUMPDEST SWAP2 POP PUSH32 0xFFFFFFFFFFFFFFFFFFFFFFFFFFFFFFFFFFFFFFFFFFFFFFFFFFFFFFFFFFFFFFFF DUP3 EQ ISZERO PUSH2 0xF39 JUMPI PUSH2 0xF38 PUSH2 0xECC JUMP JUMPDEST JUMPDEST PUSH1 0x1 DUP3 ADD SWAP1 POP SWAP2 SWAP1 POP JUMP JUMPDEST PUSH32 0x4E487B7100000000000000000000000000000000000000000000000000000000 PUSH1 0x0 MSTORE PUSH1 0x12 PUSH1 0x4 MSTORE PUSH1 0x24 PUSH1 0x0 REVERT JUMPDEST PUSH1 0x0 PUSH2 0xF7E DUP3 PUSH2 0xD54 JUMP JUMPDEST SWAP2 POP PUSH2 0xF89 DUP4 PUSH2 0xD54 JUMP JUMPDEST SWAP3 POP DUP3 PUSH2 0xF99 JUMPI PUSH2 0xF98 PUSH2 0xF44 JUMP JUMPDEST JUMPDEST DUP3 DUP3 DIV SWAP1 POP SWAP3 SWAP2 POP POP JUMP JUMPDEST PUSH1 0x0 PUSH2 0xFAF DUP3 PUSH2 0xD54 JUMP JUMPDEST SWAP2 POP PUSH2 0xFBA DUP4 PUSH2 0xD54 JUMP JUMPDEST SWAP3 POP DUP2 PUSH32 0xFFFFFFFFFFFFFFFFFFFFFFFFFFFFFFFFFFFFFFFFFFFFFFFFFFFFFFFFFFFFFFFF DIV DUP4 GT DUP3 ISZERO ISZERO AND ISZERO PUSH2 0xFF3 JUMPI PUSH2 0xFF2 PUSH2 0xECC JUMP JUMPDEST JUMPDEST DUP3 DUP3 MUL SWAP1 POP SWAP3 SWAP2 POP POP JUMP JUMPDEST PUSH32 0x4E487B7100000000000000000000000000000000000000000000000000000000 PUSH1 0x0 MSTORE PUSH1 0x22 PUSH1 0x4 MSTORE PUSH1 0x24 PUSH1 0x0 REVERT JUMPDEST PUSH1 0x0 PUSH1 0x2 DUP3 DIV SWAP1 POP PUSH1 0x1 DUP3 AND DUP1 PUSH2 0x1045 JUMPI PUSH1 0x7F DUP3 AND SWAP2 POP JUMPDEST PUSH1 0x20 DUP3 LT DUP2 EQ ISZERO PUSH2 0x1059 JUMPI PUSH2 0x1058 PUSH2 0xFFE JUMP JUMPDEST JUMPDEST POP SWAP2 SWAP1 POP JUMP JUMPDEST PUSH32 0x6C65737320616D6F756E7420646F6E6174656400000000000000000000000000 PUSH1 0x0 DUP3 ADD MSTORE POP JUMP JUMPDEST PUSH1 0x0 PUSH2 0x1095 PUSH1 0x13 DUP4 PUSH2 0xCA4 JUMP JUMPDEST SWAP2 POP PUSH2 0x10A0 DUP3 PUSH2 0x105F JUMP JUMPDEST PUSH1 0x20 DUP3 ADD SWAP1 POP SWAP2 SWAP1 POP JUMP JUMPDEST PUSH1 0x0 PUSH1 0x20 DUP3 ADD SWAP1 POP DUP2 DUP2 SUB PUSH1 0x0 DUP4 ADD MSTORE PUSH2 0x10C4 DUP2 PUSH2 0x1088 JUMP JUMPDEST SWAP1 POP SWAP2 SWAP1 POP JUMP JUMPDEST PUSH32 0x63616E277420646F6E61746520746F2062616E6E656420726571756573740000 PUSH1 0x0 DUP3 ADD MSTORE POP JUMP JUMPDEST PUSH1 0x0 PUSH2 0x1101 PUSH1 0x1E DUP4 PUSH2 0xCA4 JUMP JUMPDEST SWAP2 POP PUSH2 0x110C DUP3 PUSH2 0x10CB JUMP JUMPDEST PUSH1 0x20 DUP3 ADD SWAP1 POP SWAP2 SWAP1 POP JUMP JUMPDEST PUSH1 0x0 PUSH1 0x20 DUP3 ADD SWAP1 POP DUP2 DUP2 SUB PUSH1 0x0 DUP4 ADD MSTORE PUSH2 0x1130 DUP2 PUSH2 0x10F4 JUMP JUMPDEST SWAP1 POP SWAP2 SWAP1 POP JUMP JUMPDEST PUSH32 0x676F616C20616D6F756E74207265616368656400000000000000000000000000 PUSH1 0x0 DUP3 ADD MSTORE POP JUMP JUMPDEST PUSH1 0x0 PUSH2 0x116D PUSH1 0x13 DUP4 PUSH2 0xCA4 JUMP JUMPDEST SWAP2 POP PUSH2 0x1178 DUP3 PUSH2 0x1137 JUMP JUMPDEST PUSH1 0x20 DUP3 ADD SWAP1 POP SWAP2 SWAP1 POP JUMP JUMPDEST PUSH1 0x0 PUSH1 0x20 DUP3 ADD SWAP1 POP DUP2 DUP2 SUB PUSH1 0x0 DUP4 ADD MSTORE PUSH2 0x119C DUP2 PUSH2 0x1160 JUMP JUMPDEST SWAP1 POP SWAP2 SWAP1 POP JUMP JUMPDEST PUSH1 0x0 PUSH2 0x11AE DUP3 PUSH2 0xD54 JUMP JUMPDEST SWAP2 POP PUSH2 0x11B9 DUP4 PUSH2 0xD54 JUMP JUMPDEST SWAP3 POP DUP3 PUSH32 0xFFFFFFFFFFFFFFFFFFFFFFFFFFFFFFFFFFFFFFFFFFFFFFFFFFFFFFFFFFFFFFFF SUB DUP3 GT ISZERO PUSH2 0x11EE JUMPI PUSH2 0x11ED PUSH2 0xECC JUMP JUMPDEST JUMPDEST DUP3 DUP3 ADD SWAP1 POP SWAP3 SWAP2 POP POP JUMP INVALID LOG2 PUSH5 0x6970667358 0x22 SLT KECCAK256 JUMPDEST SWAP1 SLT 0xA6 0x4A STATICCALL SUB 0x2C CHAINID PUSH11 0xCB2C237B19F52571018D69 PUSH17 0xEB3EE8C011D7C1E401264736F6C634300 ADDMOD SIGNEXTEND STOP CALLER LOG2 PUSH5 0x6970667358 0x22 SLT KECCAK256 DIFFICULTY PUSH18 0x8D56FF57890AB5C388E2D857A1D34986564E 0xBF DUP7 DELEGATECALL DUP10 RETURN SWAP12 0xC8 LOG3 BASEFEE CALLDATALOAD 0xE1 STATICCALL PUSH5 0x736F6C6343 STOP ADDMOD SIGNEXTEND STOP CALLER "},"gasEstimates":{"creation":{"codeDepositCost":"1814400","executionCost":"infinite","totalCost":"infinite"},"external":{"addNewRequest(string,uint256,address)":"infinite","managerFactory()":"2533","requests(uint256)":"infinite"}},"methodIdentifiers":{"addNewRequest(string,uint256,address)":"381b1d82","managerFactory()":"d9398c73","requests(uint256)":"81d12c58"}},"storageLayout":{"storage":[{"astId":205,"contract":"Funding.sol:RequestFactory","label":"managerFactory","offset":0,"slot":"0","type":"t_address"},{"astId":209,"contract":"Funding.sol:RequestFactory","label":"requests","offset":0,"slot":"1","type":"t_array(t_contract(Request)497)dyn_storage"}],"types":{"t_address":{"encoding":"inplace","label":"address","numberOfBytes":"20"},"t_array(t_contract(Request)497)dyn_storage":{"base":"t_contract(Request)497","encoding":"dynamic_array","label":"contract Request[]","numberOfBytes":"32"},"t_contract(Request)497":{"encoding":"inplace","label":"contract Request","numberOfBytes":"20"}}},"userdoc":{"kind":"user","methods":{},"version":1}}