{"abi":[{"inputs":[{"internalType":"address","name":"_managerFactory","type":"address"}],"stateMutability":"nonpayable","type":"constructor"},{"inputs":[{"internalType":"string","name":"description","type":"string"},{"internalType":"uint256","name":"amount","type":"uint256"},{"internalType":"address payable","name":"recipient","type":"address"},{"internalType":"uint256","name":"minimumContribution","type":"uint256"}],"name":"addNewRequest","outputs":[],"stateMutability":"nonpayable","type":"function"},{"inputs":[],"name":"managerFactory","outputs":[{"internalType":"address","name":"","type":"address"}],"stateMutability":"view","type":"function"},{"inputs":[{"internalType":"uint256","name":"","type":"uint256"}],"name":"requests","outputs":[{"internalType":"contract Request","name":"","type":"address"}],"stateMutability":"view","type":"function"},{"inputs":[],"name":"requestsSize","outputs":[{"internalType":"uint256","name":"","type":"uint256"}],"stateMutability":"view","type":"function"}],"devdoc":{"kind":"dev","methods":{},"version":1},"evm":{"assembly":"    /* \"Funding.sol\":1746:2807  contract RequestFactory {... */\n  mstore(0x40, 0x80)\n    /* \"Funding.sol\":1929:2017  constructor(address _managerFactory) {... */\n  callvalue\n  dup1\n  iszero\n  tag_1\n  jumpi\n  0x00\n  dup1\n  revert\ntag_1:\n  pop\n  mload(0x40)\n  sub(codesize, bytecodeSize)\n  dup1\n  bytecodeSize\n  dup4\n  codecopy\n  dup2\n  dup2\n  add\n  0x40\n  mstore\n  dup2\n  add\n  swap1\n  tag_2\n  swap2\n  swap1\n  tag_3\n  jump\t// in\ntag_2:\n    /* \"Funding.sol\":1994:2009  _managerFactory */\n  dup1\n    /* \"Funding.sol\":1977:1991  managerFactory */\n  0x00\n  dup1\n    /* \"Funding.sol\":1977:2009  managerFactory = _managerFactory */\n  0x0100\n  exp\n  dup2\n  sload\n  dup2\n  0xffffffffffffffffffffffffffffffffffffffff\n  mul\n  not\n  and\n  swap1\n  dup4\n  0xffffffffffffffffffffffffffffffffffffffff\n  and\n  mul\n  or\n  swap1\n  sstore\n  pop\n    /* \"Funding.sol\":1929:2017  constructor(address _managerFactory) {... */\n  pop\n    /* \"Funding.sol\":1746:2807  contract RequestFactory {... */\n  jump(tag_6)\n    /* \"#utility.yul\":88:205   */\ntag_8:\n    /* \"#utility.yul\":197:198   */\n  0x00\n    /* \"#utility.yul\":194:195   */\n  dup1\n    /* \"#utility.yul\":187:199   */\n  revert\n    /* \"#utility.yul\":334:460   */\ntag_10:\n    /* \"#utility.yul\":371:378   */\n  0x00\n    /* \"#utility.yul\":411:453   */\n  0xffffffffffffffffffffffffffffffffffffffff\n    /* \"#utility.yul\":404:409   */\n  dup3\n    /* \"#utility.yul\":400:454   */\n  and\n    /* \"#utility.yul\":389:454   */\n  swap1\n  pop\n    /* \"#utility.yul\":334:460   */\n  swap2\n  swap1\n  pop\n  jump\t// out\n    /* \"#utility.yul\":466:562   */\ntag_11:\n    /* \"#utility.yul\":503:510   */\n  0x00\n    /* \"#utility.yul\":532:556   */\n  tag_20\n    /* \"#utility.yul\":550:555   */\n  dup3\n    /* \"#utility.yul\":532:556   */\n  tag_10\n  jump\t// in\ntag_20:\n    /* \"#utility.yul\":521:556   */\n  swap1\n  pop\n    /* \"#utility.yul\":466:562   */\n  swap2\n  swap1\n  pop\n  jump\t// out\n    /* \"#utility.yul\":568:690   */\ntag_12:\n    /* \"#utility.yul\":641:665   */\n  tag_22\n    /* \"#utility.yul\":659:664   */\n  dup2\n    /* \"#utility.yul\":641:665   */\n  tag_11\n  jump\t// in\ntag_22:\n    /* \"#utility.yul\":634:639   */\n  dup2\n    /* \"#utility.yul\":631:666   */\n  eq\n    /* \"#utility.yul\":621:684   */\n  tag_23\n  jumpi\n    /* \"#utility.yul\":680:681   */\n  0x00\n    /* \"#utility.yul\":677:678   */\n  dup1\n    /* \"#utility.yul\":670:682   */\n  revert\n    /* \"#utility.yul\":621:684   */\ntag_23:\n    /* \"#utility.yul\":568:690   */\n  pop\n  jump\t// out\n    /* \"#utility.yul\":696:839   */\ntag_13:\n    /* \"#utility.yul\":753:758   */\n  0x00\n    /* \"#utility.yul\":784:790   */\n  dup2\n    /* \"#utility.yul\":778:791   */\n  mload\n    /* \"#utility.yul\":769:791   */\n  swap1\n  pop\n    /* \"#utility.yul\":800:833   */\n  tag_25\n    /* \"#utility.yul\":827:832   */\n  dup2\n    /* \"#utility.yul\":800:833   */\n  tag_12\n  jump\t// in\ntag_25:\n    /* \"#utility.yul\":696:839   */\n  swap3\n  swap2\n  pop\n  pop\n  jump\t// out\n    /* \"#utility.yul\":845:1196   */\ntag_3:\n    /* \"#utility.yul\":915:921   */\n  0x00\n    /* \"#utility.yul\":964:966   */\n  0x20\n    /* \"#utility.yul\":952:961   */\n  dup3\n    /* \"#utility.yul\":943:950   */\n  dup5\n    /* \"#utility.yul\":939:962   */\n  sub\n    /* \"#utility.yul\":935:967   */\n  slt\n    /* \"#utility.yul\":932:1051   */\n  iszero\n  tag_27\n  jumpi\n    /* \"#utility.yul\":970:1049   */\n  tag_28\n  tag_8\n  jump\t// in\ntag_28:\n    /* \"#utility.yul\":932:1051   */\ntag_27:\n    /* \"#utility.yul\":1090:1091   */\n  0x00\n    /* \"#utility.yul\":1115:1179   */\n  tag_29\n    /* \"#utility.yul\":1171:1178   */\n  dup5\n    /* \"#utility.yul\":1162:1168   */\n  dup3\n    /* \"#utility.yul\":1151:1160   */\n  dup6\n    /* \"#utility.yul\":1147:1169   */\n  add\n    /* \"#utility.yul\":1115:1179   */\n  tag_13\n  jump\t// in\ntag_29:\n    /* \"#utility.yul\":1105:1179   */\n  swap2\n  pop\n    /* \"#utility.yul\":1061:1189   */\n  pop\n    /* \"#utility.yul\":845:1196   */\n  swap3\n  swap2\n  pop\n  pop\n  jump\t// out\n    /* \"Funding.sol\":1746:2807  contract RequestFactory {... */\ntag_6:\n  dataSize(sub_0)\n  dup1\n  dataOffset(sub_0)\n  0x00\n  codecopy\n  0x00\n  return\nstop\n\nsub_0: assembly {\n        /* \"Funding.sol\":1746:2807  contract RequestFactory {... */\n      mstore(0x40, 0x80)\n      callvalue\n      dup1\n      iszero\n      tag_1\n      jumpi\n      0x00\n      dup1\n      revert\n    tag_1:\n      pop\n      jumpi(tag_2, lt(calldatasize, 0x04))\n      shr(0xe0, calldataload(0x00))\n      dup1\n      0x552ef0ac\n      eq\n      tag_3\n      jumpi\n      dup1\n      0x81d12c58\n      eq\n      tag_4\n      jumpi\n      dup1\n      0xa2ae2dbe\n      eq\n      tag_5\n      jumpi\n      dup1\n      0xd9398c73\n      eq\n      tag_6\n      jumpi\n    tag_2:\n      0x00\n      dup1\n      revert\n        /* \"Funding.sol\":2025:2703  function addNewRequest(string memory description, uint amount, address payable recipient, uint minimumContribution) public{... */\n    tag_3:\n      tag_7\n      0x04\n      dup1\n      calldatasize\n      sub\n      dup2\n      add\n      swap1\n      tag_8\n      swap2\n      swap1\n      tag_9\n      jump\t// in\n    tag_8:\n      tag_10\n      jump\t// in\n    tag_7:\n      stop\n        /* \"Funding.sol\":1895:1920  Request[] public requests */\n    tag_4:\n      tag_11\n      0x04\n      dup1\n      calldatasize\n      sub\n      dup2\n      add\n      swap1\n      tag_12\n      swap2\n      swap1\n      tag_13\n      jump\t// in\n    tag_12:\n      tag_14\n      jump\t// in\n    tag_11:\n      mload(0x40)\n      tag_15\n      swap2\n      swap1\n      tag_16\n      jump\t// in\n    tag_15:\n      mload(0x40)\n      dup1\n      swap2\n      sub\n      swap1\n      return\n        /* \"Funding.sol\":2711:2804  function requestsSize() external view returns(uint) {... */\n    tag_5:\n      tag_17\n      tag_18\n      jump\t// in\n    tag_17:\n      mload(0x40)\n      tag_19\n      swap2\n      swap1\n      tag_20\n      jump\t// in\n    tag_19:\n      mload(0x40)\n      dup1\n      swap2\n      sub\n      swap1\n      return\n        /* \"Funding.sol\":1857:1886  address public managerFactory */\n    tag_6:\n      tag_21\n      tag_22\n      jump\t// in\n    tag_21:\n      mload(0x40)\n      tag_23\n      swap2\n      swap1\n      tag_24\n      jump\t// in\n    tag_23:\n      mload(0x40)\n      dup1\n      swap2\n      sub\n      swap1\n      return\n        /* \"Funding.sol\":2025:2703  function addNewRequest(string memory description, uint amount, address payable recipient, uint minimumContribution) public{... */\n    tag_10:\n        /* \"Funding.sol\":1845:1848  100 */\n      0x64\n        /* \"Funding.sol\":2166:2172  amount */\n      dup4\n        /* \"Funding.sol\":2166:2189  amount >= minimumAmount */\n      lt\n      iszero\n        /* \"Funding.sol\":2158:2222  require(amount >= minimumAmount, \"you can't request less money\") */\n      tag_26\n      jumpi\n      mload(0x40)\n      0x08c379a000000000000000000000000000000000000000000000000000000000\n      dup2\n      mstore\n      0x04\n      add\n      tag_27\n      swap1\n      tag_28\n      jump\t// in\n    tag_27:\n      mload(0x40)\n      dup1\n      swap2\n      sub\n      swap1\n      revert\n    tag_26:\n        /* \"Funding.sol\":2233:2242  Manager m */\n      0x00\n        /* \"Funding.sol\":2260:2274  managerFactory */\n      dup1\n      0x00\n      swap1\n      sload\n      swap1\n      0x0100\n      exp\n      swap1\n      div\n      0xffffffffffffffffffffffffffffffffffffffff\n      and\n        /* \"Funding.sol\":2245:2286  ManagerFactory(managerFactory).getManager */\n      0xffffffffffffffffffffffffffffffffffffffff\n      and\n      0x3d584063\n        /* \"Funding.sol\":2287:2297  msg.sender */\n      caller\n        /* \"Funding.sol\":2245:2298  ManagerFactory(managerFactory).getManager(msg.sender) */\n      mload(0x40)\n      dup3\n      0xffffffff\n      and\n      0xe0\n      shl\n      dup2\n      mstore\n      0x04\n      add\n      tag_29\n      swap2\n      swap1\n      tag_24\n      jump\t// in\n    tag_29:\n      0x20\n      mload(0x40)\n      dup1\n      dup4\n      sub\n      dup2\n      0x00\n      dup8\n      gas\n      call\n      iszero\n      dup1\n      iszero\n      tag_31\n      jumpi\n      returndatasize\n      0x00\n      dup1\n      returndatacopy\n      revert(0x00, returndatasize)\n    tag_31:\n      pop\n      pop\n      pop\n      pop\n      mload(0x40)\n      returndatasize\n      not(0x1f)\n      0x1f\n      dup3\n      add\n      and\n      dup3\n      add\n      dup1\n      0x40\n      mstore\n      pop\n      dup2\n      add\n      swap1\n      tag_32\n      swap2\n      swap1\n      tag_33\n      jump\t// in\n    tag_32:\n        /* \"Funding.sol\":2233:2298  Manager m = ManagerFactory(managerFactory).getManager(msg.sender) */\n      swap1\n      pop\n        /* \"Funding.sol\":1807:1808  1 */\n      0x01\n        /* \"Funding.sol\":2319:2320  m */\n      dup2\n        /* \"Funding.sol\":2319:2330  m.totalBans */\n      0xffffffffffffffffffffffffffffffffffffffff\n      and\n      0xd2a5bfaa\n        /* \"Funding.sol\":2319:2332  m.totalBans() */\n      mload(0x40)\n      dup2\n      0xffffffff\n      and\n      0xe0\n      shl\n      dup2\n      mstore\n      0x04\n      add\n      0x20\n      mload(0x40)\n      dup1\n      dup4\n      sub\n      dup2\n      dup7\n      gas\n      staticcall\n      iszero\n      dup1\n      iszero\n      tag_35\n      jumpi\n      returndatasize\n      0x00\n      dup1\n      returndatacopy\n      revert(0x00, returndatasize)\n    tag_35:\n      pop\n      pop\n      pop\n      pop\n      mload(0x40)\n      returndatasize\n      not(0x1f)\n      0x1f\n      dup3\n      add\n      and\n      dup3\n      add\n      dup1\n      0x40\n      mstore\n      pop\n      dup2\n      add\n      swap1\n      tag_36\n      swap2\n      swap1\n      tag_37\n      jump\t// in\n    tag_36:\n        /* \"Funding.sol\":2319:2348  m.totalBans() < banThreshHold */\n      lt\n        /* \"Funding.sol\":2311:2367  require(m.totalBans() < banThreshHold, \"you are banned\") */\n      tag_38\n      jumpi\n      mload(0x40)\n      0x08c379a000000000000000000000000000000000000000000000000000000000\n      dup2\n      mstore\n      0x04\n      add\n      tag_39\n      swap1\n      tag_40\n      jump\t// in\n    tag_39:\n      mload(0x40)\n      dup1\n      swap2\n      sub\n      swap1\n      revert\n    tag_38:\n        /* \"Funding.sol\":2455:2456  m */\n      dup1\n        /* \"Funding.sol\":2455:2464  m.holding */\n      0xffffffffffffffffffffffffffffffffffffffff\n      and\n      0x3498858d\n        /* \"Funding.sol\":2455:2466  m.holding() */\n      mload(0x40)\n      dup2\n      0xffffffff\n      and\n      0xe0\n      shl\n      dup2\n      mstore\n      0x04\n      add\n      0x20\n      mload(0x40)\n      dup1\n      dup4\n      sub\n      dup2\n      dup7\n      gas\n      staticcall\n      iszero\n      dup1\n      iszero\n      tag_42\n      jumpi\n      returndatasize\n      0x00\n      dup1\n      returndatacopy\n      revert(0x00, returndatasize)\n    tag_42:\n      pop\n      pop\n      pop\n      pop\n      mload(0x40)\n      returndatasize\n      not(0x1f)\n      0x1f\n      dup3\n      add\n      and\n      dup3\n      add\n      dup1\n      0x40\n      mstore\n      pop\n      dup2\n      add\n      swap1\n      tag_43\n      swap2\n      swap1\n      tag_44\n      jump\t// in\n    tag_43:\n        /* \"Funding.sol\":2454:2466  !m.holding() */\n      iszero\n        /* \"Funding.sol\":2446:2497  require(!m.holding(), \"you have already requested\") */\n      tag_45\n      jumpi\n      mload(0x40)\n      0x08c379a000000000000000000000000000000000000000000000000000000000\n      dup2\n      mstore\n      0x04\n      add\n      tag_46\n      swap1\n      tag_47\n      jump\t// in\n    tag_46:\n      mload(0x40)\n      dup1\n      swap2\n      sub\n      swap1\n      revert\n    tag_45:\n        /* \"Funding.sol\":2510:2525  Request request */\n      0x00\n        /* \"Funding.sol\":2540:2551  description */\n      dup6\n        /* \"Funding.sol\":2553:2559  amount */\n      dup6\n        /* \"Funding.sol\":2561:2570  recipient */\n      dup6\n        /* \"Funding.sol\":2572:2573  m */\n      dup5\n        /* \"Funding.sol\":2575:2594  minimumContribution */\n      dup7\n        /* \"Funding.sol\":2528:2595  new Request(description, amount, recipient, m, minimumContribution) */\n      mload(0x40)\n      tag_48\n      swap1\n      tag_49\n      jump\t// in\n    tag_48:\n      tag_50\n      swap6\n      swap5\n      swap4\n      swap3\n      swap2\n      swap1\n      tag_51\n      jump\t// in\n    tag_50:\n      mload(0x40)\n      dup1\n      swap2\n      sub\n      swap1\n      0x00\n      create\n      dup1\n      iszero\n      dup1\n      iszero\n      tag_52\n      jumpi\n      returndatasize\n      0x00\n      dup1\n      returndatacopy\n      revert(0x00, returndatasize)\n    tag_52:\n      pop\n        /* \"Funding.sol\":2510:2595  Request request = new Request(description, amount, recipient, m, minimumContribution) */\n      swap1\n      pop\n        /* \"Funding.sol\":2606:2614  requests */\n      0x01\n        /* \"Funding.sol\":2620:2627  request */\n      dup2\n        /* \"Funding.sol\":2606:2628  requests.push(request) */\n      swap1\n      dup1\n      0x01\n      dup2\n      sload\n      add\n      dup1\n      dup3\n      sstore\n      dup1\n      swap2\n      pop\n      pop\n      0x01\n      swap1\n      sub\n      swap1\n      0x00\n      mstore\n      keccak256(0x00, 0x20)\n      add\n      0x00\n      swap1\n      swap2\n      swap1\n      swap2\n      swap1\n      swap2\n      0x0100\n      exp\n      dup2\n      sload\n      dup2\n      0xffffffffffffffffffffffffffffffffffffffff\n      mul\n      not\n      and\n      swap1\n      dup4\n      0xffffffffffffffffffffffffffffffffffffffff\n      and\n      mul\n      or\n      swap1\n      sstore\n      pop\n        /* \"Funding.sol\":2641:2642  m */\n      dup2\n        /* \"Funding.sol\":2641:2653  m.addHolding */\n      0xffffffffffffffffffffffffffffffffffffffff\n      and\n      0x86f67568\n        /* \"Funding.sol\":2641:2655  m.addHolding() */\n      mload(0x40)\n      dup2\n      0xffffffff\n      and\n      0xe0\n      shl\n      dup2\n      mstore\n      0x04\n      add\n      0x00\n      mload(0x40)\n      dup1\n      dup4\n      sub\n      dup2\n      0x00\n      dup8\n      dup1\n      extcodesize\n      iszero\n      dup1\n      iszero\n      tag_54\n      jumpi\n      0x00\n      dup1\n      revert\n    tag_54:\n      pop\n      gas\n      call\n      iszero\n      dup1\n      iszero\n      tag_56\n      jumpi\n      returndatasize\n      0x00\n      dup1\n      returndatacopy\n      revert(0x00, returndatasize)\n    tag_56:\n      pop\n      pop\n      pop\n      pop\n        /* \"Funding.sol\":2147:2703  {... */\n      pop\n      pop\n        /* \"Funding.sol\":2025:2703  function addNewRequest(string memory description, uint amount, address payable recipient, uint minimumContribution) public{... */\n      pop\n      pop\n      pop\n      pop\n      jump\t// out\n        /* \"Funding.sol\":1895:1920  Request[] public requests */\n    tag_14:\n      0x01\n      dup2\n      dup2\n      sload\n      dup2\n      lt\n      tag_57\n      jumpi\n      0x00\n      dup1\n      revert\n    tag_57:\n      swap1\n      0x00\n      mstore\n      keccak256(0x00, 0x20)\n      add\n      0x00\n      swap2\n      pop\n      sload\n      swap1\n      0x0100\n      exp\n      swap1\n      div\n      0xffffffffffffffffffffffffffffffffffffffff\n      and\n      dup2\n      jump\t// out\n        /* \"Funding.sol\":2711:2804  function requestsSize() external view returns(uint) {... */\n    tag_18:\n        /* \"Funding.sol\":2757:2761  uint */\n      0x00\n        /* \"Funding.sol\":2781:2789  requests */\n      0x01\n        /* \"Funding.sol\":2781:2796  requests.length */\n      dup1\n      sload\n      swap1\n      pop\n        /* \"Funding.sol\":2774:2796  return requests.length */\n      swap1\n      pop\n        /* \"Funding.sol\":2711:2804  function requestsSize() external view returns(uint) {... */\n      swap1\n      jump\t// out\n        /* \"Funding.sol\":1857:1886  address public managerFactory */\n    tag_22:\n      0x00\n      dup1\n      sload\n      swap1\n      0x0100\n      exp\n      swap1\n      div\n      0xffffffffffffffffffffffffffffffffffffffff\n      and\n      dup2\n      jump\t// out\n    tag_49:\n      dataSize(sub_0)\n      dup1\n      dataOffset(sub_0)\n      dup4\n      codecopy\n      add\n      swap1\n      jump\t// out\n        /* \"#utility.yul\":7:82   */\n    tag_60:\n        /* \"#utility.yul\":40:46   */\n      0x00\n        /* \"#utility.yul\":73:75   */\n      0x40\n        /* \"#utility.yul\":67:76   */\n      mload\n        /* \"#utility.yul\":57:76   */\n      swap1\n      pop\n        /* \"#utility.yul\":7:82   */\n      swap1\n      jump\t// out\n        /* \"#utility.yul\":88:205   */\n    tag_61:\n        /* \"#utility.yul\":197:198   */\n      0x00\n        /* \"#utility.yul\":194:195   */\n      dup1\n        /* \"#utility.yul\":187:199   */\n      revert\n        /* \"#utility.yul\":211:328   */\n    tag_62:\n        /* \"#utility.yul\":320:321   */\n      0x00\n        /* \"#utility.yul\":317:318   */\n      dup1\n        /* \"#utility.yul\":310:322   */\n      revert\n        /* \"#utility.yul\":334:451   */\n    tag_63:\n        /* \"#utility.yul\":443:444   */\n      0x00\n        /* \"#utility.yul\":440:441   */\n      dup1\n        /* \"#utility.yul\":433:445   */\n      revert\n        /* \"#utility.yul\":457:574   */\n    tag_64:\n        /* \"#utility.yul\":566:567   */\n      0x00\n        /* \"#utility.yul\":563:564   */\n      dup1\n        /* \"#utility.yul\":556:568   */\n      revert\n        /* \"#utility.yul\":580:682   */\n    tag_65:\n        /* \"#utility.yul\":621:627   */\n      0x00\n        /* \"#utility.yul\":672:674   */\n      0x1f\n        /* \"#utility.yul\":668:675   */\n      not\n        /* \"#utility.yul\":663:665   */\n      0x1f\n        /* \"#utility.yul\":656:661   */\n      dup4\n        /* \"#utility.yul\":652:666   */\n      add\n        /* \"#utility.yul\":648:676   */\n      and\n        /* \"#utility.yul\":638:676   */\n      swap1\n      pop\n        /* \"#utility.yul\":580:682   */\n      swap2\n      swap1\n      pop\n      jump\t// out\n        /* \"#utility.yul\":688:868   */\n    tag_66:\n        /* \"#utility.yul\":736:813   */\n      0x4e487b7100000000000000000000000000000000000000000000000000000000\n        /* \"#utility.yul\":733:734   */\n      0x00\n        /* \"#utility.yul\":726:814   */\n      mstore\n        /* \"#utility.yul\":833:837   */\n      0x41\n        /* \"#utility.yul\":830:831   */\n      0x04\n        /* \"#utility.yul\":823:838   */\n      mstore\n        /* \"#utility.yul\":857:861   */\n      0x24\n        /* \"#utility.yul\":854:855   */\n      0x00\n        /* \"#utility.yul\":847:862   */\n      revert\n        /* \"#utility.yul\":874:1155   */\n    tag_67:\n        /* \"#utility.yul\":957:984   */\n      tag_117\n        /* \"#utility.yul\":979:983   */\n      dup3\n        /* \"#utility.yul\":957:984   */\n      tag_65\n      jump\t// in\n    tag_117:\n        /* \"#utility.yul\":949:955   */\n      dup2\n        /* \"#utility.yul\":945:985   */\n      add\n        /* \"#utility.yul\":1087:1093   */\n      dup2\n        /* \"#utility.yul\":1075:1085   */\n      dup2\n        /* \"#utility.yul\":1072:1094   */\n      lt\n        /* \"#utility.yul\":1051:1069   */\n      0xffffffffffffffff\n        /* \"#utility.yul\":1039:1049   */\n      dup3\n        /* \"#utility.yul\":1036:1070   */\n      gt\n        /* \"#utility.yul\":1033:1095   */\n      or\n        /* \"#utility.yul\":1030:1118   */\n      iszero\n      tag_118\n      jumpi\n        /* \"#utility.yul\":1098:1116   */\n      tag_119\n      tag_66\n      jump\t// in\n    tag_119:\n        /* \"#utility.yul\":1030:1118   */\n    tag_118:\n        /* \"#utility.yul\":1138:1148   */\n      dup1\n        /* \"#utility.yul\":1134:1136   */\n      0x40\n        /* \"#utility.yul\":1127:1149   */\n      mstore\n        /* \"#utility.yul\":917:1155   */\n      pop\n        /* \"#utility.yul\":874:1155   */\n      pop\n      pop\n      jump\t// out\n        /* \"#utility.yul\":1161:1290   */\n    tag_68:\n        /* \"#utility.yul\":1195:1201   */\n      0x00\n        /* \"#utility.yul\":1222:1242   */\n      tag_121\n      tag_60\n      jump\t// in\n    tag_121:\n        /* \"#utility.yul\":1212:1242   */\n      swap1\n      pop\n        /* \"#utility.yul\":1251:1284   */\n      tag_122\n        /* \"#utility.yul\":1279:1283   */\n      dup3\n        /* \"#utility.yul\":1271:1277   */\n      dup3\n        /* \"#utility.yul\":1251:1284   */\n      tag_67\n      jump\t// in\n    tag_122:\n        /* \"#utility.yul\":1161:1290   */\n      swap2\n      swap1\n      pop\n      jump\t// out\n        /* \"#utility.yul\":1296:1604   */\n    tag_69:\n        /* \"#utility.yul\":1358:1362   */\n      0x00\n        /* \"#utility.yul\":1448:1466   */\n      0xffffffffffffffff\n        /* \"#utility.yul\":1440:1446   */\n      dup3\n        /* \"#utility.yul\":1437:1467   */\n      gt\n        /* \"#utility.yul\":1434:1490   */\n      iszero\n      tag_124\n      jumpi\n        /* \"#utility.yul\":1470:1488   */\n      tag_125\n      tag_66\n      jump\t// in\n    tag_125:\n        /* \"#utility.yul\":1434:1490   */\n    tag_124:\n        /* \"#utility.yul\":1508:1537   */\n      tag_126\n        /* \"#utility.yul\":1530:1536   */\n      dup3\n        /* \"#utility.yul\":1508:1537   */\n      tag_65\n      jump\t// in\n    tag_126:\n        /* \"#utility.yul\":1500:1537   */\n      swap1\n      pop\n        /* \"#utility.yul\":1592:1596   */\n      0x20\n        /* \"#utility.yul\":1586:1590   */\n      dup2\n        /* \"#utility.yul\":1582:1597   */\n      add\n        /* \"#utility.yul\":1574:1597   */\n      swap1\n      pop\n        /* \"#utility.yul\":1296:1604   */\n      swap2\n      swap1\n      pop\n      jump\t// out\n        /* \"#utility.yul\":1610:1764   */\n    tag_70:\n        /* \"#utility.yul\":1694:1700   */\n      dup3\n        /* \"#utility.yul\":1689:1692   */\n      dup2\n        /* \"#utility.yul\":1684:1687   */\n      dup4\n        /* \"#utility.yul\":1671:1701   */\n      calldatacopy\n        /* \"#utility.yul\":1756:1757   */\n      0x00\n        /* \"#utility.yul\":1747:1753   */\n      dup4\n        /* \"#utility.yul\":1742:1745   */\n      dup4\n        /* \"#utility.yul\":1738:1754   */\n      add\n        /* \"#utility.yul\":1731:1758   */\n      mstore\n        /* \"#utility.yul\":1610:1764   */\n      pop\n      pop\n      pop\n      jump\t// out\n        /* \"#utility.yul\":1770:2182   */\n    tag_71:\n        /* \"#utility.yul\":1848:1853   */\n      0x00\n        /* \"#utility.yul\":1873:1939   */\n      tag_129\n        /* \"#utility.yul\":1889:1938   */\n      tag_130\n        /* \"#utility.yul\":1931:1937   */\n      dup5\n        /* \"#utility.yul\":1889:1938   */\n      tag_69\n      jump\t// in\n    tag_130:\n        /* \"#utility.yul\":1873:1939   */\n      tag_68\n      jump\t// in\n    tag_129:\n        /* \"#utility.yul\":1864:1939   */\n      swap1\n      pop\n        /* \"#utility.yul\":1962:1968   */\n      dup3\n        /* \"#utility.yul\":1955:1960   */\n      dup2\n        /* \"#utility.yul\":1948:1969   */\n      mstore\n        /* \"#utility.yul\":2000:2004   */\n      0x20\n        /* \"#utility.yul\":1993:1998   */\n      dup2\n        /* \"#utility.yul\":1989:2005   */\n      add\n        /* \"#utility.yul\":2038:2041   */\n      dup5\n        /* \"#utility.yul\":2029:2035   */\n      dup5\n        /* \"#utility.yul\":2024:2027   */\n      dup5\n        /* \"#utility.yul\":2020:2036   */\n      add\n        /* \"#utility.yul\":2017:2042   */\n      gt\n        /* \"#utility.yul\":2014:2126   */\n      iszero\n      tag_131\n      jumpi\n        /* \"#utility.yul\":2045:2124   */\n      tag_132\n      tag_64\n      jump\t// in\n    tag_132:\n        /* \"#utility.yul\":2014:2126   */\n    tag_131:\n        /* \"#utility.yul\":2135:2176   */\n      tag_133\n        /* \"#utility.yul\":2169:2175   */\n      dup5\n        /* \"#utility.yul\":2164:2167   */\n      dup3\n        /* \"#utility.yul\":2159:2162   */\n      dup6\n        /* \"#utility.yul\":2135:2176   */\n      tag_70\n      jump\t// in\n    tag_133:\n        /* \"#utility.yul\":1854:2182   */\n      pop\n        /* \"#utility.yul\":1770:2182   */\n      swap4\n      swap3\n      pop\n      pop\n      pop\n      jump\t// out\n        /* \"#utility.yul\":2202:2542   */\n    tag_72:\n        /* \"#utility.yul\":2258:2263   */\n      0x00\n        /* \"#utility.yul\":2307:2310   */\n      dup3\n        /* \"#utility.yul\":2300:2304   */\n      0x1f\n        /* \"#utility.yul\":2292:2298   */\n      dup4\n        /* \"#utility.yul\":2288:2305   */\n      add\n        /* \"#utility.yul\":2284:2311   */\n      slt\n        /* \"#utility.yul\":2274:2396   */\n      tag_135\n      jumpi\n        /* \"#utility.yul\":2315:2394   */\n      tag_136\n      tag_63\n      jump\t// in\n    tag_136:\n        /* \"#utility.yul\":2274:2396   */\n    tag_135:\n        /* \"#utility.yul\":2432:2438   */\n      dup2\n        /* \"#utility.yul\":2419:2439   */\n      calldataload\n        /* \"#utility.yul\":2457:2536   */\n      tag_137\n        /* \"#utility.yul\":2532:2535   */\n      dup5\n        /* \"#utility.yul\":2524:2530   */\n      dup3\n        /* \"#utility.yul\":2517:2521   */\n      0x20\n        /* \"#utility.yul\":2509:2515   */\n      dup7\n        /* \"#utility.yul\":2505:2522   */\n      add\n        /* \"#utility.yul\":2457:2536   */\n      tag_71\n      jump\t// in\n    tag_137:\n        /* \"#utility.yul\":2448:2536   */\n      swap2\n      pop\n        /* \"#utility.yul\":2264:2542   */\n      pop\n        /* \"#utility.yul\":2202:2542   */\n      swap3\n      swap2\n      pop\n      pop\n      jump\t// out\n        /* \"#utility.yul\":2548:2625   */\n    tag_73:\n        /* \"#utility.yul\":2585:2592   */\n      0x00\n        /* \"#utility.yul\":2614:2619   */\n      dup2\n        /* \"#utility.yul\":2603:2619   */\n      swap1\n      pop\n        /* \"#utility.yul\":2548:2625   */\n      swap2\n      swap1\n      pop\n      jump\t// out\n        /* \"#utility.yul\":2631:2753   */\n    tag_74:\n        /* \"#utility.yul\":2704:2728   */\n      tag_140\n        /* \"#utility.yul\":2722:2727   */\n      dup2\n        /* \"#utility.yul\":2704:2728   */\n      tag_73\n      jump\t// in\n    tag_140:\n        /* \"#utility.yul\":2697:2702   */\n      dup2\n        /* \"#utility.yul\":2694:2729   */\n      eq\n        /* \"#utility.yul\":2684:2747   */\n      tag_141\n      jumpi\n        /* \"#utility.yul\":2743:2744   */\n      0x00\n        /* \"#utility.yul\":2740:2741   */\n      dup1\n        /* \"#utility.yul\":2733:2745   */\n      revert\n        /* \"#utility.yul\":2684:2747   */\n    tag_141:\n        /* \"#utility.yul\":2631:2753   */\n      pop\n      jump\t// out\n        /* \"#utility.yul\":2759:2898   */\n    tag_75:\n        /* \"#utility.yul\":2805:2810   */\n      0x00\n        /* \"#utility.yul\":2843:2849   */\n      dup2\n        /* \"#utility.yul\":2830:2850   */\n      calldataload\n        /* \"#utility.yul\":2821:2850   */\n      swap1\n      pop\n        /* \"#utility.yul\":2859:2892   */\n      tag_143\n        /* \"#utility.yul\":2886:2891   */\n      dup2\n        /* \"#utility.yul\":2859:2892   */\n      tag_74\n      jump\t// in\n    tag_143:\n        /* \"#utility.yul\":2759:2898   */\n      swap3\n      swap2\n      pop\n      pop\n      jump\t// out\n        /* \"#utility.yul\":2904:3030   */\n    tag_76:\n        /* \"#utility.yul\":2941:2948   */\n      0x00\n        /* \"#utility.yul\":2981:3023   */\n      0xffffffffffffffffffffffffffffffffffffffff\n        /* \"#utility.yul\":2974:2979   */\n      dup3\n        /* \"#utility.yul\":2970:3024   */\n      and\n        /* \"#utility.yul\":2959:3024   */\n      swap1\n      pop\n        /* \"#utility.yul\":2904:3030   */\n      swap2\n      swap1\n      pop\n      jump\t// out\n        /* \"#utility.yul\":3036:3140   */\n    tag_77:\n        /* \"#utility.yul\":3081:3088   */\n      0x00\n        /* \"#utility.yul\":3110:3134   */\n      tag_146\n        /* \"#utility.yul\":3128:3133   */\n      dup3\n        /* \"#utility.yul\":3110:3134   */\n      tag_76\n      jump\t// in\n    tag_146:\n        /* \"#utility.yul\":3099:3134   */\n      swap1\n      pop\n        /* \"#utility.yul\":3036:3140   */\n      swap2\n      swap1\n      pop\n      jump\t// out\n        /* \"#utility.yul\":3146:3284   */\n    tag_78:\n        /* \"#utility.yul\":3227:3259   */\n      tag_148\n        /* \"#utility.yul\":3253:3258   */\n      dup2\n        /* \"#utility.yul\":3227:3259   */\n      tag_77\n      jump\t// in\n    tag_148:\n        /* \"#utility.yul\":3220:3225   */\n      dup2\n        /* \"#utility.yul\":3217:3260   */\n      eq\n        /* \"#utility.yul\":3207:3278   */\n      tag_149\n      jumpi\n        /* \"#utility.yul\":3274:3275   */\n      0x00\n        /* \"#utility.yul\":3271:3272   */\n      dup1\n        /* \"#utility.yul\":3264:3276   */\n      revert\n        /* \"#utility.yul\":3207:3278   */\n    tag_149:\n        /* \"#utility.yul\":3146:3284   */\n      pop\n      jump\t// out\n        /* \"#utility.yul\":3290:3445   */\n    tag_79:\n        /* \"#utility.yul\":3344:3349   */\n      0x00\n        /* \"#utility.yul\":3382:3388   */\n      dup2\n        /* \"#utility.yul\":3369:3389   */\n      calldataload\n        /* \"#utility.yul\":3360:3389   */\n      swap1\n      pop\n        /* \"#utility.yul\":3398:3439   */\n      tag_151\n        /* \"#utility.yul\":3433:3438   */\n      dup2\n        /* \"#utility.yul\":3398:3439   */\n      tag_78\n      jump\t// in\n    tag_151:\n        /* \"#utility.yul\":3290:3445   */\n      swap3\n      swap2\n      pop\n      pop\n      jump\t// out\n        /* \"#utility.yul\":3451:4412   */\n    tag_9:\n        /* \"#utility.yul\":3555:3561   */\n      0x00\n        /* \"#utility.yul\":3563:3569   */\n      dup1\n        /* \"#utility.yul\":3571:3577   */\n      0x00\n        /* \"#utility.yul\":3579:3585   */\n      dup1\n        /* \"#utility.yul\":3628:3631   */\n      0x80\n        /* \"#utility.yul\":3616:3625   */\n      dup6\n        /* \"#utility.yul\":3607:3614   */\n      dup8\n        /* \"#utility.yul\":3603:3626   */\n      sub\n        /* \"#utility.yul\":3599:3632   */\n      slt\n        /* \"#utility.yul\":3596:3716   */\n      iszero\n      tag_153\n      jumpi\n        /* \"#utility.yul\":3635:3714   */\n      tag_154\n      tag_61\n      jump\t// in\n    tag_154:\n        /* \"#utility.yul\":3596:3716   */\n    tag_153:\n        /* \"#utility.yul\":3783:3784   */\n      0x00\n        /* \"#utility.yul\":3772:3781   */\n      dup6\n        /* \"#utility.yul\":3768:3785   */\n      add\n        /* \"#utility.yul\":3755:3786   */\n      calldataload\n        /* \"#utility.yul\":3813:3831   */\n      0xffffffffffffffff\n        /* \"#utility.yul\":3805:3811   */\n      dup2\n        /* \"#utility.yul\":3802:3832   */\n      gt\n        /* \"#utility.yul\":3799:3916   */\n      iszero\n      tag_155\n      jumpi\n        /* \"#utility.yul\":3835:3914   */\n      tag_156\n      tag_62\n      jump\t// in\n    tag_156:\n        /* \"#utility.yul\":3799:3916   */\n    tag_155:\n        /* \"#utility.yul\":3940:4003   */\n      tag_157\n        /* \"#utility.yul\":3995:4002   */\n      dup8\n        /* \"#utility.yul\":3986:3992   */\n      dup3\n        /* \"#utility.yul\":3975:3984   */\n      dup9\n        /* \"#utility.yul\":3971:3993   */\n      add\n        /* \"#utility.yul\":3940:4003   */\n      tag_72\n      jump\t// in\n    tag_157:\n        /* \"#utility.yul\":3930:4003   */\n      swap5\n      pop\n        /* \"#utility.yul\":3726:4013   */\n      pop\n        /* \"#utility.yul\":4052:4054   */\n      0x20\n        /* \"#utility.yul\":4078:4131   */\n      tag_158\n        /* \"#utility.yul\":4123:4130   */\n      dup8\n        /* \"#utility.yul\":4114:4120   */\n      dup3\n        /* \"#utility.yul\":4103:4112   */\n      dup9\n        /* \"#utility.yul\":4099:4121   */\n      add\n        /* \"#utility.yul\":4078:4131   */\n      tag_75\n      jump\t// in\n    tag_158:\n        /* \"#utility.yul\":4068:4131   */\n      swap4\n      pop\n        /* \"#utility.yul\":4023:4141   */\n      pop\n        /* \"#utility.yul\":4180:4182   */\n      0x40\n        /* \"#utility.yul\":4206:4267   */\n      tag_159\n        /* \"#utility.yul\":4259:4266   */\n      dup8\n        /* \"#utility.yul\":4250:4256   */\n      dup3\n        /* \"#utility.yul\":4239:4248   */\n      dup9\n        /* \"#utility.yul\":4235:4257   */\n      add\n        /* \"#utility.yul\":4206:4267   */\n      tag_79\n      jump\t// in\n    tag_159:\n        /* \"#utility.yul\":4196:4267   */\n      swap3\n      pop\n        /* \"#utility.yul\":4151:4277   */\n      pop\n        /* \"#utility.yul\":4316:4318   */\n      0x60\n        /* \"#utility.yul\":4342:4395   */\n      tag_160\n        /* \"#utility.yul\":4387:4394   */\n      dup8\n        /* \"#utility.yul\":4378:4384   */\n      dup3\n        /* \"#utility.yul\":4367:4376   */\n      dup9\n        /* \"#utility.yul\":4363:4385   */\n      add\n        /* \"#utility.yul\":4342:4395   */\n      tag_75\n      jump\t// in\n    tag_160:\n        /* \"#utility.yul\":4332:4395   */\n      swap2\n      pop\n        /* \"#utility.yul\":4287:4405   */\n      pop\n        /* \"#utility.yul\":3451:4412   */\n      swap3\n      swap6\n      swap2\n      swap5\n      pop\n      swap3\n      pop\n      jump\t// out\n        /* \"#utility.yul\":4418:4747   */\n    tag_13:\n        /* \"#utility.yul\":4477:4483   */\n      0x00\n        /* \"#utility.yul\":4526:4528   */\n      0x20\n        /* \"#utility.yul\":4514:4523   */\n      dup3\n        /* \"#utility.yul\":4505:4512   */\n      dup5\n        /* \"#utility.yul\":4501:4524   */\n      sub\n        /* \"#utility.yul\":4497:4529   */\n      slt\n        /* \"#utility.yul\":4494:4613   */\n      iszero\n      tag_162\n      jumpi\n        /* \"#utility.yul\":4532:4611   */\n      tag_163\n      tag_61\n      jump\t// in\n    tag_163:\n        /* \"#utility.yul\":4494:4613   */\n    tag_162:\n        /* \"#utility.yul\":4652:4653   */\n      0x00\n        /* \"#utility.yul\":4677:4730   */\n      tag_164\n        /* \"#utility.yul\":4722:4729   */\n      dup5\n        /* \"#utility.yul\":4713:4719   */\n      dup3\n        /* \"#utility.yul\":4702:4711   */\n      dup6\n        /* \"#utility.yul\":4698:4720   */\n      add\n        /* \"#utility.yul\":4677:4730   */\n      tag_75\n      jump\t// in\n    tag_164:\n        /* \"#utility.yul\":4667:4730   */\n      swap2\n      pop\n        /* \"#utility.yul\":4623:4740   */\n      pop\n        /* \"#utility.yul\":4418:4747   */\n      swap3\n      swap2\n      pop\n      pop\n      jump\t// out\n        /* \"#utility.yul\":4753:4813   */\n    tag_80:\n        /* \"#utility.yul\":4781:4784   */\n      0x00\n        /* \"#utility.yul\":4802:4807   */\n      dup2\n        /* \"#utility.yul\":4795:4807   */\n      swap1\n      pop\n        /* \"#utility.yul\":4753:4813   */\n      swap2\n      swap1\n      pop\n      jump\t// out\n        /* \"#utility.yul\":4819:4961   */\n    tag_81:\n        /* \"#utility.yul\":4869:4878   */\n      0x00\n        /* \"#utility.yul\":4902:4955   */\n      tag_167\n        /* \"#utility.yul\":4920:4954   */\n      tag_168\n        /* \"#utility.yul\":4929:4953   */\n      tag_169\n        /* \"#utility.yul\":4947:4952   */\n      dup5\n        /* \"#utility.yul\":4929:4953   */\n      tag_76\n      jump\t// in\n    tag_169:\n        /* \"#utility.yul\":4920:4954   */\n      tag_80\n      jump\t// in\n    tag_168:\n        /* \"#utility.yul\":4902:4955   */\n      tag_76\n      jump\t// in\n    tag_167:\n        /* \"#utility.yul\":4889:4955   */\n      swap1\n      pop\n        /* \"#utility.yul\":4819:4961   */\n      swap2\n      swap1\n      pop\n      jump\t// out\n        /* \"#utility.yul\":4967:5093   */\n    tag_82:\n        /* \"#utility.yul\":5017:5026   */\n      0x00\n        /* \"#utility.yul\":5050:5087   */\n      tag_171\n        /* \"#utility.yul\":5081:5086   */\n      dup3\n        /* \"#utility.yul\":5050:5087   */\n      tag_81\n      jump\t// in\n    tag_171:\n        /* \"#utility.yul\":5037:5087   */\n      swap1\n      pop\n        /* \"#utility.yul\":4967:5093   */\n      swap2\n      swap1\n      pop\n      jump\t// out\n        /* \"#utility.yul\":5099:5240   */\n    tag_83:\n        /* \"#utility.yul\":5164:5173   */\n      0x00\n        /* \"#utility.yul\":5197:5234   */\n      tag_173\n        /* \"#utility.yul\":5228:5233   */\n      dup3\n        /* \"#utility.yul\":5197:5234   */\n      tag_82\n      jump\t// in\n    tag_173:\n        /* \"#utility.yul\":5184:5234   */\n      swap1\n      pop\n        /* \"#utility.yul\":5099:5240   */\n      swap2\n      swap1\n      pop\n      jump\t// out\n        /* \"#utility.yul\":5246:5407   */\n    tag_84:\n        /* \"#utility.yul\":5348:5400   */\n      tag_175\n        /* \"#utility.yul\":5394:5399   */\n      dup2\n        /* \"#utility.yul\":5348:5400   */\n      tag_83\n      jump\t// in\n    tag_175:\n        /* \"#utility.yul\":5343:5346   */\n      dup3\n        /* \"#utility.yul\":5336:5401   */\n      mstore\n        /* \"#utility.yul\":5246:5407   */\n      pop\n      pop\n      jump\t// out\n        /* \"#utility.yul\":5413:5665   */\n    tag_16:\n        /* \"#utility.yul\":5521:5525   */\n      0x00\n        /* \"#utility.yul\":5559:5561   */\n      0x20\n        /* \"#utility.yul\":5548:5557   */\n      dup3\n        /* \"#utility.yul\":5544:5562   */\n      add\n        /* \"#utility.yul\":5536:5562   */\n      swap1\n      pop\n        /* \"#utility.yul\":5572:5658   */\n      tag_177\n        /* \"#utility.yul\":5655:5656   */\n      0x00\n        /* \"#utility.yul\":5644:5653   */\n      dup4\n        /* \"#utility.yul\":5640:5657   */\n      add\n        /* \"#utility.yul\":5631:5637   */\n      dup5\n        /* \"#utility.yul\":5572:5658   */\n      tag_84\n      jump\t// in\n    tag_177:\n        /* \"#utility.yul\":5413:5665   */\n      swap3\n      swap2\n      pop\n      pop\n      jump\t// out\n        /* \"#utility.yul\":5671:5789   */\n    tag_85:\n        /* \"#utility.yul\":5758:5782   */\n      tag_179\n        /* \"#utility.yul\":5776:5781   */\n      dup2\n        /* \"#utility.yul\":5758:5782   */\n      tag_73\n      jump\t// in\n    tag_179:\n        /* \"#utility.yul\":5753:5756   */\n      dup3\n        /* \"#utility.yul\":5746:5783   */\n      mstore\n        /* \"#utility.yul\":5671:5789   */\n      pop\n      pop\n      jump\t// out\n        /* \"#utility.yul\":5795:6017   */\n    tag_20:\n        /* \"#utility.yul\":5888:5892   */\n      0x00\n        /* \"#utility.yul\":5926:5928   */\n      0x20\n        /* \"#utility.yul\":5915:5924   */\n      dup3\n        /* \"#utility.yul\":5911:5929   */\n      add\n        /* \"#utility.yul\":5903:5929   */\n      swap1\n      pop\n        /* \"#utility.yul\":5939:6010   */\n      tag_181\n        /* \"#utility.yul\":6007:6008   */\n      0x00\n        /* \"#utility.yul\":5996:6005   */\n      dup4\n        /* \"#utility.yul\":5992:6009   */\n      add\n        /* \"#utility.yul\":5983:5989   */\n      dup5\n        /* \"#utility.yul\":5939:6010   */\n      tag_85\n      jump\t// in\n    tag_181:\n        /* \"#utility.yul\":5795:6017   */\n      swap3\n      swap2\n      pop\n      pop\n      jump\t// out\n        /* \"#utility.yul\":6023:6119   */\n    tag_86:\n        /* \"#utility.yul\":6060:6067   */\n      0x00\n        /* \"#utility.yul\":6089:6113   */\n      tag_183\n        /* \"#utility.yul\":6107:6112   */\n      dup3\n        /* \"#utility.yul\":6089:6113   */\n      tag_76\n      jump\t// in\n    tag_183:\n        /* \"#utility.yul\":6078:6113   */\n      swap1\n      pop\n        /* \"#utility.yul\":6023:6119   */\n      swap2\n      swap1\n      pop\n      jump\t// out\n        /* \"#utility.yul\":6125:6243   */\n    tag_87:\n        /* \"#utility.yul\":6212:6236   */\n      tag_185\n        /* \"#utility.yul\":6230:6235   */\n      dup2\n        /* \"#utility.yul\":6212:6236   */\n      tag_86\n      jump\t// in\n    tag_185:\n        /* \"#utility.yul\":6207:6210   */\n      dup3\n        /* \"#utility.yul\":6200:6237   */\n      mstore\n        /* \"#utility.yul\":6125:6243   */\n      pop\n      pop\n      jump\t// out\n        /* \"#utility.yul\":6249:6471   */\n    tag_24:\n        /* \"#utility.yul\":6342:6346   */\n      0x00\n        /* \"#utility.yul\":6380:6382   */\n      0x20\n        /* \"#utility.yul\":6369:6378   */\n      dup3\n        /* \"#utility.yul\":6365:6383   */\n      add\n        /* \"#utility.yul\":6357:6383   */\n      swap1\n      pop\n        /* \"#utility.yul\":6393:6464   */\n      tag_187\n        /* \"#utility.yul\":6461:6462   */\n      0x00\n        /* \"#utility.yul\":6450:6459   */\n      dup4\n        /* \"#utility.yul\":6446:6463   */\n      add\n        /* \"#utility.yul\":6437:6443   */\n      dup5\n        /* \"#utility.yul\":6393:6464   */\n      tag_87\n      jump\t// in\n    tag_187:\n        /* \"#utility.yul\":6249:6471   */\n      swap3\n      swap2\n      pop\n      pop\n      jump\t// out\n        /* \"#utility.yul\":6477:6646   */\n    tag_88:\n        /* \"#utility.yul\":6561:6572   */\n      0x00\n        /* \"#utility.yul\":6595:6601   */\n      dup3\n        /* \"#utility.yul\":6590:6593   */\n      dup3\n        /* \"#utility.yul\":6583:6602   */\n      mstore\n        /* \"#utility.yul\":6635:6639   */\n      0x20\n        /* \"#utility.yul\":6630:6633   */\n      dup3\n        /* \"#utility.yul\":6626:6640   */\n      add\n        /* \"#utility.yul\":6611:6640   */\n      swap1\n      pop\n        /* \"#utility.yul\":6477:6646   */\n      swap3\n      swap2\n      pop\n      pop\n      jump\t// out\n        /* \"#utility.yul\":6652:6830   */\n    tag_89:\n        /* \"#utility.yul\":6792:6822   */\n      0x796f752063616e27742072657175657374206c657373206d6f6e657900000000\n        /* \"#utility.yul\":6788:6789   */\n      0x00\n        /* \"#utility.yul\":6780:6786   */\n      dup3\n        /* \"#utility.yul\":6776:6790   */\n      add\n        /* \"#utility.yul\":6769:6823   */\n      mstore\n        /* \"#utility.yul\":6652:6830   */\n      pop\n      jump\t// out\n        /* \"#utility.yul\":6836:7202   */\n    tag_90:\n        /* \"#utility.yul\":6978:6981   */\n      0x00\n        /* \"#utility.yul\":6999:7066   */\n      tag_191\n        /* \"#utility.yul\":7063:7065   */\n      0x1c\n        /* \"#utility.yul\":7058:7061   */\n      dup4\n        /* \"#utility.yul\":6999:7066   */\n      tag_88\n      jump\t// in\n    tag_191:\n        /* \"#utility.yul\":6992:7066   */\n      swap2\n      pop\n        /* \"#utility.yul\":7075:7168   */\n      tag_192\n        /* \"#utility.yul\":7164:7167   */\n      dup3\n        /* \"#utility.yul\":7075:7168   */\n      tag_89\n      jump\t// in\n    tag_192:\n        /* \"#utility.yul\":7193:7195   */\n      0x20\n        /* \"#utility.yul\":7188:7191   */\n      dup3\n        /* \"#utility.yul\":7184:7196   */\n      add\n        /* \"#utility.yul\":7177:7196   */\n      swap1\n      pop\n        /* \"#utility.yul\":6836:7202   */\n      swap2\n      swap1\n      pop\n      jump\t// out\n        /* \"#utility.yul\":7208:7627   */\n    tag_28:\n        /* \"#utility.yul\":7374:7378   */\n      0x00\n        /* \"#utility.yul\":7412:7414   */\n      0x20\n        /* \"#utility.yul\":7401:7410   */\n      dup3\n        /* \"#utility.yul\":7397:7415   */\n      add\n        /* \"#utility.yul\":7389:7415   */\n      swap1\n      pop\n        /* \"#utility.yul\":7461:7470   */\n      dup2\n        /* \"#utility.yul\":7455:7459   */\n      dup2\n        /* \"#utility.yul\":7451:7471   */\n      sub\n        /* \"#utility.yul\":7447:7448   */\n      0x00\n        /* \"#utility.yul\":7436:7445   */\n      dup4\n        /* \"#utility.yul\":7432:7449   */\n      add\n        /* \"#utility.yul\":7425:7472   */\n      mstore\n        /* \"#utility.yul\":7489:7620   */\n      tag_194\n        /* \"#utility.yul\":7615:7619   */\n      dup2\n        /* \"#utility.yul\":7489:7620   */\n      tag_90\n      jump\t// in\n    tag_194:\n        /* \"#utility.yul\":7481:7620   */\n      swap1\n      pop\n        /* \"#utility.yul\":7208:7627   */\n      swap2\n      swap1\n      pop\n      jump\t// out\n        /* \"#utility.yul\":7633:7744   */\n    tag_91:\n        /* \"#utility.yul\":7685:7692   */\n      0x00\n        /* \"#utility.yul\":7714:7738   */\n      tag_196\n        /* \"#utility.yul\":7732:7737   */\n      dup3\n        /* \"#utility.yul\":7714:7738   */\n      tag_86\n      jump\t// in\n    tag_196:\n        /* \"#utility.yul\":7703:7738   */\n      swap1\n      pop\n        /* \"#utility.yul\":7633:7744   */\n      swap2\n      swap1\n      pop\n      jump\t// out\n        /* \"#utility.yul\":7750:7902   */\n    tag_92:\n        /* \"#utility.yul\":7838:7877   */\n      tag_198\n        /* \"#utility.yul\":7871:7876   */\n      dup2\n        /* \"#utility.yul\":7838:7877   */\n      tag_91\n      jump\t// in\n    tag_198:\n        /* \"#utility.yul\":7831:7836   */\n      dup2\n        /* \"#utility.yul\":7828:7878   */\n      eq\n        /* \"#utility.yul\":7818:7896   */\n      tag_199\n      jumpi\n        /* \"#utility.yul\":7892:7893   */\n      0x00\n        /* \"#utility.yul\":7889:7890   */\n      dup1\n        /* \"#utility.yul\":7882:7894   */\n      revert\n        /* \"#utility.yul\":7818:7896   */\n    tag_199:\n        /* \"#utility.yul\":7750:7902   */\n      pop\n      jump\t// out\n        /* \"#utility.yul\":7908:8081   */\n    tag_93:\n        /* \"#utility.yul\":7980:7985   */\n      0x00\n        /* \"#utility.yul\":8011:8017   */\n      dup2\n        /* \"#utility.yul\":8005:8018   */\n      mload\n        /* \"#utility.yul\":7996:8018   */\n      swap1\n      pop\n        /* \"#utility.yul\":8027:8075   */\n      tag_201\n        /* \"#utility.yul\":8069:8074   */\n      dup2\n        /* \"#utility.yul\":8027:8075   */\n      tag_92\n      jump\t// in\n    tag_201:\n        /* \"#utility.yul\":7908:8081   */\n      swap3\n      swap2\n      pop\n      pop\n      jump\t// out\n        /* \"#utility.yul\":8087:8468   */\n    tag_33:\n        /* \"#utility.yul\":8172:8178   */\n      0x00\n        /* \"#utility.yul\":8221:8223   */\n      0x20\n        /* \"#utility.yul\":8209:8218   */\n      dup3\n        /* \"#utility.yul\":8200:8207   */\n      dup5\n        /* \"#utility.yul\":8196:8219   */\n      sub\n        /* \"#utility.yul\":8192:8224   */\n      slt\n        /* \"#utility.yul\":8189:8308   */\n      iszero\n      tag_203\n      jumpi\n        /* \"#utility.yul\":8227:8306   */\n      tag_204\n      tag_61\n      jump\t// in\n    tag_204:\n        /* \"#utility.yul\":8189:8308   */\n    tag_203:\n        /* \"#utility.yul\":8347:8348   */\n      0x00\n        /* \"#utility.yul\":8372:8451   */\n      tag_205\n        /* \"#utility.yul\":8443:8450   */\n      dup5\n        /* \"#utility.yul\":8434:8440   */\n      dup3\n        /* \"#utility.yul\":8423:8432   */\n      dup6\n        /* \"#utility.yul\":8419:8441   */\n      add\n        /* \"#utility.yul\":8372:8451   */\n      tag_93\n      jump\t// in\n    tag_205:\n        /* \"#utility.yul\":8362:8451   */\n      swap2\n      pop\n        /* \"#utility.yul\":8318:8461   */\n      pop\n        /* \"#utility.yul\":8087:8468   */\n      swap3\n      swap2\n      pop\n      pop\n      jump\t// out\n        /* \"#utility.yul\":8474:8617   */\n    tag_94:\n        /* \"#utility.yul\":8531:8536   */\n      0x00\n        /* \"#utility.yul\":8562:8568   */\n      dup2\n        /* \"#utility.yul\":8556:8569   */\n      mload\n        /* \"#utility.yul\":8547:8569   */\n      swap1\n      pop\n        /* \"#utility.yul\":8578:8611   */\n      tag_207\n        /* \"#utility.yul\":8605:8610   */\n      dup2\n        /* \"#utility.yul\":8578:8611   */\n      tag_74\n      jump\t// in\n    tag_207:\n        /* \"#utility.yul\":8474:8617   */\n      swap3\n      swap2\n      pop\n      pop\n      jump\t// out\n        /* \"#utility.yul\":8623:8974   */\n    tag_37:\n        /* \"#utility.yul\":8693:8699   */\n      0x00\n        /* \"#utility.yul\":8742:8744   */\n      0x20\n        /* \"#utility.yul\":8730:8739   */\n      dup3\n        /* \"#utility.yul\":8721:8728   */\n      dup5\n        /* \"#utility.yul\":8717:8740   */\n      sub\n        /* \"#utility.yul\":8713:8745   */\n      slt\n        /* \"#utility.yul\":8710:8829   */\n      iszero\n      tag_209\n      jumpi\n        /* \"#utility.yul\":8748:8827   */\n      tag_210\n      tag_61\n      jump\t// in\n    tag_210:\n        /* \"#utility.yul\":8710:8829   */\n    tag_209:\n        /* \"#utility.yul\":8868:8869   */\n      0x00\n        /* \"#utility.yul\":8893:8957   */\n      tag_211\n        /* \"#utility.yul\":8949:8956   */\n      dup5\n        /* \"#utility.yul\":8940:8946   */\n      dup3\n        /* \"#utility.yul\":8929:8938   */\n      dup6\n        /* \"#utility.yul\":8925:8947   */\n      add\n        /* \"#utility.yul\":8893:8957   */\n      tag_94\n      jump\t// in\n    tag_211:\n        /* \"#utility.yul\":8883:8957   */\n      swap2\n      pop\n        /* \"#utility.yul\":8839:8967   */\n      pop\n        /* \"#utility.yul\":8623:8974   */\n      swap3\n      swap2\n      pop\n      pop\n      jump\t// out\n        /* \"#utility.yul\":8980:9144   */\n    tag_95:\n        /* \"#utility.yul\":9120:9136   */\n      0x796f75206172652062616e6e6564000000000000000000000000000000000000\n        /* \"#utility.yul\":9116:9117   */\n      0x00\n        /* \"#utility.yul\":9108:9114   */\n      dup3\n        /* \"#utility.yul\":9104:9118   */\n      add\n        /* \"#utility.yul\":9097:9137   */\n      mstore\n        /* \"#utility.yul\":8980:9144   */\n      pop\n      jump\t// out\n        /* \"#utility.yul\":9150:9516   */\n    tag_96:\n        /* \"#utility.yul\":9292:9295   */\n      0x00\n        /* \"#utility.yul\":9313:9380   */\n      tag_214\n        /* \"#utility.yul\":9377:9379   */\n      0x0e\n        /* \"#utility.yul\":9372:9375   */\n      dup4\n        /* \"#utility.yul\":9313:9380   */\n      tag_88\n      jump\t// in\n    tag_214:\n        /* \"#utility.yul\":9306:9380   */\n      swap2\n      pop\n        /* \"#utility.yul\":9389:9482   */\n      tag_215\n        /* \"#utility.yul\":9478:9481   */\n      dup3\n        /* \"#utility.yul\":9389:9482   */\n      tag_95\n      jump\t// in\n    tag_215:\n        /* \"#utility.yul\":9507:9509   */\n      0x20\n        /* \"#utility.yul\":9502:9505   */\n      dup3\n        /* \"#utility.yul\":9498:9510   */\n      add\n        /* \"#utility.yul\":9491:9510   */\n      swap1\n      pop\n        /* \"#utility.yul\":9150:9516   */\n      swap2\n      swap1\n      pop\n      jump\t// out\n        /* \"#utility.yul\":9522:9941   */\n    tag_40:\n        /* \"#utility.yul\":9688:9692   */\n      0x00\n        /* \"#utility.yul\":9726:9728   */\n      0x20\n        /* \"#utility.yul\":9715:9724   */\n      dup3\n        /* \"#utility.yul\":9711:9729   */\n      add\n        /* \"#utility.yul\":9703:9729   */\n      swap1\n      pop\n        /* \"#utility.yul\":9775:9784   */\n      dup2\n        /* \"#utility.yul\":9769:9773   */\n      dup2\n        /* \"#utility.yul\":9765:9785   */\n      sub\n        /* \"#utility.yul\":9761:9762   */\n      0x00\n        /* \"#utility.yul\":9750:9759   */\n      dup4\n        /* \"#utility.yul\":9746:9763   */\n      add\n        /* \"#utility.yul\":9739:9786   */\n      mstore\n        /* \"#utility.yul\":9803:9934   */\n      tag_217\n        /* \"#utility.yul\":9929:9933   */\n      dup2\n        /* \"#utility.yul\":9803:9934   */\n      tag_96\n      jump\t// in\n    tag_217:\n        /* \"#utility.yul\":9795:9934   */\n      swap1\n      pop\n        /* \"#utility.yul\":9522:9941   */\n      swap2\n      swap1\n      pop\n      jump\t// out\n        /* \"#utility.yul\":9947:10037   */\n    tag_97:\n        /* \"#utility.yul\":9981:9988   */\n      0x00\n        /* \"#utility.yul\":10024:10029   */\n      dup2\n        /* \"#utility.yul\":10017:10030   */\n      iszero\n        /* \"#utility.yul\":10010:10031   */\n      iszero\n        /* \"#utility.yul\":9999:10031   */\n      swap1\n      pop\n        /* \"#utility.yul\":9947:10037   */\n      swap2\n      swap1\n      pop\n      jump\t// out\n        /* \"#utility.yul\":10043:10159   */\n    tag_98:\n        /* \"#utility.yul\":10113:10134   */\n      tag_220\n        /* \"#utility.yul\":10128:10133   */\n      dup2\n        /* \"#utility.yul\":10113:10134   */\n      tag_97\n      jump\t// in\n    tag_220:\n        /* \"#utility.yul\":10106:10111   */\n      dup2\n        /* \"#utility.yul\":10103:10135   */\n      eq\n        /* \"#utility.yul\":10093:10153   */\n      tag_221\n      jumpi\n        /* \"#utility.yul\":10149:10150   */\n      0x00\n        /* \"#utility.yul\":10146:10147   */\n      dup1\n        /* \"#utility.yul\":10139:10151   */\n      revert\n        /* \"#utility.yul\":10093:10153   */\n    tag_221:\n        /* \"#utility.yul\":10043:10159   */\n      pop\n      jump\t// out\n        /* \"#utility.yul\":10165:10302   */\n    tag_99:\n        /* \"#utility.yul\":10219:10224   */\n      0x00\n        /* \"#utility.yul\":10250:10256   */\n      dup2\n        /* \"#utility.yul\":10244:10257   */\n      mload\n        /* \"#utility.yul\":10235:10257   */\n      swap1\n      pop\n        /* \"#utility.yul\":10266:10296   */\n      tag_223\n        /* \"#utility.yul\":10290:10295   */\n      dup2\n        /* \"#utility.yul\":10266:10296   */\n      tag_98\n      jump\t// in\n    tag_223:\n        /* \"#utility.yul\":10165:10302   */\n      swap3\n      swap2\n      pop\n      pop\n      jump\t// out\n        /* \"#utility.yul\":10308:10653   */\n    tag_44:\n        /* \"#utility.yul\":10375:10381   */\n      0x00\n        /* \"#utility.yul\":10424:10426   */\n      0x20\n        /* \"#utility.yul\":10412:10421   */\n      dup3\n        /* \"#utility.yul\":10403:10410   */\n      dup5\n        /* \"#utility.yul\":10399:10422   */\n      sub\n        /* \"#utility.yul\":10395:10427   */\n      slt\n        /* \"#utility.yul\":10392:10511   */\n      iszero\n      tag_225\n      jumpi\n        /* \"#utility.yul\":10430:10509   */\n      tag_226\n      tag_61\n      jump\t// in\n    tag_226:\n        /* \"#utility.yul\":10392:10511   */\n    tag_225:\n        /* \"#utility.yul\":10550:10551   */\n      0x00\n        /* \"#utility.yul\":10575:10636   */\n      tag_227\n        /* \"#utility.yul\":10628:10635   */\n      dup5\n        /* \"#utility.yul\":10619:10625   */\n      dup3\n        /* \"#utility.yul\":10608:10617   */\n      dup6\n        /* \"#utility.yul\":10604:10626   */\n      add\n        /* \"#utility.yul\":10575:10636   */\n      tag_99\n      jump\t// in\n    tag_227:\n        /* \"#utility.yul\":10565:10636   */\n      swap2\n      pop\n        /* \"#utility.yul\":10521:10646   */\n      pop\n        /* \"#utility.yul\":10308:10653   */\n      swap3\n      swap2\n      pop\n      pop\n      jump\t// out\n        /* \"#utility.yul\":10659:10835   */\n    tag_100:\n        /* \"#utility.yul\":10799:10827   */\n      0x796f75206861766520616c726561647920726571756573746564000000000000\n        /* \"#utility.yul\":10795:10796   */\n      0x00\n        /* \"#utility.yul\":10787:10793   */\n      dup3\n        /* \"#utility.yul\":10783:10797   */\n      add\n        /* \"#utility.yul\":10776:10828   */\n      mstore\n        /* \"#utility.yul\":10659:10835   */\n      pop\n      jump\t// out\n        /* \"#utility.yul\":10841:11207   */\n    tag_101:\n        /* \"#utility.yul\":10983:10986   */\n      0x00\n        /* \"#utility.yul\":11004:11071   */\n      tag_230\n        /* \"#utility.yul\":11068:11070   */\n      0x1a\n        /* \"#utility.yul\":11063:11066   */\n      dup4\n        /* \"#utility.yul\":11004:11071   */\n      tag_88\n      jump\t// in\n    tag_230:\n        /* \"#utility.yul\":10997:11071   */\n      swap2\n      pop\n        /* \"#utility.yul\":11080:11173   */\n      tag_231\n        /* \"#utility.yul\":11169:11172   */\n      dup3\n        /* \"#utility.yul\":11080:11173   */\n      tag_100\n      jump\t// in\n    tag_231:\n        /* \"#utility.yul\":11198:11200   */\n      0x20\n        /* \"#utility.yul\":11193:11196   */\n      dup3\n        /* \"#utility.yul\":11189:11201   */\n      add\n        /* \"#utility.yul\":11182:11201   */\n      swap1\n      pop\n        /* \"#utility.yul\":10841:11207   */\n      swap2\n      swap1\n      pop\n      jump\t// out\n        /* \"#utility.yul\":11213:11632   */\n    tag_47:\n        /* \"#utility.yul\":11379:11383   */\n      0x00\n        /* \"#utility.yul\":11417:11419   */\n      0x20\n        /* \"#utility.yul\":11406:11415   */\n      dup3\n        /* \"#utility.yul\":11402:11420   */\n      add\n        /* \"#utility.yul\":11394:11420   */\n      swap1\n      pop\n        /* \"#utility.yul\":11466:11475   */\n      dup2\n        /* \"#utility.yul\":11460:11464   */\n      dup2\n        /* \"#utility.yul\":11456:11476   */\n      sub\n        /* \"#utility.yul\":11452:11453   */\n      0x00\n        /* \"#utility.yul\":11441:11450   */\n      dup4\n        /* \"#utility.yul\":11437:11454   */\n      add\n        /* \"#utility.yul\":11430:11477   */\n      mstore\n        /* \"#utility.yul\":11494:11625   */\n      tag_233\n        /* \"#utility.yul\":11620:11624   */\n      dup2\n        /* \"#utility.yul\":11494:11625   */\n      tag_101\n      jump\t// in\n    tag_233:\n        /* \"#utility.yul\":11486:11625   */\n      swap1\n      pop\n        /* \"#utility.yul\":11213:11632   */\n      swap2\n      swap1\n      pop\n      jump\t// out\n        /* \"#utility.yul\":11638:11737   */\n    tag_102:\n        /* \"#utility.yul\":11690:11696   */\n      0x00\n        /* \"#utility.yul\":11724:11729   */\n      dup2\n        /* \"#utility.yul\":11718:11730   */\n      mload\n        /* \"#utility.yul\":11708:11730   */\n      swap1\n      pop\n        /* \"#utility.yul\":11638:11737   */\n      swap2\n      swap1\n      pop\n      jump\t// out\n        /* \"#utility.yul\":11743:12050   */\n    tag_103:\n        /* \"#utility.yul\":11811:11812   */\n      0x00\n        /* \"#utility.yul\":11821:11934   */\n    tag_236:\n        /* \"#utility.yul\":11835:11841   */\n      dup4\n        /* \"#utility.yul\":11832:11833   */\n      dup2\n        /* \"#utility.yul\":11829:11842   */\n      lt\n        /* \"#utility.yul\":11821:11934   */\n      iszero\n      tag_238\n      jumpi\n        /* \"#utility.yul\":11920:11921   */\n      dup1\n        /* \"#utility.yul\":11915:11918   */\n      dup3\n        /* \"#utility.yul\":11911:11922   */\n      add\n        /* \"#utility.yul\":11905:11923   */\n      mload\n        /* \"#utility.yul\":11901:11902   */\n      dup2\n        /* \"#utility.yul\":11896:11899   */\n      dup5\n        /* \"#utility.yul\":11892:11903   */\n      add\n        /* \"#utility.yul\":11885:11924   */\n      mstore\n        /* \"#utility.yul\":11857:11859   */\n      0x20\n        /* \"#utility.yul\":11854:11855   */\n      dup2\n        /* \"#utility.yul\":11850:11860   */\n      add\n        /* \"#utility.yul\":11845:11860   */\n      swap1\n      pop\n        /* \"#utility.yul\":11821:11934   */\n      jump(tag_236)\n    tag_238:\n        /* \"#utility.yul\":11952:11958   */\n      dup4\n        /* \"#utility.yul\":11949:11950   */\n      dup2\n        /* \"#utility.yul\":11946:11959   */\n      gt\n        /* \"#utility.yul\":11943:12044   */\n      iszero\n      tag_239\n      jumpi\n        /* \"#utility.yul\":12032:12033   */\n      0x00\n        /* \"#utility.yul\":12023:12029   */\n      dup5\n        /* \"#utility.yul\":12018:12021   */\n      dup5\n        /* \"#utility.yul\":12014:12030   */\n      add\n        /* \"#utility.yul\":12007:12034   */\n      mstore\n        /* \"#utility.yul\":11943:12044   */\n    tag_239:\n        /* \"#utility.yul\":11792:12050   */\n      pop\n        /* \"#utility.yul\":11743:12050   */\n      pop\n      pop\n      pop\n      jump\t// out\n        /* \"#utility.yul\":12056:12420   */\n    tag_104:\n        /* \"#utility.yul\":12144:12147   */\n      0x00\n        /* \"#utility.yul\":12172:12211   */\n      tag_241\n        /* \"#utility.yul\":12205:12210   */\n      dup3\n        /* \"#utility.yul\":12172:12211   */\n      tag_102\n      jump\t// in\n    tag_241:\n        /* \"#utility.yul\":12227:12298   */\n      tag_242\n        /* \"#utility.yul\":12291:12297   */\n      dup2\n        /* \"#utility.yul\":12286:12289   */\n      dup6\n        /* \"#utility.yul\":12227:12298   */\n      tag_88\n      jump\t// in\n    tag_242:\n        /* \"#utility.yul\":12220:12298   */\n      swap4\n      pop\n        /* \"#utility.yul\":12307:12359   */\n      tag_243\n        /* \"#utility.yul\":12352:12358   */\n      dup2\n        /* \"#utility.yul\":12347:12350   */\n      dup6\n        /* \"#utility.yul\":12340:12344   */\n      0x20\n        /* \"#utility.yul\":12333:12338   */\n      dup7\n        /* \"#utility.yul\":12329:12345   */\n      add\n        /* \"#utility.yul\":12307:12359   */\n      tag_103\n      jump\t// in\n    tag_243:\n        /* \"#utility.yul\":12384:12413   */\n      tag_244\n        /* \"#utility.yul\":12406:12412   */\n      dup2\n        /* \"#utility.yul\":12384:12413   */\n      tag_65\n      jump\t// in\n    tag_244:\n        /* \"#utility.yul\":12379:12382   */\n      dup5\n        /* \"#utility.yul\":12375:12414   */\n      add\n        /* \"#utility.yul\":12368:12414   */\n      swap2\n      pop\n        /* \"#utility.yul\":12148:12420   */\n      pop\n        /* \"#utility.yul\":12056:12420   */\n      swap3\n      swap2\n      pop\n      pop\n      jump\t// out\n        /* \"#utility.yul\":12426:12568   */\n    tag_105:\n        /* \"#utility.yul\":12529:12561   */\n      tag_246\n        /* \"#utility.yul\":12555:12560   */\n      dup2\n        /* \"#utility.yul\":12529:12561   */\n      tag_77\n      jump\t// in\n    tag_246:\n        /* \"#utility.yul\":12524:12527   */\n      dup3\n        /* \"#utility.yul\":12517:12562   */\n      mstore\n        /* \"#utility.yul\":12426:12568   */\n      pop\n      pop\n      jump\t// out\n        /* \"#utility.yul\":12574:12715   */\n    tag_106:\n        /* \"#utility.yul\":12639:12648   */\n      0x00\n        /* \"#utility.yul\":12672:12709   */\n      tag_248\n        /* \"#utility.yul\":12703:12708   */\n      dup3\n        /* \"#utility.yul\":12672:12709   */\n      tag_82\n      jump\t// in\n    tag_248:\n        /* \"#utility.yul\":12659:12709   */\n      swap1\n      pop\n        /* \"#utility.yul\":12574:12715   */\n      swap2\n      swap1\n      pop\n      jump\t// out\n        /* \"#utility.yul\":12721:12882   */\n    tag_107:\n        /* \"#utility.yul\":12823:12875   */\n      tag_250\n        /* \"#utility.yul\":12869:12874   */\n      dup2\n        /* \"#utility.yul\":12823:12875   */\n      tag_106\n      jump\t// in\n    tag_250:\n        /* \"#utility.yul\":12818:12821   */\n      dup3\n        /* \"#utility.yul\":12811:12876   */\n      mstore\n        /* \"#utility.yul\":12721:12882   */\n      pop\n      pop\n      jump\t// out\n        /* \"#utility.yul\":12888:13705   */\n    tag_51:\n        /* \"#utility.yul\":13144:13148   */\n      0x00\n        /* \"#utility.yul\":13182:13185   */\n      0xa0\n        /* \"#utility.yul\":13171:13180   */\n      dup3\n        /* \"#utility.yul\":13167:13186   */\n      add\n        /* \"#utility.yul\":13159:13186   */\n      swap1\n      pop\n        /* \"#utility.yul\":13232:13241   */\n      dup2\n        /* \"#utility.yul\":13226:13230   */\n      dup2\n        /* \"#utility.yul\":13222:13242   */\n      sub\n        /* \"#utility.yul\":13218:13219   */\n      0x00\n        /* \"#utility.yul\":13207:13216   */\n      dup4\n        /* \"#utility.yul\":13203:13220   */\n      add\n        /* \"#utility.yul\":13196:13243   */\n      mstore\n        /* \"#utility.yul\":13260:13338   */\n      tag_252\n        /* \"#utility.yul\":13333:13337   */\n      dup2\n        /* \"#utility.yul\":13324:13330   */\n      dup9\n        /* \"#utility.yul\":13260:13338   */\n      tag_104\n      jump\t// in\n    tag_252:\n        /* \"#utility.yul\":13252:13338   */\n      swap1\n      pop\n        /* \"#utility.yul\":13348:13420   */\n      tag_253\n        /* \"#utility.yul\":13416:13418   */\n      0x20\n        /* \"#utility.yul\":13405:13414   */\n      dup4\n        /* \"#utility.yul\":13401:13419   */\n      add\n        /* \"#utility.yul\":13392:13398   */\n      dup8\n        /* \"#utility.yul\":13348:13420   */\n      tag_85\n      jump\t// in\n    tag_253:\n        /* \"#utility.yul\":13430:13518   */\n      tag_254\n        /* \"#utility.yul\":13514:13516   */\n      0x40\n        /* \"#utility.yul\":13503:13512   */\n      dup4\n        /* \"#utility.yul\":13499:13517   */\n      add\n        /* \"#utility.yul\":13490:13496   */\n      dup7\n        /* \"#utility.yul\":13430:13518   */\n      tag_105\n      jump\t// in\n    tag_254:\n        /* \"#utility.yul\":13528:13615   */\n      tag_255\n        /* \"#utility.yul\":13611:13613   */\n      0x60\n        /* \"#utility.yul\":13600:13609   */\n      dup4\n        /* \"#utility.yul\":13596:13614   */\n      add\n        /* \"#utility.yul\":13587:13593   */\n      dup6\n        /* \"#utility.yul\":13528:13615   */\n      tag_107\n      jump\t// in\n    tag_255:\n        /* \"#utility.yul\":13625:13698   */\n      tag_256\n        /* \"#utility.yul\":13693:13696   */\n      0x80\n        /* \"#utility.yul\":13682:13691   */\n      dup4\n        /* \"#utility.yul\":13678:13697   */\n      add\n        /* \"#utility.yul\":13669:13675   */\n      dup5\n        /* \"#utility.yul\":13625:13698   */\n      tag_85\n      jump\t// in\n    tag_256:\n        /* \"#utility.yul\":12888:13705   */\n      swap7\n      swap6\n      pop\n      pop\n      pop\n      pop\n      pop\n      pop\n      jump\t// out\n    stop\n\n    sub_0: assembly {\n            /* \"Funding.sol\":2811:4914  contract Request {... */\n          mstore(0x40, 0x80)\n            /* \"Funding.sol\":3418:3720  constructor(string memory _description, uint _amount, address payable _recipient, Manager _m, uint _minimumContribution) {... */\n          callvalue\n          dup1\n          iszero\n          tag_1\n          jumpi\n          0x00\n          dup1\n          revert\n        tag_1:\n          pop\n          mload(0x40)\n          sub(codesize, bytecodeSize)\n          dup1\n          bytecodeSize\n          dup4\n          codecopy\n          dup2\n          dup2\n          add\n          0x40\n          mstore\n          dup2\n          add\n          swap1\n          tag_2\n          swap2\n          swap1\n          tag_3\n          jump\t// in\n        tag_2:\n            /* \"Funding.sol\":3564:3576  _description */\n          dup5\n            /* \"Funding.sol\":3550:3561  description */\n          0x02\n            /* \"Funding.sol\":3550:3576  description = _description */\n          swap1\n          dup1\n          mload\n          swap1\n          0x20\n          add\n          swap1\n          tag_6\n          swap3\n          swap2\n          swap1\n          tag_7\n          jump\t// in\n        tag_6:\n          pop\n            /* \"Funding.sol\":3596:3603  _amount */\n          dup4\n            /* \"Funding.sol\":3587:3593  amount */\n          0x03\n            /* \"Funding.sol\":3587:3603  amount = _amount */\n          dup2\n          swap1\n          sstore\n          pop\n            /* \"Funding.sol\":3626:3636  _recipient */\n          dup3\n            /* \"Funding.sol\":3614:3623  recipient */\n          0x04\n          0x00\n            /* \"Funding.sol\":3614:3636  recipient = _recipient */\n          0x0100\n          exp\n          dup2\n          sload\n          dup2\n          0xffffffffffffffffffffffffffffffffffffffff\n          mul\n          not\n          and\n          swap1\n          dup4\n          0xffffffffffffffffffffffffffffffffffffffff\n          and\n          mul\n          or\n          swap1\n          sstore\n          pop\n            /* \"Funding.sol\":3657:3659  _m */\n          dup2\n            /* \"Funding.sol\":3647:3654  manager */\n          0x01\n          0x00\n            /* \"Funding.sol\":3647:3659  manager = _m */\n          0x0100\n          exp\n          dup2\n          sload\n          dup2\n          0xffffffffffffffffffffffffffffffffffffffff\n          mul\n          not\n          and\n          swap1\n          dup4\n          0xffffffffffffffffffffffffffffffffffffffff\n          and\n          mul\n          or\n          swap1\n          sstore\n          pop\n            /* \"Funding.sol\":3692:3712  _minimumContribution */\n          dup1\n            /* \"Funding.sol\":3670:3689  minimumContribution */\n          0x00\n            /* \"Funding.sol\":3670:3712  minimumContribution = _minimumContribution */\n          dup2\n          swap1\n          sstore\n          pop\n            /* \"Funding.sol\":3418:3720  constructor(string memory _description, uint _amount, address payable _recipient, Manager _m, uint _minimumContribution) {... */\n          pop\n          pop\n          pop\n          pop\n          pop\n            /* \"Funding.sol\":2811:4914  contract Request {... */\n          jump(tag_8)\n        tag_7:\n          dup3\n          dup1\n          sload\n          tag_9\n          swap1\n          tag_10\n          jump\t// in\n        tag_9:\n          swap1\n          0x00\n          mstore\n          keccak256(0x00, 0x20)\n          swap1\n          0x1f\n          add\n          0x20\n          swap1\n          div\n          dup2\n          add\n          swap3\n          dup3\n          tag_12\n          jumpi\n          0x00\n          dup6\n          sstore\n          jump(tag_11)\n        tag_12:\n          dup3\n          0x1f\n          lt\n          tag_13\n          jumpi\n          dup1\n          mload\n          not(0xff)\n          and\n          dup4\n          dup1\n          add\n          or\n          dup6\n          sstore\n          jump(tag_11)\n        tag_13:\n          dup3\n          dup1\n          add\n          0x01\n          add\n          dup6\n          sstore\n          dup3\n          iszero\n          tag_11\n          jumpi\n          swap2\n          dup3\n          add\n        tag_14:\n          dup3\n          dup2\n          gt\n          iszero\n          tag_15\n          jumpi\n          dup3\n          mload\n          dup3\n          sstore\n          swap2\n          0x20\n          add\n          swap2\n          swap1\n          0x01\n          add\n          swap1\n          jump(tag_14)\n        tag_15:\n        tag_11:\n          pop\n          swap1\n          pop\n          tag_16\n          swap2\n          swap1\n          tag_17\n          jump\t// in\n        tag_16:\n          pop\n          swap1\n          jump\t// out\n        tag_17:\n        tag_18:\n          dup1\n          dup3\n          gt\n          iszero\n          tag_19\n          jumpi\n          0x00\n          dup2\n          0x00\n          swap1\n          sstore\n          pop\n          0x01\n          add\n          jump(tag_18)\n        tag_19:\n          pop\n          swap1\n          jump\t// out\n            /* \"#utility.yul\":7:82   */\n        tag_20:\n            /* \"#utility.yul\":40:46   */\n          0x00\n            /* \"#utility.yul\":73:75   */\n          0x40\n            /* \"#utility.yul\":67:76   */\n          mload\n            /* \"#utility.yul\":57:76   */\n          swap1\n          pop\n            /* \"#utility.yul\":7:82   */\n          swap1\n          jump\t// out\n            /* \"#utility.yul\":88:205   */\n        tag_21:\n            /* \"#utility.yul\":197:198   */\n          0x00\n            /* \"#utility.yul\":194:195   */\n          dup1\n            /* \"#utility.yul\":187:199   */\n          revert\n            /* \"#utility.yul\":211:328   */\n        tag_22:\n            /* \"#utility.yul\":320:321   */\n          0x00\n            /* \"#utility.yul\":317:318   */\n          dup1\n            /* \"#utility.yul\":310:322   */\n          revert\n            /* \"#utility.yul\":334:451   */\n        tag_23:\n            /* \"#utility.yul\":443:444   */\n          0x00\n            /* \"#utility.yul\":440:441   */\n          dup1\n            /* \"#utility.yul\":433:445   */\n          revert\n            /* \"#utility.yul\":457:574   */\n        tag_24:\n            /* \"#utility.yul\":566:567   */\n          0x00\n            /* \"#utility.yul\":563:564   */\n          dup1\n            /* \"#utility.yul\":556:568   */\n          revert\n            /* \"#utility.yul\":580:682   */\n        tag_25:\n            /* \"#utility.yul\":621:627   */\n          0x00\n            /* \"#utility.yul\":672:674   */\n          0x1f\n            /* \"#utility.yul\":668:675   */\n          not\n            /* \"#utility.yul\":663:665   */\n          0x1f\n            /* \"#utility.yul\":656:661   */\n          dup4\n            /* \"#utility.yul\":652:666   */\n          add\n            /* \"#utility.yul\":648:676   */\n          and\n            /* \"#utility.yul\":638:676   */\n          swap1\n          pop\n            /* \"#utility.yul\":580:682   */\n          swap2\n          swap1\n          pop\n          jump\t// out\n            /* \"#utility.yul\":688:868   */\n        tag_26:\n            /* \"#utility.yul\":736:813   */\n          0x4e487b7100000000000000000000000000000000000000000000000000000000\n            /* \"#utility.yul\":733:734   */\n          0x00\n            /* \"#utility.yul\":726:814   */\n          mstore\n            /* \"#utility.yul\":833:837   */\n          0x41\n            /* \"#utility.yul\":830:831   */\n          0x04\n            /* \"#utility.yul\":823:838   */\n          mstore\n            /* \"#utility.yul\":857:861   */\n          0x24\n            /* \"#utility.yul\":854:855   */\n          0x00\n            /* \"#utility.yul\":847:862   */\n          revert\n            /* \"#utility.yul\":874:1155   */\n        tag_27:\n            /* \"#utility.yul\":957:984   */\n          tag_54\n            /* \"#utility.yul\":979:983   */\n          dup3\n            /* \"#utility.yul\":957:984   */\n          tag_25\n          jump\t// in\n        tag_54:\n            /* \"#utility.yul\":949:955   */\n          dup2\n            /* \"#utility.yul\":945:985   */\n          add\n            /* \"#utility.yul\":1087:1093   */\n          dup2\n            /* \"#utility.yul\":1075:1085   */\n          dup2\n            /* \"#utility.yul\":1072:1094   */\n          lt\n            /* \"#utility.yul\":1051:1069   */\n          0xffffffffffffffff\n            /* \"#utility.yul\":1039:1049   */\n          dup3\n            /* \"#utility.yul\":1036:1070   */\n          gt\n            /* \"#utility.yul\":1033:1095   */\n          or\n            /* \"#utility.yul\":1030:1118   */\n          iszero\n          tag_55\n          jumpi\n            /* \"#utility.yul\":1098:1116   */\n          tag_56\n          tag_26\n          jump\t// in\n        tag_56:\n            /* \"#utility.yul\":1030:1118   */\n        tag_55:\n            /* \"#utility.yul\":1138:1148   */\n          dup1\n            /* \"#utility.yul\":1134:1136   */\n          0x40\n            /* \"#utility.yul\":1127:1149   */\n          mstore\n            /* \"#utility.yul\":917:1155   */\n          pop\n            /* \"#utility.yul\":874:1155   */\n          pop\n          pop\n          jump\t// out\n            /* \"#utility.yul\":1161:1290   */\n        tag_28:\n            /* \"#utility.yul\":1195:1201   */\n          0x00\n            /* \"#utility.yul\":1222:1242   */\n          tag_58\n          tag_20\n          jump\t// in\n        tag_58:\n            /* \"#utility.yul\":1212:1242   */\n          swap1\n          pop\n            /* \"#utility.yul\":1251:1284   */\n          tag_59\n            /* \"#utility.yul\":1279:1283   */\n          dup3\n            /* \"#utility.yul\":1271:1277   */\n          dup3\n            /* \"#utility.yul\":1251:1284   */\n          tag_27\n          jump\t// in\n        tag_59:\n            /* \"#utility.yul\":1161:1290   */\n          swap2\n          swap1\n          pop\n          jump\t// out\n            /* \"#utility.yul\":1296:1604   */\n        tag_29:\n            /* \"#utility.yul\":1358:1362   */\n          0x00\n            /* \"#utility.yul\":1448:1466   */\n          0xffffffffffffffff\n            /* \"#utility.yul\":1440:1446   */\n          dup3\n            /* \"#utility.yul\":1437:1467   */\n          gt\n            /* \"#utility.yul\":1434:1490   */\n          iszero\n          tag_61\n          jumpi\n            /* \"#utility.yul\":1470:1488   */\n          tag_62\n          tag_26\n          jump\t// in\n        tag_62:\n            /* \"#utility.yul\":1434:1490   */\n        tag_61:\n            /* \"#utility.yul\":1508:1537   */\n          tag_63\n            /* \"#utility.yul\":1530:1536   */\n          dup3\n            /* \"#utility.yul\":1508:1537   */\n          tag_25\n          jump\t// in\n        tag_63:\n            /* \"#utility.yul\":1500:1537   */\n          swap1\n          pop\n            /* \"#utility.yul\":1592:1596   */\n          0x20\n            /* \"#utility.yul\":1586:1590   */\n          dup2\n            /* \"#utility.yul\":1582:1597   */\n          add\n            /* \"#utility.yul\":1574:1597   */\n          swap1\n          pop\n            /* \"#utility.yul\":1296:1604   */\n          swap2\n          swap1\n          pop\n          jump\t// out\n            /* \"#utility.yul\":1610:1917   */\n        tag_30:\n            /* \"#utility.yul\":1678:1679   */\n          0x00\n            /* \"#utility.yul\":1688:1801   */\n        tag_65:\n            /* \"#utility.yul\":1702:1708   */\n          dup4\n            /* \"#utility.yul\":1699:1700   */\n          dup2\n            /* \"#utility.yul\":1696:1709   */\n          lt\n            /* \"#utility.yul\":1688:1801   */\n          iszero\n          tag_67\n          jumpi\n            /* \"#utility.yul\":1787:1788   */\n          dup1\n            /* \"#utility.yul\":1782:1785   */\n          dup3\n            /* \"#utility.yul\":1778:1789   */\n          add\n            /* \"#utility.yul\":1772:1790   */\n          mload\n            /* \"#utility.yul\":1768:1769   */\n          dup2\n            /* \"#utility.yul\":1763:1766   */\n          dup5\n            /* \"#utility.yul\":1759:1770   */\n          add\n            /* \"#utility.yul\":1752:1791   */\n          mstore\n            /* \"#utility.yul\":1724:1726   */\n          0x20\n            /* \"#utility.yul\":1721:1722   */\n          dup2\n            /* \"#utility.yul\":1717:1727   */\n          add\n            /* \"#utility.yul\":1712:1727   */\n          swap1\n          pop\n            /* \"#utility.yul\":1688:1801   */\n          jump(tag_65)\n        tag_67:\n            /* \"#utility.yul\":1819:1825   */\n          dup4\n            /* \"#utility.yul\":1816:1817   */\n          dup2\n            /* \"#utility.yul\":1813:1826   */\n          gt\n            /* \"#utility.yul\":1810:1911   */\n          iszero\n          tag_68\n          jumpi\n            /* \"#utility.yul\":1899:1900   */\n          0x00\n            /* \"#utility.yul\":1890:1896   */\n          dup5\n            /* \"#utility.yul\":1885:1888   */\n          dup5\n            /* \"#utility.yul\":1881:1897   */\n          add\n            /* \"#utility.yul\":1874:1901   */\n          mstore\n            /* \"#utility.yul\":1810:1911   */\n        tag_68:\n            /* \"#utility.yul\":1659:1917   */\n          pop\n            /* \"#utility.yul\":1610:1917   */\n          pop\n          pop\n          pop\n          jump\t// out\n            /* \"#utility.yul\":1923:2344   */\n        tag_31:\n            /* \"#utility.yul\":2012:2017   */\n          0x00\n            /* \"#utility.yul\":2037:2103   */\n          tag_70\n            /* \"#utility.yul\":2053:2102   */\n          tag_71\n            /* \"#utility.yul\":2095:2101   */\n          dup5\n            /* \"#utility.yul\":2053:2102   */\n          tag_29\n          jump\t// in\n        tag_71:\n            /* \"#utility.yul\":2037:2103   */\n          tag_28\n          jump\t// in\n        tag_70:\n            /* \"#utility.yul\":2028:2103   */\n          swap1\n          pop\n            /* \"#utility.yul\":2126:2132   */\n          dup3\n            /* \"#utility.yul\":2119:2124   */\n          dup2\n            /* \"#utility.yul\":2112:2133   */\n          mstore\n            /* \"#utility.yul\":2164:2168   */\n          0x20\n            /* \"#utility.yul\":2157:2162   */\n          dup2\n            /* \"#utility.yul\":2153:2169   */\n          add\n            /* \"#utility.yul\":2202:2205   */\n          dup5\n            /* \"#utility.yul\":2193:2199   */\n          dup5\n            /* \"#utility.yul\":2188:2191   */\n          dup5\n            /* \"#utility.yul\":2184:2200   */\n          add\n            /* \"#utility.yul\":2181:2206   */\n          gt\n            /* \"#utility.yul\":2178:2290   */\n          iszero\n          tag_72\n          jumpi\n            /* \"#utility.yul\":2209:2288   */\n          tag_73\n          tag_24\n          jump\t// in\n        tag_73:\n            /* \"#utility.yul\":2178:2290   */\n        tag_72:\n            /* \"#utility.yul\":2299:2338   */\n          tag_74\n            /* \"#utility.yul\":2331:2337   */\n          dup5\n            /* \"#utility.yul\":2326:2329   */\n          dup3\n            /* \"#utility.yul\":2321:2324   */\n          dup6\n            /* \"#utility.yul\":2299:2338   */\n          tag_30\n          jump\t// in\n        tag_74:\n            /* \"#utility.yul\":2018:2344   */\n          pop\n            /* \"#utility.yul\":1923:2344   */\n          swap4\n          swap3\n          pop\n          pop\n          pop\n          jump\t// out\n            /* \"#utility.yul\":2364:2719   */\n        tag_32:\n            /* \"#utility.yul\":2431:2436   */\n          0x00\n            /* \"#utility.yul\":2480:2483   */\n          dup3\n            /* \"#utility.yul\":2473:2477   */\n          0x1f\n            /* \"#utility.yul\":2465:2471   */\n          dup4\n            /* \"#utility.yul\":2461:2478   */\n          add\n            /* \"#utility.yul\":2457:2484   */\n          slt\n            /* \"#utility.yul\":2447:2569   */\n          tag_76\n          jumpi\n            /* \"#utility.yul\":2488:2567   */\n          tag_77\n          tag_23\n          jump\t// in\n        tag_77:\n            /* \"#utility.yul\":2447:2569   */\n        tag_76:\n            /* \"#utility.yul\":2598:2604   */\n          dup2\n            /* \"#utility.yul\":2592:2605   */\n          mload\n            /* \"#utility.yul\":2623:2713   */\n          tag_78\n            /* \"#utility.yul\":2709:2712   */\n          dup5\n            /* \"#utility.yul\":2701:2707   */\n          dup3\n            /* \"#utility.yul\":2694:2698   */\n          0x20\n            /* \"#utility.yul\":2686:2692   */\n          dup7\n            /* \"#utility.yul\":2682:2699   */\n          add\n            /* \"#utility.yul\":2623:2713   */\n          tag_31\n          jump\t// in\n        tag_78:\n            /* \"#utility.yul\":2614:2713   */\n          swap2\n          pop\n            /* \"#utility.yul\":2437:2719   */\n          pop\n            /* \"#utility.yul\":2364:2719   */\n          swap3\n          swap2\n          pop\n          pop\n          jump\t// out\n            /* \"#utility.yul\":2725:2802   */\n        tag_33:\n            /* \"#utility.yul\":2762:2769   */\n          0x00\n            /* \"#utility.yul\":2791:2796   */\n          dup2\n            /* \"#utility.yul\":2780:2796   */\n          swap1\n          pop\n            /* \"#utility.yul\":2725:2802   */\n          swap2\n          swap1\n          pop\n          jump\t// out\n            /* \"#utility.yul\":2808:2930   */\n        tag_34:\n            /* \"#utility.yul\":2881:2905   */\n          tag_81\n            /* \"#utility.yul\":2899:2904   */\n          dup2\n            /* \"#utility.yul\":2881:2905   */\n          tag_33\n          jump\t// in\n        tag_81:\n            /* \"#utility.yul\":2874:2879   */\n          dup2\n            /* \"#utility.yul\":2871:2906   */\n          eq\n            /* \"#utility.yul\":2861:2924   */\n          tag_82\n          jumpi\n            /* \"#utility.yul\":2920:2921   */\n          0x00\n            /* \"#utility.yul\":2917:2918   */\n          dup1\n            /* \"#utility.yul\":2910:2922   */\n          revert\n            /* \"#utility.yul\":2861:2924   */\n        tag_82:\n            /* \"#utility.yul\":2808:2930   */\n          pop\n          jump\t// out\n            /* \"#utility.yul\":2936:3079   */\n        tag_35:\n            /* \"#utility.yul\":2993:2998   */\n          0x00\n            /* \"#utility.yul\":3024:3030   */\n          dup2\n            /* \"#utility.yul\":3018:3031   */\n          mload\n            /* \"#utility.yul\":3009:3031   */\n          swap1\n          pop\n            /* \"#utility.yul\":3040:3073   */\n          tag_84\n            /* \"#utility.yul\":3067:3072   */\n          dup2\n            /* \"#utility.yul\":3040:3073   */\n          tag_34\n          jump\t// in\n        tag_84:\n            /* \"#utility.yul\":2936:3079   */\n          swap3\n          swap2\n          pop\n          pop\n          jump\t// out\n            /* \"#utility.yul\":3085:3211   */\n        tag_36:\n            /* \"#utility.yul\":3122:3129   */\n          0x00\n            /* \"#utility.yul\":3162:3204   */\n          0xffffffffffffffffffffffffffffffffffffffff\n            /* \"#utility.yul\":3155:3160   */\n          dup3\n            /* \"#utility.yul\":3151:3205   */\n          and\n            /* \"#utility.yul\":3140:3205   */\n          swap1\n          pop\n            /* \"#utility.yul\":3085:3211   */\n          swap2\n          swap1\n          pop\n          jump\t// out\n            /* \"#utility.yul\":3217:3321   */\n        tag_37:\n            /* \"#utility.yul\":3262:3269   */\n          0x00\n            /* \"#utility.yul\":3291:3315   */\n          tag_87\n            /* \"#utility.yul\":3309:3314   */\n          dup3\n            /* \"#utility.yul\":3291:3315   */\n          tag_36\n          jump\t// in\n        tag_87:\n            /* \"#utility.yul\":3280:3315   */\n          swap1\n          pop\n            /* \"#utility.yul\":3217:3321   */\n          swap2\n          swap1\n          pop\n          jump\t// out\n            /* \"#utility.yul\":3327:3465   */\n        tag_38:\n            /* \"#utility.yul\":3408:3440   */\n          tag_89\n            /* \"#utility.yul\":3434:3439   */\n          dup2\n            /* \"#utility.yul\":3408:3440   */\n          tag_37\n          jump\t// in\n        tag_89:\n            /* \"#utility.yul\":3401:3406   */\n          dup2\n            /* \"#utility.yul\":3398:3441   */\n          eq\n            /* \"#utility.yul\":3388:3459   */\n          tag_90\n          jumpi\n            /* \"#utility.yul\":3455:3456   */\n          0x00\n            /* \"#utility.yul\":3452:3453   */\n          dup1\n            /* \"#utility.yul\":3445:3457   */\n          revert\n            /* \"#utility.yul\":3388:3459   */\n        tag_90:\n            /* \"#utility.yul\":3327:3465   */\n          pop\n          jump\t// out\n            /* \"#utility.yul\":3471:3630   */\n        tag_39:\n            /* \"#utility.yul\":3536:3541   */\n          0x00\n            /* \"#utility.yul\":3567:3573   */\n          dup2\n            /* \"#utility.yul\":3561:3574   */\n          mload\n            /* \"#utility.yul\":3552:3574   */\n          swap1\n          pop\n            /* \"#utility.yul\":3583:3624   */\n          tag_92\n            /* \"#utility.yul\":3618:3623   */\n          dup2\n            /* \"#utility.yul\":3583:3624   */\n          tag_38\n          jump\t// in\n        tag_92:\n            /* \"#utility.yul\":3471:3630   */\n          swap3\n          swap2\n          pop\n          pop\n          jump\t// out\n            /* \"#utility.yul\":3636:3732   */\n        tag_40:\n            /* \"#utility.yul\":3673:3680   */\n          0x00\n            /* \"#utility.yul\":3702:3726   */\n          tag_94\n            /* \"#utility.yul\":3720:3725   */\n          dup3\n            /* \"#utility.yul\":3702:3726   */\n          tag_36\n          jump\t// in\n        tag_94:\n            /* \"#utility.yul\":3691:3726   */\n          swap1\n          pop\n            /* \"#utility.yul\":3636:3732   */\n          swap2\n          swap1\n          pop\n          jump\t// out\n            /* \"#utility.yul\":3738:3849   */\n        tag_41:\n            /* \"#utility.yul\":3790:3797   */\n          0x00\n            /* \"#utility.yul\":3819:3843   */\n          tag_96\n            /* \"#utility.yul\":3837:3842   */\n          dup3\n            /* \"#utility.yul\":3819:3843   */\n          tag_40\n          jump\t// in\n        tag_96:\n            /* \"#utility.yul\":3808:3843   */\n          swap1\n          pop\n            /* \"#utility.yul\":3738:3849   */\n          swap2\n          swap1\n          pop\n          jump\t// out\n            /* \"#utility.yul\":3855:4007   */\n        tag_42:\n            /* \"#utility.yul\":3943:3982   */\n          tag_98\n            /* \"#utility.yul\":3976:3981   */\n          dup2\n            /* \"#utility.yul\":3943:3982   */\n          tag_41\n          jump\t// in\n        tag_98:\n            /* \"#utility.yul\":3936:3941   */\n          dup2\n            /* \"#utility.yul\":3933:3983   */\n          eq\n            /* \"#utility.yul\":3923:4001   */\n          tag_99\n          jumpi\n            /* \"#utility.yul\":3997:3998   */\n          0x00\n            /* \"#utility.yul\":3994:3995   */\n          dup1\n            /* \"#utility.yul\":3987:3999   */\n          revert\n            /* \"#utility.yul\":3923:4001   */\n        tag_99:\n            /* \"#utility.yul\":3855:4007   */\n          pop\n          jump\t// out\n            /* \"#utility.yul\":4013:4186   */\n        tag_43:\n            /* \"#utility.yul\":4085:4090   */\n          0x00\n            /* \"#utility.yul\":4116:4122   */\n          dup2\n            /* \"#utility.yul\":4110:4123   */\n          mload\n            /* \"#utility.yul\":4101:4123   */\n          swap1\n          pop\n            /* \"#utility.yul\":4132:4180   */\n          tag_101\n            /* \"#utility.yul\":4174:4179   */\n          dup2\n            /* \"#utility.yul\":4132:4180   */\n          tag_42\n          jump\t// in\n        tag_101:\n            /* \"#utility.yul\":4013:4186   */\n          swap3\n          swap2\n          pop\n          pop\n          jump\t// out\n            /* \"#utility.yul\":4192:5388   */\n        tag_3:\n            /* \"#utility.yul\":4331:4337   */\n          0x00\n            /* \"#utility.yul\":4339:4345   */\n          dup1\n            /* \"#utility.yul\":4347:4353   */\n          0x00\n            /* \"#utility.yul\":4355:4361   */\n          dup1\n            /* \"#utility.yul\":4363:4369   */\n          0x00\n            /* \"#utility.yul\":4412:4415   */\n          0xa0\n            /* \"#utility.yul\":4400:4409   */\n          dup7\n            /* \"#utility.yul\":4391:4398   */\n          dup9\n            /* \"#utility.yul\":4387:4410   */\n          sub\n            /* \"#utility.yul\":4383:4416   */\n          slt\n            /* \"#utility.yul\":4380:4500   */\n          iszero\n          tag_103\n          jumpi\n            /* \"#utility.yul\":4419:4498   */\n          tag_104\n          tag_21\n          jump\t// in\n        tag_104:\n            /* \"#utility.yul\":4380:4500   */\n        tag_103:\n            /* \"#utility.yul\":4560:4561   */\n          0x00\n            /* \"#utility.yul\":4549:4558   */\n          dup7\n            /* \"#utility.yul\":4545:4562   */\n          add\n            /* \"#utility.yul\":4539:4563   */\n          mload\n            /* \"#utility.yul\":4590:4608   */\n          0xffffffffffffffff\n            /* \"#utility.yul\":4582:4588   */\n          dup2\n            /* \"#utility.yul\":4579:4609   */\n          gt\n            /* \"#utility.yul\":4576:4693   */\n          iszero\n          tag_105\n          jumpi\n            /* \"#utility.yul\":4612:4691   */\n          tag_106\n          tag_22\n          jump\t// in\n        tag_106:\n            /* \"#utility.yul\":4576:4693   */\n        tag_105:\n            /* \"#utility.yul\":4717:4791   */\n          tag_107\n            /* \"#utility.yul\":4783:4790   */\n          dup9\n            /* \"#utility.yul\":4774:4780   */\n          dup3\n            /* \"#utility.yul\":4763:4772   */\n          dup10\n            /* \"#utility.yul\":4759:4781   */\n          add\n            /* \"#utility.yul\":4717:4791   */\n          tag_32\n          jump\t// in\n        tag_107:\n            /* \"#utility.yul\":4707:4791   */\n          swap6\n          pop\n            /* \"#utility.yul\":4510:4801   */\n          pop\n            /* \"#utility.yul\":4840:4842   */\n          0x20\n            /* \"#utility.yul\":4866:4930   */\n          tag_108\n            /* \"#utility.yul\":4922:4929   */\n          dup9\n            /* \"#utility.yul\":4913:4919   */\n          dup3\n            /* \"#utility.yul\":4902:4911   */\n          dup10\n            /* \"#utility.yul\":4898:4920   */\n          add\n            /* \"#utility.yul\":4866:4930   */\n          tag_35\n          jump\t// in\n        tag_108:\n            /* \"#utility.yul\":4856:4930   */\n          swap5\n          pop\n            /* \"#utility.yul\":4811:4940   */\n          pop\n            /* \"#utility.yul\":4979:4981   */\n          0x40\n            /* \"#utility.yul\":5005:5077   */\n          tag_109\n            /* \"#utility.yul\":5069:5076   */\n          dup9\n            /* \"#utility.yul\":5060:5066   */\n          dup3\n            /* \"#utility.yul\":5049:5058   */\n          dup10\n            /* \"#utility.yul\":5045:5067   */\n          add\n            /* \"#utility.yul\":5005:5077   */\n          tag_39\n          jump\t// in\n        tag_109:\n            /* \"#utility.yul\":4995:5077   */\n          swap4\n          pop\n            /* \"#utility.yul\":4950:5087   */\n          pop\n            /* \"#utility.yul\":5126:5128   */\n          0x60\n            /* \"#utility.yul\":5152:5231   */\n          tag_110\n            /* \"#utility.yul\":5223:5230   */\n          dup9\n            /* \"#utility.yul\":5214:5220   */\n          dup3\n            /* \"#utility.yul\":5203:5212   */\n          dup10\n            /* \"#utility.yul\":5199:5221   */\n          add\n            /* \"#utility.yul\":5152:5231   */\n          tag_43\n          jump\t// in\n        tag_110:\n            /* \"#utility.yul\":5142:5231   */\n          swap3\n          pop\n            /* \"#utility.yul\":5097:5241   */\n          pop\n            /* \"#utility.yul\":5280:5283   */\n          0x80\n            /* \"#utility.yul\":5307:5371   */\n          tag_111\n            /* \"#utility.yul\":5363:5370   */\n          dup9\n            /* \"#utility.yul\":5354:5360   */\n          dup3\n            /* \"#utility.yul\":5343:5352   */\n          dup10\n            /* \"#utility.yul\":5339:5361   */\n          add\n            /* \"#utility.yul\":5307:5371   */\n          tag_35\n          jump\t// in\n        tag_111:\n            /* \"#utility.yul\":5297:5371   */\n          swap2\n          pop\n            /* \"#utility.yul\":5251:5381   */\n          pop\n            /* \"#utility.yul\":4192:5388   */\n          swap3\n          swap6\n          pop\n          swap3\n          swap6\n          swap1\n          swap4\n          pop\n          jump\t// out\n            /* \"#utility.yul\":5394:5574   */\n        tag_44:\n            /* \"#utility.yul\":5442:5519   */\n          0x4e487b7100000000000000000000000000000000000000000000000000000000\n            /* \"#utility.yul\":5439:5440   */\n          0x00\n            /* \"#utility.yul\":5432:5520   */\n          mstore\n            /* \"#utility.yul\":5539:5543   */\n          0x22\n            /* \"#utility.yul\":5536:5537   */\n          0x04\n            /* \"#utility.yul\":5529:5544   */\n          mstore\n            /* \"#utility.yul\":5563:5567   */\n          0x24\n            /* \"#utility.yul\":5560:5561   */\n          0x00\n            /* \"#utility.yul\":5553:5568   */\n          revert\n            /* \"#utility.yul\":5580:5900   */\n        tag_10:\n            /* \"#utility.yul\":5624:5630   */\n          0x00\n            /* \"#utility.yul\":5661:5662   */\n          0x02\n            /* \"#utility.yul\":5655:5659   */\n          dup3\n            /* \"#utility.yul\":5651:5663   */\n          div\n            /* \"#utility.yul\":5641:5663   */\n          swap1\n          pop\n            /* \"#utility.yul\":5708:5709   */\n          0x01\n            /* \"#utility.yul\":5702:5706   */\n          dup3\n            /* \"#utility.yul\":5698:5710   */\n          and\n            /* \"#utility.yul\":5729:5747   */\n          dup1\n            /* \"#utility.yul\":5719:5800   */\n          tag_114\n          jumpi\n            /* \"#utility.yul\":5785:5789   */\n          0x7f\n            /* \"#utility.yul\":5777:5783   */\n          dup3\n            /* \"#utility.yul\":5773:5790   */\n          and\n            /* \"#utility.yul\":5763:5790   */\n          swap2\n          pop\n            /* \"#utility.yul\":5719:5800   */\n        tag_114:\n            /* \"#utility.yul\":5847:5849   */\n          0x20\n            /* \"#utility.yul\":5839:5845   */\n          dup3\n            /* \"#utility.yul\":5836:5850   */\n          lt\n            /* \"#utility.yul\":5816:5834   */\n          dup2\n            /* \"#utility.yul\":5813:5851   */\n          eq\n            /* \"#utility.yul\":5810:5894   */\n          iszero\n          tag_115\n          jumpi\n            /* \"#utility.yul\":5866:5884   */\n          tag_116\n          tag_44\n          jump\t// in\n        tag_116:\n            /* \"#utility.yul\":5810:5894   */\n        tag_115:\n            /* \"#utility.yul\":5631:5900   */\n          pop\n            /* \"#utility.yul\":5580:5900   */\n          swap2\n          swap1\n          pop\n          jump\t// out\n            /* \"Funding.sol\":2811:4914  contract Request {... */\n        tag_8:\n          dataSize(sub_0)\n          dup1\n          dataOffset(sub_0)\n          0x00\n          codecopy\n          0x00\n          return\n        stop\n\n        sub_0: assembly {\n                /* \"Funding.sol\":2811:4914  contract Request {... */\n              mstore(0x40, 0x80)\n              jumpi(tag_1, lt(calldatasize, 0x04))\n              shr(0xe0, calldataload(0x00))\n              dup1\n              0x937e09b1\n              gt\n              tag_18\n              jumpi\n              dup1\n              0xc236bb22\n              gt\n              tag_19\n              jumpi\n              dup1\n              0xc236bb22\n              eq\n              tag_14\n              jumpi\n              dup1\n              0xd5d9ce91\n              eq\n              tag_15\n              jumpi\n              dup1\n              0xd7bb99ba\n              eq\n              tag_16\n              jumpi\n              dup1\n              0xecfd8928\n              eq\n              tag_17\n              jumpi\n              jump(tag_1)\n            tag_19:\n              dup1\n              0x937e09b1\n              eq\n              tag_10\n              jumpi\n              dup1\n              0xa885bd54\n              eq\n              tag_11\n              jumpi\n              dup1\n              0xaa8c217c\n              eq\n              tag_12\n              jumpi\n              dup1\n              0xad285cad\n              eq\n              tag_13\n              jumpi\n              jump(tag_1)\n            tag_18:\n              dup1\n              0x1f6d4942\n              gt\n              tag_20\n              jumpi\n              dup1\n              0x1f6d4942\n              eq\n              tag_6\n              jumpi\n              dup1\n              0x481c6a75\n              eq\n              tag_7\n              jumpi\n              dup1\n              0x66d003ac\n              eq\n              tag_8\n              jumpi\n              dup1\n              0x7284e416\n              eq\n              tag_9\n              jumpi\n              jump(tag_1)\n            tag_20:\n              dup1\n              0x01cf89a8\n              eq\n              tag_2\n              jumpi\n              dup1\n              0x12424e3f\n              eq\n              tag_3\n              jumpi\n              dup1\n              0x158fba8f\n              eq\n              tag_4\n              jumpi\n              dup1\n              0x19d40b08\n              eq\n              tag_5\n              jumpi\n            tag_1:\n              0x00\n              dup1\n              revert\n                /* \"Funding.sol\":4440:4809  function banRequest() external isOpen {... */\n            tag_2:\n              callvalue\n              dup1\n              iszero\n              tag_21\n              jumpi\n              0x00\n              dup1\n              revert\n            tag_21:\n              pop\n              tag_22\n              tag_23\n              jump\t// in\n            tag_22:\n              stop\n                /* \"Funding.sol\":4227:4432  function approve() external {... */\n            tag_3:\n              callvalue\n              dup1\n              iszero\n              tag_24\n              jumpi\n              0x00\n              dup1\n              revert\n            tag_24:\n              pop\n              tag_25\n              tag_26\n              jump\t// in\n            tag_25:\n              stop\n                /* \"Funding.sol\":3278:3296  bool public banned */\n            tag_4:\n              callvalue\n              dup1\n              iszero\n              tag_27\n              jumpi\n              0x00\n              dup1\n              revert\n            tag_27:\n              pop\n              tag_28\n              tag_29\n              jump\t// in\n            tag_28:\n              mload(0x40)\n              tag_30\n              swap2\n              swap1\n              tag_31\n              jump\t// in\n            tag_30:\n              mload(0x40)\n              dup1\n              swap2\n              sub\n              swap1\n              return\n                /* \"Funding.sol\":3049:3069  bool public approved */\n            tag_5:\n              callvalue\n              dup1\n              iszero\n              tag_32\n              jumpi\n              0x00\n              dup1\n              revert\n            tag_32:\n              pop\n              tag_33\n              tag_34\n              jump\t// in\n            tag_33:\n              mload(0x40)\n              tag_35\n              swap2\n              swap1\n              tag_31\n              jump\t// in\n            tag_35:\n              mload(0x40)\n              dup1\n              swap2\n              sub\n              swap1\n              return\n                /* \"Funding.sol\":3076:3120  mapping(address => bool) public contributors */\n            tag_6:\n              callvalue\n              dup1\n              iszero\n              tag_36\n              jumpi\n              0x00\n              dup1\n              revert\n            tag_36:\n              pop\n              tag_37\n              0x04\n              dup1\n              calldatasize\n              sub\n              dup2\n              add\n              swap1\n              tag_38\n              swap2\n              swap1\n              tag_39\n              jump\t// in\n            tag_38:\n              tag_40\n              jump\t// in\n            tag_37:\n              mload(0x40)\n              tag_41\n              swap2\n              swap1\n              tag_31\n              jump\t// in\n            tag_41:\n              mload(0x40)\n              dup1\n              swap2\n              sub\n              swap1\n              return\n                /* \"Funding.sol\":2873:2896  Manager public  manager */\n            tag_7:\n              callvalue\n              dup1\n              iszero\n              tag_42\n              jumpi\n              0x00\n              dup1\n              revert\n            tag_42:\n              pop\n              tag_43\n              tag_44\n              jump\t// in\n            tag_43:\n              mload(0x40)\n              tag_45\n              swap2\n              swap1\n              tag_46\n              jump\t// in\n            tag_45:\n              mload(0x40)\n              dup1\n              swap2\n              sub\n              swap1\n              return\n                /* \"Funding.sol\":2976:3008  address payable public recipient */\n            tag_8:\n              callvalue\n              dup1\n              iszero\n              tag_47\n              jumpi\n              0x00\n              dup1\n              revert\n            tag_47:\n              pop\n              tag_48\n              tag_49\n              jump\t// in\n            tag_48:\n              mload(0x40)\n              tag_50\n              swap2\n              swap1\n              tag_51\n              jump\t// in\n            tag_50:\n              mload(0x40)\n              dup1\n              swap2\n              sub\n              swap1\n              return\n                /* \"Funding.sol\":2918:2943  string public description */\n            tag_9:\n              callvalue\n              dup1\n              iszero\n              tag_52\n              jumpi\n              0x00\n              dup1\n              revert\n            tag_52:\n              pop\n              tag_53\n              tag_54\n              jump\t// in\n            tag_53:\n              mload(0x40)\n              tag_55\n              swap2\n              swap1\n              tag_56\n              jump\t// in\n            tag_55:\n              mload(0x40)\n              dup1\n              swap2\n              sub\n              swap1\n              return\n                /* \"Funding.sol\":2835:2866  uint public minimumContribution */\n            tag_10:\n              callvalue\n              dup1\n              iszero\n              tag_57\n              jumpi\n              0x00\n              dup1\n              revert\n            tag_57:\n              pop\n              tag_58\n              tag_59\n              jump\t// in\n            tag_58:\n              mload(0x40)\n              tag_60\n              swap2\n              swap1\n              tag_61\n              jump\t// in\n            tag_60:\n              mload(0x40)\n              dup1\n              swap2\n              sub\n              swap1\n              return\n                /* \"Funding.sol\":3246:3271  uint public totalBanCount */\n            tag_11:\n              callvalue\n              dup1\n              iszero\n              tag_62\n              jumpi\n              0x00\n              dup1\n              revert\n            tag_62:\n              pop\n              tag_63\n              tag_64\n              jump\t// in\n            tag_63:\n              mload(0x40)\n              tag_65\n              swap2\n              swap1\n              tag_61\n              jump\t// in\n            tag_65:\n              mload(0x40)\n              dup1\n              swap2\n              sub\n              swap1\n              return\n                /* \"Funding.sol\":2950:2969  uint public  amount */\n            tag_12:\n              callvalue\n              dup1\n              iszero\n              tag_66\n              jumpi\n              0x00\n              dup1\n              revert\n            tag_66:\n              pop\n              tag_67\n              tag_68\n              jump\t// in\n            tag_67:\n              mload(0x40)\n              tag_69\n              swap2\n              swap1\n              tag_61\n              jump\t// in\n            tag_69:\n              mload(0x40)\n              dup1\n              swap2\n              sub\n              swap1\n              return\n                /* \"Funding.sol\":3203:3239  mapping(address => bool) public bans */\n            tag_13:\n              callvalue\n              dup1\n              iszero\n              tag_70\n              jumpi\n              0x00\n              dup1\n              revert\n            tag_70:\n              pop\n              tag_71\n              0x04\n              dup1\n              calldatasize\n              sub\n              dup2\n              add\n              swap1\n              tag_72\n              swap2\n              swap1\n              tag_39\n              jump\t// in\n            tag_72:\n              tag_73\n              jump\t// in\n            tag_71:\n              mload(0x40)\n              tag_74\n              swap2\n              swap1\n              tag_31\n              jump\t// in\n            tag_74:\n              mload(0x40)\n              dup1\n              swap2\n              sub\n              swap1\n              return\n                /* \"Funding.sol\":3162:3194  uint public totalAmountCollected */\n            tag_14:\n              callvalue\n              dup1\n              iszero\n              tag_75\n              jumpi\n              0x00\n              dup1\n              revert\n            tag_75:\n              pop\n              tag_76\n              tag_77\n              jump\t// in\n            tag_76:\n              mload(0x40)\n              tag_78\n              swap2\n              swap1\n              tag_61\n              jump\t// in\n            tag_78:\n              mload(0x40)\n              dup1\n              swap2\n              sub\n              swap1\n              return\n                /* \"Funding.sol\":4817:4911  function ban() public isOpen {... */\n            tag_15:\n              callvalue\n              dup1\n              iszero\n              tag_79\n              jumpi\n              0x00\n              dup1\n              revert\n            tag_79:\n              pop\n              tag_80\n              tag_81\n              jump\t// in\n            tag_80:\n              stop\n                /* \"Funding.sol\":3728:4168  function contribute() external payable isOpen {... */\n            tag_16:\n              tag_82\n              tag_83\n              jump\t// in\n            tag_82:\n              stop\n                /* \"Funding.sol\":3127:3155  uint public contributorCount */\n            tag_17:\n              callvalue\n              dup1\n              iszero\n              tag_84\n              jumpi\n              0x00\n              dup1\n              revert\n            tag_84:\n              pop\n              tag_85\n              tag_86\n              jump\t// in\n            tag_85:\n              mload(0x40)\n              tag_87\n              swap2\n              swap1\n              tag_61\n              jump\t// in\n            tag_87:\n              mload(0x40)\n              dup1\n              swap2\n              sub\n              swap1\n              return\n                /* \"Funding.sol\":4440:4809  function banRequest() external isOpen {... */\n            tag_23:\n                /* \"Funding.sol\":3343:3351  approved */\n              0x04\n              0x14\n              swap1\n              sload\n              swap1\n              0x0100\n              exp\n              swap1\n              div\n              0xff\n              and\n                /* \"Funding.sol\":3342:3351  !approved */\n              iszero\n                /* \"Funding.sol\":3342:3362  !approved && !banned */\n              dup1\n              iszero\n              tag_89\n              jumpi\n              pop\n                /* \"Funding.sol\":3356:3362  banned */\n              0x0a\n              0x00\n              swap1\n              sload\n              swap1\n              0x0100\n              exp\n              swap1\n              div\n              0xff\n              and\n                /* \"Funding.sol\":3355:3362  !banned */\n              iszero\n                /* \"Funding.sol\":3342:3362  !approved && !banned */\n            tag_89:\n                /* \"Funding.sol\":3334:3386  require(!approved && !banned, \"banned or completed\") */\n              tag_90\n              jumpi\n              mload(0x40)\n              0x08c379a000000000000000000000000000000000000000000000000000000000\n              dup2\n              mstore\n              0x04\n              add\n              tag_91\n              swap1\n              tag_92\n              jump\t// in\n            tag_91:\n              mload(0x40)\n              dup1\n              swap2\n              sub\n              swap1\n              revert\n            tag_90:\n                /* \"Funding.sol\":4497:4509  contributors */\n              0x05\n                /* \"Funding.sol\":4497:4521  contributors[msg.sender] */\n              0x00\n                /* \"Funding.sol\":4510:4520  msg.sender */\n              caller\n                /* \"Funding.sol\":4497:4521  contributors[msg.sender] */\n              0xffffffffffffffffffffffffffffffffffffffff\n              and\n              0xffffffffffffffffffffffffffffffffffffffff\n              and\n              dup2\n              mstore\n              0x20\n              add\n              swap1\n              dup2\n              mstore\n              0x20\n              add\n              0x00\n              keccak256\n              0x00\n              swap1\n              sload\n              swap1\n              0x0100\n              exp\n              swap1\n              div\n              0xff\n              and\n                /* \"Funding.sol\":4489:4551  require(contributors[msg.sender], \"you are not a contributor\") */\n              tag_94\n              jumpi\n              mload(0x40)\n              0x08c379a000000000000000000000000000000000000000000000000000000000\n              dup2\n              mstore\n              0x04\n              add\n              tag_95\n              swap1\n              tag_96\n              jump\t// in\n            tag_95:\n              mload(0x40)\n              dup1\n              swap2\n              sub\n              swap1\n              revert\n            tag_94:\n                /* \"Funding.sol\":4571:4575  bans */\n              0x08\n                /* \"Funding.sol\":4571:4587  bans[msg.sender] */\n              0x00\n                /* \"Funding.sol\":4576:4586  msg.sender */\n              caller\n                /* \"Funding.sol\":4571:4587  bans[msg.sender] */\n              0xffffffffffffffffffffffffffffffffffffffff\n              and\n              0xffffffffffffffffffffffffffffffffffffffff\n              and\n              dup2\n              mstore\n              0x20\n              add\n              swap1\n              dup2\n              mstore\n              0x20\n              add\n              0x00\n              keccak256\n              0x00\n              swap1\n              sload\n              swap1\n              0x0100\n              exp\n              swap1\n              div\n              0xff\n              and\n                /* \"Funding.sol\":4570:4587  !bans[msg.sender] */\n              iszero\n                /* \"Funding.sol\":4562:4615  require(!bans[msg.sender], \"you have already banned\") */\n              tag_97\n              jumpi\n              mload(0x40)\n              0x08c379a000000000000000000000000000000000000000000000000000000000\n              dup2\n              mstore\n              0x04\n              add\n              tag_98\n              swap1\n              tag_99\n              jump\t// in\n            tag_98:\n              mload(0x40)\n              dup1\n              swap2\n              sub\n              swap1\n              revert\n            tag_97:\n                /* \"Funding.sol\":4647:4651  true */\n              0x01\n                /* \"Funding.sol\":4628:4632  bans */\n              0x08\n                /* \"Funding.sol\":4628:4644  bans[msg.sender] */\n              0x00\n                /* \"Funding.sol\":4633:4643  msg.sender */\n              caller\n                /* \"Funding.sol\":4628:4644  bans[msg.sender] */\n              0xffffffffffffffffffffffffffffffffffffffff\n              and\n              0xffffffffffffffffffffffffffffffffffffffff\n              and\n              dup2\n              mstore\n              0x20\n              add\n              swap1\n              dup2\n              mstore\n              0x20\n              add\n              0x00\n              keccak256\n              0x00\n                /* \"Funding.sol\":4628:4651  bans[msg.sender] = true */\n              0x0100\n              exp\n              dup2\n              sload\n              dup2\n              0xff\n              mul\n              not\n              and\n              swap1\n              dup4\n              iszero\n              iszero\n              mul\n              or\n              swap1\n              sstore\n              pop\n                /* \"Funding.sol\":4662:4675  totalBanCount */\n              0x09\n              0x00\n                /* \"Funding.sol\":4662:4677  totalBanCount++ */\n              dup2\n              sload\n              dup1\n              swap3\n              swap2\n              swap1\n              tag_100\n              swap1\n              tag_101\n              jump\t// in\n            tag_100:\n              swap2\n              swap1\n              pop\n              sstore\n              pop\n                /* \"Funding.sol\":4690:4708  uint banPercentage */\n              0x00\n                /* \"Funding.sol\":4746:4749  100 */\n              0x64\n                /* \"Funding.sol\":4726:4742  contributorCount */\n              sload(0x06)\n                /* \"Funding.sol\":4712:4725  totalBanCount */\n              sload(0x09)\n                /* \"Funding.sol\":4712:4742  totalBanCount/contributorCount */\n              tag_102\n              swap2\n              swap1\n              tag_103\n              jump\t// in\n            tag_102:\n                /* \"Funding.sol\":4711:4749  (totalBanCount/contributorCount) * 100 */\n              tag_104\n              swap2\n              swap1\n              tag_105\n              jump\t// in\n            tag_104:\n                /* \"Funding.sol\":4690:4749  uint banPercentage = (totalBanCount/contributorCount) * 100 */\n              swap1\n              pop\n                /* \"Funding.sol\":4779:4781  90 */\n              0x5a\n                /* \"Funding.sol\":4763:4776  banPercentage */\n              dup2\n                /* \"Funding.sol\":4763:4781  banPercentage > 90 */\n              gt\n                /* \"Funding.sol\":4760:4801  if(banPercentage > 90)... */\n              iszero\n              tag_106\n              jumpi\n                /* \"Funding.sol\":4796:4801  ban() */\n              tag_107\n                /* \"Funding.sol\":4796:4799  ban */\n              tag_81\n                /* \"Funding.sol\":4796:4801  ban() */\n              jump\t// in\n            tag_107:\n                /* \"Funding.sol\":4760:4801  if(banPercentage > 90)... */\n            tag_106:\n                /* \"Funding.sol\":4478:4809  {... */\n              pop\n                /* \"Funding.sol\":4440:4809  function banRequest() external isOpen {... */\n              jump\t// out\n                /* \"Funding.sol\":4227:4432  function approve() external {... */\n            tag_26:\n                /* \"Funding.sol\":4319:4328  recipient */\n              0x04\n              0x00\n              swap1\n              sload\n              swap1\n              0x0100\n              exp\n              swap1\n              div\n              0xffffffffffffffffffffffffffffffffffffffff\n              and\n                /* \"Funding.sol\":4319:4337  recipient.transfer */\n              0xffffffffffffffffffffffffffffffffffffffff\n              and\n                /* \"Funding.sol\":4319:4360  recipient.transfer(address(this).balance) */\n              0x08fc\n                /* \"Funding.sol\":4338:4359  address(this).balance */\n              selfbalance\n                /* \"Funding.sol\":4319:4360  recipient.transfer(address(this).balance) */\n              swap1\n              dup2\n              iszero\n              mul\n              swap1\n              mload(0x40)\n              0x00\n              mload(0x40)\n              dup1\n              dup4\n              sub\n              dup2\n              dup6\n              dup9\n              dup9\n              call\n              swap4\n              pop\n              pop\n              pop\n              pop\n              iszero\n              dup1\n              iszero\n              tag_110\n              jumpi\n              returndatasize\n              0x00\n              dup1\n              returndatacopy\n              revert(0x00, returndatasize)\n            tag_110:\n              pop\n                /* \"Funding.sol\":4384:4388  true */\n              0x01\n                /* \"Funding.sol\":4373:4381  approved */\n              0x04\n              0x14\n                /* \"Funding.sol\":4373:4388  approved = true */\n              0x0100\n              exp\n              dup2\n              sload\n              dup2\n              0xff\n              mul\n              not\n              and\n              swap1\n              dup4\n              iszero\n              iszero\n              mul\n              or\n              swap1\n              sstore\n              pop\n                /* \"Funding.sol\":4401:4408  manager */\n              0x01\n              0x00\n              swap1\n              sload\n              swap1\n              0x0100\n              exp\n              swap1\n              div\n              0xffffffffffffffffffffffffffffffffffffffff\n              and\n                /* \"Funding.sol\":4401:4422  manager.removeHolding */\n              0xffffffffffffffffffffffffffffffffffffffff\n              and\n              0x02cff5c5\n                /* \"Funding.sol\":4401:4424  manager.removeHolding() */\n              mload(0x40)\n              dup2\n              0xffffffff\n              and\n              0xe0\n              shl\n              dup2\n              mstore\n              0x04\n              add\n              0x00\n              mload(0x40)\n              dup1\n              dup4\n              sub\n              dup2\n              0x00\n              dup8\n              dup1\n              extcodesize\n              iszero\n              dup1\n              iszero\n              tag_111\n              jumpi\n              0x00\n              dup1\n              revert\n            tag_111:\n              pop\n              gas\n              call\n              iszero\n              dup1\n              iszero\n              tag_113\n              jumpi\n              returndatasize\n              0x00\n              dup1\n              returndatacopy\n              revert(0x00, returndatasize)\n            tag_113:\n              pop\n              pop\n              pop\n              pop\n                /* \"Funding.sol\":4227:4432  function approve() external {... */\n              jump\t// out\n                /* \"Funding.sol\":3278:3296  bool public banned */\n            tag_29:\n              0x0a\n              0x00\n              swap1\n              sload\n              swap1\n              0x0100\n              exp\n              swap1\n              div\n              0xff\n              and\n              dup2\n              jump\t// out\n                /* \"Funding.sol\":3049:3069  bool public approved */\n            tag_34:\n              0x04\n              0x14\n              swap1\n              sload\n              swap1\n              0x0100\n              exp\n              swap1\n              div\n              0xff\n              and\n              dup2\n              jump\t// out\n                /* \"Funding.sol\":3076:3120  mapping(address => bool) public contributors */\n            tag_40:\n              mstore(0x20, 0x05)\n              dup1\n              0x00\n              mstore\n              keccak256(0x00, 0x40)\n              0x00\n              swap2\n              pop\n              sload\n              swap1\n              0x0100\n              exp\n              swap1\n              div\n              0xff\n              and\n              dup2\n              jump\t// out\n                /* \"Funding.sol\":2873:2896  Manager public  manager */\n            tag_44:\n              0x01\n              0x00\n              swap1\n              sload\n              swap1\n              0x0100\n              exp\n              swap1\n              div\n              0xffffffffffffffffffffffffffffffffffffffff\n              and\n              dup2\n              jump\t// out\n                /* \"Funding.sol\":2976:3008  address payable public recipient */\n            tag_49:\n              0x04\n              0x00\n              swap1\n              sload\n              swap1\n              0x0100\n              exp\n              swap1\n              div\n              0xffffffffffffffffffffffffffffffffffffffff\n              and\n              dup2\n              jump\t// out\n                /* \"Funding.sol\":2918:2943  string public description */\n            tag_54:\n              0x02\n              dup1\n              sload\n              tag_114\n              swap1\n              tag_115\n              jump\t// in\n            tag_114:\n              dup1\n              0x1f\n              add\n              0x20\n              dup1\n              swap2\n              div\n              mul\n              0x20\n              add\n              mload(0x40)\n              swap1\n              dup2\n              add\n              0x40\n              mstore\n              dup1\n              swap3\n              swap2\n              swap1\n              dup2\n              dup2\n              mstore\n              0x20\n              add\n              dup3\n              dup1\n              sload\n              tag_116\n              swap1\n              tag_115\n              jump\t// in\n            tag_116:\n              dup1\n              iszero\n              tag_117\n              jumpi\n              dup1\n              0x1f\n              lt\n              tag_118\n              jumpi\n              0x0100\n              dup1\n              dup4\n              sload\n              div\n              mul\n              dup4\n              mstore\n              swap2\n              0x20\n              add\n              swap2\n              jump(tag_117)\n            tag_118:\n              dup3\n              add\n              swap2\n              swap1\n              0x00\n              mstore\n              keccak256(0x00, 0x20)\n              swap1\n            tag_119:\n              dup2\n              sload\n              dup2\n              mstore\n              swap1\n              0x01\n              add\n              swap1\n              0x20\n              add\n              dup1\n              dup4\n              gt\n              tag_119\n              jumpi\n              dup3\n              swap1\n              sub\n              0x1f\n              and\n              dup3\n              add\n              swap2\n            tag_117:\n              pop\n              pop\n              pop\n              pop\n              pop\n              dup2\n              jump\t// out\n                /* \"Funding.sol\":2835:2866  uint public minimumContribution */\n            tag_59:\n              sload(0x00)\n              dup2\n              jump\t// out\n                /* \"Funding.sol\":3246:3271  uint public totalBanCount */\n            tag_64:\n              sload(0x09)\n              dup2\n              jump\t// out\n                /* \"Funding.sol\":2950:2969  uint public  amount */\n            tag_68:\n              sload(0x03)\n              dup2\n              jump\t// out\n                /* \"Funding.sol\":3203:3239  mapping(address => bool) public bans */\n            tag_73:\n              mstore(0x20, 0x08)\n              dup1\n              0x00\n              mstore\n              keccak256(0x00, 0x40)\n              0x00\n              swap2\n              pop\n              sload\n              swap1\n              0x0100\n              exp\n              swap1\n              div\n              0xff\n              and\n              dup2\n              jump\t// out\n                /* \"Funding.sol\":3162:3194  uint public totalAmountCollected */\n            tag_77:\n              sload(0x07)\n              dup2\n              jump\t// out\n                /* \"Funding.sol\":4817:4911  function ban() public isOpen {... */\n            tag_81:\n                /* \"Funding.sol\":3343:3351  approved */\n              0x04\n              0x14\n              swap1\n              sload\n              swap1\n              0x0100\n              exp\n              swap1\n              div\n              0xff\n              and\n                /* \"Funding.sol\":3342:3351  !approved */\n              iszero\n                /* \"Funding.sol\":3342:3362  !approved && !banned */\n              dup1\n              iszero\n              tag_121\n              jumpi\n              pop\n                /* \"Funding.sol\":3356:3362  banned */\n              0x0a\n              0x00\n              swap1\n              sload\n              swap1\n              0x0100\n              exp\n              swap1\n              div\n              0xff\n              and\n                /* \"Funding.sol\":3355:3362  !banned */\n              iszero\n                /* \"Funding.sol\":3342:3362  !approved && !banned */\n            tag_121:\n                /* \"Funding.sol\":3334:3386  require(!approved && !banned, \"banned or completed\") */\n              tag_122\n              jumpi\n              mload(0x40)\n              0x08c379a000000000000000000000000000000000000000000000000000000000\n              dup2\n              mstore\n              0x04\n              add\n              tag_123\n              swap1\n              tag_92\n              jump\t// in\n            tag_123:\n              mload(0x40)\n              dup1\n              swap2\n              sub\n              swap1\n              revert\n            tag_122:\n                /* \"Funding.sol\":4857:4864  manager */\n              0x01\n              0x00\n              swap1\n              sload\n              swap1\n              0x0100\n              exp\n              swap1\n              div\n              0xffffffffffffffffffffffffffffffffffffffff\n              and\n                /* \"Funding.sol\":4857:4877  manager.addTotalBans */\n              0xffffffffffffffffffffffffffffffffffffffff\n              and\n              0xcb6ff4a3\n                /* \"Funding.sol\":4857:4879  manager.addTotalBans() */\n              mload(0x40)\n              dup2\n              0xffffffff\n              and\n              0xe0\n              shl\n              dup2\n              mstore\n              0x04\n              add\n              0x00\n              mload(0x40)\n              dup1\n              dup4\n              sub\n              dup2\n              0x00\n              dup8\n              dup1\n              extcodesize\n              iszero\n              dup1\n              iszero\n              tag_125\n              jumpi\n              0x00\n              dup1\n              revert\n            tag_125:\n              pop\n              gas\n              call\n              iszero\n              dup1\n              iszero\n              tag_127\n              jumpi\n              returndatasize\n              0x00\n              dup1\n              returndatacopy\n              revert(0x00, returndatasize)\n            tag_127:\n              pop\n              pop\n              pop\n              pop\n                /* \"Funding.sol\":4899:4903  true */\n              0x01\n                /* \"Funding.sol\":4890:4896  banned */\n              0x0a\n              0x00\n                /* \"Funding.sol\":4890:4903  banned = true */\n              0x0100\n              exp\n              dup2\n              sload\n              dup2\n              0xff\n              mul\n              not\n              and\n              swap1\n              dup4\n              iszero\n              iszero\n              mul\n              or\n              swap1\n              sstore\n              pop\n                /* \"Funding.sol\":4817:4911  function ban() public isOpen {... */\n              jump\t// out\n                /* \"Funding.sol\":3728:4168  function contribute() external payable isOpen {... */\n            tag_83:\n                /* \"Funding.sol\":3343:3351  approved */\n              0x04\n              0x14\n              swap1\n              sload\n              swap1\n              0x0100\n              exp\n              swap1\n              div\n              0xff\n              and\n                /* \"Funding.sol\":3342:3351  !approved */\n              iszero\n                /* \"Funding.sol\":3342:3362  !approved && !banned */\n              dup1\n              iszero\n              tag_129\n              jumpi\n              pop\n                /* \"Funding.sol\":3356:3362  banned */\n              0x0a\n              0x00\n              swap1\n              sload\n              swap1\n              0x0100\n              exp\n              swap1\n              div\n              0xff\n              and\n                /* \"Funding.sol\":3355:3362  !banned */\n              iszero\n                /* \"Funding.sol\":3342:3362  !approved && !banned */\n            tag_129:\n                /* \"Funding.sol\":3334:3386  require(!approved && !banned, \"banned or completed\") */\n              tag_130\n              jumpi\n              mload(0x40)\n              0x08c379a000000000000000000000000000000000000000000000000000000000\n              dup2\n              mstore\n              0x04\n              add\n              tag_131\n              swap1\n              tag_92\n              jump\t// in\n            tag_131:\n              mload(0x40)\n              dup1\n              swap2\n              sub\n              swap1\n              revert\n            tag_130:\n                /* \"Funding.sol\":3806:3825  minimumContribution */\n              sload(0x00)\n                /* \"Funding.sol\":3793:3802  msg.value */\n              callvalue\n                /* \"Funding.sol\":3793:3825  msg.value >= minimumContribution */\n              lt\n              iszero\n                /* \"Funding.sol\":3785:3849  require(msg.value >= minimumContribution, \"less amount donated\") */\n              tag_133\n              jumpi\n              mload(0x40)\n              0x08c379a000000000000000000000000000000000000000000000000000000000\n              dup2\n              mstore\n              0x04\n              add\n              tag_134\n              swap1\n              tag_135\n              jump\t// in\n            tag_134:\n              mload(0x40)\n              dup1\n              swap2\n              sub\n              swap1\n              revert\n            tag_133:\n                /* \"Funding.sol\":3869:3875  banned */\n              0x0a\n              0x00\n              swap1\n              sload\n              swap1\n              0x0100\n              exp\n              swap1\n              div\n              0xff\n              and\n                /* \"Funding.sol\":3868:3875  !banned */\n              iszero\n                /* \"Funding.sol\":3860:3910  require(!banned, \"can't donate to banned request\") */\n              tag_136\n              jumpi\n              mload(0x40)\n              0x08c379a000000000000000000000000000000000000000000000000000000000\n              dup2\n              mstore\n              0x04\n              add\n              tag_137\n              swap1\n              tag_138\n              jump\t// in\n            tag_137:\n              mload(0x40)\n              dup1\n              swap2\n              sub\n              swap1\n              revert\n            tag_136:\n                /* \"Funding.sol\":3952:3958  amount */\n              sload(0x03)\n                /* \"Funding.sol\":3929:3949  totalAmountCollected */\n              sload(0x07)\n                /* \"Funding.sol\":3929:3958  totalAmountCollected < amount */\n              lt\n                /* \"Funding.sol\":3921:3982  require(totalAmountCollected < amount, \"goal amount reached\") */\n              tag_139\n              jumpi\n              mload(0x40)\n              0x08c379a000000000000000000000000000000000000000000000000000000000\n              dup2\n              mstore\n              0x04\n              add\n              tag_140\n              swap1\n              tag_141\n              jump\t// in\n            tag_140:\n              mload(0x40)\n              dup1\n              swap2\n              sub\n              swap1\n              revert\n            tag_139:\n                /* \"Funding.sol\":3999:4011  contributors */\n              0x05\n                /* \"Funding.sol\":3999:4023  contributors[msg.sender] */\n              0x00\n                /* \"Funding.sol\":4012:4022  msg.sender */\n              caller\n                /* \"Funding.sol\":3999:4023  contributors[msg.sender] */\n              0xffffffffffffffffffffffffffffffffffffffff\n              and\n              0xffffffffffffffffffffffffffffffffffffffff\n              and\n              dup2\n              mstore\n              0x20\n              add\n              swap1\n              dup2\n              mstore\n              0x20\n              add\n              0x00\n              keccak256\n              0x00\n              swap1\n              sload\n              swap1\n              0x0100\n              exp\n              swap1\n              div\n              0xff\n              and\n                /* \"Funding.sol\":3995:4115  if(!contributors[msg.sender]){... */\n              tag_142\n              jumpi\n                /* \"Funding.sol\":4039:4055  contributorCount */\n              0x06\n              0x00\n                /* \"Funding.sol\":4039:4057  contributorCount++ */\n              dup2\n              sload\n              dup1\n              swap3\n              swap2\n              swap1\n              tag_143\n              swap1\n              tag_101\n              jump\t// in\n            tag_143:\n              swap2\n              swap1\n              pop\n              sstore\n              pop\n                /* \"Funding.sol\":4099:4103  true */\n              0x01\n                /* \"Funding.sol\":4072:4084  contributors */\n              0x05\n                /* \"Funding.sol\":4072:4096  contributors[msg.sender] */\n              0x00\n                /* \"Funding.sol\":4085:4095  msg.sender */\n              caller\n                /* \"Funding.sol\":4072:4096  contributors[msg.sender] */\n              0xffffffffffffffffffffffffffffffffffffffff\n              and\n              0xffffffffffffffffffffffffffffffffffffffff\n              and\n              dup2\n              mstore\n              0x20\n              add\n              swap1\n              dup2\n              mstore\n              0x20\n              add\n              0x00\n              keccak256\n              0x00\n                /* \"Funding.sol\":4072:4103  contributors[msg.sender] = true */\n              0x0100\n              exp\n              dup2\n              sload\n              dup2\n              0xff\n              mul\n              not\n              and\n              swap1\n              dup4\n              iszero\n              iszero\n              mul\n              or\n              swap1\n              sstore\n              pop\n                /* \"Funding.sol\":3995:4115  if(!contributors[msg.sender]){... */\n            tag_142:\n                /* \"Funding.sol\":4151:4160  msg.value */\n              callvalue\n                /* \"Funding.sol\":4127:4147  totalAmountCollected */\n              0x07\n              0x00\n                /* \"Funding.sol\":4127:4160  totalAmountCollected += msg.value */\n              dup3\n              dup3\n              sload\n              tag_144\n              swap2\n              swap1\n              tag_145\n              jump\t// in\n            tag_144:\n              swap3\n              pop\n              pop\n              dup2\n              swap1\n              sstore\n              pop\n                /* \"Funding.sol\":3728:4168  function contribute() external payable isOpen {... */\n              jump\t// out\n                /* \"Funding.sol\":3127:3155  uint public contributorCount */\n            tag_86:\n              sload(0x06)\n              dup2\n              jump\t// out\n                /* \"#utility.yul\":7:97   */\n            tag_146:\n                /* \"#utility.yul\":41:48   */\n              0x00\n                /* \"#utility.yul\":84:89   */\n              dup2\n                /* \"#utility.yul\":77:90   */\n              iszero\n                /* \"#utility.yul\":70:91   */\n              iszero\n                /* \"#utility.yul\":59:91   */\n              swap1\n              pop\n                /* \"#utility.yul\":7:97   */\n              swap2\n              swap1\n              pop\n              jump\t// out\n                /* \"#utility.yul\":103:212   */\n            tag_147:\n                /* \"#utility.yul\":184:205   */\n              tag_187\n                /* \"#utility.yul\":199:204   */\n              dup2\n                /* \"#utility.yul\":184:205   */\n              tag_146\n              jump\t// in\n            tag_187:\n                /* \"#utility.yul\":179:182   */\n              dup3\n                /* \"#utility.yul\":172:206   */\n              mstore\n                /* \"#utility.yul\":103:212   */\n              pop\n              pop\n              jump\t// out\n                /* \"#utility.yul\":218:428   */\n            tag_31:\n                /* \"#utility.yul\":305:309   */\n              0x00\n                /* \"#utility.yul\":343:345   */\n              0x20\n                /* \"#utility.yul\":332:341   */\n              dup3\n                /* \"#utility.yul\":328:346   */\n              add\n                /* \"#utility.yul\":320:346   */\n              swap1\n              pop\n                /* \"#utility.yul\":356:421   */\n              tag_189\n                /* \"#utility.yul\":418:419   */\n              0x00\n                /* \"#utility.yul\":407:416   */\n              dup4\n                /* \"#utility.yul\":403:420   */\n              add\n                /* \"#utility.yul\":394:400   */\n              dup5\n                /* \"#utility.yul\":356:421   */\n              tag_147\n              jump\t// in\n            tag_189:\n                /* \"#utility.yul\":218:428   */\n              swap3\n              swap2\n              pop\n              pop\n              jump\t// out\n                /* \"#utility.yul\":515:632   */\n            tag_149:\n                /* \"#utility.yul\":624:625   */\n              0x00\n                /* \"#utility.yul\":621:622   */\n              dup1\n                /* \"#utility.yul\":614:626   */\n              revert\n                /* \"#utility.yul\":761:887   */\n            tag_151:\n                /* \"#utility.yul\":798:805   */\n              0x00\n                /* \"#utility.yul\":838:880   */\n              0xffffffffffffffffffffffffffffffffffffffff\n                /* \"#utility.yul\":831:836   */\n              dup3\n                /* \"#utility.yul\":827:881   */\n              and\n                /* \"#utility.yul\":816:881   */\n              swap1\n              pop\n                /* \"#utility.yul\":761:887   */\n              swap2\n              swap1\n              pop\n              jump\t// out\n                /* \"#utility.yul\":893:989   */\n            tag_152:\n                /* \"#utility.yul\":930:937   */\n              0x00\n                /* \"#utility.yul\":959:983   */\n              tag_195\n                /* \"#utility.yul\":977:982   */\n              dup3\n                /* \"#utility.yul\":959:983   */\n              tag_151\n              jump\t// in\n            tag_195:\n                /* \"#utility.yul\":948:983   */\n              swap1\n              pop\n                /* \"#utility.yul\":893:989   */\n              swap2\n              swap1\n              pop\n              jump\t// out\n                /* \"#utility.yul\":995:1117   */\n            tag_153:\n                /* \"#utility.yul\":1068:1092   */\n              tag_197\n                /* \"#utility.yul\":1086:1091   */\n              dup2\n                /* \"#utility.yul\":1068:1092   */\n              tag_152\n              jump\t// in\n            tag_197:\n                /* \"#utility.yul\":1061:1066   */\n              dup2\n                /* \"#utility.yul\":1058:1093   */\n              eq\n                /* \"#utility.yul\":1048:1111   */\n              tag_198\n              jumpi\n                /* \"#utility.yul\":1107:1108   */\n              0x00\n                /* \"#utility.yul\":1104:1105   */\n              dup1\n                /* \"#utility.yul\":1097:1109   */\n              revert\n                /* \"#utility.yul\":1048:1111   */\n            tag_198:\n                /* \"#utility.yul\":995:1117   */\n              pop\n              jump\t// out\n                /* \"#utility.yul\":1123:1262   */\n            tag_154:\n                /* \"#utility.yul\":1169:1174   */\n              0x00\n                /* \"#utility.yul\":1207:1213   */\n              dup2\n                /* \"#utility.yul\":1194:1214   */\n              calldataload\n                /* \"#utility.yul\":1185:1214   */\n              swap1\n              pop\n                /* \"#utility.yul\":1223:1256   */\n              tag_200\n                /* \"#utility.yul\":1250:1255   */\n              dup2\n                /* \"#utility.yul\":1223:1256   */\n              tag_153\n              jump\t// in\n            tag_200:\n                /* \"#utility.yul\":1123:1262   */\n              swap3\n              swap2\n              pop\n              pop\n              jump\t// out\n                /* \"#utility.yul\":1268:1597   */\n            tag_39:\n                /* \"#utility.yul\":1327:1333   */\n              0x00\n                /* \"#utility.yul\":1376:1378   */\n              0x20\n                /* \"#utility.yul\":1364:1373   */\n              dup3\n                /* \"#utility.yul\":1355:1362   */\n              dup5\n                /* \"#utility.yul\":1351:1374   */\n              sub\n                /* \"#utility.yul\":1347:1379   */\n              slt\n                /* \"#utility.yul\":1344:1463   */\n              iszero\n              tag_202\n              jumpi\n                /* \"#utility.yul\":1382:1461   */\n              tag_203\n              tag_149\n              jump\t// in\n            tag_203:\n                /* \"#utility.yul\":1344:1463   */\n            tag_202:\n                /* \"#utility.yul\":1502:1503   */\n              0x00\n                /* \"#utility.yul\":1527:1580   */\n              tag_204\n                /* \"#utility.yul\":1572:1579   */\n              dup5\n                /* \"#utility.yul\":1563:1569   */\n              dup3\n                /* \"#utility.yul\":1552:1561   */\n              dup6\n                /* \"#utility.yul\":1548:1570   */\n              add\n                /* \"#utility.yul\":1527:1580   */\n              tag_154\n              jump\t// in\n            tag_204:\n                /* \"#utility.yul\":1517:1580   */\n              swap2\n              pop\n                /* \"#utility.yul\":1473:1590   */\n              pop\n                /* \"#utility.yul\":1268:1597   */\n              swap3\n              swap2\n              pop\n              pop\n              jump\t// out\n                /* \"#utility.yul\":1603:1663   */\n            tag_155:\n                /* \"#utility.yul\":1631:1634   */\n              0x00\n                /* \"#utility.yul\":1652:1657   */\n              dup2\n                /* \"#utility.yul\":1645:1657   */\n              swap1\n              pop\n                /* \"#utility.yul\":1603:1663   */\n              swap2\n              swap1\n              pop\n              jump\t// out\n                /* \"#utility.yul\":1669:1811   */\n            tag_156:\n                /* \"#utility.yul\":1719:1728   */\n              0x00\n                /* \"#utility.yul\":1752:1805   */\n              tag_207\n                /* \"#utility.yul\":1770:1804   */\n              tag_208\n                /* \"#utility.yul\":1779:1803   */\n              tag_209\n                /* \"#utility.yul\":1797:1802   */\n              dup5\n                /* \"#utility.yul\":1779:1803   */\n              tag_151\n              jump\t// in\n            tag_209:\n                /* \"#utility.yul\":1770:1804   */\n              tag_155\n              jump\t// in\n            tag_208:\n                /* \"#utility.yul\":1752:1805   */\n              tag_151\n              jump\t// in\n            tag_207:\n                /* \"#utility.yul\":1739:1805   */\n              swap1\n              pop\n                /* \"#utility.yul\":1669:1811   */\n              swap2\n              swap1\n              pop\n              jump\t// out\n                /* \"#utility.yul\":1817:1943   */\n            tag_157:\n                /* \"#utility.yul\":1867:1876   */\n              0x00\n                /* \"#utility.yul\":1900:1937   */\n              tag_211\n                /* \"#utility.yul\":1931:1936   */\n              dup3\n                /* \"#utility.yul\":1900:1937   */\n              tag_156\n              jump\t// in\n            tag_211:\n                /* \"#utility.yul\":1887:1937   */\n              swap1\n              pop\n                /* \"#utility.yul\":1817:1943   */\n              swap2\n              swap1\n              pop\n              jump\t// out\n                /* \"#utility.yul\":1949:2090   */\n            tag_158:\n                /* \"#utility.yul\":2014:2023   */\n              0x00\n                /* \"#utility.yul\":2047:2084   */\n              tag_213\n                /* \"#utility.yul\":2078:2083   */\n              dup3\n                /* \"#utility.yul\":2047:2084   */\n              tag_157\n              jump\t// in\n            tag_213:\n                /* \"#utility.yul\":2034:2084   */\n              swap1\n              pop\n                /* \"#utility.yul\":1949:2090   */\n              swap2\n              swap1\n              pop\n              jump\t// out\n                /* \"#utility.yul\":2096:2257   */\n            tag_159:\n                /* \"#utility.yul\":2198:2250   */\n              tag_215\n                /* \"#utility.yul\":2244:2249   */\n              dup2\n                /* \"#utility.yul\":2198:2250   */\n              tag_158\n              jump\t// in\n            tag_215:\n                /* \"#utility.yul\":2193:2196   */\n              dup3\n                /* \"#utility.yul\":2186:2251   */\n              mstore\n                /* \"#utility.yul\":2096:2257   */\n              pop\n              pop\n              jump\t// out\n                /* \"#utility.yul\":2263:2515   */\n            tag_46:\n                /* \"#utility.yul\":2371:2375   */\n              0x00\n                /* \"#utility.yul\":2409:2411   */\n              0x20\n                /* \"#utility.yul\":2398:2407   */\n              dup3\n                /* \"#utility.yul\":2394:2412   */\n              add\n                /* \"#utility.yul\":2386:2412   */\n              swap1\n              pop\n                /* \"#utility.yul\":2422:2508   */\n              tag_217\n                /* \"#utility.yul\":2505:2506   */\n              0x00\n                /* \"#utility.yul\":2494:2503   */\n              dup4\n                /* \"#utility.yul\":2490:2507   */\n              add\n                /* \"#utility.yul\":2481:2487   */\n              dup5\n                /* \"#utility.yul\":2422:2508   */\n              tag_159\n              jump\t// in\n            tag_217:\n                /* \"#utility.yul\":2263:2515   */\n              swap3\n              swap2\n              pop\n              pop\n              jump\t// out\n                /* \"#utility.yul\":2521:2625   */\n            tag_160:\n                /* \"#utility.yul\":2566:2573   */\n              0x00\n                /* \"#utility.yul\":2595:2619   */\n              tag_219\n                /* \"#utility.yul\":2613:2618   */\n              dup3\n                /* \"#utility.yul\":2595:2619   */\n              tag_151\n              jump\t// in\n            tag_219:\n                /* \"#utility.yul\":2584:2619   */\n              swap1\n              pop\n                /* \"#utility.yul\":2521:2625   */\n              swap2\n              swap1\n              pop\n              jump\t// out\n                /* \"#utility.yul\":2631:2773   */\n            tag_161:\n                /* \"#utility.yul\":2734:2766   */\n              tag_221\n                /* \"#utility.yul\":2760:2765   */\n              dup2\n                /* \"#utility.yul\":2734:2766   */\n              tag_160\n              jump\t// in\n            tag_221:\n                /* \"#utility.yul\":2729:2732   */\n              dup3\n                /* \"#utility.yul\":2722:2767   */\n              mstore\n                /* \"#utility.yul\":2631:2773   */\n              pop\n              pop\n              jump\t// out\n                /* \"#utility.yul\":2779:3033   */\n            tag_51:\n                /* \"#utility.yul\":2888:2892   */\n              0x00\n                /* \"#utility.yul\":2926:2928   */\n              0x20\n                /* \"#utility.yul\":2915:2924   */\n              dup3\n                /* \"#utility.yul\":2911:2929   */\n              add\n                /* \"#utility.yul\":2903:2929   */\n              swap1\n              pop\n                /* \"#utility.yul\":2939:3026   */\n              tag_223\n                /* \"#utility.yul\":3023:3024   */\n              0x00\n                /* \"#utility.yul\":3012:3021   */\n              dup4\n                /* \"#utility.yul\":3008:3025   */\n              add\n                /* \"#utility.yul\":2999:3005   */\n              dup5\n                /* \"#utility.yul\":2939:3026   */\n              tag_161\n              jump\t// in\n            tag_223:\n                /* \"#utility.yul\":2779:3033   */\n              swap3\n              swap2\n              pop\n              pop\n              jump\t// out\n                /* \"#utility.yul\":3039:3138   */\n            tag_162:\n                /* \"#utility.yul\":3091:3097   */\n              0x00\n                /* \"#utility.yul\":3125:3130   */\n              dup2\n                /* \"#utility.yul\":3119:3131   */\n              mload\n                /* \"#utility.yul\":3109:3131   */\n              swap1\n              pop\n                /* \"#utility.yul\":3039:3138   */\n              swap2\n              swap1\n              pop\n              jump\t// out\n                /* \"#utility.yul\":3144:3313   */\n            tag_163:\n                /* \"#utility.yul\":3228:3239   */\n              0x00\n                /* \"#utility.yul\":3262:3268   */\n              dup3\n                /* \"#utility.yul\":3257:3260   */\n              dup3\n                /* \"#utility.yul\":3250:3269   */\n              mstore\n                /* \"#utility.yul\":3302:3306   */\n              0x20\n                /* \"#utility.yul\":3297:3300   */\n              dup3\n                /* \"#utility.yul\":3293:3307   */\n              add\n                /* \"#utility.yul\":3278:3307   */\n              swap1\n              pop\n                /* \"#utility.yul\":3144:3313   */\n              swap3\n              swap2\n              pop\n              pop\n              jump\t// out\n                /* \"#utility.yul\":3319:3626   */\n            tag_164:\n                /* \"#utility.yul\":3387:3388   */\n              0x00\n                /* \"#utility.yul\":3397:3510   */\n            tag_227:\n                /* \"#utility.yul\":3411:3417   */\n              dup4\n                /* \"#utility.yul\":3408:3409   */\n              dup2\n                /* \"#utility.yul\":3405:3418   */\n              lt\n                /* \"#utility.yul\":3397:3510   */\n              iszero\n              tag_229\n              jumpi\n                /* \"#utility.yul\":3496:3497   */\n              dup1\n                /* \"#utility.yul\":3491:3494   */\n              dup3\n                /* \"#utility.yul\":3487:3498   */\n              add\n                /* \"#utility.yul\":3481:3499   */\n              mload\n                /* \"#utility.yul\":3477:3478   */\n              dup2\n                /* \"#utility.yul\":3472:3475   */\n              dup5\n                /* \"#utility.yul\":3468:3479   */\n              add\n                /* \"#utility.yul\":3461:3500   */\n              mstore\n                /* \"#utility.yul\":3433:3435   */\n              0x20\n                /* \"#utility.yul\":3430:3431   */\n              dup2\n                /* \"#utility.yul\":3426:3436   */\n              add\n                /* \"#utility.yul\":3421:3436   */\n              swap1\n              pop\n                /* \"#utility.yul\":3397:3510   */\n              jump(tag_227)\n            tag_229:\n                /* \"#utility.yul\":3528:3534   */\n              dup4\n                /* \"#utility.yul\":3525:3526   */\n              dup2\n                /* \"#utility.yul\":3522:3535   */\n              gt\n                /* \"#utility.yul\":3519:3620   */\n              iszero\n              tag_230\n              jumpi\n                /* \"#utility.yul\":3608:3609   */\n              0x00\n                /* \"#utility.yul\":3599:3605   */\n              dup5\n                /* \"#utility.yul\":3594:3597   */\n              dup5\n                /* \"#utility.yul\":3590:3606   */\n              add\n                /* \"#utility.yul\":3583:3610   */\n              mstore\n                /* \"#utility.yul\":3519:3620   */\n            tag_230:\n                /* \"#utility.yul\":3368:3626   */\n              pop\n                /* \"#utility.yul\":3319:3626   */\n              pop\n              pop\n              pop\n              jump\t// out\n                /* \"#utility.yul\":3632:3734   */\n            tag_165:\n                /* \"#utility.yul\":3673:3679   */\n              0x00\n                /* \"#utility.yul\":3724:3726   */\n              0x1f\n                /* \"#utility.yul\":3720:3727   */\n              not\n                /* \"#utility.yul\":3715:3717   */\n              0x1f\n                /* \"#utility.yul\":3708:3713   */\n              dup4\n                /* \"#utility.yul\":3704:3718   */\n              add\n                /* \"#utility.yul\":3700:3728   */\n              and\n                /* \"#utility.yul\":3690:3728   */\n              swap1\n              pop\n                /* \"#utility.yul\":3632:3734   */\n              swap2\n              swap1\n              pop\n              jump\t// out\n                /* \"#utility.yul\":3740:4104   */\n            tag_166:\n                /* \"#utility.yul\":3828:3831   */\n              0x00\n                /* \"#utility.yul\":3856:3895   */\n              tag_233\n                /* \"#utility.yul\":3889:3894   */\n              dup3\n                /* \"#utility.yul\":3856:3895   */\n              tag_162\n              jump\t// in\n            tag_233:\n                /* \"#utility.yul\":3911:3982   */\n              tag_234\n                /* \"#utility.yul\":3975:3981   */\n              dup2\n                /* \"#utility.yul\":3970:3973   */\n              dup6\n                /* \"#utility.yul\":3911:3982   */\n              tag_163\n              jump\t// in\n            tag_234:\n                /* \"#utility.yul\":3904:3982   */\n              swap4\n              pop\n                /* \"#utility.yul\":3991:4043   */\n              tag_235\n                /* \"#utility.yul\":4036:4042   */\n              dup2\n                /* \"#utility.yul\":4031:4034   */\n              dup6\n                /* \"#utility.yul\":4024:4028   */\n              0x20\n                /* \"#utility.yul\":4017:4022   */\n              dup7\n                /* \"#utility.yul\":4013:4029   */\n              add\n                /* \"#utility.yul\":3991:4043   */\n              tag_164\n              jump\t// in\n            tag_235:\n                /* \"#utility.yul\":4068:4097   */\n              tag_236\n                /* \"#utility.yul\":4090:4096   */\n              dup2\n                /* \"#utility.yul\":4068:4097   */\n              tag_165\n              jump\t// in\n            tag_236:\n                /* \"#utility.yul\":4063:4066   */\n              dup5\n                /* \"#utility.yul\":4059:4098   */\n              add\n                /* \"#utility.yul\":4052:4098   */\n              swap2\n              pop\n                /* \"#utility.yul\":3832:4104   */\n              pop\n                /* \"#utility.yul\":3740:4104   */\n              swap3\n              swap2\n              pop\n              pop\n              jump\t// out\n                /* \"#utility.yul\":4110:4423   */\n            tag_56:\n                /* \"#utility.yul\":4223:4227   */\n              0x00\n                /* \"#utility.yul\":4261:4263   */\n              0x20\n                /* \"#utility.yul\":4250:4259   */\n              dup3\n                /* \"#utility.yul\":4246:4264   */\n              add\n                /* \"#utility.yul\":4238:4264   */\n              swap1\n              pop\n                /* \"#utility.yul\":4310:4319   */\n              dup2\n                /* \"#utility.yul\":4304:4308   */\n              dup2\n                /* \"#utility.yul\":4300:4320   */\n              sub\n                /* \"#utility.yul\":4296:4297   */\n              0x00\n                /* \"#utility.yul\":4285:4294   */\n              dup4\n                /* \"#utility.yul\":4281:4298   */\n              add\n                /* \"#utility.yul\":4274:4321   */\n              mstore\n                /* \"#utility.yul\":4338:4416   */\n              tag_238\n                /* \"#utility.yul\":4411:4415   */\n              dup2\n                /* \"#utility.yul\":4402:4408   */\n              dup5\n                /* \"#utility.yul\":4338:4416   */\n              tag_166\n              jump\t// in\n            tag_238:\n                /* \"#utility.yul\":4330:4416   */\n              swap1\n              pop\n                /* \"#utility.yul\":4110:4423   */\n              swap3\n              swap2\n              pop\n              pop\n              jump\t// out\n                /* \"#utility.yul\":4429:4506   */\n            tag_167:\n                /* \"#utility.yul\":4466:4473   */\n              0x00\n                /* \"#utility.yul\":4495:4500   */\n              dup2\n                /* \"#utility.yul\":4484:4500   */\n              swap1\n              pop\n                /* \"#utility.yul\":4429:4506   */\n              swap2\n              swap1\n              pop\n              jump\t// out\n                /* \"#utility.yul\":4512:4630   */\n            tag_168:\n                /* \"#utility.yul\":4599:4623   */\n              tag_241\n                /* \"#utility.yul\":4617:4622   */\n              dup2\n                /* \"#utility.yul\":4599:4623   */\n              tag_167\n              jump\t// in\n            tag_241:\n                /* \"#utility.yul\":4594:4597   */\n              dup3\n                /* \"#utility.yul\":4587:4624   */\n              mstore\n                /* \"#utility.yul\":4512:4630   */\n              pop\n              pop\n              jump\t// out\n                /* \"#utility.yul\":4636:4858   */\n            tag_61:\n                /* \"#utility.yul\":4729:4733   */\n              0x00\n                /* \"#utility.yul\":4767:4769   */\n              0x20\n                /* \"#utility.yul\":4756:4765   */\n              dup3\n                /* \"#utility.yul\":4752:4770   */\n              add\n                /* \"#utility.yul\":4744:4770   */\n              swap1\n              pop\n                /* \"#utility.yul\":4780:4851   */\n              tag_243\n                /* \"#utility.yul\":4848:4849   */\n              0x00\n                /* \"#utility.yul\":4837:4846   */\n              dup4\n                /* \"#utility.yul\":4833:4850   */\n              add\n                /* \"#utility.yul\":4824:4830   */\n              dup5\n                /* \"#utility.yul\":4780:4851   */\n              tag_168\n              jump\t// in\n            tag_243:\n                /* \"#utility.yul\":4636:4858   */\n              swap3\n              swap2\n              pop\n              pop\n              jump\t// out\n                /* \"#utility.yul\":4864:5033   */\n            tag_169:\n                /* \"#utility.yul\":5004:5025   */\n              0x62616e6e6564206f7220636f6d706c6574656400000000000000000000000000\n                /* \"#utility.yul\":5000:5001   */\n              0x00\n                /* \"#utility.yul\":4992:4998   */\n              dup3\n                /* \"#utility.yul\":4988:5002   */\n              add\n                /* \"#utility.yul\":4981:5026   */\n              mstore\n                /* \"#utility.yul\":4864:5033   */\n              pop\n              jump\t// out\n                /* \"#utility.yul\":5039:5405   */\n            tag_170:\n                /* \"#utility.yul\":5181:5184   */\n              0x00\n                /* \"#utility.yul\":5202:5269   */\n              tag_246\n                /* \"#utility.yul\":5266:5268   */\n              0x13\n                /* \"#utility.yul\":5261:5264   */\n              dup4\n                /* \"#utility.yul\":5202:5269   */\n              tag_163\n              jump\t// in\n            tag_246:\n                /* \"#utility.yul\":5195:5269   */\n              swap2\n              pop\n                /* \"#utility.yul\":5278:5371   */\n              tag_247\n                /* \"#utility.yul\":5367:5370   */\n              dup3\n                /* \"#utility.yul\":5278:5371   */\n              tag_169\n              jump\t// in\n            tag_247:\n                /* \"#utility.yul\":5396:5398   */\n              0x20\n                /* \"#utility.yul\":5391:5394   */\n              dup3\n                /* \"#utility.yul\":5387:5399   */\n              add\n                /* \"#utility.yul\":5380:5399   */\n              swap1\n              pop\n                /* \"#utility.yul\":5039:5405   */\n              swap2\n              swap1\n              pop\n              jump\t// out\n                /* \"#utility.yul\":5411:5830   */\n            tag_92:\n                /* \"#utility.yul\":5577:5581   */\n              0x00\n                /* \"#utility.yul\":5615:5617   */\n              0x20\n                /* \"#utility.yul\":5604:5613   */\n              dup3\n                /* \"#utility.yul\":5600:5618   */\n              add\n                /* \"#utility.yul\":5592:5618   */\n              swap1\n              pop\n                /* \"#utility.yul\":5664:5673   */\n              dup2\n                /* \"#utility.yul\":5658:5662   */\n              dup2\n                /* \"#utility.yul\":5654:5674   */\n              sub\n                /* \"#utility.yul\":5650:5651   */\n              0x00\n                /* \"#utility.yul\":5639:5648   */\n              dup4\n                /* \"#utility.yul\":5635:5652   */\n              add\n                /* \"#utility.yul\":5628:5675   */\n              mstore\n                /* \"#utility.yul\":5692:5823   */\n              tag_249\n                /* \"#utility.yul\":5818:5822   */\n              dup2\n                /* \"#utility.yul\":5692:5823   */\n              tag_170\n              jump\t// in\n            tag_249:\n                /* \"#utility.yul\":5684:5823   */\n              swap1\n              pop\n                /* \"#utility.yul\":5411:5830   */\n              swap2\n              swap1\n              pop\n              jump\t// out\n                /* \"#utility.yul\":5836:6011   */\n            tag_171:\n                /* \"#utility.yul\":5976:6003   */\n              0x796f7520617265206e6f74206120636f6e7472696275746f7200000000000000\n                /* \"#utility.yul\":5972:5973   */\n              0x00\n                /* \"#utility.yul\":5964:5970   */\n              dup3\n                /* \"#utility.yul\":5960:5974   */\n              add\n                /* \"#utility.yul\":5953:6004   */\n              mstore\n                /* \"#utility.yul\":5836:6011   */\n              pop\n              jump\t// out\n                /* \"#utility.yul\":6017:6383   */\n            tag_172:\n                /* \"#utility.yul\":6159:6162   */\n              0x00\n                /* \"#utility.yul\":6180:6247   */\n              tag_252\n                /* \"#utility.yul\":6244:6246   */\n              0x19\n                /* \"#utility.yul\":6239:6242   */\n              dup4\n                /* \"#utility.yul\":6180:6247   */\n              tag_163\n              jump\t// in\n            tag_252:\n                /* \"#utility.yul\":6173:6247   */\n              swap2\n              pop\n                /* \"#utility.yul\":6256:6349   */\n              tag_253\n                /* \"#utility.yul\":6345:6348   */\n              dup3\n                /* \"#utility.yul\":6256:6349   */\n              tag_171\n              jump\t// in\n            tag_253:\n                /* \"#utility.yul\":6374:6376   */\n              0x20\n                /* \"#utility.yul\":6369:6372   */\n              dup3\n                /* \"#utility.yul\":6365:6377   */\n              add\n                /* \"#utility.yul\":6358:6377   */\n              swap1\n              pop\n                /* \"#utility.yul\":6017:6383   */\n              swap2\n              swap1\n              pop\n              jump\t// out\n                /* \"#utility.yul\":6389:6808   */\n            tag_96:\n                /* \"#utility.yul\":6555:6559   */\n              0x00\n                /* \"#utility.yul\":6593:6595   */\n              0x20\n                /* \"#utility.yul\":6582:6591   */\n              dup3\n                /* \"#utility.yul\":6578:6596   */\n              add\n                /* \"#utility.yul\":6570:6596   */\n              swap1\n              pop\n                /* \"#utility.yul\":6642:6651   */\n              dup2\n                /* \"#utility.yul\":6636:6640   */\n              dup2\n                /* \"#utility.yul\":6632:6652   */\n              sub\n                /* \"#utility.yul\":6628:6629   */\n              0x00\n                /* \"#utility.yul\":6617:6626   */\n              dup4\n                /* \"#utility.yul\":6613:6630   */\n              add\n                /* \"#utility.yul\":6606:6653   */\n              mstore\n                /* \"#utility.yul\":6670:6801   */\n              tag_255\n                /* \"#utility.yul\":6796:6800   */\n              dup2\n                /* \"#utility.yul\":6670:6801   */\n              tag_172\n              jump\t// in\n            tag_255:\n                /* \"#utility.yul\":6662:6801   */\n              swap1\n              pop\n                /* \"#utility.yul\":6389:6808   */\n              swap2\n              swap1\n              pop\n              jump\t// out\n                /* \"#utility.yul\":6814:6987   */\n            tag_173:\n                /* \"#utility.yul\":6954:6979   */\n              0x796f75206861766520616c72656164792062616e6e6564000000000000000000\n                /* \"#utility.yul\":6950:6951   */\n              0x00\n                /* \"#utility.yul\":6942:6948   */\n              dup3\n                /* \"#utility.yul\":6938:6952   */\n              add\n                /* \"#utility.yul\":6931:6980   */\n              mstore\n                /* \"#utility.yul\":6814:6987   */\n              pop\n              jump\t// out\n                /* \"#utility.yul\":6993:7359   */\n            tag_174:\n                /* \"#utility.yul\":7135:7138   */\n              0x00\n                /* \"#utility.yul\":7156:7223   */\n              tag_258\n                /* \"#utility.yul\":7220:7222   */\n              0x17\n                /* \"#utility.yul\":7215:7218   */\n              dup4\n                /* \"#utility.yul\":7156:7223   */\n              tag_163\n              jump\t// in\n            tag_258:\n                /* \"#utility.yul\":7149:7223   */\n              swap2\n              pop\n                /* \"#utility.yul\":7232:7325   */\n              tag_259\n                /* \"#utility.yul\":7321:7324   */\n              dup3\n                /* \"#utility.yul\":7232:7325   */\n              tag_173\n              jump\t// in\n            tag_259:\n                /* \"#utility.yul\":7350:7352   */\n              0x20\n                /* \"#utility.yul\":7345:7348   */\n              dup3\n                /* \"#utility.yul\":7341:7353   */\n              add\n                /* \"#utility.yul\":7334:7353   */\n              swap1\n              pop\n                /* \"#utility.yul\":6993:7359   */\n              swap2\n              swap1\n              pop\n              jump\t// out\n                /* \"#utility.yul\":7365:7784   */\n            tag_99:\n                /* \"#utility.yul\":7531:7535   */\n              0x00\n                /* \"#utility.yul\":7569:7571   */\n              0x20\n                /* \"#utility.yul\":7558:7567   */\n              dup3\n                /* \"#utility.yul\":7554:7572   */\n              add\n                /* \"#utility.yul\":7546:7572   */\n              swap1\n              pop\n                /* \"#utility.yul\":7618:7627   */\n              dup2\n                /* \"#utility.yul\":7612:7616   */\n              dup2\n                /* \"#utility.yul\":7608:7628   */\n              sub\n                /* \"#utility.yul\":7604:7605   */\n              0x00\n                /* \"#utility.yul\":7593:7602   */\n              dup4\n                /* \"#utility.yul\":7589:7606   */\n              add\n                /* \"#utility.yul\":7582:7629   */\n              mstore\n                /* \"#utility.yul\":7646:7777   */\n              tag_261\n                /* \"#utility.yul\":7772:7776   */\n              dup2\n                /* \"#utility.yul\":7646:7777   */\n              tag_174\n              jump\t// in\n            tag_261:\n                /* \"#utility.yul\":7638:7777   */\n              swap1\n              pop\n                /* \"#utility.yul\":7365:7784   */\n              swap2\n              swap1\n              pop\n              jump\t// out\n                /* \"#utility.yul\":7790:7970   */\n            tag_175:\n                /* \"#utility.yul\":7838:7915   */\n              0x4e487b7100000000000000000000000000000000000000000000000000000000\n                /* \"#utility.yul\":7835:7836   */\n              0x00\n                /* \"#utility.yul\":7828:7916   */\n              mstore\n                /* \"#utility.yul\":7935:7939   */\n              0x11\n                /* \"#utility.yul\":7932:7933   */\n              0x04\n                /* \"#utility.yul\":7925:7940   */\n              mstore\n                /* \"#utility.yul\":7959:7963   */\n              0x24\n                /* \"#utility.yul\":7956:7957   */\n              0x00\n                /* \"#utility.yul\":7949:7964   */\n              revert\n                /* \"#utility.yul\":7976:8209   */\n            tag_101:\n                /* \"#utility.yul\":8015:8018   */\n              0x00\n                /* \"#utility.yul\":8038:8062   */\n              tag_264\n                /* \"#utility.yul\":8056:8061   */\n              dup3\n                /* \"#utility.yul\":8038:8062   */\n              tag_167\n              jump\t// in\n            tag_264:\n                /* \"#utility.yul\":8029:8062   */\n              swap2\n              pop\n                /* \"#utility.yul\":8084:8150   */\n              0xffffffffffffffffffffffffffffffffffffffffffffffffffffffffffffffff\n                /* \"#utility.yul\":8077:8082   */\n              dup3\n                /* \"#utility.yul\":8074:8151   */\n              eq\n                /* \"#utility.yul\":8071:8174   */\n              iszero\n              tag_265\n              jumpi\n                /* \"#utility.yul\":8154:8172   */\n              tag_266\n              tag_175\n              jump\t// in\n            tag_266:\n                /* \"#utility.yul\":8071:8174   */\n            tag_265:\n                /* \"#utility.yul\":8201:8202   */\n              0x01\n                /* \"#utility.yul\":8194:8199   */\n              dup3\n                /* \"#utility.yul\":8190:8203   */\n              add\n                /* \"#utility.yul\":8183:8203   */\n              swap1\n              pop\n                /* \"#utility.yul\":7976:8209   */\n              swap2\n              swap1\n              pop\n              jump\t// out\n                /* \"#utility.yul\":8215:8395   */\n            tag_176:\n                /* \"#utility.yul\":8263:8340   */\n              0x4e487b7100000000000000000000000000000000000000000000000000000000\n                /* \"#utility.yul\":8260:8261   */\n              0x00\n                /* \"#utility.yul\":8253:8341   */\n              mstore\n                /* \"#utility.yul\":8360:8364   */\n              0x12\n                /* \"#utility.yul\":8357:8358   */\n              0x04\n                /* \"#utility.yul\":8350:8365   */\n              mstore\n                /* \"#utility.yul\":8384:8388   */\n              0x24\n                /* \"#utility.yul\":8381:8382   */\n              0x00\n                /* \"#utility.yul\":8374:8389   */\n              revert\n                /* \"#utility.yul\":8401:8586   */\n            tag_103:\n                /* \"#utility.yul\":8441:8442   */\n              0x00\n                /* \"#utility.yul\":8458:8478   */\n              tag_269\n                /* \"#utility.yul\":8476:8477   */\n              dup3\n                /* \"#utility.yul\":8458:8478   */\n              tag_167\n              jump\t// in\n            tag_269:\n                /* \"#utility.yul\":8453:8478   */\n              swap2\n              pop\n                /* \"#utility.yul\":8492:8512   */\n              tag_270\n                /* \"#utility.yul\":8510:8511   */\n              dup4\n                /* \"#utility.yul\":8492:8512   */\n              tag_167\n              jump\t// in\n            tag_270:\n                /* \"#utility.yul\":8487:8512   */\n              swap3\n              pop\n                /* \"#utility.yul\":8531:8532   */\n              dup3\n                /* \"#utility.yul\":8521:8556   */\n              tag_271\n              jumpi\n                /* \"#utility.yul\":8536:8554   */\n              tag_272\n              tag_176\n              jump\t// in\n            tag_272:\n                /* \"#utility.yul\":8521:8556   */\n            tag_271:\n                /* \"#utility.yul\":8578:8579   */\n              dup3\n                /* \"#utility.yul\":8575:8576   */\n              dup3\n                /* \"#utility.yul\":8571:8580   */\n              div\n                /* \"#utility.yul\":8566:8580   */\n              swap1\n              pop\n                /* \"#utility.yul\":8401:8586   */\n              swap3\n              swap2\n              pop\n              pop\n              jump\t// out\n                /* \"#utility.yul\":8592:8940   */\n            tag_105:\n                /* \"#utility.yul\":8632:8639   */\n              0x00\n                /* \"#utility.yul\":8655:8675   */\n              tag_274\n                /* \"#utility.yul\":8673:8674   */\n              dup3\n                /* \"#utility.yul\":8655:8675   */\n              tag_167\n              jump\t// in\n            tag_274:\n                /* \"#utility.yul\":8650:8675   */\n              swap2\n              pop\n                /* \"#utility.yul\":8689:8709   */\n              tag_275\n                /* \"#utility.yul\":8707:8708   */\n              dup4\n                /* \"#utility.yul\":8689:8709   */\n              tag_167\n              jump\t// in\n            tag_275:\n                /* \"#utility.yul\":8684:8709   */\n              swap3\n              pop\n                /* \"#utility.yul\":8877:8878   */\n              dup2\n                /* \"#utility.yul\":8809:8875   */\n              0xffffffffffffffffffffffffffffffffffffffffffffffffffffffffffffffff\n                /* \"#utility.yul\":8805:8879   */\n              div\n                /* \"#utility.yul\":8802:8803   */\n              dup4\n                /* \"#utility.yul\":8799:8880   */\n              gt\n                /* \"#utility.yul\":8794:8795   */\n              dup3\n                /* \"#utility.yul\":8787:8796   */\n              iszero\n                /* \"#utility.yul\":8780:8797   */\n              iszero\n                /* \"#utility.yul\":8776:8881   */\n              and\n                /* \"#utility.yul\":8773:8904   */\n              iszero\n              tag_276\n              jumpi\n                /* \"#utility.yul\":8884:8902   */\n              tag_277\n              tag_175\n              jump\t// in\n            tag_277:\n                /* \"#utility.yul\":8773:8904   */\n            tag_276:\n                /* \"#utility.yul\":8932:8933   */\n              dup3\n                /* \"#utility.yul\":8929:8930   */\n              dup3\n                /* \"#utility.yul\":8925:8934   */\n              mul\n                /* \"#utility.yul\":8914:8934   */\n              swap1\n              pop\n                /* \"#utility.yul\":8592:8940   */\n              swap3\n              swap2\n              pop\n              pop\n              jump\t// out\n                /* \"#utility.yul\":8946:9126   */\n            tag_177:\n                /* \"#utility.yul\":8994:9071   */\n              0x4e487b7100000000000000000000000000000000000000000000000000000000\n                /* \"#utility.yul\":8991:8992   */\n              0x00\n                /* \"#utility.yul\":8984:9072   */\n              mstore\n                /* \"#utility.yul\":9091:9095   */\n              0x22\n                /* \"#utility.yul\":9088:9089   */\n              0x04\n                /* \"#utility.yul\":9081:9096   */\n              mstore\n                /* \"#utility.yul\":9115:9119   */\n              0x24\n                /* \"#utility.yul\":9112:9113   */\n              0x00\n                /* \"#utility.yul\":9105:9120   */\n              revert\n                /* \"#utility.yul\":9132:9452   */\n            tag_115:\n                /* \"#utility.yul\":9176:9182   */\n              0x00\n                /* \"#utility.yul\":9213:9214   */\n              0x02\n                /* \"#utility.yul\":9207:9211   */\n              dup3\n                /* \"#utility.yul\":9203:9215   */\n              div\n                /* \"#utility.yul\":9193:9215   */\n              swap1\n              pop\n                /* \"#utility.yul\":9260:9261   */\n              0x01\n                /* \"#utility.yul\":9254:9258   */\n              dup3\n                /* \"#utility.yul\":9250:9262   */\n              and\n                /* \"#utility.yul\":9281:9299   */\n              dup1\n                /* \"#utility.yul\":9271:9352   */\n              tag_280\n              jumpi\n                /* \"#utility.yul\":9337:9341   */\n              0x7f\n                /* \"#utility.yul\":9329:9335   */\n              dup3\n                /* \"#utility.yul\":9325:9342   */\n              and\n                /* \"#utility.yul\":9315:9342   */\n              swap2\n              pop\n                /* \"#utility.yul\":9271:9352   */\n            tag_280:\n                /* \"#utility.yul\":9399:9401   */\n              0x20\n                /* \"#utility.yul\":9391:9397   */\n              dup3\n                /* \"#utility.yul\":9388:9402   */\n              lt\n                /* \"#utility.yul\":9368:9386   */\n              dup2\n                /* \"#utility.yul\":9365:9403   */\n              eq\n                /* \"#utility.yul\":9362:9446   */\n              iszero\n              tag_281\n              jumpi\n                /* \"#utility.yul\":9418:9436   */\n              tag_282\n              tag_177\n              jump\t// in\n            tag_282:\n                /* \"#utility.yul\":9362:9446   */\n            tag_281:\n                /* \"#utility.yul\":9183:9452   */\n              pop\n                /* \"#utility.yul\":9132:9452   */\n              swap2\n              swap1\n              pop\n              jump\t// out\n                /* \"#utility.yul\":9458:9627   */\n            tag_178:\n                /* \"#utility.yul\":9598:9619   */\n              0x6c65737320616d6f756e7420646f6e6174656400000000000000000000000000\n                /* \"#utility.yul\":9594:9595   */\n              0x00\n                /* \"#utility.yul\":9586:9592   */\n              dup3\n                /* \"#utility.yul\":9582:9596   */\n              add\n                /* \"#utility.yul\":9575:9620   */\n              mstore\n                /* \"#utility.yul\":9458:9627   */\n              pop\n              jump\t// out\n                /* \"#utility.yul\":9633:9999   */\n            tag_179:\n                /* \"#utility.yul\":9775:9778   */\n              0x00\n                /* \"#utility.yul\":9796:9863   */\n              tag_285\n                /* \"#utility.yul\":9860:9862   */\n              0x13\n                /* \"#utility.yul\":9855:9858   */\n              dup4\n                /* \"#utility.yul\":9796:9863   */\n              tag_163\n              jump\t// in\n            tag_285:\n                /* \"#utility.yul\":9789:9863   */\n              swap2\n              pop\n                /* \"#utility.yul\":9872:9965   */\n              tag_286\n                /* \"#utility.yul\":9961:9964   */\n              dup3\n                /* \"#utility.yul\":9872:9965   */\n              tag_178\n              jump\t// in\n            tag_286:\n                /* \"#utility.yul\":9990:9992   */\n              0x20\n                /* \"#utility.yul\":9985:9988   */\n              dup3\n                /* \"#utility.yul\":9981:9993   */\n              add\n                /* \"#utility.yul\":9974:9993   */\n              swap1\n              pop\n                /* \"#utility.yul\":9633:9999   */\n              swap2\n              swap1\n              pop\n              jump\t// out\n                /* \"#utility.yul\":10005:10424   */\n            tag_135:\n                /* \"#utility.yul\":10171:10175   */\n              0x00\n                /* \"#utility.yul\":10209:10211   */\n              0x20\n                /* \"#utility.yul\":10198:10207   */\n              dup3\n                /* \"#utility.yul\":10194:10212   */\n              add\n                /* \"#utility.yul\":10186:10212   */\n              swap1\n              pop\n                /* \"#utility.yul\":10258:10267   */\n              dup2\n                /* \"#utility.yul\":10252:10256   */\n              dup2\n                /* \"#utility.yul\":10248:10268   */\n              sub\n                /* \"#utility.yul\":10244:10245   */\n              0x00\n                /* \"#utility.yul\":10233:10242   */\n              dup4\n                /* \"#utility.yul\":10229:10246   */\n              add\n                /* \"#utility.yul\":10222:10269   */\n              mstore\n                /* \"#utility.yul\":10286:10417   */\n              tag_288\n                /* \"#utility.yul\":10412:10416   */\n              dup2\n                /* \"#utility.yul\":10286:10417   */\n              tag_179\n              jump\t// in\n            tag_288:\n                /* \"#utility.yul\":10278:10417   */\n              swap1\n              pop\n                /* \"#utility.yul\":10005:10424   */\n              swap2\n              swap1\n              pop\n              jump\t// out\n                /* \"#utility.yul\":10430:10610   */\n            tag_180:\n                /* \"#utility.yul\":10570:10602   */\n              0x63616e277420646f6e61746520746f2062616e6e656420726571756573740000\n                /* \"#utility.yul\":10566:10567   */\n              0x00\n                /* \"#utility.yul\":10558:10564   */\n              dup3\n                /* \"#utility.yul\":10554:10568   */\n              add\n                /* \"#utility.yul\":10547:10603   */\n              mstore\n                /* \"#utility.yul\":10430:10610   */\n              pop\n              jump\t// out\n                /* \"#utility.yul\":10616:10982   */\n            tag_181:\n                /* \"#utility.yul\":10758:10761   */\n              0x00\n                /* \"#utility.yul\":10779:10846   */\n              tag_291\n                /* \"#utility.yul\":10843:10845   */\n              0x1e\n                /* \"#utility.yul\":10838:10841   */\n              dup4\n                /* \"#utility.yul\":10779:10846   */\n              tag_163\n              jump\t// in\n            tag_291:\n                /* \"#utility.yul\":10772:10846   */\n              swap2\n              pop\n                /* \"#utility.yul\":10855:10948   */\n              tag_292\n                /* \"#utility.yul\":10944:10947   */\n              dup3\n                /* \"#utility.yul\":10855:10948   */\n              tag_180\n              jump\t// in\n            tag_292:\n                /* \"#utility.yul\":10973:10975   */\n              0x20\n                /* \"#utility.yul\":10968:10971   */\n              dup3\n                /* \"#utility.yul\":10964:10976   */\n              add\n                /* \"#utility.yul\":10957:10976   */\n              swap1\n              pop\n                /* \"#utility.yul\":10616:10982   */\n              swap2\n              swap1\n              pop\n              jump\t// out\n                /* \"#utility.yul\":10988:11407   */\n            tag_138:\n                /* \"#utility.yul\":11154:11158   */\n              0x00\n                /* \"#utility.yul\":11192:11194   */\n              0x20\n                /* \"#utility.yul\":11181:11190   */\n              dup3\n                /* \"#utility.yul\":11177:11195   */\n              add\n                /* \"#utility.yul\":11169:11195   */\n              swap1\n              pop\n                /* \"#utility.yul\":11241:11250   */\n              dup2\n                /* \"#utility.yul\":11235:11239   */\n              dup2\n                /* \"#utility.yul\":11231:11251   */\n              sub\n                /* \"#utility.yul\":11227:11228   */\n              0x00\n                /* \"#utility.yul\":11216:11225   */\n              dup4\n                /* \"#utility.yul\":11212:11229   */\n              add\n                /* \"#utility.yul\":11205:11252   */\n              mstore\n                /* \"#utility.yul\":11269:11400   */\n              tag_294\n                /* \"#utility.yul\":11395:11399   */\n              dup2\n                /* \"#utility.yul\":11269:11400   */\n              tag_181\n              jump\t// in\n            tag_294:\n                /* \"#utility.yul\":11261:11400   */\n              swap1\n              pop\n                /* \"#utility.yul\":10988:11407   */\n              swap2\n              swap1\n              pop\n              jump\t// out\n                /* \"#utility.yul\":11413:11582   */\n            tag_182:\n                /* \"#utility.yul\":11553:11574   */\n              0x676f616c20616d6f756e74207265616368656400000000000000000000000000\n                /* \"#utility.yul\":11549:11550   */\n              0x00\n                /* \"#utility.yul\":11541:11547   */\n              dup3\n                /* \"#utility.yul\":11537:11551   */\n              add\n                /* \"#utility.yul\":11530:11575   */\n              mstore\n                /* \"#utility.yul\":11413:11582   */\n              pop\n              jump\t// out\n                /* \"#utility.yul\":11588:11954   */\n            tag_183:\n                /* \"#utility.yul\":11730:11733   */\n              0x00\n                /* \"#utility.yul\":11751:11818   */\n              tag_297\n                /* \"#utility.yul\":11815:11817   */\n              0x13\n                /* \"#utility.yul\":11810:11813   */\n              dup4\n                /* \"#utility.yul\":11751:11818   */\n              tag_163\n              jump\t// in\n            tag_297:\n                /* \"#utility.yul\":11744:11818   */\n              swap2\n              pop\n                /* \"#utility.yul\":11827:11920   */\n              tag_298\n                /* \"#utility.yul\":11916:11919   */\n              dup3\n                /* \"#utility.yul\":11827:11920   */\n              tag_182\n              jump\t// in\n            tag_298:\n                /* \"#utility.yul\":11945:11947   */\n              0x20\n                /* \"#utility.yul\":11940:11943   */\n              dup3\n                /* \"#utility.yul\":11936:11948   */\n              add\n                /* \"#utility.yul\":11929:11948   */\n              swap1\n              pop\n                /* \"#utility.yul\":11588:11954   */\n              swap2\n              swap1\n              pop\n              jump\t// out\n                /* \"#utility.yul\":11960:12379   */\n            tag_141:\n                /* \"#utility.yul\":12126:12130   */\n              0x00\n                /* \"#utility.yul\":12164:12166   */\n              0x20\n                /* \"#utility.yul\":12153:12162   */\n              dup3\n                /* \"#utility.yul\":12149:12167   */\n              add\n                /* \"#utility.yul\":12141:12167   */\n              swap1\n              pop\n                /* \"#utility.yul\":12213:12222   */\n              dup2\n                /* \"#utility.yul\":12207:12211   */\n              dup2\n                /* \"#utility.yul\":12203:12223   */\n              sub\n                /* \"#utility.yul\":12199:12200   */\n              0x00\n                /* \"#utility.yul\":12188:12197   */\n              dup4\n                /* \"#utility.yul\":12184:12201   */\n              add\n                /* \"#utility.yul\":12177:12224   */\n              mstore\n                /* \"#utility.yul\":12241:12372   */\n              tag_300\n                /* \"#utility.yul\":12367:12371   */\n              dup2\n                /* \"#utility.yul\":12241:12372   */\n              tag_183\n              jump\t// in\n            tag_300:\n                /* \"#utility.yul\":12233:12372   */\n              swap1\n              pop\n                /* \"#utility.yul\":11960:12379   */\n              swap2\n              swap1\n              pop\n              jump\t// out\n                /* \"#utility.yul\":12385:12690   */\n            tag_145:\n                /* \"#utility.yul\":12425:12428   */\n              0x00\n                /* \"#utility.yul\":12444:12464   */\n              tag_302\n                /* \"#utility.yul\":12462:12463   */\n              dup3\n                /* \"#utility.yul\":12444:12464   */\n              tag_167\n              jump\t// in\n            tag_302:\n                /* \"#utility.yul\":12439:12464   */\n              swap2\n              pop\n                /* \"#utility.yul\":12478:12498   */\n              tag_303\n                /* \"#utility.yul\":12496:12497   */\n              dup4\n                /* \"#utility.yul\":12478:12498   */\n              tag_167\n              jump\t// in\n            tag_303:\n                /* \"#utility.yul\":12473:12498   */\n              swap3\n              pop\n                /* \"#utility.yul\":12632:12633   */\n              dup3\n                /* \"#utility.yul\":12564:12630   */\n              0xffffffffffffffffffffffffffffffffffffffffffffffffffffffffffffffff\n                /* \"#utility.yul\":12560:12634   */\n              sub\n                /* \"#utility.yul\":12557:12558   */\n              dup3\n                /* \"#utility.yul\":12554:12635   */\n              gt\n                /* \"#utility.yul\":12551:12658   */\n              iszero\n              tag_304\n              jumpi\n                /* \"#utility.yul\":12638:12656   */\n              tag_305\n              tag_175\n              jump\t// in\n            tag_305:\n                /* \"#utility.yul\":12551:12658   */\n            tag_304:\n                /* \"#utility.yul\":12682:12683   */\n              dup3\n                /* \"#utility.yul\":12679:12680   */\n              dup3\n                /* \"#utility.yul\":12675:12684   */\n              add\n                /* \"#utility.yul\":12668:12684   */\n              swap1\n              pop\n                /* \"#utility.yul\":12385:12690   */\n              swap3\n              swap2\n              pop\n              pop\n              jump\t// out\n\n            auxdata: 0xa2646970667358221220798facaa5d6b94d4ec78cc454ff943ffd581ddc221ed14b6fb095e70af6cde4f64736f6c634300080b0033\n        }\n    }\n\n    auxdata: 0xa264697066735822122058270469eba84b2d92cddc50395aef8b8b17e78bf534430012e93088649ada1564736f6c634300080b0033\n}\n","bytecode":{"linkReferences":{},"object":"608060405234801561001057600080fd5b5060405161252f38038061252f833981810160405281019061003291906100db565b806000806101000a81548173ffffffffffffffffffffffffffffffffffffffff021916908373ffffffffffffffffffffffffffffffffffffffff16021790555050610108565b600080fd5b600073ffffffffffffffffffffffffffffffffffffffff82169050919050565b60006100a88261007d565b9050919050565b6100b88161009d565b81146100c357600080fd5b50565b6000815190506100d5816100af565b92915050565b6000602082840312156100f1576100f0610078565b5b60006100ff848285016100c6565b91505092915050565b612418806101176000396000f3fe60806040523480156200001157600080fd5b5060043610620000525760003560e01c8063552ef0ac146200005757806381d12c581462000077578063a2ae2dbe14620000ad578063d9398c7314620000cf575b600080fd5b6200007560048036038101906200006f9190620006f1565b620000f1565b005b6200009560048036038101906200008f919062000782565b6200045c565b604051620000a491906200081f565b60405180910390f35b620000b76200049c565b604051620000c691906200084d565b60405180910390f35b620000d9620004a9565b604051620000e891906200088f565b60405180910390f35b606483101562000138576040517f08c379a00000000000000000000000000000000000000000000000000000000081526004016200012f906200090d565b60405180910390fd5b60008060009054906101000a900473ffffffffffffffffffffffffffffffffffffffff1673ffffffffffffffffffffffffffffffffffffffff16633d584063336040518263ffffffff1660e01b81526004016200019691906200088f565b6020604051808303816000875af1158015620001b6573d6000803e3d6000fd5b505050506040513d601f19601f82011682018060405250810190620001dc919062000974565b905060018173ffffffffffffffffffffffffffffffffffffffff1663d2a5bfaa6040518163ffffffff1660e01b8152600401602060405180830381865afa1580156200022c573d6000803e3d6000fd5b505050506040513d601f19601f82011682018060405250810190620002529190620009bd565b1062000295576040517f08c379a00000000000000000000000000000000000000000000000000000000081526004016200028c9062000a3f565b60405180910390fd5b8073ffffffffffffffffffffffffffffffffffffffff16633498858d6040518163ffffffff1660e01b8152600401602060405180830381865afa158015620002e1573d6000803e3d6000fd5b505050506040513d601f19601f8201168201806040525081019062000307919062000a9e565b156200034a576040517f08c379a0000000000000000000000000000000000000000000000000000000008152600401620003419062000b20565b60405180910390fd5b600085858584866040516200035f90620004cd565b6200036f95949392919062000bfa565b604051809103906000f0801580156200038c573d6000803e3d6000fd5b5090506001819080600181540180825580915050600190039060005260206000200160009091909190916101000a81548173ffffffffffffffffffffffffffffffffffffffff021916908373ffffffffffffffffffffffffffffffffffffffff1602179055508173ffffffffffffffffffffffffffffffffffffffff166386f675686040518163ffffffff1660e01b8152600401600060405180830381600087803b1580156200043b57600080fd5b505af115801562000450573d6000803e3d6000fd5b50505050505050505050565b600181815481106200046d57600080fd5b906000526020600020016000915054906101000a900473ffffffffffffffffffffffffffffffffffffffff1681565b6000600180549050905090565b60008054906101000a900473ffffffffffffffffffffffffffffffffffffffff1681565b6117848062000c5f83390190565b6000604051905090565b600080fd5b600080fd5b600080fd5b600080fd5b6000601f19601f8301169050919050565b7f4e487b7100000000000000000000000000000000000000000000000000000000600052604160045260246000fd5b6200054482620004f9565b810181811067ffffffffffffffff821117156200056657620005656200050a565b5b80604052505050565b60006200057b620004db565b905062000589828262000539565b919050565b600067ffffffffffffffff821115620005ac57620005ab6200050a565b5b620005b782620004f9565b9050602081019050919050565b82818337600083830152505050565b6000620005ea620005e4846200058e565b6200056f565b905082815260208101848484011115620006095762000608620004f4565b5b62000616848285620005c4565b509392505050565b600082601f830112620006365762000635620004ef565b5b813562000648848260208601620005d3565b91505092915050565b6000819050919050565b620006668162000651565b81146200067257600080fd5b50565b60008135905062000686816200065b565b92915050565b600073ffffffffffffffffffffffffffffffffffffffff82169050919050565b6000620006b9826200068c565b9050919050565b620006cb81620006ac565b8114620006d757600080fd5b50565b600081359050620006eb81620006c0565b92915050565b600080600080608085870312156200070e576200070d620004e5565b5b600085013567ffffffffffffffff8111156200072f576200072e620004ea565b5b6200073d878288016200061e565b9450506020620007508782880162000675565b93505060406200076387828801620006da565b9250506060620007768782880162000675565b91505092959194509250565b6000602082840312156200079b576200079a620004e5565b5b6000620007ab8482850162000675565b91505092915050565b6000819050919050565b6000620007df620007d9620007d3846200068c565b620007b4565b6200068c565b9050919050565b6000620007f382620007be565b9050919050565b60006200080782620007e6565b9050919050565b6200081981620007fa565b82525050565b60006020820190506200083660008301846200080e565b92915050565b620008478162000651565b82525050565b60006020820190506200086460008301846200083c565b92915050565b600062000877826200068c565b9050919050565b62000889816200086a565b82525050565b6000602082019050620008a660008301846200087e565b92915050565b600082825260208201905092915050565b7f796f752063616e27742072657175657374206c657373206d6f6e657900000000600082015250565b6000620008f5601c83620008ac565b91506200090282620008bd565b602082019050919050565b600060208201905081810360008301526200092881620008e6565b9050919050565b60006200093c826200086a565b9050919050565b6200094e816200092f565b81146200095a57600080fd5b50565b6000815190506200096e8162000943565b92915050565b6000602082840312156200098d576200098c620004e5565b5b60006200099d848285016200095d565b91505092915050565b600081519050620009b7816200065b565b92915050565b600060208284031215620009d657620009d5620004e5565b5b6000620009e684828501620009a6565b91505092915050565b7f796f75206172652062616e6e6564000000000000000000000000000000000000600082015250565b600062000a27600e83620008ac565b915062000a3482620009ef565b602082019050919050565b6000602082019050818103600083015262000a5a8162000a18565b9050919050565b60008115159050919050565b62000a788162000a61565b811462000a8457600080fd5b50565b60008151905062000a988162000a6d565b92915050565b60006020828403121562000ab75762000ab6620004e5565b5b600062000ac78482850162000a87565b91505092915050565b7f796f75206861766520616c726561647920726571756573746564000000000000600082015250565b600062000b08601a83620008ac565b915062000b158262000ad0565b602082019050919050565b6000602082019050818103600083015262000b3b8162000af9565b9050919050565b600081519050919050565b60005b8381101562000b6d57808201518184015260208101905062000b50565b8381111562000b7d576000848401525b50505050565b600062000b908262000b42565b62000b9c8185620008ac565b935062000bae81856020860162000b4d565b62000bb981620004f9565b840191505092915050565b62000bcf81620006ac565b82525050565b600062000be282620007e6565b9050919050565b62000bf48162000bd5565b82525050565b600060a082019050818103600083015262000c16818862000b83565b905062000c2760208301876200083c565b62000c36604083018662000bc4565b62000c45606083018562000be9565b62000c5460808301846200083c565b969550505050505056fe60806040523480156200001157600080fd5b506040516200178438038062001784833981810160405281019062000037919062000431565b84600290805190602001906200004f929190620000eb565b508360038190555082600460006101000a81548173ffffffffffffffffffffffffffffffffffffffff021916908373ffffffffffffffffffffffffffffffffffffffff16021790555081600160006101000a81548173ffffffffffffffffffffffffffffffffffffffff021916908373ffffffffffffffffffffffffffffffffffffffff1602179055508060008190555050505050506200053d565b828054620000f99062000507565b90600052602060002090601f0160209004810192826200011d576000855562000169565b82601f106200013857805160ff191683800117855562000169565b8280016001018555821562000169579182015b82811115620001685782518255916020019190600101906200014b565b5b5090506200017891906200017c565b5090565b5b80821115620001975760008160009055506001016200017d565b5090565b6000604051905090565b600080fd5b600080fd5b600080fd5b600080fd5b6000601f19601f8301169050919050565b7f4e487b7100000000000000000000000000000000000000000000000000000000600052604160045260246000fd5b6200020482620001b9565b810181811067ffffffffffffffff82111715620002265762000225620001ca565b5b80604052505050565b60006200023b6200019b565b9050620002498282620001f9565b919050565b600067ffffffffffffffff8211156200026c576200026b620001ca565b5b6200027782620001b9565b9050602081019050919050565b60005b83811015620002a457808201518184015260208101905062000287565b83811115620002b4576000848401525b50505050565b6000620002d1620002cb846200024e565b6200022f565b905082815260208101848484011115620002f057620002ef620001b4565b5b620002fd84828562000284565b509392505050565b600082601f8301126200031d576200031c620001af565b5b81516200032f848260208601620002ba565b91505092915050565b6000819050919050565b6200034d8162000338565b81146200035957600080fd5b50565b6000815190506200036d8162000342565b92915050565b600073ffffffffffffffffffffffffffffffffffffffff82169050919050565b6000620003a08262000373565b9050919050565b620003b28162000393565b8114620003be57600080fd5b50565b600081519050620003d281620003a7565b92915050565b6000620003e58262000373565b9050919050565b6000620003f982620003d8565b9050919050565b6200040b81620003ec565b81146200041757600080fd5b50565b6000815190506200042b8162000400565b92915050565b600080600080600060a0868803121562000450576200044f620001a5565b5b600086015167ffffffffffffffff811115620004715762000470620001aa565b5b6200047f8882890162000305565b955050602062000492888289016200035c565b9450506040620004a588828901620003c1565b9350506060620004b8888289016200041a565b9250506080620004cb888289016200035c565b9150509295509295909350565b7f4e487b7100000000000000000000000000000000000000000000000000000000600052602260045260246000fd5b600060028204905060018216806200052057607f821691505b60208210811415620005375762000536620004d8565b5b50919050565b611237806200054d6000396000f3fe6080604052600436106100f35760003560e01c8063937e09b11161008a578063c236bb2211610059578063c236bb22146102f8578063d5d9ce9114610323578063d7bb99ba1461033a578063ecfd892814610344576100f3565b8063937e09b11461023a578063a885bd5414610265578063aa8c217c14610290578063ad285cad146102bb576100f3565b80631f6d4942116100c65780631f6d49421461017c578063481c6a75146101b957806366d003ac146101e45780637284e4161461020f576100f3565b806301cf89a8146100f857806312424e3f1461010f578063158fba8f1461012657806319d40b0814610151575b600080fd5b34801561010457600080fd5b5061010d61036f565b005b34801561011b57600080fd5b50610124610596565b005b34801561013257600080fd5b5061013b61069e565b6040516101489190610b40565b60405180910390f35b34801561015d57600080fd5b506101666106b1565b6040516101739190610b40565b60405180910390f35b34801561018857600080fd5b506101a3600480360381019061019e9190610bbe565b6106c4565b6040516101b09190610b40565b60405180910390f35b3480156101c557600080fd5b506101ce6106e4565b6040516101db9190610c4a565b60405180910390f35b3480156101f057600080fd5b506101f961070a565b6040516102069190610c86565b60405180910390f35b34801561021b57600080fd5b50610224610730565b6040516102319190610d3a565b60405180910390f35b34801561024657600080fd5b5061024f6107be565b60405161025c9190610d75565b60405180910390f35b34801561027157600080fd5b5061027a6107c4565b6040516102879190610d75565b60405180910390f35b34801561029c57600080fd5b506102a56107ca565b6040516102b29190610d75565b60405180910390f35b3480156102c757600080fd5b506102e260048036038101906102dd9190610bbe565b6107d0565b6040516102ef9190610b40565b60405180910390f35b34801561030457600080fd5b5061030d6107f0565b60405161031a9190610d75565b60405180910390f35b34801561032f57600080fd5b506103386107f6565b005b6103426108fe565b005b34801561035057600080fd5b50610359610b1f565b6040516103669190610d75565b60405180910390f35b600460149054906101000a900460ff161580156103995750600a60009054906101000a900460ff16155b6103d8576040517f08c379a00000000000000000000000000000000000000000000000000000000081526004016103cf90610ddc565b60405180910390fd5b600560003373ffffffffffffffffffffffffffffffffffffffff1673ffffffffffffffffffffffffffffffffffffffff16815260200190815260200160002060009054906101000a900460ff16610464576040517f08c379a000000000000000000000000000000000000000000000000000000000815260040161045b90610e48565b60405180910390fd5b600860003373ffffffffffffffffffffffffffffffffffffffff1673ffffffffffffffffffffffffffffffffffffffff16815260200190815260200160002060009054906101000a900460ff16156104f1576040517f08c379a00000000000000000000000000000000000000000000000000000000081526004016104e890610eb4565b60405180910390fd5b6001600860003373ffffffffffffffffffffffffffffffffffffffff1673ffffffffffffffffffffffffffffffffffffffff16815260200190815260200160002060006101000a81548160ff0219169083151502179055506009600081548092919061055c90610f03565b9190505550600060646006546009546105759190610f7b565b61057f9190610fac565b9050605a811115610593576105926107f6565b5b50565b600460009054906101000a900473ffffffffffffffffffffffffffffffffffffffff1673ffffffffffffffffffffffffffffffffffffffff166108fc479081150290604051600060405180830381858888f193505050501580156105fe573d6000803e3d6000fd5b506001600460146101000a81548160ff021916908315150217905550600160009054906101000a900473ffffffffffffffffffffffffffffffffffffffff1673ffffffffffffffffffffffffffffffffffffffff166302cff5c56040518163ffffffff1660e01b8152600401600060405180830381600087803b15801561068457600080fd5b505af1158015610698573d6000803e3d6000fd5b50505050565b600a60009054906101000a900460ff1681565b600460149054906101000a900460ff1681565b60056020528060005260406000206000915054906101000a900460ff1681565b600160009054906101000a900473ffffffffffffffffffffffffffffffffffffffff1681565b600460009054906101000a900473ffffffffffffffffffffffffffffffffffffffff1681565b6002805461073d90611035565b80601f016020809104026020016040519081016040528092919081815260200182805461076990611035565b80156107b65780601f1061078b576101008083540402835291602001916107b6565b820191906000526020600020905b81548152906001019060200180831161079957829003601f168201915b505050505081565b60005481565b60095481565b60035481565b60086020528060005260406000206000915054906101000a900460ff1681565b60075481565b600460149054906101000a900460ff161580156108205750600a60009054906101000a900460ff16155b61085f576040517f08c379a000000000000000000000000000000000000000000000000000000000815260040161085690610ddc565b60405180910390fd5b600160009054906101000a900473ffffffffffffffffffffffffffffffffffffffff1673ffffffffffffffffffffffffffffffffffffffff1663cb6ff4a36040518163ffffffff1660e01b8152600401600060405180830381600087803b1580156108c957600080fd5b505af11580156108dd573d6000803e3d6000fd5b505050506001600a60006101000a81548160ff021916908315150217905550565b600460149054906101000a900460ff161580156109285750600a60009054906101000a900460ff16155b610967576040517f08c379a000000000000000000000000000000000000000000000000000000000815260040161095e90610ddc565b60405180910390fd5b6000543410156109ac576040517f08c379a00000000000000000000000000000000000000000000000000000000081526004016109a3906110b3565b60405180910390fd5b600a60009054906101000a900460ff16156109fc576040517f08c379a00000000000000000000000000000000000000000000000000000000081526004016109f39061111f565b60405180910390fd5b60035460075410610a42576040517f08c379a0000000000000000000000000000000000000000000000000000000008152600401610a399061118b565b60405180910390fd5b600560003373ffffffffffffffffffffffffffffffffffffffff1673ffffffffffffffffffffffffffffffffffffffff16815260200190815260200160002060009054906101000a900460ff16610b045760066000815480929190610aa690610f03565b91905055506001600560003373ffffffffffffffffffffffffffffffffffffffff1673ffffffffffffffffffffffffffffffffffffffff16815260200190815260200160002060006101000a81548160ff0219169083151502179055505b3460076000828254610b1691906111ab565b92505081905550565b60065481565b60008115159050919050565b610b3a81610b25565b82525050565b6000602082019050610b556000830184610b31565b92915050565b600080fd5b600073ffffffffffffffffffffffffffffffffffffffff82169050919050565b6000610b8b82610b60565b9050919050565b610b9b81610b80565b8114610ba657600080fd5b50565b600081359050610bb881610b92565b92915050565b600060208284031215610bd457610bd3610b5b565b5b6000610be284828501610ba9565b91505092915050565b6000819050919050565b6000610c10610c0b610c0684610b60565b610beb565b610b60565b9050919050565b6000610c2282610bf5565b9050919050565b6000610c3482610c17565b9050919050565b610c4481610c29565b82525050565b6000602082019050610c5f6000830184610c3b565b92915050565b6000610c7082610b60565b9050919050565b610c8081610c65565b82525050565b6000602082019050610c9b6000830184610c77565b92915050565b600081519050919050565b600082825260208201905092915050565b60005b83811015610cdb578082015181840152602081019050610cc0565b83811115610cea576000848401525b50505050565b6000601f19601f8301169050919050565b6000610d0c82610ca1565b610d168185610cac565b9350610d26818560208601610cbd565b610d2f81610cf0565b840191505092915050565b60006020820190508181036000830152610d548184610d01565b905092915050565b6000819050919050565b610d6f81610d5c565b82525050565b6000602082019050610d8a6000830184610d66565b92915050565b7f62616e6e6564206f7220636f6d706c6574656400000000000000000000000000600082015250565b6000610dc6601383610cac565b9150610dd182610d90565b602082019050919050565b60006020820190508181036000830152610df581610db9565b9050919050565b7f796f7520617265206e6f74206120636f6e7472696275746f7200000000000000600082015250565b6000610e32601983610cac565b9150610e3d82610dfc565b602082019050919050565b60006020820190508181036000830152610e6181610e25565b9050919050565b7f796f75206861766520616c72656164792062616e6e6564000000000000000000600082015250565b6000610e9e601783610cac565b9150610ea982610e68565b602082019050919050565b60006020820190508181036000830152610ecd81610e91565b9050919050565b7f4e487b7100000000000000000000000000000000000000000000000000000000600052601160045260246000fd5b6000610f0e82610d5c565b91507fffffffffffffffffffffffffffffffffffffffffffffffffffffffffffffffff821415610f4157610f40610ed4565b5b600182019050919050565b7f4e487b7100000000000000000000000000000000000000000000000000000000600052601260045260246000fd5b6000610f8682610d5c565b9150610f9183610d5c565b925082610fa157610fa0610f4c565b5b828204905092915050565b6000610fb782610d5c565b9150610fc283610d5c565b9250817fffffffffffffffffffffffffffffffffffffffffffffffffffffffffffffffff0483118215151615610ffb57610ffa610ed4565b5b828202905092915050565b7f4e487b7100000000000000000000000000000000000000000000000000000000600052602260045260246000fd5b6000600282049050600182168061104d57607f821691505b6020821081141561106157611060611006565b5b50919050565b7f6c65737320616d6f756e7420646f6e6174656400000000000000000000000000600082015250565b600061109d601383610cac565b91506110a882611067565b602082019050919050565b600060208201905081810360008301526110cc81611090565b9050919050565b7f63616e277420646f6e61746520746f2062616e6e656420726571756573740000600082015250565b6000611109601e83610cac565b9150611114826110d3565b602082019050919050565b60006020820190508181036000830152611138816110fc565b9050919050565b7f676f616c20616d6f756e74207265616368656400000000000000000000000000600082015250565b6000611175601383610cac565b91506111808261113f565b602082019050919050565b600060208201905081810360008301526111a481611168565b9050919050565b60006111b682610d5c565b91506111c183610d5c565b9250827fffffffffffffffffffffffffffffffffffffffffffffffffffffffffffffffff038211156111f6576111f5610ed4565b5b82820190509291505056fea2646970667358221220798facaa5d6b94d4ec78cc454ff943ffd581ddc221ed14b6fb095e70af6cde4f64736f6c634300080b0033a264697066735822122058270469eba84b2d92cddc50395aef8b8b17e78bf534430012e93088649ada1564736f6c634300080b0033","opcodes":"PUSH1 0x80 PUSH1 0x40 MSTORE CALLVALUE DUP1 ISZERO PUSH2 0x10 JUMPI PUSH1 0x0 DUP1 REVERT JUMPDEST POP PUSH1 0x40 MLOAD PUSH2 0x252F CODESIZE SUB DUP1 PUSH2 0x252F DUP4 CODECOPY DUP2 DUP2 ADD PUSH1 0x40 MSTORE DUP2 ADD SWAP1 PUSH2 0x32 SWAP2 SWAP1 PUSH2 0xDB JUMP JUMPDEST DUP1 PUSH1 0x0 DUP1 PUSH2 0x100 EXP DUP2 SLOAD DUP2 PUSH20 0xFFFFFFFFFFFFFFFFFFFFFFFFFFFFFFFFFFFFFFFF MUL NOT AND SWAP1 DUP4 PUSH20 0xFFFFFFFFFFFFFFFFFFFFFFFFFFFFFFFFFFFFFFFF AND MUL OR SWAP1 SSTORE POP POP PUSH2 0x108 JUMP JUMPDEST PUSH1 0x0 DUP1 REVERT JUMPDEST PUSH1 0x0 PUSH20 0xFFFFFFFFFFFFFFFFFFFFFFFFFFFFFFFFFFFFFFFF DUP3 AND SWAP1 POP SWAP2 SWAP1 POP JUMP JUMPDEST PUSH1 0x0 PUSH2 0xA8 DUP3 PUSH2 0x7D JUMP JUMPDEST SWAP1 POP SWAP2 SWAP1 POP JUMP JUMPDEST PUSH2 0xB8 DUP2 PUSH2 0x9D JUMP JUMPDEST DUP2 EQ PUSH2 0xC3 JUMPI PUSH1 0x0 DUP1 REVERT JUMPDEST POP JUMP JUMPDEST PUSH1 0x0 DUP2 MLOAD SWAP1 POP PUSH2 0xD5 DUP2 PUSH2 0xAF JUMP JUMPDEST SWAP3 SWAP2 POP POP JUMP JUMPDEST PUSH1 0x0 PUSH1 0x20 DUP3 DUP5 SUB SLT ISZERO PUSH2 0xF1 JUMPI PUSH2 0xF0 PUSH2 0x78 JUMP JUMPDEST JUMPDEST PUSH1 0x0 PUSH2 0xFF DUP5 DUP3 DUP6 ADD PUSH2 0xC6 JUMP JUMPDEST SWAP2 POP POP SWAP3 SWAP2 POP POP JUMP JUMPDEST PUSH2 0x2418 DUP1 PUSH2 0x117 PUSH1 0x0 CODECOPY PUSH1 0x0 RETURN INVALID PUSH1 0x80 PUSH1 0x40 MSTORE CALLVALUE DUP1 ISZERO PUSH3 0x11 JUMPI PUSH1 0x0 DUP1 REVERT JUMPDEST POP PUSH1 0x4 CALLDATASIZE LT PUSH3 0x52 JUMPI PUSH1 0x0 CALLDATALOAD PUSH1 0xE0 SHR DUP1 PUSH4 0x552EF0AC EQ PUSH3 0x57 JUMPI DUP1 PUSH4 0x81D12C58 EQ PUSH3 0x77 JUMPI DUP1 PUSH4 0xA2AE2DBE EQ PUSH3 0xAD JUMPI DUP1 PUSH4 0xD9398C73 EQ PUSH3 0xCF JUMPI JUMPDEST PUSH1 0x0 DUP1 REVERT JUMPDEST PUSH3 0x75 PUSH1 0x4 DUP1 CALLDATASIZE SUB DUP2 ADD SWAP1 PUSH3 0x6F SWAP2 SWAP1 PUSH3 0x6F1 JUMP JUMPDEST PUSH3 0xF1 JUMP JUMPDEST STOP JUMPDEST PUSH3 0x95 PUSH1 0x4 DUP1 CALLDATASIZE SUB DUP2 ADD SWAP1 PUSH3 0x8F SWAP2 SWAP1 PUSH3 0x782 JUMP JUMPDEST PUSH3 0x45C JUMP JUMPDEST PUSH1 0x40 MLOAD PUSH3 0xA4 SWAP2 SWAP1 PUSH3 0x81F JUMP JUMPDEST PUSH1 0x40 MLOAD DUP1 SWAP2 SUB SWAP1 RETURN JUMPDEST PUSH3 0xB7 PUSH3 0x49C JUMP JUMPDEST PUSH1 0x40 MLOAD PUSH3 0xC6 SWAP2 SWAP1 PUSH3 0x84D JUMP JUMPDEST PUSH1 0x40 MLOAD DUP1 SWAP2 SUB SWAP1 RETURN JUMPDEST PUSH3 0xD9 PUSH3 0x4A9 JUMP JUMPDEST PUSH1 0x40 MLOAD PUSH3 0xE8 SWAP2 SWAP1 PUSH3 0x88F JUMP JUMPDEST PUSH1 0x40 MLOAD DUP1 SWAP2 SUB SWAP1 RETURN JUMPDEST PUSH1 0x64 DUP4 LT ISZERO PUSH3 0x138 JUMPI PUSH1 0x40 MLOAD PUSH32 0x8C379A000000000000000000000000000000000000000000000000000000000 DUP2 MSTORE PUSH1 0x4 ADD PUSH3 0x12F SWAP1 PUSH3 0x90D JUMP JUMPDEST PUSH1 0x40 MLOAD DUP1 SWAP2 SUB SWAP1 REVERT JUMPDEST PUSH1 0x0 DUP1 PUSH1 0x0 SWAP1 SLOAD SWAP1 PUSH2 0x100 EXP SWAP1 DIV PUSH20 0xFFFFFFFFFFFFFFFFFFFFFFFFFFFFFFFFFFFFFFFF AND PUSH20 0xFFFFFFFFFFFFFFFFFFFFFFFFFFFFFFFFFFFFFFFF AND PUSH4 0x3D584063 CALLER PUSH1 0x40 MLOAD DUP3 PUSH4 0xFFFFFFFF AND PUSH1 0xE0 SHL DUP2 MSTORE PUSH1 0x4 ADD PUSH3 0x196 SWAP2 SWAP1 PUSH3 0x88F JUMP JUMPDEST PUSH1 0x20 PUSH1 0x40 MLOAD DUP1 DUP4 SUB DUP2 PUSH1 0x0 DUP8 GAS CALL ISZERO DUP1 ISZERO PUSH3 0x1B6 JUMPI RETURNDATASIZE PUSH1 0x0 DUP1 RETURNDATACOPY RETURNDATASIZE PUSH1 0x0 REVERT JUMPDEST POP POP POP POP PUSH1 0x40 MLOAD RETURNDATASIZE PUSH1 0x1F NOT PUSH1 0x1F DUP3 ADD AND DUP3 ADD DUP1 PUSH1 0x40 MSTORE POP DUP2 ADD SWAP1 PUSH3 0x1DC SWAP2 SWAP1 PUSH3 0x974 JUMP JUMPDEST SWAP1 POP PUSH1 0x1 DUP2 PUSH20 0xFFFFFFFFFFFFFFFFFFFFFFFFFFFFFFFFFFFFFFFF AND PUSH4 0xD2A5BFAA PUSH1 0x40 MLOAD DUP2 PUSH4 0xFFFFFFFF AND PUSH1 0xE0 SHL DUP2 MSTORE PUSH1 0x4 ADD PUSH1 0x20 PUSH1 0x40 MLOAD DUP1 DUP4 SUB DUP2 DUP7 GAS STATICCALL ISZERO DUP1 ISZERO PUSH3 0x22C JUMPI RETURNDATASIZE PUSH1 0x0 DUP1 RETURNDATACOPY RETURNDATASIZE PUSH1 0x0 REVERT JUMPDEST POP POP POP POP PUSH1 0x40 MLOAD RETURNDATASIZE PUSH1 0x1F NOT PUSH1 0x1F DUP3 ADD AND DUP3 ADD DUP1 PUSH1 0x40 MSTORE POP DUP2 ADD SWAP1 PUSH3 0x252 SWAP2 SWAP1 PUSH3 0x9BD JUMP JUMPDEST LT PUSH3 0x295 JUMPI PUSH1 0x40 MLOAD PUSH32 0x8C379A000000000000000000000000000000000000000000000000000000000 DUP2 MSTORE PUSH1 0x4 ADD PUSH3 0x28C SWAP1 PUSH3 0xA3F JUMP JUMPDEST PUSH1 0x40 MLOAD DUP1 SWAP2 SUB SWAP1 REVERT JUMPDEST DUP1 PUSH20 0xFFFFFFFFFFFFFFFFFFFFFFFFFFFFFFFFFFFFFFFF AND PUSH4 0x3498858D PUSH1 0x40 MLOAD DUP2 PUSH4 0xFFFFFFFF AND PUSH1 0xE0 SHL DUP2 MSTORE PUSH1 0x4 ADD PUSH1 0x20 PUSH1 0x40 MLOAD DUP1 DUP4 SUB DUP2 DUP7 GAS STATICCALL ISZERO DUP1 ISZERO PUSH3 0x2E1 JUMPI RETURNDATASIZE PUSH1 0x0 DUP1 RETURNDATACOPY RETURNDATASIZE PUSH1 0x0 REVERT JUMPDEST POP POP POP POP PUSH1 0x40 MLOAD RETURNDATASIZE PUSH1 0x1F NOT PUSH1 0x1F DUP3 ADD AND DUP3 ADD DUP1 PUSH1 0x40 MSTORE POP DUP2 ADD SWAP1 PUSH3 0x307 SWAP2 SWAP1 PUSH3 0xA9E JUMP JUMPDEST ISZERO PUSH3 0x34A JUMPI PUSH1 0x40 MLOAD PUSH32 0x8C379A000000000000000000000000000000000000000000000000000000000 DUP2 MSTORE PUSH1 0x4 ADD PUSH3 0x341 SWAP1 PUSH3 0xB20 JUMP JUMPDEST PUSH1 0x40 MLOAD DUP1 SWAP2 SUB SWAP1 REVERT JUMPDEST PUSH1 0x0 DUP6 DUP6 DUP6 DUP5 DUP7 PUSH1 0x40 MLOAD PUSH3 0x35F SWAP1 PUSH3 0x4CD JUMP JUMPDEST PUSH3 0x36F SWAP6 SWAP5 SWAP4 SWAP3 SWAP2 SWAP1 PUSH3 0xBFA JUMP JUMPDEST PUSH1 0x40 MLOAD DUP1 SWAP2 SUB SWAP1 PUSH1 0x0 CREATE DUP1 ISZERO DUP1 ISZERO PUSH3 0x38C JUMPI RETURNDATASIZE PUSH1 0x0 DUP1 RETURNDATACOPY RETURNDATASIZE PUSH1 0x0 REVERT JUMPDEST POP SWAP1 POP PUSH1 0x1 DUP2 SWAP1 DUP1 PUSH1 0x1 DUP2 SLOAD ADD DUP1 DUP3 SSTORE DUP1 SWAP2 POP POP PUSH1 0x1 SWAP1 SUB SWAP1 PUSH1 0x0 MSTORE PUSH1 0x20 PUSH1 0x0 KECCAK256 ADD PUSH1 0x0 SWAP1 SWAP2 SWAP1 SWAP2 SWAP1 SWAP2 PUSH2 0x100 EXP DUP2 SLOAD DUP2 PUSH20 0xFFFFFFFFFFFFFFFFFFFFFFFFFFFFFFFFFFFFFFFF MUL NOT AND SWAP1 DUP4 PUSH20 0xFFFFFFFFFFFFFFFFFFFFFFFFFFFFFFFFFFFFFFFF AND MUL OR SWAP1 SSTORE POP DUP2 PUSH20 0xFFFFFFFFFFFFFFFFFFFFFFFFFFFFFFFFFFFFFFFF AND PUSH4 0x86F67568 PUSH1 0x40 MLOAD DUP2 PUSH4 0xFFFFFFFF AND PUSH1 0xE0 SHL DUP2 MSTORE PUSH1 0x4 ADD PUSH1 0x0 PUSH1 0x40 MLOAD DUP1 DUP4 SUB DUP2 PUSH1 0x0 DUP8 DUP1 EXTCODESIZE ISZERO DUP1 ISZERO PUSH3 0x43B JUMPI PUSH1 0x0 DUP1 REVERT JUMPDEST POP GAS CALL ISZERO DUP1 ISZERO PUSH3 0x450 JUMPI RETURNDATASIZE PUSH1 0x0 DUP1 RETURNDATACOPY RETURNDATASIZE PUSH1 0x0 REVERT JUMPDEST POP POP POP POP POP POP POP POP POP POP JUMP JUMPDEST PUSH1 0x1 DUP2 DUP2 SLOAD DUP2 LT PUSH3 0x46D JUMPI PUSH1 0x0 DUP1 REVERT JUMPDEST SWAP1 PUSH1 0x0 MSTORE PUSH1 0x20 PUSH1 0x0 KECCAK256 ADD PUSH1 0x0 SWAP2 POP SLOAD SWAP1 PUSH2 0x100 EXP SWAP1 DIV PUSH20 0xFFFFFFFFFFFFFFFFFFFFFFFFFFFFFFFFFFFFFFFF AND DUP2 JUMP JUMPDEST PUSH1 0x0 PUSH1 0x1 DUP1 SLOAD SWAP1 POP SWAP1 POP SWAP1 JUMP JUMPDEST PUSH1 0x0 DUP1 SLOAD SWAP1 PUSH2 0x100 EXP SWAP1 DIV PUSH20 0xFFFFFFFFFFFFFFFFFFFFFFFFFFFFFFFFFFFFFFFF AND DUP2 JUMP JUMPDEST PUSH2 0x1784 DUP1 PUSH3 0xC5F DUP4 CODECOPY ADD SWAP1 JUMP JUMPDEST PUSH1 0x0 PUSH1 0x40 MLOAD SWAP1 POP SWAP1 JUMP JUMPDEST PUSH1 0x0 DUP1 REVERT JUMPDEST PUSH1 0x0 DUP1 REVERT JUMPDEST PUSH1 0x0 DUP1 REVERT JUMPDEST PUSH1 0x0 DUP1 REVERT JUMPDEST PUSH1 0x0 PUSH1 0x1F NOT PUSH1 0x1F DUP4 ADD AND SWAP1 POP SWAP2 SWAP1 POP JUMP JUMPDEST PUSH32 0x4E487B7100000000000000000000000000000000000000000000000000000000 PUSH1 0x0 MSTORE PUSH1 0x41 PUSH1 0x4 MSTORE PUSH1 0x24 PUSH1 0x0 REVERT JUMPDEST PUSH3 0x544 DUP3 PUSH3 0x4F9 JUMP JUMPDEST DUP2 ADD DUP2 DUP2 LT PUSH8 0xFFFFFFFFFFFFFFFF DUP3 GT OR ISZERO PUSH3 0x566 JUMPI PUSH3 0x565 PUSH3 0x50A JUMP JUMPDEST JUMPDEST DUP1 PUSH1 0x40 MSTORE POP POP POP JUMP JUMPDEST PUSH1 0x0 PUSH3 0x57B PUSH3 0x4DB JUMP JUMPDEST SWAP1 POP PUSH3 0x589 DUP3 DUP3 PUSH3 0x539 JUMP JUMPDEST SWAP2 SWAP1 POP JUMP JUMPDEST PUSH1 0x0 PUSH8 0xFFFFFFFFFFFFFFFF DUP3 GT ISZERO PUSH3 0x5AC JUMPI PUSH3 0x5AB PUSH3 0x50A JUMP JUMPDEST JUMPDEST PUSH3 0x5B7 DUP3 PUSH3 0x4F9 JUMP JUMPDEST SWAP1 POP PUSH1 0x20 DUP2 ADD SWAP1 POP SWAP2 SWAP1 POP JUMP JUMPDEST DUP3 DUP2 DUP4 CALLDATACOPY PUSH1 0x0 DUP4 DUP4 ADD MSTORE POP POP POP JUMP JUMPDEST PUSH1 0x0 PUSH3 0x5EA PUSH3 0x5E4 DUP5 PUSH3 0x58E JUMP JUMPDEST PUSH3 0x56F JUMP JUMPDEST SWAP1 POP DUP3 DUP2 MSTORE PUSH1 0x20 DUP2 ADD DUP5 DUP5 DUP5 ADD GT ISZERO PUSH3 0x609 JUMPI PUSH3 0x608 PUSH3 0x4F4 JUMP JUMPDEST JUMPDEST PUSH3 0x616 DUP5 DUP3 DUP6 PUSH3 0x5C4 JUMP JUMPDEST POP SWAP4 SWAP3 POP POP POP JUMP JUMPDEST PUSH1 0x0 DUP3 PUSH1 0x1F DUP4 ADD SLT PUSH3 0x636 JUMPI PUSH3 0x635 PUSH3 0x4EF JUMP JUMPDEST JUMPDEST DUP2 CALLDATALOAD PUSH3 0x648 DUP5 DUP3 PUSH1 0x20 DUP7 ADD PUSH3 0x5D3 JUMP JUMPDEST SWAP2 POP POP SWAP3 SWAP2 POP POP JUMP JUMPDEST PUSH1 0x0 DUP2 SWAP1 POP SWAP2 SWAP1 POP JUMP JUMPDEST PUSH3 0x666 DUP2 PUSH3 0x651 JUMP JUMPDEST DUP2 EQ PUSH3 0x672 JUMPI PUSH1 0x0 DUP1 REVERT JUMPDEST POP JUMP JUMPDEST PUSH1 0x0 DUP2 CALLDATALOAD SWAP1 POP PUSH3 0x686 DUP2 PUSH3 0x65B JUMP JUMPDEST SWAP3 SWAP2 POP POP JUMP JUMPDEST PUSH1 0x0 PUSH20 0xFFFFFFFFFFFFFFFFFFFFFFFFFFFFFFFFFFFFFFFF DUP3 AND SWAP1 POP SWAP2 SWAP1 POP JUMP JUMPDEST PUSH1 0x0 PUSH3 0x6B9 DUP3 PUSH3 0x68C JUMP JUMPDEST SWAP1 POP SWAP2 SWAP1 POP JUMP JUMPDEST PUSH3 0x6CB DUP2 PUSH3 0x6AC JUMP JUMPDEST DUP2 EQ PUSH3 0x6D7 JUMPI PUSH1 0x0 DUP1 REVERT JUMPDEST POP JUMP JUMPDEST PUSH1 0x0 DUP2 CALLDATALOAD SWAP1 POP PUSH3 0x6EB DUP2 PUSH3 0x6C0 JUMP JUMPDEST SWAP3 SWAP2 POP POP JUMP JUMPDEST PUSH1 0x0 DUP1 PUSH1 0x0 DUP1 PUSH1 0x80 DUP6 DUP8 SUB SLT ISZERO PUSH3 0x70E JUMPI PUSH3 0x70D PUSH3 0x4E5 JUMP JUMPDEST JUMPDEST PUSH1 0x0 DUP6 ADD CALLDATALOAD PUSH8 0xFFFFFFFFFFFFFFFF DUP2 GT ISZERO PUSH3 0x72F JUMPI PUSH3 0x72E PUSH3 0x4EA JUMP JUMPDEST JUMPDEST PUSH3 0x73D DUP8 DUP3 DUP9 ADD PUSH3 0x61E JUMP JUMPDEST SWAP5 POP POP PUSH1 0x20 PUSH3 0x750 DUP8 DUP3 DUP9 ADD PUSH3 0x675 JUMP JUMPDEST SWAP4 POP POP PUSH1 0x40 PUSH3 0x763 DUP8 DUP3 DUP9 ADD PUSH3 0x6DA JUMP JUMPDEST SWAP3 POP POP PUSH1 0x60 PUSH3 0x776 DUP8 DUP3 DUP9 ADD PUSH3 0x675 JUMP JUMPDEST SWAP2 POP POP SWAP3 SWAP6 SWAP2 SWAP5 POP SWAP3 POP JUMP JUMPDEST PUSH1 0x0 PUSH1 0x20 DUP3 DUP5 SUB SLT ISZERO PUSH3 0x79B JUMPI PUSH3 0x79A PUSH3 0x4E5 JUMP JUMPDEST JUMPDEST PUSH1 0x0 PUSH3 0x7AB DUP5 DUP3 DUP6 ADD PUSH3 0x675 JUMP JUMPDEST SWAP2 POP POP SWAP3 SWAP2 POP POP JUMP JUMPDEST PUSH1 0x0 DUP2 SWAP1 POP SWAP2 SWAP1 POP JUMP JUMPDEST PUSH1 0x0 PUSH3 0x7DF PUSH3 0x7D9 PUSH3 0x7D3 DUP5 PUSH3 0x68C JUMP JUMPDEST PUSH3 0x7B4 JUMP JUMPDEST PUSH3 0x68C JUMP JUMPDEST SWAP1 POP SWAP2 SWAP1 POP JUMP JUMPDEST PUSH1 0x0 PUSH3 0x7F3 DUP3 PUSH3 0x7BE JUMP JUMPDEST SWAP1 POP SWAP2 SWAP1 POP JUMP JUMPDEST PUSH1 0x0 PUSH3 0x807 DUP3 PUSH3 0x7E6 JUMP JUMPDEST SWAP1 POP SWAP2 SWAP1 POP JUMP JUMPDEST PUSH3 0x819 DUP2 PUSH3 0x7FA JUMP JUMPDEST DUP3 MSTORE POP POP JUMP JUMPDEST PUSH1 0x0 PUSH1 0x20 DUP3 ADD SWAP1 POP PUSH3 0x836 PUSH1 0x0 DUP4 ADD DUP5 PUSH3 0x80E JUMP JUMPDEST SWAP3 SWAP2 POP POP JUMP JUMPDEST PUSH3 0x847 DUP2 PUSH3 0x651 JUMP JUMPDEST DUP3 MSTORE POP POP JUMP JUMPDEST PUSH1 0x0 PUSH1 0x20 DUP3 ADD SWAP1 POP PUSH3 0x864 PUSH1 0x0 DUP4 ADD DUP5 PUSH3 0x83C JUMP JUMPDEST SWAP3 SWAP2 POP POP JUMP JUMPDEST PUSH1 0x0 PUSH3 0x877 DUP3 PUSH3 0x68C JUMP JUMPDEST SWAP1 POP SWAP2 SWAP1 POP JUMP JUMPDEST PUSH3 0x889 DUP2 PUSH3 0x86A JUMP JUMPDEST DUP3 MSTORE POP POP JUMP JUMPDEST PUSH1 0x0 PUSH1 0x20 DUP3 ADD SWAP1 POP PUSH3 0x8A6 PUSH1 0x0 DUP4 ADD DUP5 PUSH3 0x87E JUMP JUMPDEST SWAP3 SWAP2 POP POP JUMP JUMPDEST PUSH1 0x0 DUP3 DUP3 MSTORE PUSH1 0x20 DUP3 ADD SWAP1 POP SWAP3 SWAP2 POP POP JUMP JUMPDEST PUSH32 0x796F752063616E27742072657175657374206C657373206D6F6E657900000000 PUSH1 0x0 DUP3 ADD MSTORE POP JUMP JUMPDEST PUSH1 0x0 PUSH3 0x8F5 PUSH1 0x1C DUP4 PUSH3 0x8AC JUMP JUMPDEST SWAP2 POP PUSH3 0x902 DUP3 PUSH3 0x8BD JUMP JUMPDEST PUSH1 0x20 DUP3 ADD SWAP1 POP SWAP2 SWAP1 POP JUMP JUMPDEST PUSH1 0x0 PUSH1 0x20 DUP3 ADD SWAP1 POP DUP2 DUP2 SUB PUSH1 0x0 DUP4 ADD MSTORE PUSH3 0x928 DUP2 PUSH3 0x8E6 JUMP JUMPDEST SWAP1 POP SWAP2 SWAP1 POP JUMP JUMPDEST PUSH1 0x0 PUSH3 0x93C DUP3 PUSH3 0x86A JUMP JUMPDEST SWAP1 POP SWAP2 SWAP1 POP JUMP JUMPDEST PUSH3 0x94E DUP2 PUSH3 0x92F JUMP JUMPDEST DUP2 EQ PUSH3 0x95A JUMPI PUSH1 0x0 DUP1 REVERT JUMPDEST POP JUMP JUMPDEST PUSH1 0x0 DUP2 MLOAD SWAP1 POP PUSH3 0x96E DUP2 PUSH3 0x943 JUMP JUMPDEST SWAP3 SWAP2 POP POP JUMP JUMPDEST PUSH1 0x0 PUSH1 0x20 DUP3 DUP5 SUB SLT ISZERO PUSH3 0x98D JUMPI PUSH3 0x98C PUSH3 0x4E5 JUMP JUMPDEST JUMPDEST PUSH1 0x0 PUSH3 0x99D DUP5 DUP3 DUP6 ADD PUSH3 0x95D JUMP JUMPDEST SWAP2 POP POP SWAP3 SWAP2 POP POP JUMP JUMPDEST PUSH1 0x0 DUP2 MLOAD SWAP1 POP PUSH3 0x9B7 DUP2 PUSH3 0x65B JUMP JUMPDEST SWAP3 SWAP2 POP POP JUMP JUMPDEST PUSH1 0x0 PUSH1 0x20 DUP3 DUP5 SUB SLT ISZERO PUSH3 0x9D6 JUMPI PUSH3 0x9D5 PUSH3 0x4E5 JUMP JUMPDEST JUMPDEST PUSH1 0x0 PUSH3 0x9E6 DUP5 DUP3 DUP6 ADD PUSH3 0x9A6 JUMP JUMPDEST SWAP2 POP POP SWAP3 SWAP2 POP POP JUMP JUMPDEST PUSH32 0x796F75206172652062616E6E6564000000000000000000000000000000000000 PUSH1 0x0 DUP3 ADD MSTORE POP JUMP JUMPDEST PUSH1 0x0 PUSH3 0xA27 PUSH1 0xE DUP4 PUSH3 0x8AC JUMP JUMPDEST SWAP2 POP PUSH3 0xA34 DUP3 PUSH3 0x9EF JUMP JUMPDEST PUSH1 0x20 DUP3 ADD SWAP1 POP SWAP2 SWAP1 POP JUMP JUMPDEST PUSH1 0x0 PUSH1 0x20 DUP3 ADD SWAP1 POP DUP2 DUP2 SUB PUSH1 0x0 DUP4 ADD MSTORE PUSH3 0xA5A DUP2 PUSH3 0xA18 JUMP JUMPDEST SWAP1 POP SWAP2 SWAP1 POP JUMP JUMPDEST PUSH1 0x0 DUP2 ISZERO ISZERO SWAP1 POP SWAP2 SWAP1 POP JUMP JUMPDEST PUSH3 0xA78 DUP2 PUSH3 0xA61 JUMP JUMPDEST DUP2 EQ PUSH3 0xA84 JUMPI PUSH1 0x0 DUP1 REVERT JUMPDEST POP JUMP JUMPDEST PUSH1 0x0 DUP2 MLOAD SWAP1 POP PUSH3 0xA98 DUP2 PUSH3 0xA6D JUMP JUMPDEST SWAP3 SWAP2 POP POP JUMP JUMPDEST PUSH1 0x0 PUSH1 0x20 DUP3 DUP5 SUB SLT ISZERO PUSH3 0xAB7 JUMPI PUSH3 0xAB6 PUSH3 0x4E5 JUMP JUMPDEST JUMPDEST PUSH1 0x0 PUSH3 0xAC7 DUP5 DUP3 DUP6 ADD PUSH3 0xA87 JUMP JUMPDEST SWAP2 POP POP SWAP3 SWAP2 POP POP JUMP JUMPDEST PUSH32 0x796F75206861766520616C726561647920726571756573746564000000000000 PUSH1 0x0 DUP3 ADD MSTORE POP JUMP JUMPDEST PUSH1 0x0 PUSH3 0xB08 PUSH1 0x1A DUP4 PUSH3 0x8AC JUMP JUMPDEST SWAP2 POP PUSH3 0xB15 DUP3 PUSH3 0xAD0 JUMP JUMPDEST PUSH1 0x20 DUP3 ADD SWAP1 POP SWAP2 SWAP1 POP JUMP JUMPDEST PUSH1 0x0 PUSH1 0x20 DUP3 ADD SWAP1 POP DUP2 DUP2 SUB PUSH1 0x0 DUP4 ADD MSTORE PUSH3 0xB3B DUP2 PUSH3 0xAF9 JUMP JUMPDEST SWAP1 POP SWAP2 SWAP1 POP JUMP JUMPDEST PUSH1 0x0 DUP2 MLOAD SWAP1 POP SWAP2 SWAP1 POP JUMP JUMPDEST PUSH1 0x0 JUMPDEST DUP4 DUP2 LT ISZERO PUSH3 0xB6D JUMPI DUP1 DUP3 ADD MLOAD DUP2 DUP5 ADD MSTORE PUSH1 0x20 DUP2 ADD SWAP1 POP PUSH3 0xB50 JUMP JUMPDEST DUP4 DUP2 GT ISZERO PUSH3 0xB7D JUMPI PUSH1 0x0 DUP5 DUP5 ADD MSTORE JUMPDEST POP POP POP POP JUMP JUMPDEST PUSH1 0x0 PUSH3 0xB90 DUP3 PUSH3 0xB42 JUMP JUMPDEST PUSH3 0xB9C DUP2 DUP6 PUSH3 0x8AC JUMP JUMPDEST SWAP4 POP PUSH3 0xBAE DUP2 DUP6 PUSH1 0x20 DUP7 ADD PUSH3 0xB4D JUMP JUMPDEST PUSH3 0xBB9 DUP2 PUSH3 0x4F9 JUMP JUMPDEST DUP5 ADD SWAP2 POP POP SWAP3 SWAP2 POP POP JUMP JUMPDEST PUSH3 0xBCF DUP2 PUSH3 0x6AC JUMP JUMPDEST DUP3 MSTORE POP POP JUMP JUMPDEST PUSH1 0x0 PUSH3 0xBE2 DUP3 PUSH3 0x7E6 JUMP JUMPDEST SWAP1 POP SWAP2 SWAP1 POP JUMP JUMPDEST PUSH3 0xBF4 DUP2 PUSH3 0xBD5 JUMP JUMPDEST DUP3 MSTORE POP POP JUMP JUMPDEST PUSH1 0x0 PUSH1 0xA0 DUP3 ADD SWAP1 POP DUP2 DUP2 SUB PUSH1 0x0 DUP4 ADD MSTORE PUSH3 0xC16 DUP2 DUP9 PUSH3 0xB83 JUMP JUMPDEST SWAP1 POP PUSH3 0xC27 PUSH1 0x20 DUP4 ADD DUP8 PUSH3 0x83C JUMP JUMPDEST PUSH3 0xC36 PUSH1 0x40 DUP4 ADD DUP7 PUSH3 0xBC4 JUMP JUMPDEST PUSH3 0xC45 PUSH1 0x60 DUP4 ADD DUP6 PUSH3 0xBE9 JUMP JUMPDEST PUSH3 0xC54 PUSH1 0x80 DUP4 ADD DUP5 PUSH3 0x83C JUMP JUMPDEST SWAP7 SWAP6 POP POP POP POP POP POP JUMP INVALID PUSH1 0x80 PUSH1 0x40 MSTORE CALLVALUE DUP1 ISZERO PUSH3 0x11 JUMPI PUSH1 0x0 DUP1 REVERT JUMPDEST POP PUSH1 0x40 MLOAD PUSH3 0x1784 CODESIZE SUB DUP1 PUSH3 0x1784 DUP4 CODECOPY DUP2 DUP2 ADD PUSH1 0x40 MSTORE DUP2 ADD SWAP1 PUSH3 0x37 SWAP2 SWAP1 PUSH3 0x431 JUMP JUMPDEST DUP5 PUSH1 0x2 SWAP1 DUP1 MLOAD SWAP1 PUSH1 0x20 ADD SWAP1 PUSH3 0x4F SWAP3 SWAP2 SWAP1 PUSH3 0xEB JUMP JUMPDEST POP DUP4 PUSH1 0x3 DUP2 SWAP1 SSTORE POP DUP3 PUSH1 0x4 PUSH1 0x0 PUSH2 0x100 EXP DUP2 SLOAD DUP2 PUSH20 0xFFFFFFFFFFFFFFFFFFFFFFFFFFFFFFFFFFFFFFFF MUL NOT AND SWAP1 DUP4 PUSH20 0xFFFFFFFFFFFFFFFFFFFFFFFFFFFFFFFFFFFFFFFF AND MUL OR SWAP1 SSTORE POP DUP2 PUSH1 0x1 PUSH1 0x0 PUSH2 0x100 EXP DUP2 SLOAD DUP2 PUSH20 0xFFFFFFFFFFFFFFFFFFFFFFFFFFFFFFFFFFFFFFFF MUL NOT AND SWAP1 DUP4 PUSH20 0xFFFFFFFFFFFFFFFFFFFFFFFFFFFFFFFFFFFFFFFF AND MUL OR SWAP1 SSTORE POP DUP1 PUSH1 0x0 DUP2 SWAP1 SSTORE POP POP POP POP POP POP PUSH3 0x53D JUMP JUMPDEST DUP3 DUP1 SLOAD PUSH3 0xF9 SWAP1 PUSH3 0x507 JUMP JUMPDEST SWAP1 PUSH1 0x0 MSTORE PUSH1 0x20 PUSH1 0x0 KECCAK256 SWAP1 PUSH1 0x1F ADD PUSH1 0x20 SWAP1 DIV DUP2 ADD SWAP3 DUP3 PUSH3 0x11D JUMPI PUSH1 0x0 DUP6 SSTORE PUSH3 0x169 JUMP JUMPDEST DUP3 PUSH1 0x1F LT PUSH3 0x138 JUMPI DUP1 MLOAD PUSH1 0xFF NOT AND DUP4 DUP1 ADD OR DUP6 SSTORE PUSH3 0x169 JUMP JUMPDEST DUP3 DUP1 ADD PUSH1 0x1 ADD DUP6 SSTORE DUP3 ISZERO PUSH3 0x169 JUMPI SWAP2 DUP3 ADD JUMPDEST DUP3 DUP2 GT ISZERO PUSH3 0x168 JUMPI DUP3 MLOAD DUP3 SSTORE SWAP2 PUSH1 0x20 ADD SWAP2 SWAP1 PUSH1 0x1 ADD SWAP1 PUSH3 0x14B JUMP JUMPDEST JUMPDEST POP SWAP1 POP PUSH3 0x178 SWAP2 SWAP1 PUSH3 0x17C JUMP JUMPDEST POP SWAP1 JUMP JUMPDEST JUMPDEST DUP1 DUP3 GT ISZERO PUSH3 0x197 JUMPI PUSH1 0x0 DUP2 PUSH1 0x0 SWAP1 SSTORE POP PUSH1 0x1 ADD PUSH3 0x17D JUMP JUMPDEST POP SWAP1 JUMP JUMPDEST PUSH1 0x0 PUSH1 0x40 MLOAD SWAP1 POP SWAP1 JUMP JUMPDEST PUSH1 0x0 DUP1 REVERT JUMPDEST PUSH1 0x0 DUP1 REVERT JUMPDEST PUSH1 0x0 DUP1 REVERT JUMPDEST PUSH1 0x0 DUP1 REVERT JUMPDEST PUSH1 0x0 PUSH1 0x1F NOT PUSH1 0x1F DUP4 ADD AND SWAP1 POP SWAP2 SWAP1 POP JUMP JUMPDEST PUSH32 0x4E487B7100000000000000000000000000000000000000000000000000000000 PUSH1 0x0 MSTORE PUSH1 0x41 PUSH1 0x4 MSTORE PUSH1 0x24 PUSH1 0x0 REVERT JUMPDEST PUSH3 0x204 DUP3 PUSH3 0x1B9 JUMP JUMPDEST DUP2 ADD DUP2 DUP2 LT PUSH8 0xFFFFFFFFFFFFFFFF DUP3 GT OR ISZERO PUSH3 0x226 JUMPI PUSH3 0x225 PUSH3 0x1CA JUMP JUMPDEST JUMPDEST DUP1 PUSH1 0x40 MSTORE POP POP POP JUMP JUMPDEST PUSH1 0x0 PUSH3 0x23B PUSH3 0x19B JUMP JUMPDEST SWAP1 POP PUSH3 0x249 DUP3 DUP3 PUSH3 0x1F9 JUMP JUMPDEST SWAP2 SWAP1 POP JUMP JUMPDEST PUSH1 0x0 PUSH8 0xFFFFFFFFFFFFFFFF DUP3 GT ISZERO PUSH3 0x26C JUMPI PUSH3 0x26B PUSH3 0x1CA JUMP JUMPDEST JUMPDEST PUSH3 0x277 DUP3 PUSH3 0x1B9 JUMP JUMPDEST SWAP1 POP PUSH1 0x20 DUP2 ADD SWAP1 POP SWAP2 SWAP1 POP JUMP JUMPDEST PUSH1 0x0 JUMPDEST DUP4 DUP2 LT ISZERO PUSH3 0x2A4 JUMPI DUP1 DUP3 ADD MLOAD DUP2 DUP5 ADD MSTORE PUSH1 0x20 DUP2 ADD SWAP1 POP PUSH3 0x287 JUMP JUMPDEST DUP4 DUP2 GT ISZERO PUSH3 0x2B4 JUMPI PUSH1 0x0 DUP5 DUP5 ADD MSTORE JUMPDEST POP POP POP POP JUMP JUMPDEST PUSH1 0x0 PUSH3 0x2D1 PUSH3 0x2CB DUP5 PUSH3 0x24E JUMP JUMPDEST PUSH3 0x22F JUMP JUMPDEST SWAP1 POP DUP3 DUP2 MSTORE PUSH1 0x20 DUP2 ADD DUP5 DUP5 DUP5 ADD GT ISZERO PUSH3 0x2F0 JUMPI PUSH3 0x2EF PUSH3 0x1B4 JUMP JUMPDEST JUMPDEST PUSH3 0x2FD DUP5 DUP3 DUP6 PUSH3 0x284 JUMP JUMPDEST POP SWAP4 SWAP3 POP POP POP JUMP JUMPDEST PUSH1 0x0 DUP3 PUSH1 0x1F DUP4 ADD SLT PUSH3 0x31D JUMPI PUSH3 0x31C PUSH3 0x1AF JUMP JUMPDEST JUMPDEST DUP2 MLOAD PUSH3 0x32F DUP5 DUP3 PUSH1 0x20 DUP7 ADD PUSH3 0x2BA JUMP JUMPDEST SWAP2 POP POP SWAP3 SWAP2 POP POP JUMP JUMPDEST PUSH1 0x0 DUP2 SWAP1 POP SWAP2 SWAP1 POP JUMP JUMPDEST PUSH3 0x34D DUP2 PUSH3 0x338 JUMP JUMPDEST DUP2 EQ PUSH3 0x359 JUMPI PUSH1 0x0 DUP1 REVERT JUMPDEST POP JUMP JUMPDEST PUSH1 0x0 DUP2 MLOAD SWAP1 POP PUSH3 0x36D DUP2 PUSH3 0x342 JUMP JUMPDEST SWAP3 SWAP2 POP POP JUMP JUMPDEST PUSH1 0x0 PUSH20 0xFFFFFFFFFFFFFFFFFFFFFFFFFFFFFFFFFFFFFFFF DUP3 AND SWAP1 POP SWAP2 SWAP1 POP JUMP JUMPDEST PUSH1 0x0 PUSH3 0x3A0 DUP3 PUSH3 0x373 JUMP JUMPDEST SWAP1 POP SWAP2 SWAP1 POP JUMP JUMPDEST PUSH3 0x3B2 DUP2 PUSH3 0x393 JUMP JUMPDEST DUP2 EQ PUSH3 0x3BE JUMPI PUSH1 0x0 DUP1 REVERT JUMPDEST POP JUMP JUMPDEST PUSH1 0x0 DUP2 MLOAD SWAP1 POP PUSH3 0x3D2 DUP2 PUSH3 0x3A7 JUMP JUMPDEST SWAP3 SWAP2 POP POP JUMP JUMPDEST PUSH1 0x0 PUSH3 0x3E5 DUP3 PUSH3 0x373 JUMP JUMPDEST SWAP1 POP SWAP2 SWAP1 POP JUMP JUMPDEST PUSH1 0x0 PUSH3 0x3F9 DUP3 PUSH3 0x3D8 JUMP JUMPDEST SWAP1 POP SWAP2 SWAP1 POP JUMP JUMPDEST PUSH3 0x40B DUP2 PUSH3 0x3EC JUMP JUMPDEST DUP2 EQ PUSH3 0x417 JUMPI PUSH1 0x0 DUP1 REVERT JUMPDEST POP JUMP JUMPDEST PUSH1 0x0 DUP2 MLOAD SWAP1 POP PUSH3 0x42B DUP2 PUSH3 0x400 JUMP JUMPDEST SWAP3 SWAP2 POP POP JUMP JUMPDEST PUSH1 0x0 DUP1 PUSH1 0x0 DUP1 PUSH1 0x0 PUSH1 0xA0 DUP7 DUP9 SUB SLT ISZERO PUSH3 0x450 JUMPI PUSH3 0x44F PUSH3 0x1A5 JUMP JUMPDEST JUMPDEST PUSH1 0x0 DUP7 ADD MLOAD PUSH8 0xFFFFFFFFFFFFFFFF DUP2 GT ISZERO PUSH3 0x471 JUMPI PUSH3 0x470 PUSH3 0x1AA JUMP JUMPDEST JUMPDEST PUSH3 0x47F DUP9 DUP3 DUP10 ADD PUSH3 0x305 JUMP JUMPDEST SWAP6 POP POP PUSH1 0x20 PUSH3 0x492 DUP9 DUP3 DUP10 ADD PUSH3 0x35C JUMP JUMPDEST SWAP5 POP POP PUSH1 0x40 PUSH3 0x4A5 DUP9 DUP3 DUP10 ADD PUSH3 0x3C1 JUMP JUMPDEST SWAP4 POP POP PUSH1 0x60 PUSH3 0x4B8 DUP9 DUP3 DUP10 ADD PUSH3 0x41A JUMP JUMPDEST SWAP3 POP POP PUSH1 0x80 PUSH3 0x4CB DUP9 DUP3 DUP10 ADD PUSH3 0x35C JUMP JUMPDEST SWAP2 POP POP SWAP3 SWAP6 POP SWAP3 SWAP6 SWAP1 SWAP4 POP JUMP JUMPDEST PUSH32 0x4E487B7100000000000000000000000000000000000000000000000000000000 PUSH1 0x0 MSTORE PUSH1 0x22 PUSH1 0x4 MSTORE PUSH1 0x24 PUSH1 0x0 REVERT JUMPDEST PUSH1 0x0 PUSH1 0x2 DUP3 DIV SWAP1 POP PUSH1 0x1 DUP3 AND DUP1 PUSH3 0x520 JUMPI PUSH1 0x7F DUP3 AND SWAP2 POP JUMPDEST PUSH1 0x20 DUP3 LT DUP2 EQ ISZERO PUSH3 0x537 JUMPI PUSH3 0x536 PUSH3 0x4D8 JUMP JUMPDEST JUMPDEST POP SWAP2 SWAP1 POP JUMP JUMPDEST PUSH2 0x1237 DUP1 PUSH3 0x54D PUSH1 0x0 CODECOPY PUSH1 0x0 RETURN INVALID PUSH1 0x80 PUSH1 0x40 MSTORE PUSH1 0x4 CALLDATASIZE LT PUSH2 0xF3 JUMPI PUSH1 0x0 CALLDATALOAD PUSH1 0xE0 SHR DUP1 PUSH4 0x937E09B1 GT PUSH2 0x8A JUMPI DUP1 PUSH4 0xC236BB22 GT PUSH2 0x59 JUMPI DUP1 PUSH4 0xC236BB22 EQ PUSH2 0x2F8 JUMPI DUP1 PUSH4 0xD5D9CE91 EQ PUSH2 0x323 JUMPI DUP1 PUSH4 0xD7BB99BA EQ PUSH2 0x33A JUMPI DUP1 PUSH4 0xECFD8928 EQ PUSH2 0x344 JUMPI PUSH2 0xF3 JUMP JUMPDEST DUP1 PUSH4 0x937E09B1 EQ PUSH2 0x23A JUMPI DUP1 PUSH4 0xA885BD54 EQ PUSH2 0x265 JUMPI DUP1 PUSH4 0xAA8C217C EQ PUSH2 0x290 JUMPI DUP1 PUSH4 0xAD285CAD EQ PUSH2 0x2BB JUMPI PUSH2 0xF3 JUMP JUMPDEST DUP1 PUSH4 0x1F6D4942 GT PUSH2 0xC6 JUMPI DUP1 PUSH4 0x1F6D4942 EQ PUSH2 0x17C JUMPI DUP1 PUSH4 0x481C6A75 EQ PUSH2 0x1B9 JUMPI DUP1 PUSH4 0x66D003AC EQ PUSH2 0x1E4 JUMPI DUP1 PUSH4 0x7284E416 EQ PUSH2 0x20F JUMPI PUSH2 0xF3 JUMP JUMPDEST DUP1 PUSH4 0x1CF89A8 EQ PUSH2 0xF8 JUMPI DUP1 PUSH4 0x12424E3F EQ PUSH2 0x10F JUMPI DUP1 PUSH4 0x158FBA8F EQ PUSH2 0x126 JUMPI DUP1 PUSH4 0x19D40B08 EQ PUSH2 0x151 JUMPI JUMPDEST PUSH1 0x0 DUP1 REVERT JUMPDEST CALLVALUE DUP1 ISZERO PUSH2 0x104 JUMPI PUSH1 0x0 DUP1 REVERT JUMPDEST POP PUSH2 0x10D PUSH2 0x36F JUMP JUMPDEST STOP JUMPDEST CALLVALUE DUP1 ISZERO PUSH2 0x11B JUMPI PUSH1 0x0 DUP1 REVERT JUMPDEST POP PUSH2 0x124 PUSH2 0x596 JUMP JUMPDEST STOP JUMPDEST CALLVALUE DUP1 ISZERO PUSH2 0x132 JUMPI PUSH1 0x0 DUP1 REVERT JUMPDEST POP PUSH2 0x13B PUSH2 0x69E JUMP JUMPDEST PUSH1 0x40 MLOAD PUSH2 0x148 SWAP2 SWAP1 PUSH2 0xB40 JUMP JUMPDEST PUSH1 0x40 MLOAD DUP1 SWAP2 SUB SWAP1 RETURN JUMPDEST CALLVALUE DUP1 ISZERO PUSH2 0x15D JUMPI PUSH1 0x0 DUP1 REVERT JUMPDEST POP PUSH2 0x166 PUSH2 0x6B1 JUMP JUMPDEST PUSH1 0x40 MLOAD PUSH2 0x173 SWAP2 SWAP1 PUSH2 0xB40 JUMP JUMPDEST PUSH1 0x40 MLOAD DUP1 SWAP2 SUB SWAP1 RETURN JUMPDEST CALLVALUE DUP1 ISZERO PUSH2 0x188 JUMPI PUSH1 0x0 DUP1 REVERT JUMPDEST POP PUSH2 0x1A3 PUSH1 0x4 DUP1 CALLDATASIZE SUB DUP2 ADD SWAP1 PUSH2 0x19E SWAP2 SWAP1 PUSH2 0xBBE JUMP JUMPDEST PUSH2 0x6C4 JUMP JUMPDEST PUSH1 0x40 MLOAD PUSH2 0x1B0 SWAP2 SWAP1 PUSH2 0xB40 JUMP JUMPDEST PUSH1 0x40 MLOAD DUP1 SWAP2 SUB SWAP1 RETURN JUMPDEST CALLVALUE DUP1 ISZERO PUSH2 0x1C5 JUMPI PUSH1 0x0 DUP1 REVERT JUMPDEST POP PUSH2 0x1CE PUSH2 0x6E4 JUMP JUMPDEST PUSH1 0x40 MLOAD PUSH2 0x1DB SWAP2 SWAP1 PUSH2 0xC4A JUMP JUMPDEST PUSH1 0x40 MLOAD DUP1 SWAP2 SUB SWAP1 RETURN JUMPDEST CALLVALUE DUP1 ISZERO PUSH2 0x1F0 JUMPI PUSH1 0x0 DUP1 REVERT JUMPDEST POP PUSH2 0x1F9 PUSH2 0x70A JUMP JUMPDEST PUSH1 0x40 MLOAD PUSH2 0x206 SWAP2 SWAP1 PUSH2 0xC86 JUMP JUMPDEST PUSH1 0x40 MLOAD DUP1 SWAP2 SUB SWAP1 RETURN JUMPDEST CALLVALUE DUP1 ISZERO PUSH2 0x21B JUMPI PUSH1 0x0 DUP1 REVERT JUMPDEST POP PUSH2 0x224 PUSH2 0x730 JUMP JUMPDEST PUSH1 0x40 MLOAD PUSH2 0x231 SWAP2 SWAP1 PUSH2 0xD3A JUMP JUMPDEST PUSH1 0x40 MLOAD DUP1 SWAP2 SUB SWAP1 RETURN JUMPDEST CALLVALUE DUP1 ISZERO PUSH2 0x246 JUMPI PUSH1 0x0 DUP1 REVERT JUMPDEST POP PUSH2 0x24F PUSH2 0x7BE JUMP JUMPDEST PUSH1 0x40 MLOAD PUSH2 0x25C SWAP2 SWAP1 PUSH2 0xD75 JUMP JUMPDEST PUSH1 0x40 MLOAD DUP1 SWAP2 SUB SWAP1 RETURN JUMPDEST CALLVALUE DUP1 ISZERO PUSH2 0x271 JUMPI PUSH1 0x0 DUP1 REVERT JUMPDEST POP PUSH2 0x27A PUSH2 0x7C4 JUMP JUMPDEST PUSH1 0x40 MLOAD PUSH2 0x287 SWAP2 SWAP1 PUSH2 0xD75 JUMP JUMPDEST PUSH1 0x40 MLOAD DUP1 SWAP2 SUB SWAP1 RETURN JUMPDEST CALLVALUE DUP1 ISZERO PUSH2 0x29C JUMPI PUSH1 0x0 DUP1 REVERT JUMPDEST POP PUSH2 0x2A5 PUSH2 0x7CA JUMP JUMPDEST PUSH1 0x40 MLOAD PUSH2 0x2B2 SWAP2 SWAP1 PUSH2 0xD75 JUMP JUMPDEST PUSH1 0x40 MLOAD DUP1 SWAP2 SUB SWAP1 RETURN JUMPDEST CALLVALUE DUP1 ISZERO PUSH2 0x2C7 JUMPI PUSH1 0x0 DUP1 REVERT JUMPDEST POP PUSH2 0x2E2 PUSH1 0x4 DUP1 CALLDATASIZE SUB DUP2 ADD SWAP1 PUSH2 0x2DD SWAP2 SWAP1 PUSH2 0xBBE JUMP JUMPDEST PUSH2 0x7D0 JUMP JUMPDEST PUSH1 0x40 MLOAD PUSH2 0x2EF SWAP2 SWAP1 PUSH2 0xB40 JUMP JUMPDEST PUSH1 0x40 MLOAD DUP1 SWAP2 SUB SWAP1 RETURN JUMPDEST CALLVALUE DUP1 ISZERO PUSH2 0x304 JUMPI PUSH1 0x0 DUP1 REVERT JUMPDEST POP PUSH2 0x30D PUSH2 0x7F0 JUMP JUMPDEST PUSH1 0x40 MLOAD PUSH2 0x31A SWAP2 SWAP1 PUSH2 0xD75 JUMP JUMPDEST PUSH1 0x40 MLOAD DUP1 SWAP2 SUB SWAP1 RETURN JUMPDEST CALLVALUE DUP1 ISZERO PUSH2 0x32F JUMPI PUSH1 0x0 DUP1 REVERT JUMPDEST POP PUSH2 0x338 PUSH2 0x7F6 JUMP JUMPDEST STOP JUMPDEST PUSH2 0x342 PUSH2 0x8FE JUMP JUMPDEST STOP JUMPDEST CALLVALUE DUP1 ISZERO PUSH2 0x350 JUMPI PUSH1 0x0 DUP1 REVERT JUMPDEST POP PUSH2 0x359 PUSH2 0xB1F JUMP JUMPDEST PUSH1 0x40 MLOAD PUSH2 0x366 SWAP2 SWAP1 PUSH2 0xD75 JUMP JUMPDEST PUSH1 0x40 MLOAD DUP1 SWAP2 SUB SWAP1 RETURN JUMPDEST PUSH1 0x4 PUSH1 0x14 SWAP1 SLOAD SWAP1 PUSH2 0x100 EXP SWAP1 DIV PUSH1 0xFF AND ISZERO DUP1 ISZERO PUSH2 0x399 JUMPI POP PUSH1 0xA PUSH1 0x0 SWAP1 SLOAD SWAP1 PUSH2 0x100 EXP SWAP1 DIV PUSH1 0xFF AND ISZERO JUMPDEST PUSH2 0x3D8 JUMPI PUSH1 0x40 MLOAD PUSH32 0x8C379A000000000000000000000000000000000000000000000000000000000 DUP2 MSTORE PUSH1 0x4 ADD PUSH2 0x3CF SWAP1 PUSH2 0xDDC JUMP JUMPDEST PUSH1 0x40 MLOAD DUP1 SWAP2 SUB SWAP1 REVERT JUMPDEST PUSH1 0x5 PUSH1 0x0 CALLER PUSH20 0xFFFFFFFFFFFFFFFFFFFFFFFFFFFFFFFFFFFFFFFF AND PUSH20 0xFFFFFFFFFFFFFFFFFFFFFFFFFFFFFFFFFFFFFFFF AND DUP2 MSTORE PUSH1 0x20 ADD SWAP1 DUP2 MSTORE PUSH1 0x20 ADD PUSH1 0x0 KECCAK256 PUSH1 0x0 SWAP1 SLOAD SWAP1 PUSH2 0x100 EXP SWAP1 DIV PUSH1 0xFF AND PUSH2 0x464 JUMPI PUSH1 0x40 MLOAD PUSH32 0x8C379A000000000000000000000000000000000000000000000000000000000 DUP2 MSTORE PUSH1 0x4 ADD PUSH2 0x45B SWAP1 PUSH2 0xE48 JUMP JUMPDEST PUSH1 0x40 MLOAD DUP1 SWAP2 SUB SWAP1 REVERT JUMPDEST PUSH1 0x8 PUSH1 0x0 CALLER PUSH20 0xFFFFFFFFFFFFFFFFFFFFFFFFFFFFFFFFFFFFFFFF AND PUSH20 0xFFFFFFFFFFFFFFFFFFFFFFFFFFFFFFFFFFFFFFFF AND DUP2 MSTORE PUSH1 0x20 ADD SWAP1 DUP2 MSTORE PUSH1 0x20 ADD PUSH1 0x0 KECCAK256 PUSH1 0x0 SWAP1 SLOAD SWAP1 PUSH2 0x100 EXP SWAP1 DIV PUSH1 0xFF AND ISZERO PUSH2 0x4F1 JUMPI PUSH1 0x40 MLOAD PUSH32 0x8C379A000000000000000000000000000000000000000000000000000000000 DUP2 MSTORE PUSH1 0x4 ADD PUSH2 0x4E8 SWAP1 PUSH2 0xEB4 JUMP JUMPDEST PUSH1 0x40 MLOAD DUP1 SWAP2 SUB SWAP1 REVERT JUMPDEST PUSH1 0x1 PUSH1 0x8 PUSH1 0x0 CALLER PUSH20 0xFFFFFFFFFFFFFFFFFFFFFFFFFFFFFFFFFFFFFFFF AND PUSH20 0xFFFFFFFFFFFFFFFFFFFFFFFFFFFFFFFFFFFFFFFF AND DUP2 MSTORE PUSH1 0x20 ADD SWAP1 DUP2 MSTORE PUSH1 0x20 ADD PUSH1 0x0 KECCAK256 PUSH1 0x0 PUSH2 0x100 EXP DUP2 SLOAD DUP2 PUSH1 0xFF MUL NOT AND SWAP1 DUP4 ISZERO ISZERO MUL OR SWAP1 SSTORE POP PUSH1 0x9 PUSH1 0x0 DUP2 SLOAD DUP1 SWAP3 SWAP2 SWAP1 PUSH2 0x55C SWAP1 PUSH2 0xF03 JUMP JUMPDEST SWAP2 SWAP1 POP SSTORE POP PUSH1 0x0 PUSH1 0x64 PUSH1 0x6 SLOAD PUSH1 0x9 SLOAD PUSH2 0x575 SWAP2 SWAP1 PUSH2 0xF7B JUMP JUMPDEST PUSH2 0x57F SWAP2 SWAP1 PUSH2 0xFAC JUMP JUMPDEST SWAP1 POP PUSH1 0x5A DUP2 GT ISZERO PUSH2 0x593 JUMPI PUSH2 0x592 PUSH2 0x7F6 JUMP JUMPDEST JUMPDEST POP JUMP JUMPDEST PUSH1 0x4 PUSH1 0x0 SWAP1 SLOAD SWAP1 PUSH2 0x100 EXP SWAP1 DIV PUSH20 0xFFFFFFFFFFFFFFFFFFFFFFFFFFFFFFFFFFFFFFFF AND PUSH20 0xFFFFFFFFFFFFFFFFFFFFFFFFFFFFFFFFFFFFFFFF AND PUSH2 0x8FC SELFBALANCE SWAP1 DUP2 ISZERO MUL SWAP1 PUSH1 0x40 MLOAD PUSH1 0x0 PUSH1 0x40 MLOAD DUP1 DUP4 SUB DUP2 DUP6 DUP9 DUP9 CALL SWAP4 POP POP POP POP ISZERO DUP1 ISZERO PUSH2 0x5FE JUMPI RETURNDATASIZE PUSH1 0x0 DUP1 RETURNDATACOPY RETURNDATASIZE PUSH1 0x0 REVERT JUMPDEST POP PUSH1 0x1 PUSH1 0x4 PUSH1 0x14 PUSH2 0x100 EXP DUP2 SLOAD DUP2 PUSH1 0xFF MUL NOT AND SWAP1 DUP4 ISZERO ISZERO MUL OR SWAP1 SSTORE POP PUSH1 0x1 PUSH1 0x0 SWAP1 SLOAD SWAP1 PUSH2 0x100 EXP SWAP1 DIV PUSH20 0xFFFFFFFFFFFFFFFFFFFFFFFFFFFFFFFFFFFFFFFF AND PUSH20 0xFFFFFFFFFFFFFFFFFFFFFFFFFFFFFFFFFFFFFFFF AND PUSH4 0x2CFF5C5 PUSH1 0x40 MLOAD DUP2 PUSH4 0xFFFFFFFF AND PUSH1 0xE0 SHL DUP2 MSTORE PUSH1 0x4 ADD PUSH1 0x0 PUSH1 0x40 MLOAD DUP1 DUP4 SUB DUP2 PUSH1 0x0 DUP8 DUP1 EXTCODESIZE ISZERO DUP1 ISZERO PUSH2 0x684 JUMPI PUSH1 0x0 DUP1 REVERT JUMPDEST POP GAS CALL ISZERO DUP1 ISZERO PUSH2 0x698 JUMPI RETURNDATASIZE PUSH1 0x0 DUP1 RETURNDATACOPY RETURNDATASIZE PUSH1 0x0 REVERT JUMPDEST POP POP POP POP JUMP JUMPDEST PUSH1 0xA PUSH1 0x0 SWAP1 SLOAD SWAP1 PUSH2 0x100 EXP SWAP1 DIV PUSH1 0xFF AND DUP2 JUMP JUMPDEST PUSH1 0x4 PUSH1 0x14 SWAP1 SLOAD SWAP1 PUSH2 0x100 EXP SWAP1 DIV PUSH1 0xFF AND DUP2 JUMP JUMPDEST PUSH1 0x5 PUSH1 0x20 MSTORE DUP1 PUSH1 0x0 MSTORE PUSH1 0x40 PUSH1 0x0 KECCAK256 PUSH1 0x0 SWAP2 POP SLOAD SWAP1 PUSH2 0x100 EXP SWAP1 DIV PUSH1 0xFF AND DUP2 JUMP JUMPDEST PUSH1 0x1 PUSH1 0x0 SWAP1 SLOAD SWAP1 PUSH2 0x100 EXP SWAP1 DIV PUSH20 0xFFFFFFFFFFFFFFFFFFFFFFFFFFFFFFFFFFFFFFFF AND DUP2 JUMP JUMPDEST PUSH1 0x4 PUSH1 0x0 SWAP1 SLOAD SWAP1 PUSH2 0x100 EXP SWAP1 DIV PUSH20 0xFFFFFFFFFFFFFFFFFFFFFFFFFFFFFFFFFFFFFFFF AND DUP2 JUMP JUMPDEST PUSH1 0x2 DUP1 SLOAD PUSH2 0x73D SWAP1 PUSH2 0x1035 JUMP JUMPDEST DUP1 PUSH1 0x1F ADD PUSH1 0x20 DUP1 SWAP2 DIV MUL PUSH1 0x20 ADD PUSH1 0x40 MLOAD SWAP1 DUP2 ADD PUSH1 0x40 MSTORE DUP1 SWAP3 SWAP2 SWAP1 DUP2 DUP2 MSTORE PUSH1 0x20 ADD DUP3 DUP1 SLOAD PUSH2 0x769 SWAP1 PUSH2 0x1035 JUMP JUMPDEST DUP1 ISZERO PUSH2 0x7B6 JUMPI DUP1 PUSH1 0x1F LT PUSH2 0x78B JUMPI PUSH2 0x100 DUP1 DUP4 SLOAD DIV MUL DUP4 MSTORE SWAP2 PUSH1 0x20 ADD SWAP2 PUSH2 0x7B6 JUMP JUMPDEST DUP3 ADD SWAP2 SWAP1 PUSH1 0x0 MSTORE PUSH1 0x20 PUSH1 0x0 KECCAK256 SWAP1 JUMPDEST DUP2 SLOAD DUP2 MSTORE SWAP1 PUSH1 0x1 ADD SWAP1 PUSH1 0x20 ADD DUP1 DUP4 GT PUSH2 0x799 JUMPI DUP3 SWAP1 SUB PUSH1 0x1F AND DUP3 ADD SWAP2 JUMPDEST POP POP POP POP POP DUP2 JUMP JUMPDEST PUSH1 0x0 SLOAD DUP2 JUMP JUMPDEST PUSH1 0x9 SLOAD DUP2 JUMP JUMPDEST PUSH1 0x3 SLOAD DUP2 JUMP JUMPDEST PUSH1 0x8 PUSH1 0x20 MSTORE DUP1 PUSH1 0x0 MSTORE PUSH1 0x40 PUSH1 0x0 KECCAK256 PUSH1 0x0 SWAP2 POP SLOAD SWAP1 PUSH2 0x100 EXP SWAP1 DIV PUSH1 0xFF AND DUP2 JUMP JUMPDEST PUSH1 0x7 SLOAD DUP2 JUMP JUMPDEST PUSH1 0x4 PUSH1 0x14 SWAP1 SLOAD SWAP1 PUSH2 0x100 EXP SWAP1 DIV PUSH1 0xFF AND ISZERO DUP1 ISZERO PUSH2 0x820 JUMPI POP PUSH1 0xA PUSH1 0x0 SWAP1 SLOAD SWAP1 PUSH2 0x100 EXP SWAP1 DIV PUSH1 0xFF AND ISZERO JUMPDEST PUSH2 0x85F JUMPI PUSH1 0x40 MLOAD PUSH32 0x8C379A000000000000000000000000000000000000000000000000000000000 DUP2 MSTORE PUSH1 0x4 ADD PUSH2 0x856 SWAP1 PUSH2 0xDDC JUMP JUMPDEST PUSH1 0x40 MLOAD DUP1 SWAP2 SUB SWAP1 REVERT JUMPDEST PUSH1 0x1 PUSH1 0x0 SWAP1 SLOAD SWAP1 PUSH2 0x100 EXP SWAP1 DIV PUSH20 0xFFFFFFFFFFFFFFFFFFFFFFFFFFFFFFFFFFFFFFFF AND PUSH20 0xFFFFFFFFFFFFFFFFFFFFFFFFFFFFFFFFFFFFFFFF AND PUSH4 0xCB6FF4A3 PUSH1 0x40 MLOAD DUP2 PUSH4 0xFFFFFFFF AND PUSH1 0xE0 SHL DUP2 MSTORE PUSH1 0x4 ADD PUSH1 0x0 PUSH1 0x40 MLOAD DUP1 DUP4 SUB DUP2 PUSH1 0x0 DUP8 DUP1 EXTCODESIZE ISZERO DUP1 ISZERO PUSH2 0x8C9 JUMPI PUSH1 0x0 DUP1 REVERT JUMPDEST POP GAS CALL ISZERO DUP1 ISZERO PUSH2 0x8DD JUMPI RETURNDATASIZE PUSH1 0x0 DUP1 RETURNDATACOPY RETURNDATASIZE PUSH1 0x0 REVERT JUMPDEST POP POP POP POP PUSH1 0x1 PUSH1 0xA PUSH1 0x0 PUSH2 0x100 EXP DUP2 SLOAD DUP2 PUSH1 0xFF MUL NOT AND SWAP1 DUP4 ISZERO ISZERO MUL OR SWAP1 SSTORE POP JUMP JUMPDEST PUSH1 0x4 PUSH1 0x14 SWAP1 SLOAD SWAP1 PUSH2 0x100 EXP SWAP1 DIV PUSH1 0xFF AND ISZERO DUP1 ISZERO PUSH2 0x928 JUMPI POP PUSH1 0xA PUSH1 0x0 SWAP1 SLOAD SWAP1 PUSH2 0x100 EXP SWAP1 DIV PUSH1 0xFF AND ISZERO JUMPDEST PUSH2 0x967 JUMPI PUSH1 0x40 MLOAD PUSH32 0x8C379A000000000000000000000000000000000000000000000000000000000 DUP2 MSTORE PUSH1 0x4 ADD PUSH2 0x95E SWAP1 PUSH2 0xDDC JUMP JUMPDEST PUSH1 0x40 MLOAD DUP1 SWAP2 SUB SWAP1 REVERT JUMPDEST PUSH1 0x0 SLOAD CALLVALUE LT ISZERO PUSH2 0x9AC JUMPI PUSH1 0x40 MLOAD PUSH32 0x8C379A000000000000000000000000000000000000000000000000000000000 DUP2 MSTORE PUSH1 0x4 ADD PUSH2 0x9A3 SWAP1 PUSH2 0x10B3 JUMP JUMPDEST PUSH1 0x40 MLOAD DUP1 SWAP2 SUB SWAP1 REVERT JUMPDEST PUSH1 0xA PUSH1 0x0 SWAP1 SLOAD SWAP1 PUSH2 0x100 EXP SWAP1 DIV PUSH1 0xFF AND ISZERO PUSH2 0x9FC JUMPI PUSH1 0x40 MLOAD PUSH32 0x8C379A000000000000000000000000000000000000000000000000000000000 DUP2 MSTORE PUSH1 0x4 ADD PUSH2 0x9F3 SWAP1 PUSH2 0x111F JUMP JUMPDEST PUSH1 0x40 MLOAD DUP1 SWAP2 SUB SWAP1 REVERT JUMPDEST PUSH1 0x3 SLOAD PUSH1 0x7 SLOAD LT PUSH2 0xA42 JUMPI PUSH1 0x40 MLOAD PUSH32 0x8C379A000000000000000000000000000000000000000000000000000000000 DUP2 MSTORE PUSH1 0x4 ADD PUSH2 0xA39 SWAP1 PUSH2 0x118B JUMP JUMPDEST PUSH1 0x40 MLOAD DUP1 SWAP2 SUB SWAP1 REVERT JUMPDEST PUSH1 0x5 PUSH1 0x0 CALLER PUSH20 0xFFFFFFFFFFFFFFFFFFFFFFFFFFFFFFFFFFFFFFFF AND PUSH20 0xFFFFFFFFFFFFFFFFFFFFFFFFFFFFFFFFFFFFFFFF AND DUP2 MSTORE PUSH1 0x20 ADD SWAP1 DUP2 MSTORE PUSH1 0x20 ADD PUSH1 0x0 KECCAK256 PUSH1 0x0 SWAP1 SLOAD SWAP1 PUSH2 0x100 EXP SWAP1 DIV PUSH1 0xFF AND PUSH2 0xB04 JUMPI PUSH1 0x6 PUSH1 0x0 DUP2 SLOAD DUP1 SWAP3 SWAP2 SWAP1 PUSH2 0xAA6 SWAP1 PUSH2 0xF03 JUMP JUMPDEST SWAP2 SWAP1 POP SSTORE POP PUSH1 0x1 PUSH1 0x5 PUSH1 0x0 CALLER PUSH20 0xFFFFFFFFFFFFFFFFFFFFFFFFFFFFFFFFFFFFFFFF AND PUSH20 0xFFFFFFFFFFFFFFFFFFFFFFFFFFFFFFFFFFFFFFFF AND DUP2 MSTORE PUSH1 0x20 ADD SWAP1 DUP2 MSTORE PUSH1 0x20 ADD PUSH1 0x0 KECCAK256 PUSH1 0x0 PUSH2 0x100 EXP DUP2 SLOAD DUP2 PUSH1 0xFF MUL NOT AND SWAP1 DUP4 ISZERO ISZERO MUL OR SWAP1 SSTORE POP JUMPDEST CALLVALUE PUSH1 0x7 PUSH1 0x0 DUP3 DUP3 SLOAD PUSH2 0xB16 SWAP2 SWAP1 PUSH2 0x11AB JUMP JUMPDEST SWAP3 POP POP DUP2 SWAP1 SSTORE POP JUMP JUMPDEST PUSH1 0x6 SLOAD DUP2 JUMP JUMPDEST PUSH1 0x0 DUP2 ISZERO ISZERO SWAP1 POP SWAP2 SWAP1 POP JUMP JUMPDEST PUSH2 0xB3A DUP2 PUSH2 0xB25 JUMP JUMPDEST DUP3 MSTORE POP POP JUMP JUMPDEST PUSH1 0x0 PUSH1 0x20 DUP3 ADD SWAP1 POP PUSH2 0xB55 PUSH1 0x0 DUP4 ADD DUP5 PUSH2 0xB31 JUMP JUMPDEST SWAP3 SWAP2 POP POP JUMP JUMPDEST PUSH1 0x0 DUP1 REVERT JUMPDEST PUSH1 0x0 PUSH20 0xFFFFFFFFFFFFFFFFFFFFFFFFFFFFFFFFFFFFFFFF DUP3 AND SWAP1 POP SWAP2 SWAP1 POP JUMP JUMPDEST PUSH1 0x0 PUSH2 0xB8B DUP3 PUSH2 0xB60 JUMP JUMPDEST SWAP1 POP SWAP2 SWAP1 POP JUMP JUMPDEST PUSH2 0xB9B DUP2 PUSH2 0xB80 JUMP JUMPDEST DUP2 EQ PUSH2 0xBA6 JUMPI PUSH1 0x0 DUP1 REVERT JUMPDEST POP JUMP JUMPDEST PUSH1 0x0 DUP2 CALLDATALOAD SWAP1 POP PUSH2 0xBB8 DUP2 PUSH2 0xB92 JUMP JUMPDEST SWAP3 SWAP2 POP POP JUMP JUMPDEST PUSH1 0x0 PUSH1 0x20 DUP3 DUP5 SUB SLT ISZERO PUSH2 0xBD4 JUMPI PUSH2 0xBD3 PUSH2 0xB5B JUMP JUMPDEST JUMPDEST PUSH1 0x0 PUSH2 0xBE2 DUP5 DUP3 DUP6 ADD PUSH2 0xBA9 JUMP JUMPDEST SWAP2 POP POP SWAP3 SWAP2 POP POP JUMP JUMPDEST PUSH1 0x0 DUP2 SWAP1 POP SWAP2 SWAP1 POP JUMP JUMPDEST PUSH1 0x0 PUSH2 0xC10 PUSH2 0xC0B PUSH2 0xC06 DUP5 PUSH2 0xB60 JUMP JUMPDEST PUSH2 0xBEB JUMP JUMPDEST PUSH2 0xB60 JUMP JUMPDEST SWAP1 POP SWAP2 SWAP1 POP JUMP JUMPDEST PUSH1 0x0 PUSH2 0xC22 DUP3 PUSH2 0xBF5 JUMP JUMPDEST SWAP1 POP SWAP2 SWAP1 POP JUMP JUMPDEST PUSH1 0x0 PUSH2 0xC34 DUP3 PUSH2 0xC17 JUMP JUMPDEST SWAP1 POP SWAP2 SWAP1 POP JUMP JUMPDEST PUSH2 0xC44 DUP2 PUSH2 0xC29 JUMP JUMPDEST DUP3 MSTORE POP POP JUMP JUMPDEST PUSH1 0x0 PUSH1 0x20 DUP3 ADD SWAP1 POP PUSH2 0xC5F PUSH1 0x0 DUP4 ADD DUP5 PUSH2 0xC3B JUMP JUMPDEST SWAP3 SWAP2 POP POP JUMP JUMPDEST PUSH1 0x0 PUSH2 0xC70 DUP3 PUSH2 0xB60 JUMP JUMPDEST SWAP1 POP SWAP2 SWAP1 POP JUMP JUMPDEST PUSH2 0xC80 DUP2 PUSH2 0xC65 JUMP JUMPDEST DUP3 MSTORE POP POP JUMP JUMPDEST PUSH1 0x0 PUSH1 0x20 DUP3 ADD SWAP1 POP PUSH2 0xC9B PUSH1 0x0 DUP4 ADD DUP5 PUSH2 0xC77 JUMP JUMPDEST SWAP3 SWAP2 POP POP JUMP JUMPDEST PUSH1 0x0 DUP2 MLOAD SWAP1 POP SWAP2 SWAP1 POP JUMP JUMPDEST PUSH1 0x0 DUP3 DUP3 MSTORE PUSH1 0x20 DUP3 ADD SWAP1 POP SWAP3 SWAP2 POP POP JUMP JUMPDEST PUSH1 0x0 JUMPDEST DUP4 DUP2 LT ISZERO PUSH2 0xCDB JUMPI DUP1 DUP3 ADD MLOAD DUP2 DUP5 ADD MSTORE PUSH1 0x20 DUP2 ADD SWAP1 POP PUSH2 0xCC0 JUMP JUMPDEST DUP4 DUP2 GT ISZERO PUSH2 0xCEA JUMPI PUSH1 0x0 DUP5 DUP5 ADD MSTORE JUMPDEST POP POP POP POP JUMP JUMPDEST PUSH1 0x0 PUSH1 0x1F NOT PUSH1 0x1F DUP4 ADD AND SWAP1 POP SWAP2 SWAP1 POP JUMP JUMPDEST PUSH1 0x0 PUSH2 0xD0C DUP3 PUSH2 0xCA1 JUMP JUMPDEST PUSH2 0xD16 DUP2 DUP6 PUSH2 0xCAC JUMP JUMPDEST SWAP4 POP PUSH2 0xD26 DUP2 DUP6 PUSH1 0x20 DUP7 ADD PUSH2 0xCBD JUMP JUMPDEST PUSH2 0xD2F DUP2 PUSH2 0xCF0 JUMP JUMPDEST DUP5 ADD SWAP2 POP POP SWAP3 SWAP2 POP POP JUMP JUMPDEST PUSH1 0x0 PUSH1 0x20 DUP3 ADD SWAP1 POP DUP2 DUP2 SUB PUSH1 0x0 DUP4 ADD MSTORE PUSH2 0xD54 DUP2 DUP5 PUSH2 0xD01 JUMP JUMPDEST SWAP1 POP SWAP3 SWAP2 POP POP JUMP JUMPDEST PUSH1 0x0 DUP2 SWAP1 POP SWAP2 SWAP1 POP JUMP JUMPDEST PUSH2 0xD6F DUP2 PUSH2 0xD5C JUMP JUMPDEST DUP3 MSTORE POP POP JUMP JUMPDEST PUSH1 0x0 PUSH1 0x20 DUP3 ADD SWAP1 POP PUSH2 0xD8A PUSH1 0x0 DUP4 ADD DUP5 PUSH2 0xD66 JUMP JUMPDEST SWAP3 SWAP2 POP POP JUMP JUMPDEST PUSH32 0x62616E6E6564206F7220636F6D706C6574656400000000000000000000000000 PUSH1 0x0 DUP3 ADD MSTORE POP JUMP JUMPDEST PUSH1 0x0 PUSH2 0xDC6 PUSH1 0x13 DUP4 PUSH2 0xCAC JUMP JUMPDEST SWAP2 POP PUSH2 0xDD1 DUP3 PUSH2 0xD90 JUMP JUMPDEST PUSH1 0x20 DUP3 ADD SWAP1 POP SWAP2 SWAP1 POP JUMP JUMPDEST PUSH1 0x0 PUSH1 0x20 DUP3 ADD SWAP1 POP DUP2 DUP2 SUB PUSH1 0x0 DUP4 ADD MSTORE PUSH2 0xDF5 DUP2 PUSH2 0xDB9 JUMP JUMPDEST SWAP1 POP SWAP2 SWAP1 POP JUMP JUMPDEST PUSH32 0x796F7520617265206E6F74206120636F6E7472696275746F7200000000000000 PUSH1 0x0 DUP3 ADD MSTORE POP JUMP JUMPDEST PUSH1 0x0 PUSH2 0xE32 PUSH1 0x19 DUP4 PUSH2 0xCAC JUMP JUMPDEST SWAP2 POP PUSH2 0xE3D DUP3 PUSH2 0xDFC JUMP JUMPDEST PUSH1 0x20 DUP3 ADD SWAP1 POP SWAP2 SWAP1 POP JUMP JUMPDEST PUSH1 0x0 PUSH1 0x20 DUP3 ADD SWAP1 POP DUP2 DUP2 SUB PUSH1 0x0 DUP4 ADD MSTORE PUSH2 0xE61 DUP2 PUSH2 0xE25 JUMP JUMPDEST SWAP1 POP SWAP2 SWAP1 POP JUMP JUMPDEST PUSH32 0x796F75206861766520616C72656164792062616E6E6564000000000000000000 PUSH1 0x0 DUP3 ADD MSTORE POP JUMP JUMPDEST PUSH1 0x0 PUSH2 0xE9E PUSH1 0x17 DUP4 PUSH2 0xCAC JUMP JUMPDEST SWAP2 POP PUSH2 0xEA9 DUP3 PUSH2 0xE68 JUMP JUMPDEST PUSH1 0x20 DUP3 ADD SWAP1 POP SWAP2 SWAP1 POP JUMP JUMPDEST PUSH1 0x0 PUSH1 0x20 DUP3 ADD SWAP1 POP DUP2 DUP2 SUB PUSH1 0x0 DUP4 ADD MSTORE PUSH2 0xECD DUP2 PUSH2 0xE91 JUMP JUMPDEST SWAP1 POP SWAP2 SWAP1 POP JUMP JUMPDEST PUSH32 0x4E487B7100000000000000000000000000000000000000000000000000000000 PUSH1 0x0 MSTORE PUSH1 0x11 PUSH1 0x4 MSTORE PUSH1 0x24 PUSH1 0x0 REVERT JUMPDEST PUSH1 0x0 PUSH2 0xF0E DUP3 PUSH2 0xD5C JUMP JUMPDEST SWAP2 POP PUSH32 0xFFFFFFFFFFFFFFFFFFFFFFFFFFFFFFFFFFFFFFFFFFFFFFFFFFFFFFFFFFFFFFFF DUP3 EQ ISZERO PUSH2 0xF41 JUMPI PUSH2 0xF40 PUSH2 0xED4 JUMP JUMPDEST JUMPDEST PUSH1 0x1 DUP3 ADD SWAP1 POP SWAP2 SWAP1 POP JUMP JUMPDEST PUSH32 0x4E487B7100000000000000000000000000000000000000000000000000000000 PUSH1 0x0 MSTORE PUSH1 0x12 PUSH1 0x4 MSTORE PUSH1 0x24 PUSH1 0x0 REVERT JUMPDEST PUSH1 0x0 PUSH2 0xF86 DUP3 PUSH2 0xD5C JUMP JUMPDEST SWAP2 POP PUSH2 0xF91 DUP4 PUSH2 0xD5C JUMP JUMPDEST SWAP3 POP DUP3 PUSH2 0xFA1 JUMPI PUSH2 0xFA0 PUSH2 0xF4C JUMP JUMPDEST JUMPDEST DUP3 DUP3 DIV SWAP1 POP SWAP3 SWAP2 POP POP JUMP JUMPDEST PUSH1 0x0 PUSH2 0xFB7 DUP3 PUSH2 0xD5C JUMP JUMPDEST SWAP2 POP PUSH2 0xFC2 DUP4 PUSH2 0xD5C JUMP JUMPDEST SWAP3 POP DUP2 PUSH32 0xFFFFFFFFFFFFFFFFFFFFFFFFFFFFFFFFFFFFFFFFFFFFFFFFFFFFFFFFFFFFFFFF DIV DUP4 GT DUP3 ISZERO ISZERO AND ISZERO PUSH2 0xFFB JUMPI PUSH2 0xFFA PUSH2 0xED4 JUMP JUMPDEST JUMPDEST DUP3 DUP3 MUL SWAP1 POP SWAP3 SWAP2 POP POP JUMP JUMPDEST PUSH32 0x4E487B7100000000000000000000000000000000000000000000000000000000 PUSH1 0x0 MSTORE PUSH1 0x22 PUSH1 0x4 MSTORE PUSH1 0x24 PUSH1 0x0 REVERT JUMPDEST PUSH1 0x0 PUSH1 0x2 DUP3 DIV SWAP1 POP PUSH1 0x1 DUP3 AND DUP1 PUSH2 0x104D JUMPI PUSH1 0x7F DUP3 AND SWAP2 POP JUMPDEST PUSH1 0x20 DUP3 LT DUP2 EQ ISZERO PUSH2 0x1061 JUMPI PUSH2 0x1060 PUSH2 0x1006 JUMP JUMPDEST JUMPDEST POP SWAP2 SWAP1 POP JUMP JUMPDEST PUSH32 0x6C65737320616D6F756E7420646F6E6174656400000000000000000000000000 PUSH1 0x0 DUP3 ADD MSTORE POP JUMP JUMPDEST PUSH1 0x0 PUSH2 0x109D PUSH1 0x13 DUP4 PUSH2 0xCAC JUMP JUMPDEST SWAP2 POP PUSH2 0x10A8 DUP3 PUSH2 0x1067 JUMP JUMPDEST PUSH1 0x20 DUP3 ADD SWAP1 POP SWAP2 SWAP1 POP JUMP JUMPDEST PUSH1 0x0 PUSH1 0x20 DUP3 ADD SWAP1 POP DUP2 DUP2 SUB PUSH1 0x0 DUP4 ADD MSTORE PUSH2 0x10CC DUP2 PUSH2 0x1090 JUMP JUMPDEST SWAP1 POP SWAP2 SWAP1 POP JUMP JUMPDEST PUSH32 0x63616E277420646F6E61746520746F2062616E6E656420726571756573740000 PUSH1 0x0 DUP3 ADD MSTORE POP JUMP JUMPDEST PUSH1 0x0 PUSH2 0x1109 PUSH1 0x1E DUP4 PUSH2 0xCAC JUMP JUMPDEST SWAP2 POP PUSH2 0x1114 DUP3 PUSH2 0x10D3 JUMP JUMPDEST PUSH1 0x20 DUP3 ADD SWAP1 POP SWAP2 SWAP1 POP JUMP JUMPDEST PUSH1 0x0 PUSH1 0x20 DUP3 ADD SWAP1 POP DUP2 DUP2 SUB PUSH1 0x0 DUP4 ADD MSTORE PUSH2 0x1138 DUP2 PUSH2 0x10FC JUMP JUMPDEST SWAP1 POP SWAP2 SWAP1 POP JUMP JUMPDEST PUSH32 0x676F616C20616D6F756E74207265616368656400000000000000000000000000 PUSH1 0x0 DUP3 ADD MSTORE POP JUMP JUMPDEST PUSH1 0x0 PUSH2 0x1175 PUSH1 0x13 DUP4 PUSH2 0xCAC JUMP JUMPDEST SWAP2 POP PUSH2 0x1180 DUP3 PUSH2 0x113F JUMP JUMPDEST PUSH1 0x20 DUP3 ADD SWAP1 POP SWAP2 SWAP1 POP JUMP JUMPDEST PUSH1 0x0 PUSH1 0x20 DUP3 ADD SWAP1 POP DUP2 DUP2 SUB PUSH1 0x0 DUP4 ADD MSTORE PUSH2 0x11A4 DUP2 PUSH2 0x1168 JUMP JUMPDEST SWAP1 POP SWAP2 SWAP1 POP JUMP JUMPDEST PUSH1 0x0 PUSH2 0x11B6 DUP3 PUSH2 0xD5C JUMP JUMPDEST SWAP2 POP PUSH2 0x11C1 DUP4 PUSH2 0xD5C JUMP JUMPDEST SWAP3 POP DUP3 PUSH32 0xFFFFFFFFFFFFFFFFFFFFFFFFFFFFFFFFFFFFFFFFFFFFFFFFFFFFFFFFFFFFFFFF SUB DUP3 GT ISZERO PUSH2 0x11F6 JUMPI PUSH2 0x11F5 PUSH2 0xED4 JUMP JUMPDEST JUMPDEST DUP3 DUP3 ADD SWAP1 POP SWAP3 SWAP2 POP POP JUMP INVALID LOG2 PUSH5 0x6970667358 0x22 SLT KECCAK256 PUSH26 0x8FACAA5D6B94D4EC78CC454FF943FFD581DDC221ED14B6FB095E PUSH17 0xAF6CDE4F64736F6C634300080B0033A264 PUSH10 0x70667358221220582704 PUSH10 0xEBA84B2D92CDDC50395A 0xEF DUP12 DUP12 OR 0xE7 DUP12 CREATE2 CALLVALUE NUMBER STOP SLT 0xE9 ADDRESS DUP9 PUSH5 0x9ADA156473 PUSH16 0x6C634300080B00330000000000000000 "},"gasEstimates":{"creation":{"codeDepositCost":"1848000","executionCost":"infinite","totalCost":"infinite"},"external":{"addNewRequest(string,uint256,address,uint256)":"infinite","managerFactory()":"2555","requests(uint256)":"infinite","requestsSize()":"2467"}},"methodIdentifiers":{"addNewRequest(string,uint256,address,uint256)":"552ef0ac","managerFactory()":"d9398c73","requests(uint256)":"81d12c58","requestsSize()":"a2ae2dbe"}},"storageLayout":{"storage":[{"astId":205,"contract":"Funding.sol:RequestFactory","label":"managerFactory","offset":0,"slot":"0","type":"t_address"},{"astId":209,"contract":"Funding.sol:RequestFactory","label":"requests","offset":0,"slot":"1","type":"t_array(t_contract(Request)514)dyn_storage"}],"types":{"t_address":{"encoding":"inplace","label":"address","numberOfBytes":"20"},"t_array(t_contract(Request)514)dyn_storage":{"base":"t_contract(Request)514","encoding":"dynamic_array","label":"contract Request[]","numberOfBytes":"32"},"t_contract(Request)514":{"encoding":"inplace","label":"contract Request","numberOfBytes":"20"}}},"userdoc":{"kind":"user","methods":{},"version":1}}